{
	"data": {
		"bytecode": {
			"linkReferences": {},
			"object": "60a060405234801561000f575f80fd5b503373ffffffffffffffffffffffffffffffffffffffff1660808173ffffffffffffffffffffffffffffffffffffffff16815250506080516119a961005c5f395f61098401526119a95ff3fe608060405234801561000f575f80fd5b5060043610610086575f3560e01c8063b93bc41511610059578063b93bc415146100fc578063c31c9c071461011a578063de63a93514610138578063f77c47911461016857610086565b8063501f5dbe1461008a5780636bbb194b146100a65780638f558189146100c4578063a6d7f530146100e0575b5f80fd5b6100a4600480360381019061009f9190610ef3565b610186565b005b6100ae61044f565b6040516100bb9190610fd7565b60405180910390f35b6100de60048036038101906100d99190611023565b610467565b005b6100fa60048036038101906100f591906110c0565b61059d565b005b610104610788565b6040516101119190611169565b60405180910390f35b6101226107a0565b60405161012f91906111a2565b60405180910390f35b610152600480360381019061014d91906111bb565b6107b8565b60405161015f9190611267565b60405180910390f35b610170610982565b60405161017d919061128f565b60405180910390f35b8473ffffffffffffffffffffffffffffffffffffffff168673ffffffffffffffffffffffffffffffffffffffff16146101cc576101cb85873084610bb86127106109a6565b5b5f8673ffffffffffffffffffffffffffffffffffffffff166370a08231306040518263ffffffff1660e01b8152600401610206919061128f565b602060405180830381865afa158015610221573d5f803e3d5ffd5b505050506040513d601f19601f8201168201806040525081019061024591906112bc565b90505f73ffffffffffffffffffffffffffffffffffffffff16817f75bcec5ba6a2febb176c494c16fef3f009bf87d476335ab48b702384710481c960405161028c90611341565b60405180910390a36102d38773f25212e676d1f7f89cd72ffee66158f5412464457fffffffffffffffffffffffffffffffffffffffffffffffffffffffffffffffff610b8d565b73f25212e676d1f7f89cd72ffee66158f54124644573ffffffffffffffffffffffffffffffffffffffff16634232cd6330898a73ffffffffffffffffffffffffffffffffffffffff166370a08231306040518263ffffffff1660e01b815260040161033e919061128f565b602060405180830381865afa158015610359573d5f803e3d5ffd5b505050506040513d601f19601f8201168201806040525081019061037d91906112bc565b6040518463ffffffff1660e01b815260040161039b9392919061136e565b5f604051808303815f87803b1580156103b2575f80fd5b505af11580156103c4573d5f803e3d5ffd5b5050505073f25212e676d1f7f89cd72ffee66158f54124644573ffffffffffffffffffffffffffffffffffffffff1663c3b35a7e8686866040518463ffffffff1660e01b81526004016104199392919061136e565b5f604051808303815f87803b158015610430575f80fd5b505af1158015610442573d5f803e3d5ffd5b5050505050505050505050565b73f25212e676d1f7f89cd72ffee66158f54124644581565b610486867317dad892347803551ceee2d377d010034df6434785610b8d565b7317dad892347803551ceee2d377d010034df6434773ffffffffffffffffffffffffffffffffffffffff16638dee9460888486306040518563ffffffff1660e01b81526004016104d994939291906113c3565b5f604051808303815f87803b1580156104f0575f80fd5b505af1158015610502573d5f803e3d5ffd5b505050505f82121561051b578161051890611433565b91505b3373ffffffffffffffffffffffffffffffffffffffff168473ffffffffffffffffffffffffffffffffffffffff167f5c06a1aaf5c5275372ca9abaf754ad6a6887f107a8e8f557854f7cc8fb06327c844260405161057a929190611479565b60405180910390a361059484868385610bb86127106109a6565b50505050505050565b6106538673ffffffffffffffffffffffffffffffffffffffff166370a08231306040518263ffffffff1660e01b81526004016105d9919061128f565b602060405180830381865afa1580156105f4573d5f803e3d5ffd5b505050506040513d601f19601f8201168201806040525081019061061891906112bc565b6040518060400160405280601181526020017f62616c616e6365206f6620737570706c79000000000000000000000000000000815250610cdc565b6106728673f25212e676d1f7f89cd72ffee66158f54124644585610b8d565b73f25212e676d1f7f89cd72ffee66158f54124644573ffffffffffffffffffffffffffffffffffffffff16634232cd633088866040518463ffffffff1660e01b81526004016106c39392919061136e565b5f604051808303815f87803b1580156106da575f80fd5b505af11580156106ec573d5f803e3d5ffd5b5050505073f25212e676d1f7f89cd72ffee66158f54124644573ffffffffffffffffffffffffffffffffffffffff1663c3b35a7e3087856040518463ffffffff1660e01b81526004016107419392919061136e565b5f604051808303815f87803b158015610758575f80fd5b505af115801561076a573d5f803e3d5ffd5b5050505061078085858385610bb86127106109a6565b505050505050565b7317dad892347803551ceee2d377d010034df6434781565b73e592427a0aece92de3edee1f18e0157c0586156481565b5f8673ffffffffffffffffffffffffffffffffffffffff168673ffffffffffffffffffffffffffffffffffffffff1614610814575f82121561080157816107fe90611433565b90505b61081387878784610bb86127106109a6565b5b610853867317dad892347803551ceee2d377d010034df643477fffffffffffffffffffffffffffffffffffffffffffffffffffffffffffffffff610b8d565b7317dad892347803551ceee2d377d010034df6434773ffffffffffffffffffffffffffffffffffffffff1663826265478984886040518463ffffffff1660e01b81526004016108a4939291906114a0565b6020604051808303815f875af11580156108c0573d5f803e3d5ffd5b505050506040513d601f19601f820116820180604052508101906108e491906114e9565b507317dad892347803551ceee2d377d010034df6434773ffffffffffffffffffffffffffffffffffffffff166399cd69d18585886040518463ffffffff1660e01b815260040161093693929190611514565b6020604051808303815f875af1158015610952573d5f803e3d5ffd5b505050506040513d601f19601f8201168201806040525081019061097691906114e9565b50979650505050505050565b7f000000000000000000000000000000000000000000000000000000000000000081565b6109c58673e592427a0aece92de3edee1f18e0157c0586156485610b8d565b5f6040518060a001604052808885730d500b1d8e8ef31e21c99d1db9a6444d3adf1270868b6040516020016109fe9594939291906115d0565b60405160208183030381529060405281526020018673ffffffffffffffffffffffffffffffffffffffff1681526020014281526020018581526020015f815250905073e592427a0aece92de3edee1f18e0157c0586156473ffffffffffffffffffffffffffffffffffffffff1663c04b8d59826040518263ffffffff1660e01b8152600401610a8d9190611749565b6020604051808303815f875af1158015610aa9573d5f803e3d5ffd5b505050506040513d601f19601f82011682018060405250810190610acd91906112bc565b50610b846040518060400160405280600781526020017f73776170706564000000000000000000000000000000000000000000000000008152508773ffffffffffffffffffffffffffffffffffffffff166370a08231886040518263ffffffff1660e01b8152600401610b40919061128f565b602060405180830381865afa158015610b5b573d5f803e3d5ffd5b505050506040513d601f19601f82011682018060405250810190610b7f91906112bc565b610d78565b50505050505050565b5f808473ffffffffffffffffffffffffffffffffffffffff1663095ea7b360e01b8585604051602401610bc1929190611769565b604051602081830303815290604052907bffffffffffffffffffffffffffffffffffffffffffffffffffffffff19166020820180517bffffffffffffffffffffffffffffffffffffffffffffffffffffffff8381831617835250505050604051610c2b91906117ca565b5f604051808303815f865af19150503d805f8114610c64576040519150601f19603f3d011682016040523d82523d5f602084013e610c69565b606091505b5091509150818015610c9657505f81511480610c95575080806020019051810190610c949190611815565b5b5b610cd5576040517f08c379a0000000000000000000000000000000000000000000000000000000008152600401610ccc9061188a565b60405180910390fd5b5050505050565b610d748282604051602401610cf29291906118ea565b6040516020818303038152906040527f643fd0df000000000000000000000000000000000000000000000000000000007bffffffffffffffffffffffffffffffffffffffffffffffffffffffff19166020820180517bffffffffffffffffffffffffffffffffffffffffffffffffffffffff8381831617835250505050610e14565b5050565b610e108282604051602401610d8e929190611918565b6040516020818303038152906040527fb60e72cc000000000000000000000000000000000000000000000000000000007bffffffffffffffffffffffffffffffffffffffffffffffffffffffff19166020820180517bffffffffffffffffffffffffffffffffffffffffffffffffffffffff8381831617835250505050610e14565b5050565b610e2b81610e23610e2e610e4d565b63ffffffff16565b50565b5f6a636f6e736f6c652e6c6f6790505f80835160208501845afa505050565b610e58819050919050565b610e60611946565b565b5f80fd5b5f73ffffffffffffffffffffffffffffffffffffffff82169050919050565b5f610e8f82610e66565b9050919050565b610e9f81610e85565b8114610ea9575f80fd5b50565b5f81359050610eba81610e96565b92915050565b5f819050919050565b610ed281610ec0565b8114610edc575f80fd5b50565b5f81359050610eed81610ec9565b92915050565b5f805f805f8060c08789031215610f0d57610f0c610e62565b5b5f610f1a89828a01610eac565b9650506020610f2b89828a01610eac565b9550506040610f3c89828a01610eac565b9450506060610f4d89828a01610eac565b9350506080610f5e89828a01610edf565b92505060a0610f6f89828a01610edf565b9150509295509295509295565b5f819050919050565b5f610f9f610f9a610f9584610e66565b610f7c565b610e66565b9050919050565b5f610fb082610f85565b9050919050565b5f610fc182610fa6565b9050919050565b610fd181610fb7565b82525050565b5f602082019050610fea5f830184610fc8565b92915050565b5f819050919050565b61100281610ff0565b811461100c575f80fd5b50565b5f8135905061101d81610ff9565b92915050565b5f805f805f805f60e0888a03121561103e5761103d610e62565b5b5f61104b8a828b01610eac565b975050602061105c8a828b01610eac565b965050604061106d8a828b01610eac565b955050606061107e8a828b01610eac565b945050608061108f8a828b01610edf565b93505060a06110a08a828b0161100f565b92505060c06110b18a828b01610eac565b91505092959891949750929550565b5f805f805f8060c087890312156110da576110d9610e62565b5b5f6110e789828a01610eac565b96505060206110f889828a01610eac565b955050604061110989828a01610eac565b945050606061111a89828a01610edf565b935050608061112b89828a01610edf565b92505060a061113c89828a01610eac565b9150509295509295509295565b5f61115382610fa6565b9050919050565b61116381611149565b82525050565b5f60208201905061117c5f83018461115a565b92915050565b5f61118c82610fa6565b9050919050565b61119c81611182565b82525050565b5f6020820190506111b55f830184611193565b92915050565b5f805f805f805f60e0888a0312156111d6576111d5610e62565b5b5f6111e38a828b01610eac565b97505060206111f48a828b01610eac565b96505060406112058a828b01610eac565b95505060606112168a828b01610eac565b94505060806112278a828b01610edf565b93505060a06112388a828b0161100f565b92505060c06112498a828b0161100f565b91505092959891949750929550565b61126181610ff0565b82525050565b5f60208201905061127a5f830184611258565b92915050565b61128981610e85565b82525050565b5f6020820190506112a25f830184611280565b92915050565b5f815190506112b681610ec9565b92915050565b5f602082840312156112d1576112d0610e62565b5b5f6112de848285016112a8565b91505092915050565b5f82825260208201905092915050565b7f737761707065642062616c206f6e2070726f78790000000000000000000000005f82015250565b5f61132b6014836112e7565b9150611336826112f7565b602082019050919050565b5f6020820190508181035f8301526113588161131f565b9050919050565b61136881610ec0565b82525050565b5f6060820190506113815f830186611280565b61138e6020830185611280565b61139b604083018461135f565b949350505050565b5f6113ad82610e66565b9050919050565b6113bd816113a3565b82525050565b5f6080820190506113d65f830187611280565b6113e36020830186611258565b6113f0604083018561135f565b6113fd60608301846113b4565b95945050505050565b7f4e487b71000000000000000000000000000000000000000000000000000000005f52601160045260245ffd5b5f61143d82610ff0565b91507f8000000000000000000000000000000000000000000000000000000000000000820361146f5761146e611406565b5b815f039050919050565b5f60408201905061148c5f830185611258565b611499602083018461135f565b9392505050565b5f6060820190506114b35f830186611280565b6114c06020830185611258565b6114cd6040830184611280565b949350505050565b5f815190506114e381610ff9565b92915050565b5f602082840312156114fe576114fd610e62565b5b5f61150b848285016114d5565b91505092915050565b5f6060820190506115275f83018661135f565b6115346020830185611258565b6115416040830184611280565b949350505050565b5f8160601b9050919050565b5f61155f82611549565b9050919050565b5f61157082611555565b9050919050565b61158861158382610e85565b611566565b82525050565b5f62ffffff82169050919050565b5f8160e81b9050919050565b5f6115b28261159c565b9050919050565b6115ca6115c58261158e565b6115a8565b82525050565b5f6115db8288611577565b6014820191506115eb82876115b9565b6003820191506115fb8286611577565b60148201915061160b82856115b9565b60038201915061161b8284611577565b6014820191508190509695505050505050565b5f81519050919050565b5f82825260208201905092915050565b5f5b8381101561166557808201518184015260208101905061164a565b5f8484015250505050565b5f601f19601f8301169050919050565b5f61168a8261162e565b6116948185611638565b93506116a4818560208601611648565b6116ad81611670565b840191505092915050565b6116c181610e85565b82525050565b6116d081610ec0565b82525050565b5f60a083015f8301518482035f8601526116f08282611680565b915050602083015161170560208601826116b8565b50604083015161171860408601826116c7565b50606083015161172b60608601826116c7565b50608083015161173e60808601826116c7565b508091505092915050565b5f6020820190508181035f83015261176181846116d6565b905092915050565b5f60408201905061177c5f830185611280565b611789602083018461135f565b9392505050565b5f81905092915050565b5f6117a48261162e565b6117ae8185611790565b93506117be818560208601611648565b80840191505092915050565b5f6117d5828461179a565b915081905092915050565b5f8115159050919050565b6117f4816117e0565b81146117fe575f80fd5b50565b5f8151905061180f816117eb565b92915050565b5f6020828403121561182a57611829610e62565b5b5f61183784828501611801565b91505092915050565b7f53410000000000000000000000000000000000000000000000000000000000005f82015250565b5f6118746002836112e7565b915061187f82611840565b602082019050919050565b5f6020820190508181035f8301526118a181611868565b9050919050565b5f81519050919050565b5f6118bc826118a8565b6118c681856112e7565b93506118d6818560208601611648565b6118df81611670565b840191505092915050565b5f6040820190506118fd5f83018561135f565b818103602083015261190f81846118b2565b90509392505050565b5f6040820190508181035f83015261193081856118b2565b905061193f602083018461135f565b9392505050565b7f4e487b71000000000000000000000000000000000000000000000000000000005f52605160045260245ffdfea26469706673582212206e77468a4e2a994fd827702e450ac7db3a5526e93e59578a009fef107616f8ed64736f6c63430008140033",
			"opcodes": "PUSH1 0xA0 PUSH1 0x40 MSTORE CALLVALUE DUP1 ISZERO PUSH2 0xF JUMPI PUSH0 DUP1 REVERT JUMPDEST POP CALLER PUSH20 0xFFFFFFFFFFFFFFFFFFFFFFFFFFFFFFFFFFFFFFFF AND PUSH1 0x80 DUP2 PUSH20 0xFFFFFFFFFFFFFFFFFFFFFFFFFFFFFFFFFFFFFFFF AND DUP2 MSTORE POP POP PUSH1 0x80 MLOAD PUSH2 0x19A9 PUSH2 0x5C PUSH0 CODECOPY PUSH0 PUSH2 0x984 ADD MSTORE PUSH2 0x19A9 PUSH0 RETURN INVALID PUSH1 0x80 PUSH1 0x40 MSTORE CALLVALUE DUP1 ISZERO PUSH2 0xF JUMPI PUSH0 DUP1 REVERT JUMPDEST POP PUSH1 0x4 CALLDATASIZE LT PUSH2 0x86 JUMPI PUSH0 CALLDATALOAD PUSH1 0xE0 SHR DUP1 PUSH4 0xB93BC415 GT PUSH2 0x59 JUMPI DUP1 PUSH4 0xB93BC415 EQ PUSH2 0xFC JUMPI DUP1 PUSH4 0xC31C9C07 EQ PUSH2 0x11A JUMPI DUP1 PUSH4 0xDE63A935 EQ PUSH2 0x138 JUMPI DUP1 PUSH4 0xF77C4791 EQ PUSH2 0x168 JUMPI PUSH2 0x86 JUMP JUMPDEST DUP1 PUSH4 0x501F5DBE EQ PUSH2 0x8A JUMPI DUP1 PUSH4 0x6BBB194B EQ PUSH2 0xA6 JUMPI DUP1 PUSH4 0x8F558189 EQ PUSH2 0xC4 JUMPI DUP1 PUSH4 0xA6D7F530 EQ PUSH2 0xE0 JUMPI JUMPDEST PUSH0 DUP1 REVERT JUMPDEST PUSH2 0xA4 PUSH1 0x4 DUP1 CALLDATASIZE SUB DUP2 ADD SWAP1 PUSH2 0x9F SWAP2 SWAP1 PUSH2 0xEF3 JUMP JUMPDEST PUSH2 0x186 JUMP JUMPDEST STOP JUMPDEST PUSH2 0xAE PUSH2 0x44F JUMP JUMPDEST PUSH1 0x40 MLOAD PUSH2 0xBB SWAP2 SWAP1 PUSH2 0xFD7 JUMP JUMPDEST PUSH1 0x40 MLOAD DUP1 SWAP2 SUB SWAP1 RETURN JUMPDEST PUSH2 0xDE PUSH1 0x4 DUP1 CALLDATASIZE SUB DUP2 ADD SWAP1 PUSH2 0xD9 SWAP2 SWAP1 PUSH2 0x1023 JUMP JUMPDEST PUSH2 0x467 JUMP JUMPDEST STOP JUMPDEST PUSH2 0xFA PUSH1 0x4 DUP1 CALLDATASIZE SUB DUP2 ADD SWAP1 PUSH2 0xF5 SWAP2 SWAP1 PUSH2 0x10C0 JUMP JUMPDEST PUSH2 0x59D JUMP JUMPDEST STOP JUMPDEST PUSH2 0x104 PUSH2 0x788 JUMP JUMPDEST PUSH1 0x40 MLOAD PUSH2 0x111 SWAP2 SWAP1 PUSH2 0x1169 JUMP JUMPDEST PUSH1 0x40 MLOAD DUP1 SWAP2 SUB SWAP1 RETURN JUMPDEST PUSH2 0x122 PUSH2 0x7A0 JUMP JUMPDEST PUSH1 0x40 MLOAD PUSH2 0x12F SWAP2 SWAP1 PUSH2 0x11A2 JUMP JUMPDEST PUSH1 0x40 MLOAD DUP1 SWAP2 SUB SWAP1 RETURN JUMPDEST PUSH2 0x152 PUSH1 0x4 DUP1 CALLDATASIZE SUB DUP2 ADD SWAP1 PUSH2 0x14D SWAP2 SWAP1 PUSH2 0x11BB JUMP JUMPDEST PUSH2 0x7B8 JUMP JUMPDEST PUSH1 0x40 MLOAD PUSH2 0x15F SWAP2 SWAP1 PUSH2 0x1267 JUMP JUMPDEST PUSH1 0x40 MLOAD DUP1 SWAP2 SUB SWAP1 RETURN JUMPDEST PUSH2 0x170 PUSH2 0x982 JUMP JUMPDEST PUSH1 0x40 MLOAD PUSH2 0x17D SWAP2 SWAP1 PUSH2 0x128F JUMP JUMPDEST PUSH1 0x40 MLOAD DUP1 SWAP2 SUB SWAP1 RETURN JUMPDEST DUP5 PUSH20 0xFFFFFFFFFFFFFFFFFFFFFFFFFFFFFFFFFFFFFFFF AND DUP7 PUSH20 0xFFFFFFFFFFFFFFFFFFFFFFFFFFFFFFFFFFFFFFFF AND EQ PUSH2 0x1CC JUMPI PUSH2 0x1CB DUP6 DUP8 ADDRESS DUP5 PUSH2 0xBB8 PUSH2 0x2710 PUSH2 0x9A6 JUMP JUMPDEST JUMPDEST PUSH0 DUP7 PUSH20 0xFFFFFFFFFFFFFFFFFFFFFFFFFFFFFFFFFFFFFFFF AND PUSH4 0x70A08231 ADDRESS PUSH1 0x40 MLOAD DUP3 PUSH4 0xFFFFFFFF AND PUSH1 0xE0 SHL DUP2 MSTORE PUSH1 0x4 ADD PUSH2 0x206 SWAP2 SWAP1 PUSH2 0x128F JUMP JUMPDEST PUSH1 0x20 PUSH1 0x40 MLOAD DUP1 DUP4 SUB DUP2 DUP7 GAS STATICCALL ISZERO DUP1 ISZERO PUSH2 0x221 JUMPI RETURNDATASIZE PUSH0 DUP1 RETURNDATACOPY RETURNDATASIZE PUSH0 REVERT JUMPDEST POP POP POP POP PUSH1 0x40 MLOAD RETURNDATASIZE PUSH1 0x1F NOT PUSH1 0x1F DUP3 ADD AND DUP3 ADD DUP1 PUSH1 0x40 MSTORE POP DUP2 ADD SWAP1 PUSH2 0x245 SWAP2 SWAP1 PUSH2 0x12BC JUMP JUMPDEST SWAP1 POP PUSH0 PUSH20 0xFFFFFFFFFFFFFFFFFFFFFFFFFFFFFFFFFFFFFFFF AND DUP2 PUSH32 0x75BCEC5BA6A2FEBB176C494C16FEF3F009BF87D476335AB48B702384710481C9 PUSH1 0x40 MLOAD PUSH2 0x28C SWAP1 PUSH2 0x1341 JUMP JUMPDEST PUSH1 0x40 MLOAD DUP1 SWAP2 SUB SWAP1 LOG3 PUSH2 0x2D3 DUP8 PUSH20 0xF25212E676D1F7F89CD72FFEE66158F541246445 PUSH32 0xFFFFFFFFFFFFFFFFFFFFFFFFFFFFFFFFFFFFFFFFFFFFFFFFFFFFFFFFFFFFFFFF PUSH2 0xB8D JUMP JUMPDEST PUSH20 0xF25212E676D1F7F89CD72FFEE66158F541246445 PUSH20 0xFFFFFFFFFFFFFFFFFFFFFFFFFFFFFFFFFFFFFFFF AND PUSH4 0x4232CD63 ADDRESS DUP10 DUP11 PUSH20 0xFFFFFFFFFFFFFFFFFFFFFFFFFFFFFFFFFFFFFFFF AND PUSH4 0x70A08231 ADDRESS PUSH1 0x40 MLOAD DUP3 PUSH4 0xFFFFFFFF AND PUSH1 0xE0 SHL DUP2 MSTORE PUSH1 0x4 ADD PUSH2 0x33E SWAP2 SWAP1 PUSH2 0x128F JUMP JUMPDEST PUSH1 0x20 PUSH1 0x40 MLOAD DUP1 DUP4 SUB DUP2 DUP7 GAS STATICCALL ISZERO DUP1 ISZERO PUSH2 0x359 JUMPI RETURNDATASIZE PUSH0 DUP1 RETURNDATACOPY RETURNDATASIZE PUSH0 REVERT JUMPDEST POP POP POP POP PUSH1 0x40 MLOAD RETURNDATASIZE PUSH1 0x1F NOT PUSH1 0x1F DUP3 ADD AND DUP3 ADD DUP1 PUSH1 0x40 MSTORE POP DUP2 ADD SWAP1 PUSH2 0x37D SWAP2 SWAP1 PUSH2 0x12BC JUMP JUMPDEST PUSH1 0x40 MLOAD DUP5 PUSH4 0xFFFFFFFF AND PUSH1 0xE0 SHL DUP2 MSTORE PUSH1 0x4 ADD PUSH2 0x39B SWAP4 SWAP3 SWAP2 SWAP1 PUSH2 0x136E JUMP JUMPDEST PUSH0 PUSH1 0x40 MLOAD DUP1 DUP4 SUB DUP2 PUSH0 DUP8 DUP1 EXTCODESIZE ISZERO DUP1 ISZERO PUSH2 0x3B2 JUMPI PUSH0 DUP1 REVERT JUMPDEST POP GAS CALL ISZERO DUP1 ISZERO PUSH2 0x3C4 JUMPI RETURNDATASIZE PUSH0 DUP1 RETURNDATACOPY RETURNDATASIZE PUSH0 REVERT JUMPDEST POP POP POP POP PUSH20 0xF25212E676D1F7F89CD72FFEE66158F541246445 PUSH20 0xFFFFFFFFFFFFFFFFFFFFFFFFFFFFFFFFFFFFFFFF AND PUSH4 0xC3B35A7E DUP7 DUP7 DUP7 PUSH1 0x40 MLOAD DUP5 PUSH4 0xFFFFFFFF AND PUSH1 0xE0 SHL DUP2 MSTORE PUSH1 0x4 ADD PUSH2 0x419 SWAP4 SWAP3 SWAP2 SWAP1 PUSH2 0x136E JUMP JUMPDEST PUSH0 PUSH1 0x40 MLOAD DUP1 DUP4 SUB DUP2 PUSH0 DUP8 DUP1 EXTCODESIZE ISZERO DUP1 ISZERO PUSH2 0x430 JUMPI PUSH0 DUP1 REVERT JUMPDEST POP GAS CALL ISZERO DUP1 ISZERO PUSH2 0x442 JUMPI RETURNDATASIZE PUSH0 DUP1 RETURNDATACOPY RETURNDATASIZE PUSH0 REVERT JUMPDEST POP POP POP POP POP POP POP POP POP POP POP JUMP JUMPDEST PUSH20 0xF25212E676D1F7F89CD72FFEE66158F541246445 DUP2 JUMP JUMPDEST PUSH2 0x486 DUP7 PUSH20 0x17DAD892347803551CEEE2D377D010034DF64347 DUP6 PUSH2 0xB8D JUMP JUMPDEST PUSH20 0x17DAD892347803551CEEE2D377D010034DF64347 PUSH20 0xFFFFFFFFFFFFFFFFFFFFFFFFFFFFFFFFFFFFFFFF AND PUSH4 0x8DEE9460 DUP9 DUP5 DUP7 ADDRESS PUSH1 0x40 MLOAD DUP6 PUSH4 0xFFFFFFFF AND PUSH1 0xE0 SHL DUP2 MSTORE PUSH1 0x4 ADD PUSH2 0x4D9 SWAP5 SWAP4 SWAP3 SWAP2 SWAP1 PUSH2 0x13C3 JUMP JUMPDEST PUSH0 PUSH1 0x40 MLOAD DUP1 DUP4 SUB DUP2 PUSH0 DUP8 DUP1 EXTCODESIZE ISZERO DUP1 ISZERO PUSH2 0x4F0 JUMPI PUSH0 DUP1 REVERT JUMPDEST POP GAS CALL ISZERO DUP1 ISZERO PUSH2 0x502 JUMPI RETURNDATASIZE PUSH0 DUP1 RETURNDATACOPY RETURNDATASIZE PUSH0 REVERT JUMPDEST POP POP POP POP PUSH0 DUP3 SLT ISZERO PUSH2 0x51B JUMPI DUP2 PUSH2 0x518 SWAP1 PUSH2 0x1433 JUMP JUMPDEST SWAP2 POP JUMPDEST CALLER PUSH20 0xFFFFFFFFFFFFFFFFFFFFFFFFFFFFFFFFFFFFFFFF AND DUP5 PUSH20 0xFFFFFFFFFFFFFFFFFFFFFFFFFFFFFFFFFFFFFFFF AND PUSH32 0x5C06A1AAF5C5275372CA9ABAF754AD6A6887F107A8E8F557854F7CC8FB06327C DUP5 TIMESTAMP PUSH1 0x40 MLOAD PUSH2 0x57A SWAP3 SWAP2 SWAP1 PUSH2 0x1479 JUMP JUMPDEST PUSH1 0x40 MLOAD DUP1 SWAP2 SUB SWAP1 LOG3 PUSH2 0x594 DUP5 DUP7 DUP4 DUP6 PUSH2 0xBB8 PUSH2 0x2710 PUSH2 0x9A6 JUMP JUMPDEST POP POP POP POP POP POP POP JUMP JUMPDEST PUSH2 0x653 DUP7 PUSH20 0xFFFFFFFFFFFFFFFFFFFFFFFFFFFFFFFFFFFFFFFF AND PUSH4 0x70A08231 ADDRESS PUSH1 0x40 MLOAD DUP3 PUSH4 0xFFFFFFFF AND PUSH1 0xE0 SHL DUP2 MSTORE PUSH1 0x4 ADD PUSH2 0x5D9 SWAP2 SWAP1 PUSH2 0x128F JUMP JUMPDEST PUSH1 0x20 PUSH1 0x40 MLOAD DUP1 DUP4 SUB DUP2 DUP7 GAS STATICCALL ISZERO DUP1 ISZERO PUSH2 0x5F4 JUMPI RETURNDATASIZE PUSH0 DUP1 RETURNDATACOPY RETURNDATASIZE PUSH0 REVERT JUMPDEST POP POP POP POP PUSH1 0x40 MLOAD RETURNDATASIZE PUSH1 0x1F NOT PUSH1 0x1F DUP3 ADD AND DUP3 ADD DUP1 PUSH1 0x40 MSTORE POP DUP2 ADD SWAP1 PUSH2 0x618 SWAP2 SWAP1 PUSH2 0x12BC JUMP JUMPDEST PUSH1 0x40 MLOAD DUP1 PUSH1 0x40 ADD PUSH1 0x40 MSTORE DUP1 PUSH1 0x11 DUP2 MSTORE PUSH1 0x20 ADD PUSH32 0x62616C616E6365206F6620737570706C79000000000000000000000000000000 DUP2 MSTORE POP PUSH2 0xCDC JUMP JUMPDEST PUSH2 0x672 DUP7 PUSH20 0xF25212E676D1F7F89CD72FFEE66158F541246445 DUP6 PUSH2 0xB8D JUMP JUMPDEST PUSH20 0xF25212E676D1F7F89CD72FFEE66158F541246445 PUSH20 0xFFFFFFFFFFFFFFFFFFFFFFFFFFFFFFFFFFFFFFFF AND PUSH4 0x4232CD63 ADDRESS DUP9 DUP7 PUSH1 0x40 MLOAD DUP5 PUSH4 0xFFFFFFFF AND PUSH1 0xE0 SHL DUP2 MSTORE PUSH1 0x4 ADD PUSH2 0x6C3 SWAP4 SWAP3 SWAP2 SWAP1 PUSH2 0x136E JUMP JUMPDEST PUSH0 PUSH1 0x40 MLOAD DUP1 DUP4 SUB DUP2 PUSH0 DUP8 DUP1 EXTCODESIZE ISZERO DUP1 ISZERO PUSH2 0x6DA JUMPI PUSH0 DUP1 REVERT JUMPDEST POP GAS CALL ISZERO DUP1 ISZERO PUSH2 0x6EC JUMPI RETURNDATASIZE PUSH0 DUP1 RETURNDATACOPY RETURNDATASIZE PUSH0 REVERT JUMPDEST POP POP POP POP PUSH20 0xF25212E676D1F7F89CD72FFEE66158F541246445 PUSH20 0xFFFFFFFFFFFFFFFFFFFFFFFFFFFFFFFFFFFFFFFF AND PUSH4 0xC3B35A7E ADDRESS DUP8 DUP6 PUSH1 0x40 MLOAD DUP5 PUSH4 0xFFFFFFFF AND PUSH1 0xE0 SHL DUP2 MSTORE PUSH1 0x4 ADD PUSH2 0x741 SWAP4 SWAP3 SWAP2 SWAP1 PUSH2 0x136E JUMP JUMPDEST PUSH0 PUSH1 0x40 MLOAD DUP1 DUP4 SUB DUP2 PUSH0 DUP8 DUP1 EXTCODESIZE ISZERO DUP1 ISZERO PUSH2 0x758 JUMPI PUSH0 DUP1 REVERT JUMPDEST POP GAS CALL ISZERO DUP1 ISZERO PUSH2 0x76A JUMPI RETURNDATASIZE PUSH0 DUP1 RETURNDATACOPY RETURNDATASIZE PUSH0 REVERT JUMPDEST POP POP POP POP PUSH2 0x780 DUP6 DUP6 DUP4 DUP6 PUSH2 0xBB8 PUSH2 0x2710 PUSH2 0x9A6 JUMP JUMPDEST POP POP POP POP POP POP JUMP JUMPDEST PUSH20 0x17DAD892347803551CEEE2D377D010034DF64347 DUP2 JUMP JUMPDEST PUSH20 0xE592427A0AECE92DE3EDEE1F18E0157C05861564 DUP2 JUMP JUMPDEST PUSH0 DUP7 PUSH20 0xFFFFFFFFFFFFFFFFFFFFFFFFFFFFFFFFFFFFFFFF AND DUP7 PUSH20 0xFFFFFFFFFFFFFFFFFFFFFFFFFFFFFFFFFFFFFFFF AND EQ PUSH2 0x814 JUMPI PUSH0 DUP3 SLT ISZERO PUSH2 0x801 JUMPI DUP2 PUSH2 0x7FE SWAP1 PUSH2 0x1433 JUMP JUMPDEST SWAP1 POP JUMPDEST PUSH2 0x813 DUP8 DUP8 DUP8 DUP5 PUSH2 0xBB8 PUSH2 0x2710 PUSH2 0x9A6 JUMP JUMPDEST JUMPDEST PUSH2 0x853 DUP7 PUSH20 0x17DAD892347803551CEEE2D377D010034DF64347 PUSH32 0xFFFFFFFFFFFFFFFFFFFFFFFFFFFFFFFFFFFFFFFFFFFFFFFFFFFFFFFFFFFFFFFF PUSH2 0xB8D JUMP JUMPDEST PUSH20 0x17DAD892347803551CEEE2D377D010034DF64347 PUSH20 0xFFFFFFFFFFFFFFFFFFFFFFFFFFFFFFFFFFFFFFFF AND PUSH4 0x82626547 DUP10 DUP5 DUP9 PUSH1 0x40 MLOAD DUP5 PUSH4 0xFFFFFFFF AND PUSH1 0xE0 SHL DUP2 MSTORE PUSH1 0x4 ADD PUSH2 0x8A4 SWAP4 SWAP3 SWAP2 SWAP1 PUSH2 0x14A0 JUMP JUMPDEST PUSH1 0x20 PUSH1 0x40 MLOAD DUP1 DUP4 SUB DUP2 PUSH0 DUP8 GAS CALL ISZERO DUP1 ISZERO PUSH2 0x8C0 JUMPI RETURNDATASIZE PUSH0 DUP1 RETURNDATACOPY RETURNDATASIZE PUSH0 REVERT JUMPDEST POP POP POP POP PUSH1 0x40 MLOAD RETURNDATASIZE PUSH1 0x1F NOT PUSH1 0x1F DUP3 ADD AND DUP3 ADD DUP1 PUSH1 0x40 MSTORE POP DUP2 ADD SWAP1 PUSH2 0x8E4 SWAP2 SWAP1 PUSH2 0x14E9 JUMP JUMPDEST POP PUSH20 0x17DAD892347803551CEEE2D377D010034DF64347 PUSH20 0xFFFFFFFFFFFFFFFFFFFFFFFFFFFFFFFFFFFFFFFF AND PUSH4 0x99CD69D1 DUP6 DUP6 DUP9 PUSH1 0x40 MLOAD DUP5 PUSH4 0xFFFFFFFF AND PUSH1 0xE0 SHL DUP2 MSTORE PUSH1 0x4 ADD PUSH2 0x936 SWAP4 SWAP3 SWAP2 SWAP1 PUSH2 0x1514 JUMP JUMPDEST PUSH1 0x20 PUSH1 0x40 MLOAD DUP1 DUP4 SUB DUP2 PUSH0 DUP8 GAS CALL ISZERO DUP1 ISZERO PUSH2 0x952 JUMPI RETURNDATASIZE PUSH0 DUP1 RETURNDATACOPY RETURNDATASIZE PUSH0 REVERT JUMPDEST POP POP POP POP PUSH1 0x40 MLOAD RETURNDATASIZE PUSH1 0x1F NOT PUSH1 0x1F DUP3 ADD AND DUP3 ADD DUP1 PUSH1 0x40 MSTORE POP DUP2 ADD SWAP1 PUSH2 0x976 SWAP2 SWAP1 PUSH2 0x14E9 JUMP JUMPDEST POP SWAP8 SWAP7 POP POP POP POP POP POP POP JUMP JUMPDEST PUSH32 0x0 DUP2 JUMP JUMPDEST PUSH2 0x9C5 DUP7 PUSH20 0xE592427A0AECE92DE3EDEE1F18E0157C05861564 DUP6 PUSH2 0xB8D JUMP JUMPDEST PUSH0 PUSH1 0x40 MLOAD DUP1 PUSH1 0xA0 ADD PUSH1 0x40 MSTORE DUP1 DUP9 DUP6 PUSH20 0xD500B1D8E8EF31E21C99D1DB9A6444D3ADF1270 DUP7 DUP12 PUSH1 0x40 MLOAD PUSH1 0x20 ADD PUSH2 0x9FE SWAP6 SWAP5 SWAP4 SWAP3 SWAP2 SWAP1 PUSH2 0x15D0 JUMP JUMPDEST PUSH1 0x40 MLOAD PUSH1 0x20 DUP2 DUP4 SUB SUB DUP2 MSTORE SWAP1 PUSH1 0x40 MSTORE DUP2 MSTORE PUSH1 0x20 ADD DUP7 PUSH20 0xFFFFFFFFFFFFFFFFFFFFFFFFFFFFFFFFFFFFFFFF AND DUP2 MSTORE PUSH1 0x20 ADD TIMESTAMP DUP2 MSTORE PUSH1 0x20 ADD DUP6 DUP2 MSTORE PUSH1 0x20 ADD PUSH0 DUP2 MSTORE POP SWAP1 POP PUSH20 0xE592427A0AECE92DE3EDEE1F18E0157C05861564 PUSH20 0xFFFFFFFFFFFFFFFFFFFFFFFFFFFFFFFFFFFFFFFF AND PUSH4 0xC04B8D59 DUP3 PUSH1 0x40 MLOAD DUP3 PUSH4 0xFFFFFFFF AND PUSH1 0xE0 SHL DUP2 MSTORE PUSH1 0x4 ADD PUSH2 0xA8D SWAP2 SWAP1 PUSH2 0x1749 JUMP JUMPDEST PUSH1 0x20 PUSH1 0x40 MLOAD DUP1 DUP4 SUB DUP2 PUSH0 DUP8 GAS CALL ISZERO DUP1 ISZERO PUSH2 0xAA9 JUMPI RETURNDATASIZE PUSH0 DUP1 RETURNDATACOPY RETURNDATASIZE PUSH0 REVERT JUMPDEST POP POP POP POP PUSH1 0x40 MLOAD RETURNDATASIZE PUSH1 0x1F NOT PUSH1 0x1F DUP3 ADD AND DUP3 ADD DUP1 PUSH1 0x40 MSTORE POP DUP2 ADD SWAP1 PUSH2 0xACD SWAP2 SWAP1 PUSH2 0x12BC JUMP JUMPDEST POP PUSH2 0xB84 PUSH1 0x40 MLOAD DUP1 PUSH1 0x40 ADD PUSH1 0x40 MSTORE DUP1 PUSH1 0x7 DUP2 MSTORE PUSH1 0x20 ADD PUSH32 0x7377617070656400000000000000000000000000000000000000000000000000 DUP2 MSTORE POP DUP8 PUSH20 0xFFFFFFFFFFFFFFFFFFFFFFFFFFFFFFFFFFFFFFFF AND PUSH4 0x70A08231 DUP9 PUSH1 0x40 MLOAD DUP3 PUSH4 0xFFFFFFFF AND PUSH1 0xE0 SHL DUP2 MSTORE PUSH1 0x4 ADD PUSH2 0xB40 SWAP2 SWAP1 PUSH2 0x128F JUMP JUMPDEST PUSH1 0x20 PUSH1 0x40 MLOAD DUP1 DUP4 SUB DUP2 DUP7 GAS STATICCALL ISZERO DUP1 ISZERO PUSH2 0xB5B JUMPI RETURNDATASIZE PUSH0 DUP1 RETURNDATACOPY RETURNDATASIZE PUSH0 REVERT JUMPDEST POP POP POP POP PUSH1 0x40 MLOAD RETURNDATASIZE PUSH1 0x1F NOT PUSH1 0x1F DUP3 ADD AND DUP3 ADD DUP1 PUSH1 0x40 MSTORE POP DUP2 ADD SWAP1 PUSH2 0xB7F SWAP2 SWAP1 PUSH2 0x12BC JUMP JUMPDEST PUSH2 0xD78 JUMP JUMPDEST POP POP POP POP POP POP POP JUMP JUMPDEST PUSH0 DUP1 DUP5 PUSH20 0xFFFFFFFFFFFFFFFFFFFFFFFFFFFFFFFFFFFFFFFF AND PUSH4 0x95EA7B3 PUSH1 0xE0 SHL DUP6 DUP6 PUSH1 0x40 MLOAD PUSH1 0x24 ADD PUSH2 0xBC1 SWAP3 SWAP2 SWAP1 PUSH2 0x1769 JUMP JUMPDEST PUSH1 0x40 MLOAD PUSH1 0x20 DUP2 DUP4 SUB SUB DUP2 MSTORE SWAP1 PUSH1 0x40 MSTORE SWAP1 PUSH28 0xFFFFFFFFFFFFFFFFFFFFFFFFFFFFFFFFFFFFFFFFFFFFFFFFFFFFFFFF NOT AND PUSH1 0x20 DUP3 ADD DUP1 MLOAD PUSH28 0xFFFFFFFFFFFFFFFFFFFFFFFFFFFFFFFFFFFFFFFFFFFFFFFFFFFFFFFF DUP4 DUP2 DUP4 AND OR DUP4 MSTORE POP POP POP POP PUSH1 0x40 MLOAD PUSH2 0xC2B SWAP2 SWAP1 PUSH2 0x17CA JUMP JUMPDEST PUSH0 PUSH1 0x40 MLOAD DUP1 DUP4 SUB DUP2 PUSH0 DUP7 GAS CALL SWAP2 POP POP RETURNDATASIZE DUP1 PUSH0 DUP2 EQ PUSH2 0xC64 JUMPI PUSH1 0x40 MLOAD SWAP2 POP PUSH1 0x1F NOT PUSH1 0x3F RETURNDATASIZE ADD AND DUP3 ADD PUSH1 0x40 MSTORE RETURNDATASIZE DUP3 MSTORE RETURNDATASIZE PUSH0 PUSH1 0x20 DUP5 ADD RETURNDATACOPY PUSH2 0xC69 JUMP JUMPDEST PUSH1 0x60 SWAP2 POP JUMPDEST POP SWAP2 POP SWAP2 POP DUP2 DUP1 ISZERO PUSH2 0xC96 JUMPI POP PUSH0 DUP2 MLOAD EQ DUP1 PUSH2 0xC95 JUMPI POP DUP1 DUP1 PUSH1 0x20 ADD SWAP1 MLOAD DUP2 ADD SWAP1 PUSH2 0xC94 SWAP2 SWAP1 PUSH2 0x1815 JUMP JUMPDEST JUMPDEST JUMPDEST PUSH2 0xCD5 JUMPI PUSH1 0x40 MLOAD PUSH32 0x8C379A000000000000000000000000000000000000000000000000000000000 DUP2 MSTORE PUSH1 0x4 ADD PUSH2 0xCCC SWAP1 PUSH2 0x188A JUMP JUMPDEST PUSH1 0x40 MLOAD DUP1 SWAP2 SUB SWAP1 REVERT JUMPDEST POP POP POP POP POP JUMP JUMPDEST PUSH2 0xD74 DUP3 DUP3 PUSH1 0x40 MLOAD PUSH1 0x24 ADD PUSH2 0xCF2 SWAP3 SWAP2 SWAP1 PUSH2 0x18EA JUMP JUMPDEST PUSH1 0x40 MLOAD PUSH1 0x20 DUP2 DUP4 SUB SUB DUP2 MSTORE SWAP1 PUSH1 0x40 MSTORE PUSH32 0x643FD0DF00000000000000000000000000000000000000000000000000000000 PUSH28 0xFFFFFFFFFFFFFFFFFFFFFFFFFFFFFFFFFFFFFFFFFFFFFFFFFFFFFFFF NOT AND PUSH1 0x20 DUP3 ADD DUP1 MLOAD PUSH28 0xFFFFFFFFFFFFFFFFFFFFFFFFFFFFFFFFFFFFFFFFFFFFFFFFFFFFFFFF DUP4 DUP2 DUP4 AND OR DUP4 MSTORE POP POP POP POP PUSH2 0xE14 JUMP JUMPDEST POP POP JUMP JUMPDEST PUSH2 0xE10 DUP3 DUP3 PUSH1 0x40 MLOAD PUSH1 0x24 ADD PUSH2 0xD8E SWAP3 SWAP2 SWAP1 PUSH2 0x1918 JUMP JUMPDEST PUSH1 0x40 MLOAD PUSH1 0x20 DUP2 DUP4 SUB SUB DUP2 MSTORE SWAP1 PUSH1 0x40 MSTORE PUSH32 0xB60E72CC00000000000000000000000000000000000000000000000000000000 PUSH28 0xFFFFFFFFFFFFFFFFFFFFFFFFFFFFFFFFFFFFFFFFFFFFFFFFFFFFFFFF NOT AND PUSH1 0x20 DUP3 ADD DUP1 MLOAD PUSH28 0xFFFFFFFFFFFFFFFFFFFFFFFFFFFFFFFFFFFFFFFFFFFFFFFFFFFFFFFF DUP4 DUP2 DUP4 AND OR DUP4 MSTORE POP POP POP POP PUSH2 0xE14 JUMP JUMPDEST POP POP JUMP JUMPDEST PUSH2 0xE2B DUP2 PUSH2 0xE23 PUSH2 0xE2E PUSH2 0xE4D JUMP JUMPDEST PUSH4 0xFFFFFFFF AND JUMP JUMPDEST POP JUMP JUMPDEST PUSH0 PUSH11 0x636F6E736F6C652E6C6F67 SWAP1 POP PUSH0 DUP1 DUP4 MLOAD PUSH1 0x20 DUP6 ADD DUP5 GAS STATICCALL POP POP POP JUMP JUMPDEST PUSH2 0xE58 DUP2 SWAP1 POP SWAP2 SWAP1 POP JUMP JUMPDEST PUSH2 0xE60 PUSH2 0x1946 JUMP JUMPDEST JUMP JUMPDEST PUSH0 DUP1 REVERT JUMPDEST PUSH0 PUSH20 0xFFFFFFFFFFFFFFFFFFFFFFFFFFFFFFFFFFFFFFFF DUP3 AND SWAP1 POP SWAP2 SWAP1 POP JUMP JUMPDEST PUSH0 PUSH2 0xE8F DUP3 PUSH2 0xE66 JUMP JUMPDEST SWAP1 POP SWAP2 SWAP1 POP JUMP JUMPDEST PUSH2 0xE9F DUP2 PUSH2 0xE85 JUMP JUMPDEST DUP2 EQ PUSH2 0xEA9 JUMPI PUSH0 DUP1 REVERT JUMPDEST POP JUMP JUMPDEST PUSH0 DUP2 CALLDATALOAD SWAP1 POP PUSH2 0xEBA DUP2 PUSH2 0xE96 JUMP JUMPDEST SWAP3 SWAP2 POP POP JUMP JUMPDEST PUSH0 DUP2 SWAP1 POP SWAP2 SWAP1 POP JUMP JUMPDEST PUSH2 0xED2 DUP2 PUSH2 0xEC0 JUMP JUMPDEST DUP2 EQ PUSH2 0xEDC JUMPI PUSH0 DUP1 REVERT JUMPDEST POP JUMP JUMPDEST PUSH0 DUP2 CALLDATALOAD SWAP1 POP PUSH2 0xEED DUP2 PUSH2 0xEC9 JUMP JUMPDEST SWAP3 SWAP2 POP POP JUMP JUMPDEST PUSH0 DUP1 PUSH0 DUP1 PUSH0 DUP1 PUSH1 0xC0 DUP8 DUP10 SUB SLT ISZERO PUSH2 0xF0D JUMPI PUSH2 0xF0C PUSH2 0xE62 JUMP JUMPDEST JUMPDEST PUSH0 PUSH2 0xF1A DUP10 DUP3 DUP11 ADD PUSH2 0xEAC JUMP JUMPDEST SWAP7 POP POP PUSH1 0x20 PUSH2 0xF2B DUP10 DUP3 DUP11 ADD PUSH2 0xEAC JUMP JUMPDEST SWAP6 POP POP PUSH1 0x40 PUSH2 0xF3C DUP10 DUP3 DUP11 ADD PUSH2 0xEAC JUMP JUMPDEST SWAP5 POP POP PUSH1 0x60 PUSH2 0xF4D DUP10 DUP3 DUP11 ADD PUSH2 0xEAC JUMP JUMPDEST SWAP4 POP POP PUSH1 0x80 PUSH2 0xF5E DUP10 DUP3 DUP11 ADD PUSH2 0xEDF JUMP JUMPDEST SWAP3 POP POP PUSH1 0xA0 PUSH2 0xF6F DUP10 DUP3 DUP11 ADD PUSH2 0xEDF JUMP JUMPDEST SWAP2 POP POP SWAP3 SWAP6 POP SWAP3 SWAP6 POP SWAP3 SWAP6 JUMP JUMPDEST PUSH0 DUP2 SWAP1 POP SWAP2 SWAP1 POP JUMP JUMPDEST PUSH0 PUSH2 0xF9F PUSH2 0xF9A PUSH2 0xF95 DUP5 PUSH2 0xE66 JUMP JUMPDEST PUSH2 0xF7C JUMP JUMPDEST PUSH2 0xE66 JUMP JUMPDEST SWAP1 POP SWAP2 SWAP1 POP JUMP JUMPDEST PUSH0 PUSH2 0xFB0 DUP3 PUSH2 0xF85 JUMP JUMPDEST SWAP1 POP SWAP2 SWAP1 POP JUMP JUMPDEST PUSH0 PUSH2 0xFC1 DUP3 PUSH2 0xFA6 JUMP JUMPDEST SWAP1 POP SWAP2 SWAP1 POP JUMP JUMPDEST PUSH2 0xFD1 DUP2 PUSH2 0xFB7 JUMP JUMPDEST DUP3 MSTORE POP POP JUMP JUMPDEST PUSH0 PUSH1 0x20 DUP3 ADD SWAP1 POP PUSH2 0xFEA PUSH0 DUP4 ADD DUP5 PUSH2 0xFC8 JUMP JUMPDEST SWAP3 SWAP2 POP POP JUMP JUMPDEST PUSH0 DUP2 SWAP1 POP SWAP2 SWAP1 POP JUMP JUMPDEST PUSH2 0x1002 DUP2 PUSH2 0xFF0 JUMP JUMPDEST DUP2 EQ PUSH2 0x100C JUMPI PUSH0 DUP1 REVERT JUMPDEST POP JUMP JUMPDEST PUSH0 DUP2 CALLDATALOAD SWAP1 POP PUSH2 0x101D DUP2 PUSH2 0xFF9 JUMP JUMPDEST SWAP3 SWAP2 POP POP JUMP JUMPDEST PUSH0 DUP1 PUSH0 DUP1 PUSH0 DUP1 PUSH0 PUSH1 0xE0 DUP9 DUP11 SUB SLT ISZERO PUSH2 0x103E JUMPI PUSH2 0x103D PUSH2 0xE62 JUMP JUMPDEST JUMPDEST PUSH0 PUSH2 0x104B DUP11 DUP3 DUP12 ADD PUSH2 0xEAC JUMP JUMPDEST SWAP8 POP POP PUSH1 0x20 PUSH2 0x105C DUP11 DUP3 DUP12 ADD PUSH2 0xEAC JUMP JUMPDEST SWAP7 POP POP PUSH1 0x40 PUSH2 0x106D DUP11 DUP3 DUP12 ADD PUSH2 0xEAC JUMP JUMPDEST SWAP6 POP POP PUSH1 0x60 PUSH2 0x107E DUP11 DUP3 DUP12 ADD PUSH2 0xEAC JUMP JUMPDEST SWAP5 POP POP PUSH1 0x80 PUSH2 0x108F DUP11 DUP3 DUP12 ADD PUSH2 0xEDF JUMP JUMPDEST SWAP4 POP POP PUSH1 0xA0 PUSH2 0x10A0 DUP11 DUP3 DUP12 ADD PUSH2 0x100F JUMP JUMPDEST SWAP3 POP POP PUSH1 0xC0 PUSH2 0x10B1 DUP11 DUP3 DUP12 ADD PUSH2 0xEAC JUMP JUMPDEST SWAP2 POP POP SWAP3 SWAP6 SWAP9 SWAP2 SWAP5 SWAP8 POP SWAP3 SWAP6 POP JUMP JUMPDEST PUSH0 DUP1 PUSH0 DUP1 PUSH0 DUP1 PUSH1 0xC0 DUP8 DUP10 SUB SLT ISZERO PUSH2 0x10DA JUMPI PUSH2 0x10D9 PUSH2 0xE62 JUMP JUMPDEST JUMPDEST PUSH0 PUSH2 0x10E7 DUP10 DUP3 DUP11 ADD PUSH2 0xEAC JUMP JUMPDEST SWAP7 POP POP PUSH1 0x20 PUSH2 0x10F8 DUP10 DUP3 DUP11 ADD PUSH2 0xEAC JUMP JUMPDEST SWAP6 POP POP PUSH1 0x40 PUSH2 0x1109 DUP10 DUP3 DUP11 ADD PUSH2 0xEAC JUMP JUMPDEST SWAP5 POP POP PUSH1 0x60 PUSH2 0x111A DUP10 DUP3 DUP11 ADD PUSH2 0xEDF JUMP JUMPDEST SWAP4 POP POP PUSH1 0x80 PUSH2 0x112B DUP10 DUP3 DUP11 ADD PUSH2 0xEDF JUMP JUMPDEST SWAP3 POP POP PUSH1 0xA0 PUSH2 0x113C DUP10 DUP3 DUP11 ADD PUSH2 0xEAC JUMP JUMPDEST SWAP2 POP POP SWAP3 SWAP6 POP SWAP3 SWAP6 POP SWAP3 SWAP6 JUMP JUMPDEST PUSH0 PUSH2 0x1153 DUP3 PUSH2 0xFA6 JUMP JUMPDEST SWAP1 POP SWAP2 SWAP1 POP JUMP JUMPDEST PUSH2 0x1163 DUP2 PUSH2 0x1149 JUMP JUMPDEST DUP3 MSTORE POP POP JUMP JUMPDEST PUSH0 PUSH1 0x20 DUP3 ADD SWAP1 POP PUSH2 0x117C PUSH0 DUP4 ADD DUP5 PUSH2 0x115A JUMP JUMPDEST SWAP3 SWAP2 POP POP JUMP JUMPDEST PUSH0 PUSH2 0x118C DUP3 PUSH2 0xFA6 JUMP JUMPDEST SWAP1 POP SWAP2 SWAP1 POP JUMP JUMPDEST PUSH2 0x119C DUP2 PUSH2 0x1182 JUMP JUMPDEST DUP3 MSTORE POP POP JUMP JUMPDEST PUSH0 PUSH1 0x20 DUP3 ADD SWAP1 POP PUSH2 0x11B5 PUSH0 DUP4 ADD DUP5 PUSH2 0x1193 JUMP JUMPDEST SWAP3 SWAP2 POP POP JUMP JUMPDEST PUSH0 DUP1 PUSH0 DUP1 PUSH0 DUP1 PUSH0 PUSH1 0xE0 DUP9 DUP11 SUB SLT ISZERO PUSH2 0x11D6 JUMPI PUSH2 0x11D5 PUSH2 0xE62 JUMP JUMPDEST JUMPDEST PUSH0 PUSH2 0x11E3 DUP11 DUP3 DUP12 ADD PUSH2 0xEAC JUMP JUMPDEST SWAP8 POP POP PUSH1 0x20 PUSH2 0x11F4 DUP11 DUP3 DUP12 ADD PUSH2 0xEAC JUMP JUMPDEST SWAP7 POP POP PUSH1 0x40 PUSH2 0x1205 DUP11 DUP3 DUP12 ADD PUSH2 0xEAC JUMP JUMPDEST SWAP6 POP POP PUSH1 0x60 PUSH2 0x1216 DUP11 DUP3 DUP12 ADD PUSH2 0xEAC JUMP JUMPDEST SWAP5 POP POP PUSH1 0x80 PUSH2 0x1227 DUP11 DUP3 DUP12 ADD PUSH2 0xEDF JUMP JUMPDEST SWAP4 POP POP PUSH1 0xA0 PUSH2 0x1238 DUP11 DUP3 DUP12 ADD PUSH2 0x100F JUMP JUMPDEST SWAP3 POP POP PUSH1 0xC0 PUSH2 0x1249 DUP11 DUP3 DUP12 ADD PUSH2 0x100F JUMP JUMPDEST SWAP2 POP POP SWAP3 SWAP6 SWAP9 SWAP2 SWAP5 SWAP8 POP SWAP3 SWAP6 POP JUMP JUMPDEST PUSH2 0x1261 DUP2 PUSH2 0xFF0 JUMP JUMPDEST DUP3 MSTORE POP POP JUMP JUMPDEST PUSH0 PUSH1 0x20 DUP3 ADD SWAP1 POP PUSH2 0x127A PUSH0 DUP4 ADD DUP5 PUSH2 0x1258 JUMP JUMPDEST SWAP3 SWAP2 POP POP JUMP JUMPDEST PUSH2 0x1289 DUP2 PUSH2 0xE85 JUMP JUMPDEST DUP3 MSTORE POP POP JUMP JUMPDEST PUSH0 PUSH1 0x20 DUP3 ADD SWAP1 POP PUSH2 0x12A2 PUSH0 DUP4 ADD DUP5 PUSH2 0x1280 JUMP JUMPDEST SWAP3 SWAP2 POP POP JUMP JUMPDEST PUSH0 DUP2 MLOAD SWAP1 POP PUSH2 0x12B6 DUP2 PUSH2 0xEC9 JUMP JUMPDEST SWAP3 SWAP2 POP POP JUMP JUMPDEST PUSH0 PUSH1 0x20 DUP3 DUP5 SUB SLT ISZERO PUSH2 0x12D1 JUMPI PUSH2 0x12D0 PUSH2 0xE62 JUMP JUMPDEST JUMPDEST PUSH0 PUSH2 0x12DE DUP5 DUP3 DUP6 ADD PUSH2 0x12A8 JUMP JUMPDEST SWAP2 POP POP SWAP3 SWAP2 POP POP JUMP JUMPDEST PUSH0 DUP3 DUP3 MSTORE PUSH1 0x20 DUP3 ADD SWAP1 POP SWAP3 SWAP2 POP POP JUMP JUMPDEST PUSH32 0x737761707065642062616C206F6E2070726F7879000000000000000000000000 PUSH0 DUP3 ADD MSTORE POP JUMP JUMPDEST PUSH0 PUSH2 0x132B PUSH1 0x14 DUP4 PUSH2 0x12E7 JUMP JUMPDEST SWAP2 POP PUSH2 0x1336 DUP3 PUSH2 0x12F7 JUMP JUMPDEST PUSH1 0x20 DUP3 ADD SWAP1 POP SWAP2 SWAP1 POP JUMP JUMPDEST PUSH0 PUSH1 0x20 DUP3 ADD SWAP1 POP DUP2 DUP2 SUB PUSH0 DUP4 ADD MSTORE PUSH2 0x1358 DUP2 PUSH2 0x131F JUMP JUMPDEST SWAP1 POP SWAP2 SWAP1 POP JUMP JUMPDEST PUSH2 0x1368 DUP2 PUSH2 0xEC0 JUMP JUMPDEST DUP3 MSTORE POP POP JUMP JUMPDEST PUSH0 PUSH1 0x60 DUP3 ADD SWAP1 POP PUSH2 0x1381 PUSH0 DUP4 ADD DUP7 PUSH2 0x1280 JUMP JUMPDEST PUSH2 0x138E PUSH1 0x20 DUP4 ADD DUP6 PUSH2 0x1280 JUMP JUMPDEST PUSH2 0x139B PUSH1 0x40 DUP4 ADD DUP5 PUSH2 0x135F JUMP JUMPDEST SWAP5 SWAP4 POP POP POP POP JUMP JUMPDEST PUSH0 PUSH2 0x13AD DUP3 PUSH2 0xE66 JUMP JUMPDEST SWAP1 POP SWAP2 SWAP1 POP JUMP JUMPDEST PUSH2 0x13BD DUP2 PUSH2 0x13A3 JUMP JUMPDEST DUP3 MSTORE POP POP JUMP JUMPDEST PUSH0 PUSH1 0x80 DUP3 ADD SWAP1 POP PUSH2 0x13D6 PUSH0 DUP4 ADD DUP8 PUSH2 0x1280 JUMP JUMPDEST PUSH2 0x13E3 PUSH1 0x20 DUP4 ADD DUP7 PUSH2 0x1258 JUMP JUMPDEST PUSH2 0x13F0 PUSH1 0x40 DUP4 ADD DUP6 PUSH2 0x135F JUMP JUMPDEST PUSH2 0x13FD PUSH1 0x60 DUP4 ADD DUP5 PUSH2 0x13B4 JUMP JUMPDEST SWAP6 SWAP5 POP POP POP POP POP JUMP JUMPDEST PUSH32 0x4E487B7100000000000000000000000000000000000000000000000000000000 PUSH0 MSTORE PUSH1 0x11 PUSH1 0x4 MSTORE PUSH1 0x24 PUSH0 REVERT JUMPDEST PUSH0 PUSH2 0x143D DUP3 PUSH2 0xFF0 JUMP JUMPDEST SWAP2 POP PUSH32 0x8000000000000000000000000000000000000000000000000000000000000000 DUP3 SUB PUSH2 0x146F JUMPI PUSH2 0x146E PUSH2 0x1406 JUMP JUMPDEST JUMPDEST DUP2 PUSH0 SUB SWAP1 POP SWAP2 SWAP1 POP JUMP JUMPDEST PUSH0 PUSH1 0x40 DUP3 ADD SWAP1 POP PUSH2 0x148C PUSH0 DUP4 ADD DUP6 PUSH2 0x1258 JUMP JUMPDEST PUSH2 0x1499 PUSH1 0x20 DUP4 ADD DUP5 PUSH2 0x135F JUMP JUMPDEST SWAP4 SWAP3 POP POP POP JUMP JUMPDEST PUSH0 PUSH1 0x60 DUP3 ADD SWAP1 POP PUSH2 0x14B3 PUSH0 DUP4 ADD DUP7 PUSH2 0x1280 JUMP JUMPDEST PUSH2 0x14C0 PUSH1 0x20 DUP4 ADD DUP6 PUSH2 0x1258 JUMP JUMPDEST PUSH2 0x14CD PUSH1 0x40 DUP4 ADD DUP5 PUSH2 0x1280 JUMP JUMPDEST SWAP5 SWAP4 POP POP POP POP JUMP JUMPDEST PUSH0 DUP2 MLOAD SWAP1 POP PUSH2 0x14E3 DUP2 PUSH2 0xFF9 JUMP JUMPDEST SWAP3 SWAP2 POP POP JUMP JUMPDEST PUSH0 PUSH1 0x20 DUP3 DUP5 SUB SLT ISZERO PUSH2 0x14FE JUMPI PUSH2 0x14FD PUSH2 0xE62 JUMP JUMPDEST JUMPDEST PUSH0 PUSH2 0x150B DUP5 DUP3 DUP6 ADD PUSH2 0x14D5 JUMP JUMPDEST SWAP2 POP POP SWAP3 SWAP2 POP POP JUMP JUMPDEST PUSH0 PUSH1 0x60 DUP3 ADD SWAP1 POP PUSH2 0x1527 PUSH0 DUP4 ADD DUP7 PUSH2 0x135F JUMP JUMPDEST PUSH2 0x1534 PUSH1 0x20 DUP4 ADD DUP6 PUSH2 0x1258 JUMP JUMPDEST PUSH2 0x1541 PUSH1 0x40 DUP4 ADD DUP5 PUSH2 0x1280 JUMP JUMPDEST SWAP5 SWAP4 POP POP POP POP JUMP JUMPDEST PUSH0 DUP2 PUSH1 0x60 SHL SWAP1 POP SWAP2 SWAP1 POP JUMP JUMPDEST PUSH0 PUSH2 0x155F DUP3 PUSH2 0x1549 JUMP JUMPDEST SWAP1 POP SWAP2 SWAP1 POP JUMP JUMPDEST PUSH0 PUSH2 0x1570 DUP3 PUSH2 0x1555 JUMP JUMPDEST SWAP1 POP SWAP2 SWAP1 POP JUMP JUMPDEST PUSH2 0x1588 PUSH2 0x1583 DUP3 PUSH2 0xE85 JUMP JUMPDEST PUSH2 0x1566 JUMP JUMPDEST DUP3 MSTORE POP POP JUMP JUMPDEST PUSH0 PUSH3 0xFFFFFF DUP3 AND SWAP1 POP SWAP2 SWAP1 POP JUMP JUMPDEST PUSH0 DUP2 PUSH1 0xE8 SHL SWAP1 POP SWAP2 SWAP1 POP JUMP JUMPDEST PUSH0 PUSH2 0x15B2 DUP3 PUSH2 0x159C JUMP JUMPDEST SWAP1 POP SWAP2 SWAP1 POP JUMP JUMPDEST PUSH2 0x15CA PUSH2 0x15C5 DUP3 PUSH2 0x158E JUMP JUMPDEST PUSH2 0x15A8 JUMP JUMPDEST DUP3 MSTORE POP POP JUMP JUMPDEST PUSH0 PUSH2 0x15DB DUP3 DUP9 PUSH2 0x1577 JUMP JUMPDEST PUSH1 0x14 DUP3 ADD SWAP2 POP PUSH2 0x15EB DUP3 DUP8 PUSH2 0x15B9 JUMP JUMPDEST PUSH1 0x3 DUP3 ADD SWAP2 POP PUSH2 0x15FB DUP3 DUP7 PUSH2 0x1577 JUMP JUMPDEST PUSH1 0x14 DUP3 ADD SWAP2 POP PUSH2 0x160B DUP3 DUP6 PUSH2 0x15B9 JUMP JUMPDEST PUSH1 0x3 DUP3 ADD SWAP2 POP PUSH2 0x161B DUP3 DUP5 PUSH2 0x1577 JUMP JUMPDEST PUSH1 0x14 DUP3 ADD SWAP2 POP DUP2 SWAP1 POP SWAP7 SWAP6 POP POP POP POP POP POP JUMP JUMPDEST PUSH0 DUP2 MLOAD SWAP1 POP SWAP2 SWAP1 POP JUMP JUMPDEST PUSH0 DUP3 DUP3 MSTORE PUSH1 0x20 DUP3 ADD SWAP1 POP SWAP3 SWAP2 POP POP JUMP JUMPDEST PUSH0 JUMPDEST DUP4 DUP2 LT ISZERO PUSH2 0x1665 JUMPI DUP1 DUP3 ADD MLOAD DUP2 DUP5 ADD MSTORE PUSH1 0x20 DUP2 ADD SWAP1 POP PUSH2 0x164A JUMP JUMPDEST PUSH0 DUP5 DUP5 ADD MSTORE POP POP POP POP JUMP JUMPDEST PUSH0 PUSH1 0x1F NOT PUSH1 0x1F DUP4 ADD AND SWAP1 POP SWAP2 SWAP1 POP JUMP JUMPDEST PUSH0 PUSH2 0x168A DUP3 PUSH2 0x162E JUMP JUMPDEST PUSH2 0x1694 DUP2 DUP6 PUSH2 0x1638 JUMP JUMPDEST SWAP4 POP PUSH2 0x16A4 DUP2 DUP6 PUSH1 0x20 DUP7 ADD PUSH2 0x1648 JUMP JUMPDEST PUSH2 0x16AD DUP2 PUSH2 0x1670 JUMP JUMPDEST DUP5 ADD SWAP2 POP POP SWAP3 SWAP2 POP POP JUMP JUMPDEST PUSH2 0x16C1 DUP2 PUSH2 0xE85 JUMP JUMPDEST DUP3 MSTORE POP POP JUMP JUMPDEST PUSH2 0x16D0 DUP2 PUSH2 0xEC0 JUMP JUMPDEST DUP3 MSTORE POP POP JUMP JUMPDEST PUSH0 PUSH1 0xA0 DUP4 ADD PUSH0 DUP4 ADD MLOAD DUP5 DUP3 SUB PUSH0 DUP7 ADD MSTORE PUSH2 0x16F0 DUP3 DUP3 PUSH2 0x1680 JUMP JUMPDEST SWAP2 POP POP PUSH1 0x20 DUP4 ADD MLOAD PUSH2 0x1705 PUSH1 0x20 DUP7 ADD DUP3 PUSH2 0x16B8 JUMP JUMPDEST POP PUSH1 0x40 DUP4 ADD MLOAD PUSH2 0x1718 PUSH1 0x40 DUP7 ADD DUP3 PUSH2 0x16C7 JUMP JUMPDEST POP PUSH1 0x60 DUP4 ADD MLOAD PUSH2 0x172B PUSH1 0x60 DUP7 ADD DUP3 PUSH2 0x16C7 JUMP JUMPDEST POP PUSH1 0x80 DUP4 ADD MLOAD PUSH2 0x173E PUSH1 0x80 DUP7 ADD DUP3 PUSH2 0x16C7 JUMP JUMPDEST POP DUP1 SWAP2 POP POP SWAP3 SWAP2 POP POP JUMP JUMPDEST PUSH0 PUSH1 0x20 DUP3 ADD SWAP1 POP DUP2 DUP2 SUB PUSH0 DUP4 ADD MSTORE PUSH2 0x1761 DUP2 DUP5 PUSH2 0x16D6 JUMP JUMPDEST SWAP1 POP SWAP3 SWAP2 POP POP JUMP JUMPDEST PUSH0 PUSH1 0x40 DUP3 ADD SWAP1 POP PUSH2 0x177C PUSH0 DUP4 ADD DUP6 PUSH2 0x1280 JUMP JUMPDEST PUSH2 0x1789 PUSH1 0x20 DUP4 ADD DUP5 PUSH2 0x135F JUMP JUMPDEST SWAP4 SWAP3 POP POP POP JUMP JUMPDEST PUSH0 DUP2 SWAP1 POP SWAP3 SWAP2 POP POP JUMP JUMPDEST PUSH0 PUSH2 0x17A4 DUP3 PUSH2 0x162E JUMP JUMPDEST PUSH2 0x17AE DUP2 DUP6 PUSH2 0x1790 JUMP JUMPDEST SWAP4 POP PUSH2 0x17BE DUP2 DUP6 PUSH1 0x20 DUP7 ADD PUSH2 0x1648 JUMP JUMPDEST DUP1 DUP5 ADD SWAP2 POP POP SWAP3 SWAP2 POP POP JUMP JUMPDEST PUSH0 PUSH2 0x17D5 DUP3 DUP5 PUSH2 0x179A JUMP JUMPDEST SWAP2 POP DUP2 SWAP1 POP SWAP3 SWAP2 POP POP JUMP JUMPDEST PUSH0 DUP2 ISZERO ISZERO SWAP1 POP SWAP2 SWAP1 POP JUMP JUMPDEST PUSH2 0x17F4 DUP2 PUSH2 0x17E0 JUMP JUMPDEST DUP2 EQ PUSH2 0x17FE JUMPI PUSH0 DUP1 REVERT JUMPDEST POP JUMP JUMPDEST PUSH0 DUP2 MLOAD SWAP1 POP PUSH2 0x180F DUP2 PUSH2 0x17EB JUMP JUMPDEST SWAP3 SWAP2 POP POP JUMP JUMPDEST PUSH0 PUSH1 0x20 DUP3 DUP5 SUB SLT ISZERO PUSH2 0x182A JUMPI PUSH2 0x1829 PUSH2 0xE62 JUMP JUMPDEST JUMPDEST PUSH0 PUSH2 0x1837 DUP5 DUP3 DUP6 ADD PUSH2 0x1801 JUMP JUMPDEST SWAP2 POP POP SWAP3 SWAP2 POP POP JUMP JUMPDEST PUSH32 0x5341000000000000000000000000000000000000000000000000000000000000 PUSH0 DUP3 ADD MSTORE POP JUMP JUMPDEST PUSH0 PUSH2 0x1874 PUSH1 0x2 DUP4 PUSH2 0x12E7 JUMP JUMPDEST SWAP2 POP PUSH2 0x187F DUP3 PUSH2 0x1840 JUMP JUMPDEST PUSH1 0x20 DUP3 ADD SWAP1 POP SWAP2 SWAP1 POP JUMP JUMPDEST PUSH0 PUSH1 0x20 DUP3 ADD SWAP1 POP DUP2 DUP2 SUB PUSH0 DUP4 ADD MSTORE PUSH2 0x18A1 DUP2 PUSH2 0x1868 JUMP JUMPDEST SWAP1 POP SWAP2 SWAP1 POP JUMP JUMPDEST PUSH0 DUP2 MLOAD SWAP1 POP SWAP2 SWAP1 POP JUMP JUMPDEST PUSH0 PUSH2 0x18BC DUP3 PUSH2 0x18A8 JUMP JUMPDEST PUSH2 0x18C6 DUP2 DUP6 PUSH2 0x12E7 JUMP JUMPDEST SWAP4 POP PUSH2 0x18D6 DUP2 DUP6 PUSH1 0x20 DUP7 ADD PUSH2 0x1648 JUMP JUMPDEST PUSH2 0x18DF DUP2 PUSH2 0x1670 JUMP JUMPDEST DUP5 ADD SWAP2 POP POP SWAP3 SWAP2 POP POP JUMP JUMPDEST PUSH0 PUSH1 0x40 DUP3 ADD SWAP1 POP PUSH2 0x18FD PUSH0 DUP4 ADD DUP6 PUSH2 0x135F JUMP JUMPDEST DUP2 DUP2 SUB PUSH1 0x20 DUP4 ADD MSTORE PUSH2 0x190F DUP2 DUP5 PUSH2 0x18B2 JUMP JUMPDEST SWAP1 POP SWAP4 SWAP3 POP POP POP JUMP JUMPDEST PUSH0 PUSH1 0x40 DUP3 ADD SWAP1 POP DUP2 DUP2 SUB PUSH0 DUP4 ADD MSTORE PUSH2 0x1930 DUP2 DUP6 PUSH2 0x18B2 JUMP JUMPDEST SWAP1 POP PUSH2 0x193F PUSH1 0x20 DUP4 ADD DUP5 PUSH2 0x135F JUMP JUMPDEST SWAP4 SWAP3 POP POP POP JUMP JUMPDEST PUSH32 0x4E487B7100000000000000000000000000000000000000000000000000000000 PUSH0 MSTORE PUSH1 0x51 PUSH1 0x4 MSTORE PUSH1 0x24 PUSH0 REVERT INVALID LOG2 PUSH5 0x6970667358 0x22 SLT KECCAK256 PUSH15 0x77468A4E2A994FD827702E450AC7DB GASPRICE SSTORE 0x26 0xE9 RETURNDATACOPY MSIZE JUMPI DUP11 STOP SWAP16 0xEF LT PUSH23 0x16F8ED64736F6C63430008140033000000000000000000 "
		},
		"gasEstimates": {
			"creation": {
				"codeDepositCost": "1313800",
				"executionCost": "infinite",
				"totalCost": "infinite"
			},
			"external": {
				"InitBorrow(address,address,address,address,uint256,int256,address)": "infinite",
				"cometAddress()": "infinite",
				"compBorrow(address,address,address,uint256,uint256,address)": "infinite",
				"compRepay(address,address,address,address,uint256,uint256)": "infinite",
				"controller()": "infinite",
				"repayBorrow(address,address,address,address,uint256,int256,int256)": "infinite",
				"swapRouter()": "infinite",
				"unilendCore()": "infinite"
			},
			"internal": {
				"exactInputSwap(address,address,address,uint256,uint24,uint24)": "infinite",
				"exctOutputSwap(address,address,address,uint256,uint24,uint24)": "infinite"
			}
		},
		"methodIdentifiers": {
			"InitBorrow(address,address,address,address,uint256,int256,address)": "8f558189",
			"cometAddress()": "6bbb194b",
			"compBorrow(address,address,address,uint256,uint256,address)": "a6d7f530",
			"compRepay(address,address,address,address,uint256,uint256)": "501f5dbe",
			"controller()": "f77c4791",
			"repayBorrow(address,address,address,address,uint256,int256,int256)": "de63a935",
			"swapRouter()": "c31c9c07",
			"unilendCore()": "b93bc415"
		}
	},
	"abi": [
		{
			"inputs": [],
			"stateMutability": "nonpayable",
			"type": "constructor"
		},
		{
			"anonymous": false,
			"inputs": [
				{
					"indexed": true,
					"internalType": "address",
					"name": "tokenAddress",
					"type": "address"
				},
				{
					"indexed": true,
					"internalType": "address",
					"name": "user",
					"type": "address"
				},
				{
					"indexed": false,
					"internalType": "int256",
					"name": "amount",
					"type": "int256"
				},
				{
					"indexed": false,
					"internalType": "uint256",
					"name": "time",
					"type": "uint256"
				}
			],
			"name": "Borrowed",
			"type": "event"
		},
		{
			"anonymous": false,
			"inputs": [
				{
					"indexed": true,
					"internalType": "uint256",
					"name": "value1",
					"type": "uint256"
				},
				{
					"indexed": true,
					"internalType": "address",
					"name": "value2",
					"type": "address"
				},
				{
					"indexed": false,
					"internalType": "string",
					"name": "msg",
					"type": "string"
				}
			],
			"name": "Log",
			"type": "event"
		},
		{
			"inputs": [
				{
					"internalType": "address",
					"name": "_pool",
					"type": "address"
				},
				{
					"internalType": "address",
					"name": "_supplyAsset",
					"type": "address"
				},
				{
					"internalType": "address",
					"name": "_tokenOUt",
					"type": "address"
				},
				{
					"internalType": "address",
					"name": "_borrowToken",
					"type": "address"
				},
				{
					"internalType": "uint256",
					"name": "_collateral_amount",
					"type": "uint256"
				},
				{
					"internalType": "int256",
					"name": "_amount",
					"type": "int256"
				},
				{
					"internalType": "address",
					"name": "_user",
					"type": "address"
				}
			],
			"name": "InitBorrow",
			"outputs": [],
			"stateMutability": "nonpayable",
			"type": "function"
		},
		{
			"inputs": [],
			"name": "cometAddress",
			"outputs": [
				{
					"internalType": "contract IComet",
					"name": "",
					"type": "address"
				}
			],
			"stateMutability": "view",
			"type": "function"
		},
		{
			"inputs": [
				{
					"internalType": "address",
					"name": "_supplyAsset",
					"type": "address"
				},
				{
					"internalType": "address",
					"name": "_borrowAsset",
					"type": "address"
				},
				{
					"internalType": "address",
					"name": "_tokenOut",
					"type": "address"
				},
				{
					"internalType": "uint256",
					"name": "_supplyAmount",
					"type": "uint256"
				},
				{
					"internalType": "uint256",
					"name": "_borrowAmount",
					"type": "uint256"
				},
				{
					"internalType": "address",
					"name": "_user",
					"type": "address"
				}
			],
			"name": "compBorrow",
			"outputs": [],
			"stateMutability": "nonpayable",
			"type": "function"
		},
		{
			"inputs": [
				{
					"internalType": "address",
					"name": "_borrowedToken",
					"type": "address"
				},
				{
					"internalType": "address",
					"name": "_tokenIn",
					"type": "address"
				},
				{
					"internalType": "address",
					"name": "_user",
					"type": "address"
				},
				{
					"internalType": "address",
					"name": "_collateralToken",
					"type": "address"
				},
				{
					"internalType": "uint256",
					"name": "_collateralAmount",
					"type": "uint256"
				},
				{
					"internalType": "uint256",
					"name": "_repayAmount",
					"type": "uint256"
				}
			],
			"name": "compRepay",
			"outputs": [],
			"stateMutability": "nonpayable",
			"type": "function"
		},
		{
			"inputs": [],
			"name": "controller",
			"outputs": [
				{
					"internalType": "address",
					"name": "",
					"type": "address"
				}
			],
			"stateMutability": "view",
			"type": "function"
		},
		{
			"inputs": [
				{
					"internalType": "address",
					"name": "_pool",
					"type": "address"
				},
				{
					"internalType": "address",
					"name": "_tokenIn",
					"type": "address"
				},
				{
					"internalType": "address",
					"name": "_borrowedToken",
					"type": "address"
				},
				{
					"internalType": "address",
					"name": "_user",
					"type": "address"
				},
				{
					"internalType": "uint256",
					"name": "_nftID",
					"type": "uint256"
				},
				{
					"internalType": "int256",
					"name": "_amountOut",
					"type": "int256"
				},
				{
					"internalType": "int256",
					"name": "_repayAmount",
					"type": "int256"
				}
			],
			"name": "repayBorrow",
			"outputs": [
				{
					"internalType": "int256",
					"name": "repayAmount",
					"type": "int256"
				}
			],
			"stateMutability": "nonpayable",
			"type": "function"
		},
		{
			"inputs": [],
			"name": "swapRouter",
			"outputs": [
				{
					"internalType": "contract ISwapRouter",
					"name": "",
					"type": "address"
				}
			],
			"stateMutability": "view",
			"type": "function"
		},
		{
			"inputs": [],
			"name": "unilendCore",
			"outputs": [
				{
					"internalType": "contract IUnilendV2Core",
					"name": "",
					"type": "address"
				}
			],
			"stateMutability": "view",
			"type": "function"
		}
	]
}