{
	"data": {
		"bytecode": {
			"linkReferences": {},
			"object": "60a060405234801561000f575f80fd5b5033608052608051611c8561002c5f395f6102100152611c855ff3fe608060405234801561000f575f80fd5b50600436106100da575f3560e01c806392c5d03511610088578063b93bc41511610063578063b93bc415146101ba578063c31c9c07146101d5578063e1ab2228146101f0578063f77c47911461020b575f80fd5b806392c5d03514610181578063a6d7f53014610194578063ac7cccb0146101a7575f80fd5b80636bbb194b116100b85780636bbb194b1461014c5780636f0937b314610167578063792023ca1461017a575f80fd5b806316345f18146100de578063501f5dbe1461010457806363b0e66a14610119575b5f80fd5b6100f16100ec3660046115d9565b610232565b6040519081526020015b60405180910390f35b6101176101123660046115fb565b61029e565b005b610134734f57c40d3daa7bf2ec970dd157b126898215872081565b6040516001600160a01b0390911681526020016100fb565b61013473f25212e676d1f7f89cd72ffee66158f54124644581565b610117610175366004611665565b6104d6565b60646100f1565b61011761018f3660046116c5565b61073b565b6101176101a23660046116c5565b610963565b6101176101b5366004611731565b610b45565b6101347317dad892347803551ceee2d377d010034df6434781565b61013473e592427a0aece92de3edee1f18e0157c0586156481565b6101347377b6569f0dbc4f265a575a84540c2a0cae116a9081565b6101347f000000000000000000000000000000000000000000000000000000000000000081565b5f816001600160a01b031663feaf968c6040518163ffffffff1660e01b815260040160a060405180830381865afa15801561026f573d5f803e3d5ffd5b505050506040513d601f19601f82011682018060405250810190610293919061179f565b509195945050505050565b846001600160a01b0316866001600160a01b0316146102cb576102c985873084610bb8612710610f7a565b505b6040516370a0823160e01b81523060048201525f906001600160a01b038816906370a0823190602401602060405180830381865afa15801561030f573d5f803e3d5ffd5b505050506040513d601f19601f8201168201806040525081019061033391906117eb565b90506103558773f25212e676d1f7f89cd72ffee66158f5412464455f196110f2565b6040516370a0823160e01b8152306004820181905273f25212e676d1f7f89cd72ffee66158f54124644591634232cd6391908a906001600160a01b038216906370a0823190602401602060405180830381865afa1580156103b8573d5f803e3d5ffd5b505050506040513d601f19601f820116820180604052508101906103dc91906117eb565b6040517fffffffff0000000000000000000000000000000000000000000000000000000060e086901b1681526001600160a01b03938416600482015292909116602483015260448201526064015f604051808303815f87803b158015610440575f80fd5b505af1158015610452573d5f803e3d5ffd5b50506040516361d9ad3f60e11b81526001600160a01b038089166004830152871660248201526044810186905273f25212e676d1f7f89cd72ffee66158f541246445925063c3b35a7e91506064015f604051808303815f87803b1580156104b7575f80fd5b505af11580156104c9573d5f803e3d5ffd5b5050505050505050505050565b5f805f6104f888307377b6569f0dbc4f265a575a84540c2a0cae116a90611221565b9050866001600160a01b0316856001600160a01b03161461052c5761052587863087610bb8612710610f7a565b9150610530565b8391505b5f80837e032a912636b05d31af43f00b91359ddcfddebcffa7c15470a13ba1992e10f060405160405180910390a461057e857317dad892347803551ceee2d377d010034df643475f196110f2565b805f01516001600160a01b0316856001600160a01b0316036105aa576105a382611802565b92506105ae565b8192505b6040517f826265470000000000000000000000000000000000000000000000000000000081526001600160a01b0389166004820152602481018490523060448201527317dad892347803551ceee2d377d010034df64347906382626547906064016020604051808303815f875af115801561062b573d5f803e3d5ffd5b505050506040513d601f19601f8201168201806040525081019061064f91906117eb565b506040516370a0823160e01b81523060048201525f906001600160a01b038716906370a0823190602401602060405180830381865afa158015610694573d5f803e3d5ffd5b505050506040513d601f19601f820116820180604052508101906106b891906117eb565b1115610731576040516370a0823160e01b815230600482015261073190869088906001600160a01b038316906370a0823190602401602060405180830381865afa158015610708573d5f803e3d5ffd5b505050506040513d601f19601f8201168201806040525081019061072c91906117eb565b611410565b5050505050505050565b5f866001600160a01b0316630dfe16816040518163ffffffff1660e01b8152600401602060405180830381865afa158015610778573d5f803e3d5ffd5b505050506040513d601f19601f8201168201806040525081019061079c919061184f565b90505f876001600160a01b031663d21220a76040518163ffffffff1660e01b8152600401602060405180830381865afa1580156107db573d5f803e3d5ffd5b505050506040513d601f19601f820116820180604052508101906107ff919061184f565b90505f80851215610811575081610814565b50805b610833887317dad892347803551ceee2d377d010034df64347886110f2565b6040517f8dee94600000000000000000000000000000000000000000000000000000000081526001600160a01b038a16600482015260248101869052604481018790523060648201527317dad892347803551ceee2d377d010034df6434790638dee9460906084015f604051808303815f87803b1580156108b2575f80fd5b505af11580156108c4573d5f803e3d5ffd5b505050505f8512156108dc576108d985611802565b94505b6040516370a0823160e01b8152306004820152610957908290899087906001600160a01b038416906370a0823190602401602060405180830381865afa158015610928573d5f803e3d5ffd5b505050506040513d601f19601f8201168201806040525081019061094c91906117eb565b610bb8612710610f7a565b50505050505050505050565b6040516370a0823160e01b8152306004820152610a08906001600160a01b038816906370a0823190602401602060405180830381865afa1580156109a9573d5f803e3d5ffd5b505050506040513d601f19601f820116820180604052508101906109cd91906117eb565b6040518060400160405280601181526020017f62616c616e6365206f6620737570706c79000000000000000000000000000000815250611538565b610a278673f25212e676d1f7f89cd72ffee66158f541246445856110f2565b6040517f4232cd630000000000000000000000000000000000000000000000000000000081523060048201526001600160a01b03871660248201526044810184905273f25212e676d1f7f89cd72ffee66158f54124644590634232cd63906064015f604051808303815f87803b158015610a9f575f80fd5b505af1158015610ab1573d5f803e3d5ffd5b50506040516361d9ad3f60e11b81523060048201526001600160a01b03881660248201526044810185905273f25212e676d1f7f89cd72ffee66158f541246445925063c3b35a7e91506064015f604051808303815f87803b158015610b14575f80fd5b505af1158015610b26573d5f803e3d5ffd5b50505050610b3c85858385610bb8612710610f7a565b50505050505050565b5f610b6585307377b6569f0dbc4f265a575a84540c2a0cae116a90611221565b604081810151606083015191517f4b7cab4a0000000000000000000000000000000000000000000000000000000081526001600160a01b0389166004820152306024820152929350915f907377b6569f0dbc4f265a575a84540c2a0cae116a9090634b7cab4a906044016020604051808303815f875af1158015610beb573d5f803e3d5ffd5b505050506040513d601f19601f82011682018060405250810190610c0f91906117eb565b9050805f03610c655760405162461bcd60e51b815260206004820152601160248201527f4e6f20506f736974696f6e20466f756e6400000000000000000000000000000060448201526064015b60405180910390fd5b5f861215610df1578115610d3257604051630e96466d60e41b81526001600160a01b03808a16600483015260248201889052881660448201527317dad892347803551ceee2d377d010034df643479063e96466d0906064016020604051808303815f875af1158015610cd9573d5f803e3d5ffd5b505050506040513d601f19601f82011682018060405250810190610cfd91906117eb565b505f8260017e032a912636b05d31af43f00b91359ddcfddebcffa7c15470a13ba1992e10f060405160405180910390a4610731565b604051635833cdf960e01b81526001600160a01b03808a16600483015260248201889052881660448201527317dad892347803551ceee2d377d010034df6434790635833cdf9906064016020604051808303815f875af1158015610d98573d5f803e3d5ffd5b505050506040513d601f19601f82011682018060405250810190610dbc91906117eb565b508160015f7e032a912636b05d31af43f00b91359ddcfddebcffa7c15470a13ba1992e10f060405160405180910390a4610731565b8215610eb657604051630e96466d60e41b81526001600160a01b03808a16600483015260248201889052881660448201527317dad892347803551ceee2d377d010034df643479063e96466d0906064016020604051808303815f875af1158015610e5d573d5f803e3d5ffd5b505050506040513d601f19601f82011682018060405250810190610e8191906117eb565b506001835f7e032a912636b05d31af43f00b91359ddcfddebcffa7c15470a13ba1992e10f060405160405180910390a4610731565b604051635833cdf960e01b81526001600160a01b03808a16600483015260248201889052881660448201527317dad892347803551ceee2d377d010034df6434790635833cdf9906064016020604051808303815f875af1158015610f1c573d5f803e3d5ffd5b505050506040513d601f19601f82011682018060405250810190610f4091906117eb565b50826001807e032a912636b05d31af43f00b91359ddcfddebcffa7c15470a13ba1992e10f060405160405180910390a45050505050505050565b5f610f9a8773e592427a0aece92de3edee1f18e0157c05861564866110f2565b6040805160a0810182526bffffffffffffffffffffffff1960608a811b821660c08401527fffffff000000000000000000000000000000000000000000000000000000000060e888811b821660d48601527f0d500b1d8e8ef31e21c99d1db9a6444d3adf127000000000000000000000000060d786015287901b1660eb84015289811b90911660ee830152825180830360e20181526101028301845282526001600160a01b0388166020830152428284015281018690525f608082015290517fc04b8d5900000000000000000000000000000000000000000000000000000000815273e592427a0aece92de3edee1f18e0157c058615649063c04b8d59906110a69084906004016118b7565b6020604051808303815f875af11580156110c2573d5f803e3d5ffd5b505050506040513d601f19601f820116820180604052508101906110e691906117eb565b98975050505050505050565b604080516001600160a01b038481166024830152604480830185905283518084039091018152606490920183526020820180516001600160e01b03167f095ea7b30000000000000000000000000000000000000000000000000000000017905291515f92839290871691611166919061190f565b5f604051808303815f865af19150503d805f811461119f576040519150601f19603f3d011682016040523d82523d5f602084013e6111a4565b606091505b50915091508180156111ce5750805115806111ce5750808060200190518101906111ce919061192a565b61121a5760405162461bcd60e51b815260206004820152600260248201527f53410000000000000000000000000000000000000000000000000000000000006044820152606401610c5c565b5050505050565b61126c6040518060e001604052805f6001600160a01b031681526020015f6001600160a01b031681526020015f81526020015f81526020015f81526020015f81526020015f81525090565b6040517f13d21cdf0000000000000000000000000000000000000000000000000000000081526001600160a01b03851660048201525f90734f57c40d3daa7bf2ec970dd157b1268982158720906313d21cdf906024015f60405180830381865afa1580156112dc573d5f803e3d5ffd5b505050506040513d5f823e601f3d908101601f191682016040526113039190810190611a30565b6040517ff408646e0000000000000000000000000000000000000000000000000000000081526001600160a01b0380861660048301528088166024830152861660448201529091505f90734f57c40d3daa7bf2ec970dd157b12689821587209063f408646e9060640161028060405180830381865afa158015611388573d5f803e3d5ffd5b505050506040513d601f19601f820116820180604052508101906113ac9190611b3f565b60c080840180516001600160a01b03908116875260e0860151811660208801529451918601919091526101e0820151604086015261022082015160608601526101c082015160a0860152610200909101516080850152519091168252509392505050565b604080516001600160a01b038481166024830152604480830185905283518084039091018152606490920183526020820180516001600160e01b03167fa9059cbb0000000000000000000000000000000000000000000000000000000017905291515f92839290871691611484919061190f565b5f604051808303815f865af19150503d805f81146114bd576040519150601f19603f3d011682016040523d82523d5f602084013e6114c2565b606091505b50915091508180156114ec5750805115806114ec5750808060200190518101906114ec919061192a565b61121a5760405162461bcd60e51b815260206004820152600260248201527f53540000000000000000000000000000000000000000000000000000000000006044820152606401610c5c565b611596828260405160240161154e929190611c2f565b60408051601f198184030181529190526020810180516001600160e01b03167f643fd0df0000000000000000000000000000000000000000000000000000000017905261159a565b5050565b6115a3816115a6565b50565b5f6a636f6e736f6c652e6c6f6790505f80835160208501845afa505050565b6001600160a01b03811681146115a3575f80fd5b5f602082840312156115e9575f80fd5b81356115f4816115c5565b9392505050565b5f805f805f8060c08789031215611610575f80fd5b863561161b816115c5565b9550602087013561162b816115c5565b9450604087013561163b816115c5565b9350606087013561164b816115c5565b9598949750929560808101359460a0909101359350915050565b5f805f805f60a08688031215611679575f80fd5b8535611684816115c5565b94506020860135611694816115c5565b935060408601356116a4816115c5565b925060608601356116b4816115c5565b949793965091946080013592915050565b5f805f805f8060c087890312156116da575f80fd5b86356116e5816115c5565b955060208701356116f5816115c5565b94506040870135611705816115c5565b9350606087013592506080870135915060a0870135611723816115c5565b809150509295509295509295565b5f805f8060808587031215611744575f80fd5b843561174f816115c5565b9350602085013561175f816115c5565b9250604085013591506060850135611776816115c5565b939692955090935050565b805169ffffffffffffffffffff8116811461179a575f80fd5b919050565b5f805f805f60a086880312156117b3575f80fd5b6117bc86611781565b94506020860151935060408601519250606086015191506117df60808701611781565b90509295509295909350565b5f602082840312156117fb575f80fd5b5051919050565b5f7f8000000000000000000000000000000000000000000000000000000000000000820361183e57634e487b7160e01b5f52601160045260245ffd5b505f0390565b805161179a816115c5565b5f6020828403121561185f575f80fd5b81516115f4816115c5565b5f5b8381101561188457818101518382015260200161186c565b50505f910152565b5f81518084526118a381602086016020860161186a565b601f01601f19169290920160200192915050565b602081525f825160a060208401526118d260c084018261188c565b90506001600160a01b0360208501511660408401526040840151606084015260608401516080840152608084015160a08401528091505092915050565b5f825161192081846020870161186a565b9190910192915050565b5f6020828403121561193a575f80fd5b815180151581146115f4575f80fd5b634e487b7160e01b5f52604160045260245ffd5b604051610180810167ffffffffffffffff8111828210171561198157611981611949565b60405290565b604051610280810167ffffffffffffffff8111828210171561198157611981611949565b5f82601f8301126119ba575f80fd5b815167ffffffffffffffff808211156119d5576119d5611949565b604051601f8301601f19908116603f011681019082821181831017156119fd576119fd611949565b81604052838152866020858801011115611a15575f80fd5b611a2684602083016020890161186a565b9695505050505050565b5f60208284031215611a40575f80fd5b815167ffffffffffffffff80821115611a57575f80fd5b908301906101808286031215611a6b575f80fd5b611a7361195d565b8251815260208301516020820152604083015160408201526060830151606082015260808301516080820152611aab60a08401611844565b60a0820152611abc60c08401611844565b60c0820152611acd60e08401611844565b60e08201526101008084015183811115611ae5575f80fd5b611af1888287016119ab565b8284015250506101208084015183811115611b0a575f80fd5b611b16888287016119ab565b918301919091525061014083810151908201526101609283015192810192909252509392505050565b5f6102808284031215611b50575f80fd5b611b58611987565b825181526020808401519082015260408084015190820152606080840151908201526080808401519082015260a0808401519082015260c0808401519082015260e08084015190820152610100808401519082015261012080840151908201526101408084015190820152610160808401519082015261018080840151908201526101a080840151908201526101c080840151908201526101e08084015190820152610200808401519082015261022080840151908201526102408084015190820152610260928301519281019290925250919050565b828152604060208201525f611c47604083018461188c565b94935050505056fea2646970667358221220794a71ce97fa16bd3969970ebe5882160d3c9911b0dd4b12e80c82f910d7535a64736f6c63430008140033",
			"opcodes": "PUSH1 0xA0 PUSH1 0x40 MSTORE CALLVALUE DUP1 ISZERO PUSH2 0xF JUMPI PUSH0 DUP1 REVERT JUMPDEST POP CALLER PUSH1 0x80 MSTORE PUSH1 0x80 MLOAD PUSH2 0x1C85 PUSH2 0x2C PUSH0 CODECOPY PUSH0 PUSH2 0x210 ADD MSTORE PUSH2 0x1C85 PUSH0 RETURN INVALID PUSH1 0x80 PUSH1 0x40 MSTORE CALLVALUE DUP1 ISZERO PUSH2 0xF JUMPI PUSH0 DUP1 REVERT JUMPDEST POP PUSH1 0x4 CALLDATASIZE LT PUSH2 0xDA JUMPI PUSH0 CALLDATALOAD PUSH1 0xE0 SHR DUP1 PUSH4 0x92C5D035 GT PUSH2 0x88 JUMPI DUP1 PUSH4 0xB93BC415 GT PUSH2 0x63 JUMPI DUP1 PUSH4 0xB93BC415 EQ PUSH2 0x1BA JUMPI DUP1 PUSH4 0xC31C9C07 EQ PUSH2 0x1D5 JUMPI DUP1 PUSH4 0xE1AB2228 EQ PUSH2 0x1F0 JUMPI DUP1 PUSH4 0xF77C4791 EQ PUSH2 0x20B JUMPI PUSH0 DUP1 REVERT JUMPDEST DUP1 PUSH4 0x92C5D035 EQ PUSH2 0x181 JUMPI DUP1 PUSH4 0xA6D7F530 EQ PUSH2 0x194 JUMPI DUP1 PUSH4 0xAC7CCCB0 EQ PUSH2 0x1A7 JUMPI PUSH0 DUP1 REVERT JUMPDEST DUP1 PUSH4 0x6BBB194B GT PUSH2 0xB8 JUMPI DUP1 PUSH4 0x6BBB194B EQ PUSH2 0x14C JUMPI DUP1 PUSH4 0x6F0937B3 EQ PUSH2 0x167 JUMPI DUP1 PUSH4 0x792023CA EQ PUSH2 0x17A JUMPI PUSH0 DUP1 REVERT JUMPDEST DUP1 PUSH4 0x16345F18 EQ PUSH2 0xDE JUMPI DUP1 PUSH4 0x501F5DBE EQ PUSH2 0x104 JUMPI DUP1 PUSH4 0x63B0E66A EQ PUSH2 0x119 JUMPI JUMPDEST PUSH0 DUP1 REVERT JUMPDEST PUSH2 0xF1 PUSH2 0xEC CALLDATASIZE PUSH1 0x4 PUSH2 0x15D9 JUMP JUMPDEST PUSH2 0x232 JUMP JUMPDEST PUSH1 0x40 MLOAD SWAP1 DUP2 MSTORE PUSH1 0x20 ADD JUMPDEST PUSH1 0x40 MLOAD DUP1 SWAP2 SUB SWAP1 RETURN JUMPDEST PUSH2 0x117 PUSH2 0x112 CALLDATASIZE PUSH1 0x4 PUSH2 0x15FB JUMP JUMPDEST PUSH2 0x29E JUMP JUMPDEST STOP JUMPDEST PUSH2 0x134 PUSH20 0x4F57C40D3DAA7BF2EC970DD157B1268982158720 DUP2 JUMP JUMPDEST PUSH1 0x40 MLOAD PUSH1 0x1 PUSH1 0x1 PUSH1 0xA0 SHL SUB SWAP1 SWAP2 AND DUP2 MSTORE PUSH1 0x20 ADD PUSH2 0xFB JUMP JUMPDEST PUSH2 0x134 PUSH20 0xF25212E676D1F7F89CD72FFEE66158F541246445 DUP2 JUMP JUMPDEST PUSH2 0x117 PUSH2 0x175 CALLDATASIZE PUSH1 0x4 PUSH2 0x1665 JUMP JUMPDEST PUSH2 0x4D6 JUMP JUMPDEST PUSH1 0x64 PUSH2 0xF1 JUMP JUMPDEST PUSH2 0x117 PUSH2 0x18F CALLDATASIZE PUSH1 0x4 PUSH2 0x16C5 JUMP JUMPDEST PUSH2 0x73B JUMP JUMPDEST PUSH2 0x117 PUSH2 0x1A2 CALLDATASIZE PUSH1 0x4 PUSH2 0x16C5 JUMP JUMPDEST PUSH2 0x963 JUMP JUMPDEST PUSH2 0x117 PUSH2 0x1B5 CALLDATASIZE PUSH1 0x4 PUSH2 0x1731 JUMP JUMPDEST PUSH2 0xB45 JUMP JUMPDEST PUSH2 0x134 PUSH20 0x17DAD892347803551CEEE2D377D010034DF64347 DUP2 JUMP JUMPDEST PUSH2 0x134 PUSH20 0xE592427A0AECE92DE3EDEE1F18E0157C05861564 DUP2 JUMP JUMPDEST PUSH2 0x134 PUSH20 0x77B6569F0DBC4F265A575A84540C2A0CAE116A90 DUP2 JUMP JUMPDEST PUSH2 0x134 PUSH32 0x0 DUP2 JUMP JUMPDEST PUSH0 DUP2 PUSH1 0x1 PUSH1 0x1 PUSH1 0xA0 SHL SUB AND PUSH4 0xFEAF968C PUSH1 0x40 MLOAD DUP2 PUSH4 0xFFFFFFFF AND PUSH1 0xE0 SHL DUP2 MSTORE PUSH1 0x4 ADD PUSH1 0xA0 PUSH1 0x40 MLOAD DUP1 DUP4 SUB DUP2 DUP7 GAS STATICCALL ISZERO DUP1 ISZERO PUSH2 0x26F JUMPI RETURNDATASIZE PUSH0 DUP1 RETURNDATACOPY RETURNDATASIZE PUSH0 REVERT JUMPDEST POP POP POP POP PUSH1 0x40 MLOAD RETURNDATASIZE PUSH1 0x1F NOT PUSH1 0x1F DUP3 ADD AND DUP3 ADD DUP1 PUSH1 0x40 MSTORE POP DUP2 ADD SWAP1 PUSH2 0x293 SWAP2 SWAP1 PUSH2 0x179F JUMP JUMPDEST POP SWAP2 SWAP6 SWAP5 POP POP POP POP POP JUMP JUMPDEST DUP5 PUSH1 0x1 PUSH1 0x1 PUSH1 0xA0 SHL SUB AND DUP7 PUSH1 0x1 PUSH1 0x1 PUSH1 0xA0 SHL SUB AND EQ PUSH2 0x2CB JUMPI PUSH2 0x2C9 DUP6 DUP8 ADDRESS DUP5 PUSH2 0xBB8 PUSH2 0x2710 PUSH2 0xF7A JUMP JUMPDEST POP JUMPDEST PUSH1 0x40 MLOAD PUSH4 0x70A08231 PUSH1 0xE0 SHL DUP2 MSTORE ADDRESS PUSH1 0x4 DUP3 ADD MSTORE PUSH0 SWAP1 PUSH1 0x1 PUSH1 0x1 PUSH1 0xA0 SHL SUB DUP9 AND SWAP1 PUSH4 0x70A08231 SWAP1 PUSH1 0x24 ADD PUSH1 0x20 PUSH1 0x40 MLOAD DUP1 DUP4 SUB DUP2 DUP7 GAS STATICCALL ISZERO DUP1 ISZERO PUSH2 0x30F JUMPI RETURNDATASIZE PUSH0 DUP1 RETURNDATACOPY RETURNDATASIZE PUSH0 REVERT JUMPDEST POP POP POP POP PUSH1 0x40 MLOAD RETURNDATASIZE PUSH1 0x1F NOT PUSH1 0x1F DUP3 ADD AND DUP3 ADD DUP1 PUSH1 0x40 MSTORE POP DUP2 ADD SWAP1 PUSH2 0x333 SWAP2 SWAP1 PUSH2 0x17EB JUMP JUMPDEST SWAP1 POP PUSH2 0x355 DUP8 PUSH20 0xF25212E676D1F7F89CD72FFEE66158F541246445 PUSH0 NOT PUSH2 0x10F2 JUMP JUMPDEST PUSH1 0x40 MLOAD PUSH4 0x70A08231 PUSH1 0xE0 SHL DUP2 MSTORE ADDRESS PUSH1 0x4 DUP3 ADD DUP2 SWAP1 MSTORE PUSH20 0xF25212E676D1F7F89CD72FFEE66158F541246445 SWAP2 PUSH4 0x4232CD63 SWAP2 SWAP1 DUP11 SWAP1 PUSH1 0x1 PUSH1 0x1 PUSH1 0xA0 SHL SUB DUP3 AND SWAP1 PUSH4 0x70A08231 SWAP1 PUSH1 0x24 ADD PUSH1 0x20 PUSH1 0x40 MLOAD DUP1 DUP4 SUB DUP2 DUP7 GAS STATICCALL ISZERO DUP1 ISZERO PUSH2 0x3B8 JUMPI RETURNDATASIZE PUSH0 DUP1 RETURNDATACOPY RETURNDATASIZE PUSH0 REVERT JUMPDEST POP POP POP POP PUSH1 0x40 MLOAD RETURNDATASIZE PUSH1 0x1F NOT PUSH1 0x1F DUP3 ADD AND DUP3 ADD DUP1 PUSH1 0x40 MSTORE POP DUP2 ADD SWAP1 PUSH2 0x3DC SWAP2 SWAP1 PUSH2 0x17EB JUMP JUMPDEST PUSH1 0x40 MLOAD PUSH32 0xFFFFFFFF00000000000000000000000000000000000000000000000000000000 PUSH1 0xE0 DUP7 SWAP1 SHL AND DUP2 MSTORE PUSH1 0x1 PUSH1 0x1 PUSH1 0xA0 SHL SUB SWAP4 DUP5 AND PUSH1 0x4 DUP3 ADD MSTORE SWAP3 SWAP1 SWAP2 AND PUSH1 0x24 DUP4 ADD MSTORE PUSH1 0x44 DUP3 ADD MSTORE PUSH1 0x64 ADD PUSH0 PUSH1 0x40 MLOAD DUP1 DUP4 SUB DUP2 PUSH0 DUP8 DUP1 EXTCODESIZE ISZERO DUP1 ISZERO PUSH2 0x440 JUMPI PUSH0 DUP1 REVERT JUMPDEST POP GAS CALL ISZERO DUP1 ISZERO PUSH2 0x452 JUMPI RETURNDATASIZE PUSH0 DUP1 RETURNDATACOPY RETURNDATASIZE PUSH0 REVERT JUMPDEST POP POP PUSH1 0x40 MLOAD PUSH4 0x61D9AD3F PUSH1 0xE1 SHL DUP2 MSTORE PUSH1 0x1 PUSH1 0x1 PUSH1 0xA0 SHL SUB DUP1 DUP10 AND PUSH1 0x4 DUP4 ADD MSTORE DUP8 AND PUSH1 0x24 DUP3 ADD MSTORE PUSH1 0x44 DUP2 ADD DUP7 SWAP1 MSTORE PUSH20 0xF25212E676D1F7F89CD72FFEE66158F541246445 SWAP3 POP PUSH4 0xC3B35A7E SWAP2 POP PUSH1 0x64 ADD PUSH0 PUSH1 0x40 MLOAD DUP1 DUP4 SUB DUP2 PUSH0 DUP8 DUP1 EXTCODESIZE ISZERO DUP1 ISZERO PUSH2 0x4B7 JUMPI PUSH0 DUP1 REVERT JUMPDEST POP GAS CALL ISZERO DUP1 ISZERO PUSH2 0x4C9 JUMPI RETURNDATASIZE PUSH0 DUP1 RETURNDATACOPY RETURNDATASIZE PUSH0 REVERT JUMPDEST POP POP POP POP POP POP POP POP POP POP POP JUMP JUMPDEST PUSH0 DUP1 PUSH0 PUSH2 0x4F8 DUP9 ADDRESS PUSH20 0x77B6569F0DBC4F265A575A84540C2A0CAE116A90 PUSH2 0x1221 JUMP JUMPDEST SWAP1 POP DUP7 PUSH1 0x1 PUSH1 0x1 PUSH1 0xA0 SHL SUB AND DUP6 PUSH1 0x1 PUSH1 0x1 PUSH1 0xA0 SHL SUB AND EQ PUSH2 0x52C JUMPI PUSH2 0x525 DUP8 DUP7 ADDRESS DUP8 PUSH2 0xBB8 PUSH2 0x2710 PUSH2 0xF7A JUMP JUMPDEST SWAP2 POP PUSH2 0x530 JUMP JUMPDEST DUP4 SWAP2 POP JUMPDEST PUSH0 DUP1 DUP4 PUSH31 0x32A912636B05D31AF43F00B91359DDCFDDEBCFFA7C15470A13BA1992E10F0 PUSH1 0x40 MLOAD PUSH1 0x40 MLOAD DUP1 SWAP2 SUB SWAP1 LOG4 PUSH2 0x57E DUP6 PUSH20 0x17DAD892347803551CEEE2D377D010034DF64347 PUSH0 NOT PUSH2 0x10F2 JUMP JUMPDEST DUP1 PUSH0 ADD MLOAD PUSH1 0x1 PUSH1 0x1 PUSH1 0xA0 SHL SUB AND DUP6 PUSH1 0x1 PUSH1 0x1 PUSH1 0xA0 SHL SUB AND SUB PUSH2 0x5AA JUMPI PUSH2 0x5A3 DUP3 PUSH2 0x1802 JUMP JUMPDEST SWAP3 POP PUSH2 0x5AE JUMP JUMPDEST DUP2 SWAP3 POP JUMPDEST PUSH1 0x40 MLOAD PUSH32 0x8262654700000000000000000000000000000000000000000000000000000000 DUP2 MSTORE PUSH1 0x1 PUSH1 0x1 PUSH1 0xA0 SHL SUB DUP10 AND PUSH1 0x4 DUP3 ADD MSTORE PUSH1 0x24 DUP2 ADD DUP5 SWAP1 MSTORE ADDRESS PUSH1 0x44 DUP3 ADD MSTORE PUSH20 0x17DAD892347803551CEEE2D377D010034DF64347 SWAP1 PUSH4 0x82626547 SWAP1 PUSH1 0x64 ADD PUSH1 0x20 PUSH1 0x40 MLOAD DUP1 DUP4 SUB DUP2 PUSH0 DUP8 GAS CALL ISZERO DUP1 ISZERO PUSH2 0x62B JUMPI RETURNDATASIZE PUSH0 DUP1 RETURNDATACOPY RETURNDATASIZE PUSH0 REVERT JUMPDEST POP POP POP POP PUSH1 0x40 MLOAD RETURNDATASIZE PUSH1 0x1F NOT PUSH1 0x1F DUP3 ADD AND DUP3 ADD DUP1 PUSH1 0x40 MSTORE POP DUP2 ADD SWAP1 PUSH2 0x64F SWAP2 SWAP1 PUSH2 0x17EB JUMP JUMPDEST POP PUSH1 0x40 MLOAD PUSH4 0x70A08231 PUSH1 0xE0 SHL DUP2 MSTORE ADDRESS PUSH1 0x4 DUP3 ADD MSTORE PUSH0 SWAP1 PUSH1 0x1 PUSH1 0x1 PUSH1 0xA0 SHL SUB DUP8 AND SWAP1 PUSH4 0x70A08231 SWAP1 PUSH1 0x24 ADD PUSH1 0x20 PUSH1 0x40 MLOAD DUP1 DUP4 SUB DUP2 DUP7 GAS STATICCALL ISZERO DUP1 ISZERO PUSH2 0x694 JUMPI RETURNDATASIZE PUSH0 DUP1 RETURNDATACOPY RETURNDATASIZE PUSH0 REVERT JUMPDEST POP POP POP POP PUSH1 0x40 MLOAD RETURNDATASIZE PUSH1 0x1F NOT PUSH1 0x1F DUP3 ADD AND DUP3 ADD DUP1 PUSH1 0x40 MSTORE POP DUP2 ADD SWAP1 PUSH2 0x6B8 SWAP2 SWAP1 PUSH2 0x17EB JUMP JUMPDEST GT ISZERO PUSH2 0x731 JUMPI PUSH1 0x40 MLOAD PUSH4 0x70A08231 PUSH1 0xE0 SHL DUP2 MSTORE ADDRESS PUSH1 0x4 DUP3 ADD MSTORE PUSH2 0x731 SWAP1 DUP7 SWAP1 DUP9 SWAP1 PUSH1 0x1 PUSH1 0x1 PUSH1 0xA0 SHL SUB DUP4 AND SWAP1 PUSH4 0x70A08231 SWAP1 PUSH1 0x24 ADD PUSH1 0x20 PUSH1 0x40 MLOAD DUP1 DUP4 SUB DUP2 DUP7 GAS STATICCALL ISZERO DUP1 ISZERO PUSH2 0x708 JUMPI RETURNDATASIZE PUSH0 DUP1 RETURNDATACOPY RETURNDATASIZE PUSH0 REVERT JUMPDEST POP POP POP POP PUSH1 0x40 MLOAD RETURNDATASIZE PUSH1 0x1F NOT PUSH1 0x1F DUP3 ADD AND DUP3 ADD DUP1 PUSH1 0x40 MSTORE POP DUP2 ADD SWAP1 PUSH2 0x72C SWAP2 SWAP1 PUSH2 0x17EB JUMP JUMPDEST PUSH2 0x1410 JUMP JUMPDEST POP POP POP POP POP POP POP POP JUMP JUMPDEST PUSH0 DUP7 PUSH1 0x1 PUSH1 0x1 PUSH1 0xA0 SHL SUB AND PUSH4 0xDFE1681 PUSH1 0x40 MLOAD DUP2 PUSH4 0xFFFFFFFF AND PUSH1 0xE0 SHL DUP2 MSTORE PUSH1 0x4 ADD PUSH1 0x20 PUSH1 0x40 MLOAD DUP1 DUP4 SUB DUP2 DUP7 GAS STATICCALL ISZERO DUP1 ISZERO PUSH2 0x778 JUMPI RETURNDATASIZE PUSH0 DUP1 RETURNDATACOPY RETURNDATASIZE PUSH0 REVERT JUMPDEST POP POP POP POP PUSH1 0x40 MLOAD RETURNDATASIZE PUSH1 0x1F NOT PUSH1 0x1F DUP3 ADD AND DUP3 ADD DUP1 PUSH1 0x40 MSTORE POP DUP2 ADD SWAP1 PUSH2 0x79C SWAP2 SWAP1 PUSH2 0x184F JUMP JUMPDEST SWAP1 POP PUSH0 DUP8 PUSH1 0x1 PUSH1 0x1 PUSH1 0xA0 SHL SUB AND PUSH4 0xD21220A7 PUSH1 0x40 MLOAD DUP2 PUSH4 0xFFFFFFFF AND PUSH1 0xE0 SHL DUP2 MSTORE PUSH1 0x4 ADD PUSH1 0x20 PUSH1 0x40 MLOAD DUP1 DUP4 SUB DUP2 DUP7 GAS STATICCALL ISZERO DUP1 ISZERO PUSH2 0x7DB JUMPI RETURNDATASIZE PUSH0 DUP1 RETURNDATACOPY RETURNDATASIZE PUSH0 REVERT JUMPDEST POP POP POP POP PUSH1 0x40 MLOAD RETURNDATASIZE PUSH1 0x1F NOT PUSH1 0x1F DUP3 ADD AND DUP3 ADD DUP1 PUSH1 0x40 MSTORE POP DUP2 ADD SWAP1 PUSH2 0x7FF SWAP2 SWAP1 PUSH2 0x184F JUMP JUMPDEST SWAP1 POP PUSH0 DUP1 DUP6 SLT ISZERO PUSH2 0x811 JUMPI POP DUP2 PUSH2 0x814 JUMP JUMPDEST POP DUP1 JUMPDEST PUSH2 0x833 DUP9 PUSH20 0x17DAD892347803551CEEE2D377D010034DF64347 DUP9 PUSH2 0x10F2 JUMP JUMPDEST PUSH1 0x40 MLOAD PUSH32 0x8DEE946000000000000000000000000000000000000000000000000000000000 DUP2 MSTORE PUSH1 0x1 PUSH1 0x1 PUSH1 0xA0 SHL SUB DUP11 AND PUSH1 0x4 DUP3 ADD MSTORE PUSH1 0x24 DUP2 ADD DUP7 SWAP1 MSTORE PUSH1 0x44 DUP2 ADD DUP8 SWAP1 MSTORE ADDRESS PUSH1 0x64 DUP3 ADD MSTORE PUSH20 0x17DAD892347803551CEEE2D377D010034DF64347 SWAP1 PUSH4 0x8DEE9460 SWAP1 PUSH1 0x84 ADD PUSH0 PUSH1 0x40 MLOAD DUP1 DUP4 SUB DUP2 PUSH0 DUP8 DUP1 EXTCODESIZE ISZERO DUP1 ISZERO PUSH2 0x8B2 JUMPI PUSH0 DUP1 REVERT JUMPDEST POP GAS CALL ISZERO DUP1 ISZERO PUSH2 0x8C4 JUMPI RETURNDATASIZE PUSH0 DUP1 RETURNDATACOPY RETURNDATASIZE PUSH0 REVERT JUMPDEST POP POP POP POP PUSH0 DUP6 SLT ISZERO PUSH2 0x8DC JUMPI PUSH2 0x8D9 DUP6 PUSH2 0x1802 JUMP JUMPDEST SWAP5 POP JUMPDEST PUSH1 0x40 MLOAD PUSH4 0x70A08231 PUSH1 0xE0 SHL DUP2 MSTORE ADDRESS PUSH1 0x4 DUP3 ADD MSTORE PUSH2 0x957 SWAP1 DUP3 SWAP1 DUP10 SWAP1 DUP8 SWAP1 PUSH1 0x1 PUSH1 0x1 PUSH1 0xA0 SHL SUB DUP5 AND SWAP1 PUSH4 0x70A08231 SWAP1 PUSH1 0x24 ADD PUSH1 0x20 PUSH1 0x40 MLOAD DUP1 DUP4 SUB DUP2 DUP7 GAS STATICCALL ISZERO DUP1 ISZERO PUSH2 0x928 JUMPI RETURNDATASIZE PUSH0 DUP1 RETURNDATACOPY RETURNDATASIZE PUSH0 REVERT JUMPDEST POP POP POP POP PUSH1 0x40 MLOAD RETURNDATASIZE PUSH1 0x1F NOT PUSH1 0x1F DUP3 ADD AND DUP3 ADD DUP1 PUSH1 0x40 MSTORE POP DUP2 ADD SWAP1 PUSH2 0x94C SWAP2 SWAP1 PUSH2 0x17EB JUMP JUMPDEST PUSH2 0xBB8 PUSH2 0x2710 PUSH2 0xF7A JUMP JUMPDEST POP POP POP POP POP POP POP POP POP POP JUMP JUMPDEST PUSH1 0x40 MLOAD PUSH4 0x70A08231 PUSH1 0xE0 SHL DUP2 MSTORE ADDRESS PUSH1 0x4 DUP3 ADD MSTORE PUSH2 0xA08 SWAP1 PUSH1 0x1 PUSH1 0x1 PUSH1 0xA0 SHL SUB DUP9 AND SWAP1 PUSH4 0x70A08231 SWAP1 PUSH1 0x24 ADD PUSH1 0x20 PUSH1 0x40 MLOAD DUP1 DUP4 SUB DUP2 DUP7 GAS STATICCALL ISZERO DUP1 ISZERO PUSH2 0x9A9 JUMPI RETURNDATASIZE PUSH0 DUP1 RETURNDATACOPY RETURNDATASIZE PUSH0 REVERT JUMPDEST POP POP POP POP PUSH1 0x40 MLOAD RETURNDATASIZE PUSH1 0x1F NOT PUSH1 0x1F DUP3 ADD AND DUP3 ADD DUP1 PUSH1 0x40 MSTORE POP DUP2 ADD SWAP1 PUSH2 0x9CD SWAP2 SWAP1 PUSH2 0x17EB JUMP JUMPDEST PUSH1 0x40 MLOAD DUP1 PUSH1 0x40 ADD PUSH1 0x40 MSTORE DUP1 PUSH1 0x11 DUP2 MSTORE PUSH1 0x20 ADD PUSH32 0x62616C616E6365206F6620737570706C79000000000000000000000000000000 DUP2 MSTORE POP PUSH2 0x1538 JUMP JUMPDEST PUSH2 0xA27 DUP7 PUSH20 0xF25212E676D1F7F89CD72FFEE66158F541246445 DUP6 PUSH2 0x10F2 JUMP JUMPDEST PUSH1 0x40 MLOAD PUSH32 0x4232CD6300000000000000000000000000000000000000000000000000000000 DUP2 MSTORE ADDRESS PUSH1 0x4 DUP3 ADD MSTORE PUSH1 0x1 PUSH1 0x1 PUSH1 0xA0 SHL SUB DUP8 AND PUSH1 0x24 DUP3 ADD MSTORE PUSH1 0x44 DUP2 ADD DUP5 SWAP1 MSTORE PUSH20 0xF25212E676D1F7F89CD72FFEE66158F541246445 SWAP1 PUSH4 0x4232CD63 SWAP1 PUSH1 0x64 ADD PUSH0 PUSH1 0x40 MLOAD DUP1 DUP4 SUB DUP2 PUSH0 DUP8 DUP1 EXTCODESIZE ISZERO DUP1 ISZERO PUSH2 0xA9F JUMPI PUSH0 DUP1 REVERT JUMPDEST POP GAS CALL ISZERO DUP1 ISZERO PUSH2 0xAB1 JUMPI RETURNDATASIZE PUSH0 DUP1 RETURNDATACOPY RETURNDATASIZE PUSH0 REVERT JUMPDEST POP POP PUSH1 0x40 MLOAD PUSH4 0x61D9AD3F PUSH1 0xE1 SHL DUP2 MSTORE ADDRESS PUSH1 0x4 DUP3 ADD MSTORE PUSH1 0x1 PUSH1 0x1 PUSH1 0xA0 SHL SUB DUP9 AND PUSH1 0x24 DUP3 ADD MSTORE PUSH1 0x44 DUP2 ADD DUP6 SWAP1 MSTORE PUSH20 0xF25212E676D1F7F89CD72FFEE66158F541246445 SWAP3 POP PUSH4 0xC3B35A7E SWAP2 POP PUSH1 0x64 ADD PUSH0 PUSH1 0x40 MLOAD DUP1 DUP4 SUB DUP2 PUSH0 DUP8 DUP1 EXTCODESIZE ISZERO DUP1 ISZERO PUSH2 0xB14 JUMPI PUSH0 DUP1 REVERT JUMPDEST POP GAS CALL ISZERO DUP1 ISZERO PUSH2 0xB26 JUMPI RETURNDATASIZE PUSH0 DUP1 RETURNDATACOPY RETURNDATASIZE PUSH0 REVERT JUMPDEST POP POP POP POP PUSH2 0xB3C DUP6 DUP6 DUP4 DUP6 PUSH2 0xBB8 PUSH2 0x2710 PUSH2 0xF7A JUMP JUMPDEST POP POP POP POP POP POP POP JUMP JUMPDEST PUSH0 PUSH2 0xB65 DUP6 ADDRESS PUSH20 0x77B6569F0DBC4F265A575A84540C2A0CAE116A90 PUSH2 0x1221 JUMP JUMPDEST PUSH1 0x40 DUP2 DUP2 ADD MLOAD PUSH1 0x60 DUP4 ADD MLOAD SWAP2 MLOAD PUSH32 0x4B7CAB4A00000000000000000000000000000000000000000000000000000000 DUP2 MSTORE PUSH1 0x1 PUSH1 0x1 PUSH1 0xA0 SHL SUB DUP10 AND PUSH1 0x4 DUP3 ADD MSTORE ADDRESS PUSH1 0x24 DUP3 ADD MSTORE SWAP3 SWAP4 POP SWAP2 PUSH0 SWAP1 PUSH20 0x77B6569F0DBC4F265A575A84540C2A0CAE116A90 SWAP1 PUSH4 0x4B7CAB4A SWAP1 PUSH1 0x44 ADD PUSH1 0x20 PUSH1 0x40 MLOAD DUP1 DUP4 SUB DUP2 PUSH0 DUP8 GAS CALL ISZERO DUP1 ISZERO PUSH2 0xBEB JUMPI RETURNDATASIZE PUSH0 DUP1 RETURNDATACOPY RETURNDATASIZE PUSH0 REVERT JUMPDEST POP POP POP POP PUSH1 0x40 MLOAD RETURNDATASIZE PUSH1 0x1F NOT PUSH1 0x1F DUP3 ADD AND DUP3 ADD DUP1 PUSH1 0x40 MSTORE POP DUP2 ADD SWAP1 PUSH2 0xC0F SWAP2 SWAP1 PUSH2 0x17EB JUMP JUMPDEST SWAP1 POP DUP1 PUSH0 SUB PUSH2 0xC65 JUMPI PUSH1 0x40 MLOAD PUSH3 0x461BCD PUSH1 0xE5 SHL DUP2 MSTORE PUSH1 0x20 PUSH1 0x4 DUP3 ADD MSTORE PUSH1 0x11 PUSH1 0x24 DUP3 ADD MSTORE PUSH32 0x4E6F20506F736974696F6E20466F756E64000000000000000000000000000000 PUSH1 0x44 DUP3 ADD MSTORE PUSH1 0x64 ADD JUMPDEST PUSH1 0x40 MLOAD DUP1 SWAP2 SUB SWAP1 REVERT JUMPDEST PUSH0 DUP7 SLT ISZERO PUSH2 0xDF1 JUMPI DUP2 ISZERO PUSH2 0xD32 JUMPI PUSH1 0x40 MLOAD PUSH4 0xE96466D PUSH1 0xE4 SHL DUP2 MSTORE PUSH1 0x1 PUSH1 0x1 PUSH1 0xA0 SHL SUB DUP1 DUP11 AND PUSH1 0x4 DUP4 ADD MSTORE PUSH1 0x24 DUP3 ADD DUP9 SWAP1 MSTORE DUP9 AND PUSH1 0x44 DUP3 ADD MSTORE PUSH20 0x17DAD892347803551CEEE2D377D010034DF64347 SWAP1 PUSH4 0xE96466D0 SWAP1 PUSH1 0x64 ADD PUSH1 0x20 PUSH1 0x40 MLOAD DUP1 DUP4 SUB DUP2 PUSH0 DUP8 GAS CALL ISZERO DUP1 ISZERO PUSH2 0xCD9 JUMPI RETURNDATASIZE PUSH0 DUP1 RETURNDATACOPY RETURNDATASIZE PUSH0 REVERT JUMPDEST POP POP POP POP PUSH1 0x40 MLOAD RETURNDATASIZE PUSH1 0x1F NOT PUSH1 0x1F DUP3 ADD AND DUP3 ADD DUP1 PUSH1 0x40 MSTORE POP DUP2 ADD SWAP1 PUSH2 0xCFD SWAP2 SWAP1 PUSH2 0x17EB JUMP JUMPDEST POP PUSH0 DUP3 PUSH1 0x1 PUSH31 0x32A912636B05D31AF43F00B91359DDCFDDEBCFFA7C15470A13BA1992E10F0 PUSH1 0x40 MLOAD PUSH1 0x40 MLOAD DUP1 SWAP2 SUB SWAP1 LOG4 PUSH2 0x731 JUMP JUMPDEST PUSH1 0x40 MLOAD PUSH4 0x5833CDF9 PUSH1 0xE0 SHL DUP2 MSTORE PUSH1 0x1 PUSH1 0x1 PUSH1 0xA0 SHL SUB DUP1 DUP11 AND PUSH1 0x4 DUP4 ADD MSTORE PUSH1 0x24 DUP3 ADD DUP9 SWAP1 MSTORE DUP9 AND PUSH1 0x44 DUP3 ADD MSTORE PUSH20 0x17DAD892347803551CEEE2D377D010034DF64347 SWAP1 PUSH4 0x5833CDF9 SWAP1 PUSH1 0x64 ADD PUSH1 0x20 PUSH1 0x40 MLOAD DUP1 DUP4 SUB DUP2 PUSH0 DUP8 GAS CALL ISZERO DUP1 ISZERO PUSH2 0xD98 JUMPI RETURNDATASIZE PUSH0 DUP1 RETURNDATACOPY RETURNDATASIZE PUSH0 REVERT JUMPDEST POP POP POP POP PUSH1 0x40 MLOAD RETURNDATASIZE PUSH1 0x1F NOT PUSH1 0x1F DUP3 ADD AND DUP3 ADD DUP1 PUSH1 0x40 MSTORE POP DUP2 ADD SWAP1 PUSH2 0xDBC SWAP2 SWAP1 PUSH2 0x17EB JUMP JUMPDEST POP DUP2 PUSH1 0x1 PUSH0 PUSH31 0x32A912636B05D31AF43F00B91359DDCFDDEBCFFA7C15470A13BA1992E10F0 PUSH1 0x40 MLOAD PUSH1 0x40 MLOAD DUP1 SWAP2 SUB SWAP1 LOG4 PUSH2 0x731 JUMP JUMPDEST DUP3 ISZERO PUSH2 0xEB6 JUMPI PUSH1 0x40 MLOAD PUSH4 0xE96466D PUSH1 0xE4 SHL DUP2 MSTORE PUSH1 0x1 PUSH1 0x1 PUSH1 0xA0 SHL SUB DUP1 DUP11 AND PUSH1 0x4 DUP4 ADD MSTORE PUSH1 0x24 DUP3 ADD DUP9 SWAP1 MSTORE DUP9 AND PUSH1 0x44 DUP3 ADD MSTORE PUSH20 0x17DAD892347803551CEEE2D377D010034DF64347 SWAP1 PUSH4 0xE96466D0 SWAP1 PUSH1 0x64 ADD PUSH1 0x20 PUSH1 0x40 MLOAD DUP1 DUP4 SUB DUP2 PUSH0 DUP8 GAS CALL ISZERO DUP1 ISZERO PUSH2 0xE5D JUMPI RETURNDATASIZE PUSH0 DUP1 RETURNDATACOPY RETURNDATASIZE PUSH0 REVERT JUMPDEST POP POP POP POP PUSH1 0x40 MLOAD RETURNDATASIZE PUSH1 0x1F NOT PUSH1 0x1F DUP3 ADD AND DUP3 ADD DUP1 PUSH1 0x40 MSTORE POP DUP2 ADD SWAP1 PUSH2 0xE81 SWAP2 SWAP1 PUSH2 0x17EB JUMP JUMPDEST POP PUSH1 0x1 DUP4 PUSH0 PUSH31 0x32A912636B05D31AF43F00B91359DDCFDDEBCFFA7C15470A13BA1992E10F0 PUSH1 0x40 MLOAD PUSH1 0x40 MLOAD DUP1 SWAP2 SUB SWAP1 LOG4 PUSH2 0x731 JUMP JUMPDEST PUSH1 0x40 MLOAD PUSH4 0x5833CDF9 PUSH1 0xE0 SHL DUP2 MSTORE PUSH1 0x1 PUSH1 0x1 PUSH1 0xA0 SHL SUB DUP1 DUP11 AND PUSH1 0x4 DUP4 ADD MSTORE PUSH1 0x24 DUP3 ADD DUP9 SWAP1 MSTORE DUP9 AND PUSH1 0x44 DUP3 ADD MSTORE PUSH20 0x17DAD892347803551CEEE2D377D010034DF64347 SWAP1 PUSH4 0x5833CDF9 SWAP1 PUSH1 0x64 ADD PUSH1 0x20 PUSH1 0x40 MLOAD DUP1 DUP4 SUB DUP2 PUSH0 DUP8 GAS CALL ISZERO DUP1 ISZERO PUSH2 0xF1C JUMPI RETURNDATASIZE PUSH0 DUP1 RETURNDATACOPY RETURNDATASIZE PUSH0 REVERT JUMPDEST POP POP POP POP PUSH1 0x40 MLOAD RETURNDATASIZE PUSH1 0x1F NOT PUSH1 0x1F DUP3 ADD AND DUP3 ADD DUP1 PUSH1 0x40 MSTORE POP DUP2 ADD SWAP1 PUSH2 0xF40 SWAP2 SWAP1 PUSH2 0x17EB JUMP JUMPDEST POP DUP3 PUSH1 0x1 DUP1 PUSH31 0x32A912636B05D31AF43F00B91359DDCFDDEBCFFA7C15470A13BA1992E10F0 PUSH1 0x40 MLOAD PUSH1 0x40 MLOAD DUP1 SWAP2 SUB SWAP1 LOG4 POP POP POP POP POP POP POP POP JUMP JUMPDEST PUSH0 PUSH2 0xF9A DUP8 PUSH20 0xE592427A0AECE92DE3EDEE1F18E0157C05861564 DUP7 PUSH2 0x10F2 JUMP JUMPDEST PUSH1 0x40 DUP1 MLOAD PUSH1 0xA0 DUP2 ADD DUP3 MSTORE PUSH12 0xFFFFFFFFFFFFFFFFFFFFFFFF NOT PUSH1 0x60 DUP11 DUP2 SHL DUP3 AND PUSH1 0xC0 DUP5 ADD MSTORE PUSH32 0xFFFFFF0000000000000000000000000000000000000000000000000000000000 PUSH1 0xE8 DUP9 DUP2 SHL DUP3 AND PUSH1 0xD4 DUP7 ADD MSTORE PUSH32 0xD500B1D8E8EF31E21C99D1DB9A6444D3ADF1270000000000000000000000000 PUSH1 0xD7 DUP7 ADD MSTORE DUP8 SWAP1 SHL AND PUSH1 0xEB DUP5 ADD MSTORE DUP10 DUP2 SHL SWAP1 SWAP2 AND PUSH1 0xEE DUP4 ADD MSTORE DUP3 MLOAD DUP1 DUP4 SUB PUSH1 0xE2 ADD DUP2 MSTORE PUSH2 0x102 DUP4 ADD DUP5 MSTORE DUP3 MSTORE PUSH1 0x1 PUSH1 0x1 PUSH1 0xA0 SHL SUB DUP9 AND PUSH1 0x20 DUP4 ADD MSTORE TIMESTAMP DUP3 DUP5 ADD MSTORE DUP2 ADD DUP7 SWAP1 MSTORE PUSH0 PUSH1 0x80 DUP3 ADD MSTORE SWAP1 MLOAD PUSH32 0xC04B8D5900000000000000000000000000000000000000000000000000000000 DUP2 MSTORE PUSH20 0xE592427A0AECE92DE3EDEE1F18E0157C05861564 SWAP1 PUSH4 0xC04B8D59 SWAP1 PUSH2 0x10A6 SWAP1 DUP5 SWAP1 PUSH1 0x4 ADD PUSH2 0x18B7 JUMP JUMPDEST PUSH1 0x20 PUSH1 0x40 MLOAD DUP1 DUP4 SUB DUP2 PUSH0 DUP8 GAS CALL ISZERO DUP1 ISZERO PUSH2 0x10C2 JUMPI RETURNDATASIZE PUSH0 DUP1 RETURNDATACOPY RETURNDATASIZE PUSH0 REVERT JUMPDEST POP POP POP POP PUSH1 0x40 MLOAD RETURNDATASIZE PUSH1 0x1F NOT PUSH1 0x1F DUP3 ADD AND DUP3 ADD DUP1 PUSH1 0x40 MSTORE POP DUP2 ADD SWAP1 PUSH2 0x10E6 SWAP2 SWAP1 PUSH2 0x17EB JUMP JUMPDEST SWAP9 SWAP8 POP POP POP POP POP POP POP POP JUMP JUMPDEST PUSH1 0x40 DUP1 MLOAD PUSH1 0x1 PUSH1 0x1 PUSH1 0xA0 SHL SUB DUP5 DUP2 AND PUSH1 0x24 DUP4 ADD MSTORE PUSH1 0x44 DUP1 DUP4 ADD DUP6 SWAP1 MSTORE DUP4 MLOAD DUP1 DUP5 SUB SWAP1 SWAP2 ADD DUP2 MSTORE PUSH1 0x64 SWAP1 SWAP3 ADD DUP4 MSTORE PUSH1 0x20 DUP3 ADD DUP1 MLOAD PUSH1 0x1 PUSH1 0x1 PUSH1 0xE0 SHL SUB AND PUSH32 0x95EA7B300000000000000000000000000000000000000000000000000000000 OR SWAP1 MSTORE SWAP2 MLOAD PUSH0 SWAP3 DUP4 SWAP3 SWAP1 DUP8 AND SWAP2 PUSH2 0x1166 SWAP2 SWAP1 PUSH2 0x190F JUMP JUMPDEST PUSH0 PUSH1 0x40 MLOAD DUP1 DUP4 SUB DUP2 PUSH0 DUP7 GAS CALL SWAP2 POP POP RETURNDATASIZE DUP1 PUSH0 DUP2 EQ PUSH2 0x119F JUMPI PUSH1 0x40 MLOAD SWAP2 POP PUSH1 0x1F NOT PUSH1 0x3F RETURNDATASIZE ADD AND DUP3 ADD PUSH1 0x40 MSTORE RETURNDATASIZE DUP3 MSTORE RETURNDATASIZE PUSH0 PUSH1 0x20 DUP5 ADD RETURNDATACOPY PUSH2 0x11A4 JUMP JUMPDEST PUSH1 0x60 SWAP2 POP JUMPDEST POP SWAP2 POP SWAP2 POP DUP2 DUP1 ISZERO PUSH2 0x11CE JUMPI POP DUP1 MLOAD ISZERO DUP1 PUSH2 0x11CE JUMPI POP DUP1 DUP1 PUSH1 0x20 ADD SWAP1 MLOAD DUP2 ADD SWAP1 PUSH2 0x11CE SWAP2 SWAP1 PUSH2 0x192A JUMP JUMPDEST PUSH2 0x121A JUMPI PUSH1 0x40 MLOAD PUSH3 0x461BCD PUSH1 0xE5 SHL DUP2 MSTORE PUSH1 0x20 PUSH1 0x4 DUP3 ADD MSTORE PUSH1 0x2 PUSH1 0x24 DUP3 ADD MSTORE PUSH32 0x5341000000000000000000000000000000000000000000000000000000000000 PUSH1 0x44 DUP3 ADD MSTORE PUSH1 0x64 ADD PUSH2 0xC5C JUMP JUMPDEST POP POP POP POP POP JUMP JUMPDEST PUSH2 0x126C PUSH1 0x40 MLOAD DUP1 PUSH1 0xE0 ADD PUSH1 0x40 MSTORE DUP1 PUSH0 PUSH1 0x1 PUSH1 0x1 PUSH1 0xA0 SHL SUB AND DUP2 MSTORE PUSH1 0x20 ADD PUSH0 PUSH1 0x1 PUSH1 0x1 PUSH1 0xA0 SHL SUB AND DUP2 MSTORE PUSH1 0x20 ADD PUSH0 DUP2 MSTORE PUSH1 0x20 ADD PUSH0 DUP2 MSTORE PUSH1 0x20 ADD PUSH0 DUP2 MSTORE PUSH1 0x20 ADD PUSH0 DUP2 MSTORE PUSH1 0x20 ADD PUSH0 DUP2 MSTORE POP SWAP1 JUMP JUMPDEST PUSH1 0x40 MLOAD PUSH32 0x13D21CDF00000000000000000000000000000000000000000000000000000000 DUP2 MSTORE PUSH1 0x1 PUSH1 0x1 PUSH1 0xA0 SHL SUB DUP6 AND PUSH1 0x4 DUP3 ADD MSTORE PUSH0 SWAP1 PUSH20 0x4F57C40D3DAA7BF2EC970DD157B1268982158720 SWAP1 PUSH4 0x13D21CDF SWAP1 PUSH1 0x24 ADD PUSH0 PUSH1 0x40 MLOAD DUP1 DUP4 SUB DUP2 DUP7 GAS STATICCALL ISZERO DUP1 ISZERO PUSH2 0x12DC JUMPI RETURNDATASIZE PUSH0 DUP1 RETURNDATACOPY RETURNDATASIZE PUSH0 REVERT JUMPDEST POP POP POP POP PUSH1 0x40 MLOAD RETURNDATASIZE PUSH0 DUP3 RETURNDATACOPY PUSH1 0x1F RETURNDATASIZE SWAP1 DUP2 ADD PUSH1 0x1F NOT AND DUP3 ADD PUSH1 0x40 MSTORE PUSH2 0x1303 SWAP2 SWAP1 DUP2 ADD SWAP1 PUSH2 0x1A30 JUMP JUMPDEST PUSH1 0x40 MLOAD PUSH32 0xF408646E00000000000000000000000000000000000000000000000000000000 DUP2 MSTORE PUSH1 0x1 PUSH1 0x1 PUSH1 0xA0 SHL SUB DUP1 DUP7 AND PUSH1 0x4 DUP4 ADD MSTORE DUP1 DUP9 AND PUSH1 0x24 DUP4 ADD MSTORE DUP7 AND PUSH1 0x44 DUP3 ADD MSTORE SWAP1 SWAP2 POP PUSH0 SWAP1 PUSH20 0x4F57C40D3DAA7BF2EC970DD157B1268982158720 SWAP1 PUSH4 0xF408646E SWAP1 PUSH1 0x64 ADD PUSH2 0x280 PUSH1 0x40 MLOAD DUP1 DUP4 SUB DUP2 DUP7 GAS STATICCALL ISZERO DUP1 ISZERO PUSH2 0x1388 JUMPI RETURNDATASIZE PUSH0 DUP1 RETURNDATACOPY RETURNDATASIZE PUSH0 REVERT JUMPDEST POP POP POP POP PUSH1 0x40 MLOAD RETURNDATASIZE PUSH1 0x1F NOT PUSH1 0x1F DUP3 ADD AND DUP3 ADD DUP1 PUSH1 0x40 MSTORE POP DUP2 ADD SWAP1 PUSH2 0x13AC SWAP2 SWAP1 PUSH2 0x1B3F JUMP JUMPDEST PUSH1 0xC0 DUP1 DUP5 ADD DUP1 MLOAD PUSH1 0x1 PUSH1 0x1 PUSH1 0xA0 SHL SUB SWAP1 DUP2 AND DUP8 MSTORE PUSH1 0xE0 DUP7 ADD MLOAD DUP2 AND PUSH1 0x20 DUP9 ADD MSTORE SWAP5 MLOAD SWAP2 DUP7 ADD SWAP2 SWAP1 SWAP2 MSTORE PUSH2 0x1E0 DUP3 ADD MLOAD PUSH1 0x40 DUP7 ADD MSTORE PUSH2 0x220 DUP3 ADD MLOAD PUSH1 0x60 DUP7 ADD MSTORE PUSH2 0x1C0 DUP3 ADD MLOAD PUSH1 0xA0 DUP7 ADD MSTORE PUSH2 0x200 SWAP1 SWAP2 ADD MLOAD PUSH1 0x80 DUP6 ADD MSTORE MLOAD SWAP1 SWAP2 AND DUP3 MSTORE POP SWAP4 SWAP3 POP POP POP JUMP JUMPDEST PUSH1 0x40 DUP1 MLOAD PUSH1 0x1 PUSH1 0x1 PUSH1 0xA0 SHL SUB DUP5 DUP2 AND PUSH1 0x24 DUP4 ADD MSTORE PUSH1 0x44 DUP1 DUP4 ADD DUP6 SWAP1 MSTORE DUP4 MLOAD DUP1 DUP5 SUB SWAP1 SWAP2 ADD DUP2 MSTORE PUSH1 0x64 SWAP1 SWAP3 ADD DUP4 MSTORE PUSH1 0x20 DUP3 ADD DUP1 MLOAD PUSH1 0x1 PUSH1 0x1 PUSH1 0xE0 SHL SUB AND PUSH32 0xA9059CBB00000000000000000000000000000000000000000000000000000000 OR SWAP1 MSTORE SWAP2 MLOAD PUSH0 SWAP3 DUP4 SWAP3 SWAP1 DUP8 AND SWAP2 PUSH2 0x1484 SWAP2 SWAP1 PUSH2 0x190F JUMP JUMPDEST PUSH0 PUSH1 0x40 MLOAD DUP1 DUP4 SUB DUP2 PUSH0 DUP7 GAS CALL SWAP2 POP POP RETURNDATASIZE DUP1 PUSH0 DUP2 EQ PUSH2 0x14BD JUMPI PUSH1 0x40 MLOAD SWAP2 POP PUSH1 0x1F NOT PUSH1 0x3F RETURNDATASIZE ADD AND DUP3 ADD PUSH1 0x40 MSTORE RETURNDATASIZE DUP3 MSTORE RETURNDATASIZE PUSH0 PUSH1 0x20 DUP5 ADD RETURNDATACOPY PUSH2 0x14C2 JUMP JUMPDEST PUSH1 0x60 SWAP2 POP JUMPDEST POP SWAP2 POP SWAP2 POP DUP2 DUP1 ISZERO PUSH2 0x14EC JUMPI POP DUP1 MLOAD ISZERO DUP1 PUSH2 0x14EC JUMPI POP DUP1 DUP1 PUSH1 0x20 ADD SWAP1 MLOAD DUP2 ADD SWAP1 PUSH2 0x14EC SWAP2 SWAP1 PUSH2 0x192A JUMP JUMPDEST PUSH2 0x121A JUMPI PUSH1 0x40 MLOAD PUSH3 0x461BCD PUSH1 0xE5 SHL DUP2 MSTORE PUSH1 0x20 PUSH1 0x4 DUP3 ADD MSTORE PUSH1 0x2 PUSH1 0x24 DUP3 ADD MSTORE PUSH32 0x5354000000000000000000000000000000000000000000000000000000000000 PUSH1 0x44 DUP3 ADD MSTORE PUSH1 0x64 ADD PUSH2 0xC5C JUMP JUMPDEST PUSH2 0x1596 DUP3 DUP3 PUSH1 0x40 MLOAD PUSH1 0x24 ADD PUSH2 0x154E SWAP3 SWAP2 SWAP1 PUSH2 0x1C2F JUMP JUMPDEST PUSH1 0x40 DUP1 MLOAD PUSH1 0x1F NOT DUP2 DUP5 SUB ADD DUP2 MSTORE SWAP2 SWAP1 MSTORE PUSH1 0x20 DUP2 ADD DUP1 MLOAD PUSH1 0x1 PUSH1 0x1 PUSH1 0xE0 SHL SUB AND PUSH32 0x643FD0DF00000000000000000000000000000000000000000000000000000000 OR SWAP1 MSTORE PUSH2 0x159A JUMP JUMPDEST POP POP JUMP JUMPDEST PUSH2 0x15A3 DUP2 PUSH2 0x15A6 JUMP JUMPDEST POP JUMP JUMPDEST PUSH0 PUSH11 0x636F6E736F6C652E6C6F67 SWAP1 POP PUSH0 DUP1 DUP4 MLOAD PUSH1 0x20 DUP6 ADD DUP5 GAS STATICCALL POP POP POP JUMP JUMPDEST PUSH1 0x1 PUSH1 0x1 PUSH1 0xA0 SHL SUB DUP2 AND DUP2 EQ PUSH2 0x15A3 JUMPI PUSH0 DUP1 REVERT JUMPDEST PUSH0 PUSH1 0x20 DUP3 DUP5 SUB SLT ISZERO PUSH2 0x15E9 JUMPI PUSH0 DUP1 REVERT JUMPDEST DUP2 CALLDATALOAD PUSH2 0x15F4 DUP2 PUSH2 0x15C5 JUMP JUMPDEST SWAP4 SWAP3 POP POP POP JUMP JUMPDEST PUSH0 DUP1 PUSH0 DUP1 PUSH0 DUP1 PUSH1 0xC0 DUP8 DUP10 SUB SLT ISZERO PUSH2 0x1610 JUMPI PUSH0 DUP1 REVERT JUMPDEST DUP7 CALLDATALOAD PUSH2 0x161B DUP2 PUSH2 0x15C5 JUMP JUMPDEST SWAP6 POP PUSH1 0x20 DUP8 ADD CALLDATALOAD PUSH2 0x162B DUP2 PUSH2 0x15C5 JUMP JUMPDEST SWAP5 POP PUSH1 0x40 DUP8 ADD CALLDATALOAD PUSH2 0x163B DUP2 PUSH2 0x15C5 JUMP JUMPDEST SWAP4 POP PUSH1 0x60 DUP8 ADD CALLDATALOAD PUSH2 0x164B DUP2 PUSH2 0x15C5 JUMP JUMPDEST SWAP6 SWAP9 SWAP5 SWAP8 POP SWAP3 SWAP6 PUSH1 0x80 DUP2 ADD CALLDATALOAD SWAP5 PUSH1 0xA0 SWAP1 SWAP2 ADD CALLDATALOAD SWAP4 POP SWAP2 POP POP JUMP JUMPDEST PUSH0 DUP1 PUSH0 DUP1 PUSH0 PUSH1 0xA0 DUP7 DUP9 SUB SLT ISZERO PUSH2 0x1679 JUMPI PUSH0 DUP1 REVERT JUMPDEST DUP6 CALLDATALOAD PUSH2 0x1684 DUP2 PUSH2 0x15C5 JUMP JUMPDEST SWAP5 POP PUSH1 0x20 DUP7 ADD CALLDATALOAD PUSH2 0x1694 DUP2 PUSH2 0x15C5 JUMP JUMPDEST SWAP4 POP PUSH1 0x40 DUP7 ADD CALLDATALOAD PUSH2 0x16A4 DUP2 PUSH2 0x15C5 JUMP JUMPDEST SWAP3 POP PUSH1 0x60 DUP7 ADD CALLDATALOAD PUSH2 0x16B4 DUP2 PUSH2 0x15C5 JUMP JUMPDEST SWAP5 SWAP8 SWAP4 SWAP7 POP SWAP2 SWAP5 PUSH1 0x80 ADD CALLDATALOAD SWAP3 SWAP2 POP POP JUMP JUMPDEST PUSH0 DUP1 PUSH0 DUP1 PUSH0 DUP1 PUSH1 0xC0 DUP8 DUP10 SUB SLT ISZERO PUSH2 0x16DA JUMPI PUSH0 DUP1 REVERT JUMPDEST DUP7 CALLDATALOAD PUSH2 0x16E5 DUP2 PUSH2 0x15C5 JUMP JUMPDEST SWAP6 POP PUSH1 0x20 DUP8 ADD CALLDATALOAD PUSH2 0x16F5 DUP2 PUSH2 0x15C5 JUMP JUMPDEST SWAP5 POP PUSH1 0x40 DUP8 ADD CALLDATALOAD PUSH2 0x1705 DUP2 PUSH2 0x15C5 JUMP JUMPDEST SWAP4 POP PUSH1 0x60 DUP8 ADD CALLDATALOAD SWAP3 POP PUSH1 0x80 DUP8 ADD CALLDATALOAD SWAP2 POP PUSH1 0xA0 DUP8 ADD CALLDATALOAD PUSH2 0x1723 DUP2 PUSH2 0x15C5 JUMP JUMPDEST DUP1 SWAP2 POP POP SWAP3 SWAP6 POP SWAP3 SWAP6 POP SWAP3 SWAP6 JUMP JUMPDEST PUSH0 DUP1 PUSH0 DUP1 PUSH1 0x80 DUP6 DUP8 SUB SLT ISZERO PUSH2 0x1744 JUMPI PUSH0 DUP1 REVERT JUMPDEST DUP5 CALLDATALOAD PUSH2 0x174F DUP2 PUSH2 0x15C5 JUMP JUMPDEST SWAP4 POP PUSH1 0x20 DUP6 ADD CALLDATALOAD PUSH2 0x175F DUP2 PUSH2 0x15C5 JUMP JUMPDEST SWAP3 POP PUSH1 0x40 DUP6 ADD CALLDATALOAD SWAP2 POP PUSH1 0x60 DUP6 ADD CALLDATALOAD PUSH2 0x1776 DUP2 PUSH2 0x15C5 JUMP JUMPDEST SWAP4 SWAP7 SWAP3 SWAP6 POP SWAP1 SWAP4 POP POP JUMP JUMPDEST DUP1 MLOAD PUSH10 0xFFFFFFFFFFFFFFFFFFFF DUP2 AND DUP2 EQ PUSH2 0x179A JUMPI PUSH0 DUP1 REVERT JUMPDEST SWAP2 SWAP1 POP JUMP JUMPDEST PUSH0 DUP1 PUSH0 DUP1 PUSH0 PUSH1 0xA0 DUP7 DUP9 SUB SLT ISZERO PUSH2 0x17B3 JUMPI PUSH0 DUP1 REVERT JUMPDEST PUSH2 0x17BC DUP7 PUSH2 0x1781 JUMP JUMPDEST SWAP5 POP PUSH1 0x20 DUP7 ADD MLOAD SWAP4 POP PUSH1 0x40 DUP7 ADD MLOAD SWAP3 POP PUSH1 0x60 DUP7 ADD MLOAD SWAP2 POP PUSH2 0x17DF PUSH1 0x80 DUP8 ADD PUSH2 0x1781 JUMP JUMPDEST SWAP1 POP SWAP3 SWAP6 POP SWAP3 SWAP6 SWAP1 SWAP4 POP JUMP JUMPDEST PUSH0 PUSH1 0x20 DUP3 DUP5 SUB SLT ISZERO PUSH2 0x17FB JUMPI PUSH0 DUP1 REVERT JUMPDEST POP MLOAD SWAP2 SWAP1 POP JUMP JUMPDEST PUSH0 PUSH32 0x8000000000000000000000000000000000000000000000000000000000000000 DUP3 SUB PUSH2 0x183E JUMPI PUSH4 0x4E487B71 PUSH1 0xE0 SHL PUSH0 MSTORE PUSH1 0x11 PUSH1 0x4 MSTORE PUSH1 0x24 PUSH0 REVERT JUMPDEST POP PUSH0 SUB SWAP1 JUMP JUMPDEST DUP1 MLOAD PUSH2 0x179A DUP2 PUSH2 0x15C5 JUMP JUMPDEST PUSH0 PUSH1 0x20 DUP3 DUP5 SUB SLT ISZERO PUSH2 0x185F JUMPI PUSH0 DUP1 REVERT JUMPDEST DUP2 MLOAD PUSH2 0x15F4 DUP2 PUSH2 0x15C5 JUMP JUMPDEST PUSH0 JUMPDEST DUP4 DUP2 LT ISZERO PUSH2 0x1884 JUMPI DUP2 DUP2 ADD MLOAD DUP4 DUP3 ADD MSTORE PUSH1 0x20 ADD PUSH2 0x186C JUMP JUMPDEST POP POP PUSH0 SWAP2 ADD MSTORE JUMP JUMPDEST PUSH0 DUP2 MLOAD DUP1 DUP5 MSTORE PUSH2 0x18A3 DUP2 PUSH1 0x20 DUP7 ADD PUSH1 0x20 DUP7 ADD PUSH2 0x186A JUMP JUMPDEST PUSH1 0x1F ADD PUSH1 0x1F NOT AND SWAP3 SWAP1 SWAP3 ADD PUSH1 0x20 ADD SWAP3 SWAP2 POP POP JUMP JUMPDEST PUSH1 0x20 DUP2 MSTORE PUSH0 DUP3 MLOAD PUSH1 0xA0 PUSH1 0x20 DUP5 ADD MSTORE PUSH2 0x18D2 PUSH1 0xC0 DUP5 ADD DUP3 PUSH2 0x188C JUMP JUMPDEST SWAP1 POP PUSH1 0x1 PUSH1 0x1 PUSH1 0xA0 SHL SUB PUSH1 0x20 DUP6 ADD MLOAD AND PUSH1 0x40 DUP5 ADD MSTORE PUSH1 0x40 DUP5 ADD MLOAD PUSH1 0x60 DUP5 ADD MSTORE PUSH1 0x60 DUP5 ADD MLOAD PUSH1 0x80 DUP5 ADD MSTORE PUSH1 0x80 DUP5 ADD MLOAD PUSH1 0xA0 DUP5 ADD MSTORE DUP1 SWAP2 POP POP SWAP3 SWAP2 POP POP JUMP JUMPDEST PUSH0 DUP3 MLOAD PUSH2 0x1920 DUP2 DUP5 PUSH1 0x20 DUP8 ADD PUSH2 0x186A JUMP JUMPDEST SWAP2 SWAP1 SWAP2 ADD SWAP3 SWAP2 POP POP JUMP JUMPDEST PUSH0 PUSH1 0x20 DUP3 DUP5 SUB SLT ISZERO PUSH2 0x193A JUMPI PUSH0 DUP1 REVERT JUMPDEST DUP2 MLOAD DUP1 ISZERO ISZERO DUP2 EQ PUSH2 0x15F4 JUMPI PUSH0 DUP1 REVERT JUMPDEST PUSH4 0x4E487B71 PUSH1 0xE0 SHL PUSH0 MSTORE PUSH1 0x41 PUSH1 0x4 MSTORE PUSH1 0x24 PUSH0 REVERT JUMPDEST PUSH1 0x40 MLOAD PUSH2 0x180 DUP2 ADD PUSH8 0xFFFFFFFFFFFFFFFF DUP2 GT DUP3 DUP3 LT OR ISZERO PUSH2 0x1981 JUMPI PUSH2 0x1981 PUSH2 0x1949 JUMP JUMPDEST PUSH1 0x40 MSTORE SWAP1 JUMP JUMPDEST PUSH1 0x40 MLOAD PUSH2 0x280 DUP2 ADD PUSH8 0xFFFFFFFFFFFFFFFF DUP2 GT DUP3 DUP3 LT OR ISZERO PUSH2 0x1981 JUMPI PUSH2 0x1981 PUSH2 0x1949 JUMP JUMPDEST PUSH0 DUP3 PUSH1 0x1F DUP4 ADD SLT PUSH2 0x19BA JUMPI PUSH0 DUP1 REVERT JUMPDEST DUP2 MLOAD PUSH8 0xFFFFFFFFFFFFFFFF DUP1 DUP3 GT ISZERO PUSH2 0x19D5 JUMPI PUSH2 0x19D5 PUSH2 0x1949 JUMP JUMPDEST PUSH1 0x40 MLOAD PUSH1 0x1F DUP4 ADD PUSH1 0x1F NOT SWAP1 DUP2 AND PUSH1 0x3F ADD AND DUP2 ADD SWAP1 DUP3 DUP3 GT DUP2 DUP4 LT OR ISZERO PUSH2 0x19FD JUMPI PUSH2 0x19FD PUSH2 0x1949 JUMP JUMPDEST DUP2 PUSH1 0x40 MSTORE DUP4 DUP2 MSTORE DUP7 PUSH1 0x20 DUP6 DUP9 ADD ADD GT ISZERO PUSH2 0x1A15 JUMPI PUSH0 DUP1 REVERT JUMPDEST PUSH2 0x1A26 DUP5 PUSH1 0x20 DUP4 ADD PUSH1 0x20 DUP10 ADD PUSH2 0x186A JUMP JUMPDEST SWAP7 SWAP6 POP POP POP POP POP POP JUMP JUMPDEST PUSH0 PUSH1 0x20 DUP3 DUP5 SUB SLT ISZERO PUSH2 0x1A40 JUMPI PUSH0 DUP1 REVERT JUMPDEST DUP2 MLOAD PUSH8 0xFFFFFFFFFFFFFFFF DUP1 DUP3 GT ISZERO PUSH2 0x1A57 JUMPI PUSH0 DUP1 REVERT JUMPDEST SWAP1 DUP4 ADD SWAP1 PUSH2 0x180 DUP3 DUP7 SUB SLT ISZERO PUSH2 0x1A6B JUMPI PUSH0 DUP1 REVERT JUMPDEST PUSH2 0x1A73 PUSH2 0x195D JUMP JUMPDEST DUP3 MLOAD DUP2 MSTORE PUSH1 0x20 DUP4 ADD MLOAD PUSH1 0x20 DUP3 ADD MSTORE PUSH1 0x40 DUP4 ADD MLOAD PUSH1 0x40 DUP3 ADD MSTORE PUSH1 0x60 DUP4 ADD MLOAD PUSH1 0x60 DUP3 ADD MSTORE PUSH1 0x80 DUP4 ADD MLOAD PUSH1 0x80 DUP3 ADD MSTORE PUSH2 0x1AAB PUSH1 0xA0 DUP5 ADD PUSH2 0x1844 JUMP JUMPDEST PUSH1 0xA0 DUP3 ADD MSTORE PUSH2 0x1ABC PUSH1 0xC0 DUP5 ADD PUSH2 0x1844 JUMP JUMPDEST PUSH1 0xC0 DUP3 ADD MSTORE PUSH2 0x1ACD PUSH1 0xE0 DUP5 ADD PUSH2 0x1844 JUMP JUMPDEST PUSH1 0xE0 DUP3 ADD MSTORE PUSH2 0x100 DUP1 DUP5 ADD MLOAD DUP4 DUP2 GT ISZERO PUSH2 0x1AE5 JUMPI PUSH0 DUP1 REVERT JUMPDEST PUSH2 0x1AF1 DUP9 DUP3 DUP8 ADD PUSH2 0x19AB JUMP JUMPDEST DUP3 DUP5 ADD MSTORE POP POP PUSH2 0x120 DUP1 DUP5 ADD MLOAD DUP4 DUP2 GT ISZERO PUSH2 0x1B0A JUMPI PUSH0 DUP1 REVERT JUMPDEST PUSH2 0x1B16 DUP9 DUP3 DUP8 ADD PUSH2 0x19AB JUMP JUMPDEST SWAP2 DUP4 ADD SWAP2 SWAP1 SWAP2 MSTORE POP PUSH2 0x140 DUP4 DUP2 ADD MLOAD SWAP1 DUP3 ADD MSTORE PUSH2 0x160 SWAP3 DUP4 ADD MLOAD SWAP3 DUP2 ADD SWAP3 SWAP1 SWAP3 MSTORE POP SWAP4 SWAP3 POP POP POP JUMP JUMPDEST PUSH0 PUSH2 0x280 DUP3 DUP5 SUB SLT ISZERO PUSH2 0x1B50 JUMPI PUSH0 DUP1 REVERT JUMPDEST PUSH2 0x1B58 PUSH2 0x1987 JUMP JUMPDEST DUP3 MLOAD DUP2 MSTORE PUSH1 0x20 DUP1 DUP5 ADD MLOAD SWAP1 DUP3 ADD MSTORE PUSH1 0x40 DUP1 DUP5 ADD MLOAD SWAP1 DUP3 ADD MSTORE PUSH1 0x60 DUP1 DUP5 ADD MLOAD SWAP1 DUP3 ADD MSTORE PUSH1 0x80 DUP1 DUP5 ADD MLOAD SWAP1 DUP3 ADD MSTORE PUSH1 0xA0 DUP1 DUP5 ADD MLOAD SWAP1 DUP3 ADD MSTORE PUSH1 0xC0 DUP1 DUP5 ADD MLOAD SWAP1 DUP3 ADD MSTORE PUSH1 0xE0 DUP1 DUP5 ADD MLOAD SWAP1 DUP3 ADD MSTORE PUSH2 0x100 DUP1 DUP5 ADD MLOAD SWAP1 DUP3 ADD MSTORE PUSH2 0x120 DUP1 DUP5 ADD MLOAD SWAP1 DUP3 ADD MSTORE PUSH2 0x140 DUP1 DUP5 ADD MLOAD SWAP1 DUP3 ADD MSTORE PUSH2 0x160 DUP1 DUP5 ADD MLOAD SWAP1 DUP3 ADD MSTORE PUSH2 0x180 DUP1 DUP5 ADD MLOAD SWAP1 DUP3 ADD MSTORE PUSH2 0x1A0 DUP1 DUP5 ADD MLOAD SWAP1 DUP3 ADD MSTORE PUSH2 0x1C0 DUP1 DUP5 ADD MLOAD SWAP1 DUP3 ADD MSTORE PUSH2 0x1E0 DUP1 DUP5 ADD MLOAD SWAP1 DUP3 ADD MSTORE PUSH2 0x200 DUP1 DUP5 ADD MLOAD SWAP1 DUP3 ADD MSTORE PUSH2 0x220 DUP1 DUP5 ADD MLOAD SWAP1 DUP3 ADD MSTORE PUSH2 0x240 DUP1 DUP5 ADD MLOAD SWAP1 DUP3 ADD MSTORE PUSH2 0x260 SWAP3 DUP4 ADD MLOAD SWAP3 DUP2 ADD SWAP3 SWAP1 SWAP3 MSTORE POP SWAP2 SWAP1 POP JUMP JUMPDEST DUP3 DUP2 MSTORE PUSH1 0x40 PUSH1 0x20 DUP3 ADD MSTORE PUSH0 PUSH2 0x1C47 PUSH1 0x40 DUP4 ADD DUP5 PUSH2 0x188C JUMP JUMPDEST SWAP5 SWAP4 POP POP POP POP JUMP INVALID LOG2 PUSH5 0x6970667358 0x22 SLT KECCAK256 PUSH26 0x4A71CE97FA16BD3969970EBE5882160D3C9911B0DD4B12E80C82 0xF9 LT 0xD7 MSTORE8 GAS PUSH5 0x736F6C6343 STOP ADDMOD EQ STOP CALLER "
		},
		"gasEstimates": {
			"creation": {
				"codeDepositCost": "1460200",
				"executionCost": "infinite",
				"totalCost": "infinite"
			},
			"external": {
				"InitBorrow(address,address,address,uint256,int256,address)": "infinite",
				"cometAddress()": "238",
				"compBorrow(address,address,address,uint256,uint256,address)": "infinite",
				"compRepay(address,address,address,address,uint256,uint256)": "infinite",
				"controller()": "infinite",
				"emptyFn()": "247",
				"getLatestPrice(address)": "infinite",
				"helper()": "283",
				"redeem(address,address,int256,address)": "infinite",
				"swapRouter()": "259",
				"uniRepay(address,address,address,address,uint256)": "infinite",
				"unilendCore()": "237",
				"unilendPosition()": "281"
			},
			"internal": {
				"exactInputSwap(address,address,address,uint256,uint24,uint24)": "infinite",
				"exctOutputSwap(address,address,address,uint256,uint24,uint24)": "infinite",
				"getPoolData(address,address,address)": "infinite"
			}
		},
		"methodIdentifiers": {
			"InitBorrow(address,address,address,uint256,int256,address)": "92c5d035",
			"cometAddress()": "6bbb194b",
			"compBorrow(address,address,address,uint256,uint256,address)": "a6d7f530",
			"compRepay(address,address,address,address,uint256,uint256)": "501f5dbe",
			"controller()": "f77c4791",
			"emptyFn()": "792023ca",
			"getLatestPrice(address)": "16345f18",
			"helper()": "63b0e66a",
			"redeem(address,address,int256,address)": "ac7cccb0",
			"swapRouter()": "c31c9c07",
			"uniRepay(address,address,address,address,uint256)": "6f0937b3",
			"unilendCore()": "b93bc415",
			"unilendPosition()": "e1ab2228"
		}
	},
	"abi": [
		{
			"inputs": [],
			"stateMutability": "nonpayable",
			"type": "constructor"
		},
		{
			"anonymous": false,
			"inputs": [
				{
					"indexed": true,
					"internalType": "address",
					"name": "tokenAddress",
					"type": "address"
				},
				{
					"indexed": true,
					"internalType": "address",
					"name": "user",
					"type": "address"
				},
				{
					"indexed": false,
					"internalType": "int256",
					"name": "amount",
					"type": "int256"
				},
				{
					"indexed": false,
					"internalType": "uint256",
					"name": "time",
					"type": "uint256"
				}
			],
			"name": "Borrowed",
			"type": "event"
		},
		{
			"anonymous": false,
			"inputs": [
				{
					"indexed": true,
					"internalType": "uint256",
					"name": "value1",
					"type": "uint256"
				},
				{
					"indexed": true,
					"internalType": "uint256",
					"name": "value2",
					"type": "uint256"
				},
				{
					"indexed": true,
					"internalType": "uint256",
					"name": "value3",
					"type": "uint256"
				}
			],
			"name": "Log",
			"type": "event"
		},
		{
			"inputs": [
				{
					"internalType": "address",
					"name": "_pool",
					"type": "address"
				},
				{
					"internalType": "address",
					"name": "_supplyAsset",
					"type": "address"
				},
				{
					"internalType": "address",
					"name": "_tokenOUt",
					"type": "address"
				},
				{
					"internalType": "uint256",
					"name": "_collateral_amount",
					"type": "uint256"
				},
				{
					"internalType": "int256",
					"name": "_amount",
					"type": "int256"
				},
				{
					"internalType": "address",
					"name": "_user",
					"type": "address"
				}
			],
			"name": "InitBorrow",
			"outputs": [],
			"stateMutability": "nonpayable",
			"type": "function"
		},
		{
			"inputs": [],
			"name": "cometAddress",
			"outputs": [
				{
					"internalType": "contract IComet",
					"name": "",
					"type": "address"
				}
			],
			"stateMutability": "view",
			"type": "function"
		},
		{
			"inputs": [
				{
					"internalType": "address",
					"name": "_supplyAsset",
					"type": "address"
				},
				{
					"internalType": "address",
					"name": "_borrowAsset",
					"type": "address"
				},
				{
					"internalType": "address",
					"name": "_tokenOut",
					"type": "address"
				},
				{
					"internalType": "uint256",
					"name": "_supplyAmount",
					"type": "uint256"
				},
				{
					"internalType": "uint256",
					"name": "_borrowAmount",
					"type": "uint256"
				},
				{
					"internalType": "address",
					"name": "_user",
					"type": "address"
				}
			],
			"name": "compBorrow",
			"outputs": [],
			"stateMutability": "nonpayable",
			"type": "function"
		},
		{
			"inputs": [
				{
					"internalType": "address",
					"name": "_borrowedToken",
					"type": "address"
				},
				{
					"internalType": "address",
					"name": "_tokenIn",
					"type": "address"
				},
				{
					"internalType": "address",
					"name": "_user",
					"type": "address"
				},
				{
					"internalType": "address",
					"name": "_collateralToken",
					"type": "address"
				},
				{
					"internalType": "uint256",
					"name": "_collateralAmount",
					"type": "uint256"
				},
				{
					"internalType": "uint256",
					"name": "_repayAmount",
					"type": "uint256"
				}
			],
			"name": "compRepay",
			"outputs": [],
			"stateMutability": "nonpayable",
			"type": "function"
		},
		{
			"inputs": [],
			"name": "controller",
			"outputs": [
				{
					"internalType": "address",
					"name": "",
					"type": "address"
				}
			],
			"stateMutability": "view",
			"type": "function"
		},
		{
			"inputs": [],
			"name": "emptyFn",
			"outputs": [
				{
					"internalType": "uint256",
					"name": "result",
					"type": "uint256"
				}
			],
			"stateMutability": "pure",
			"type": "function"
		},
		{
			"inputs": [
				{
					"internalType": "contract AggregatorV3Interface",
					"name": "priceFeed",
					"type": "address"
				}
			],
			"name": "getLatestPrice",
			"outputs": [
				{
					"internalType": "int256",
					"name": "price",
					"type": "int256"
				}
			],
			"stateMutability": "view",
			"type": "function"
		},
		{
			"inputs": [],
			"name": "helper",
			"outputs": [
				{
					"internalType": "contract IUnilendHelper",
					"name": "",
					"type": "address"
				}
			],
			"stateMutability": "view",
			"type": "function"
		},
		{
			"inputs": [
				{
					"internalType": "address",
					"name": "_pool",
					"type": "address"
				},
				{
					"internalType": "address",
					"name": "_user",
					"type": "address"
				},
				{
					"internalType": "int256",
					"name": "_amount",
					"type": "int256"
				},
				{
					"internalType": "address",
					"name": "_tokenOut",
					"type": "address"
				}
			],
			"name": "redeem",
			"outputs": [],
			"stateMutability": "nonpayable",
			"type": "function"
		},
		{
			"inputs": [],
			"name": "swapRouter",
			"outputs": [
				{
					"internalType": "contract ISwapRouter",
					"name": "",
					"type": "address"
				}
			],
			"stateMutability": "view",
			"type": "function"
		},
		{
			"inputs": [
				{
					"internalType": "address",
					"name": "_pool",
					"type": "address"
				},
				{
					"internalType": "address",
					"name": "_tokenIn",
					"type": "address"
				},
				{
					"internalType": "address",
					"name": "_user",
					"type": "address"
				},
				{
					"internalType": "address",
					"name": "_borrowAddress",
					"type": "address"
				},
				{
					"internalType": "uint256",
					"name": "_repayAmount",
					"type": "uint256"
				}
			],
			"name": "uniRepay",
			"outputs": [],
			"stateMutability": "nonpayable",
			"type": "function"
		},
		{
			"inputs": [],
			"name": "unilendCore",
			"outputs": [
				{
					"internalType": "contract IUnilendV2Core",
					"name": "",
					"type": "address"
				}
			],
			"stateMutability": "view",
			"type": "function"
		},
		{
			"inputs": [],
			"name": "unilendPosition",
			"outputs": [
				{
					"internalType": "contract IUnilendV2Position",
					"name": "",
					"type": "address"
				}
			],
			"stateMutability": "view",
			"type": "function"
		}
	]
}