{
	"data": {
		"bytecode": {
			"linkReferences": {},
			"object": "60a060405234801561000f575f80fd5b5033608052608051611c9361002c5f395f6101ef0152611c935ff3fe608060405234801561000f575f80fd5b50600436106100cf575f3560e01c8063b5c8b7591161007d578063c31c9c0711610058578063c31c9c07146101b4578063e1ab2228146101cf578063f77c4791146101ea575f80fd5b8063b5c8b75914610173578063b93bc41514610186578063baecbfcd146101a1575f80fd5b80636bbb194b116100ad5780636bbb194b1461013257806373e8f1fa1461014d578063a36cc4cd14610160575f80fd5b8063315a1451146100d357806363b0e66a146100e85780636b5e73051461011f575b5f80fd5b6100e66100e1366004611689565b610211565b005b610103734f57c40d3daa7bf2ec970dd157b126898215872081565b6040516001600160a01b03909116815260200160405180910390f35b6100e661012d36600461171e565b610471565b61010373f25212e676d1f7f89cd72ffee66158f54124644581565b6100e661015b366004611786565b6105c0565b6100e661016e366004611689565b61095e565b6100e6610181366004611800565b610ad2565b6101037317dad892347803551ceee2d377d010034df6434781565b6100e66101af366004611786565b610d63565b61010373e592427a0aece92de3edee1f18e0157c0586156481565b6101037377b6569f0dbc4f265a575a84540c2a0cae116a9081565b6101037f000000000000000000000000000000000000000000000000000000000000000081565b5f876001600160a01b0316630dfe16816040518163ffffffff1660e01b8152600401602060405180830381865afa15801561024e573d5f803e3d5ffd5b505050506040513d601f19601f82011682018060405250810190610272919061189b565b90505f886001600160a01b031663d21220a76040518163ffffffff1660e01b8152600401602060405180830381865afa1580156102b1573d5f803e3d5ffd5b505050506040513d601f19601f820116820180604052508101906102d5919061189b565b90505f30818712156102e9578391506102ed565b8291505b886001600160a01b0316826001600160a01b0316036103095750845b6103288a7317dad892347803551ceee2d377d010034df643478a610e8a565b6040517f8dee94600000000000000000000000000000000000000000000000000000000081526001600160a01b03808d16600483015260248201899052604482018a9052821660648201527317dad892347803551ceee2d377d010034df6434790638dee9460906084015f604051808303815f87803b1580156103a9575f80fd5b505af11580156103bb573d5f803e3d5ffd5b50505050886001600160a01b0316826001600160a01b031614610464575f8712156103ec576103e9876118bd565b96505b6040516370a0823160e01b81523060048201526104629083908b9089906001600160a01b038416906370a0823190602401602060405180830381865afa158015610438573d5f803e3d5ffd5b505050506040513d601f19601f8201168201806040525081019061045c91906118ff565b89610fce565b505b5050505050505050505050565b826001600160a01b0316846001600160a01b031614610499576104978385308585610fce565b505b6104b98473f25212e676d1f7f89cd72ffee66158f5412464455f19610e8a565b6040516370a0823160e01b8152306004820181905273f25212e676d1f7f89cd72ffee66158f54124644591634232cd63919087906001600160a01b038216906370a0823190602401602060405180830381865afa15801561051c573d5f803e3d5ffd5b505050506040513d601f19601f8201168201806040525081019061054091906118ff565b6040517fffffffff0000000000000000000000000000000000000000000000000000000060e086901b1681526001600160a01b03938416600482015292909116602483015260448201526064015f604051808303815f87803b1580156105a4575f80fd5b505af11580156105b6573d5f803e3d5ffd5b5050505050505050565b5f6105e086307377b6569f0dbc4f265a575a84540c2a0cae116a90611225565b604081810151606083015191517f4b7cab4a0000000000000000000000000000000000000000000000000000000081526001600160a01b038a166004820152306024820152929350915f907377b6569f0dbc4f265a575a84540c2a0cae116a9090634b7cab4a906044016020604051808303815f875af1158015610666573d5f803e3d5ffd5b505050506040513d601f19601f8201168201806040525081019061068a91906118ff565b9050805f036106e05760405162461bcd60e51b815260206004820152601160248201527f4e6f20506f736974696f6e20466f756e6400000000000000000000000000000060448201526064015b60405180910390fd5b5f306001600160a01b03881682036106f55750885b5f8912156107e75785519150831561079857604051630e96466d60e41b81526001600160a01b03808d166004830152602482018b9052821660448201527317dad892347803551ceee2d377d010034df643479063e96466d0906064015b6020604051808303815f875af115801561076e573d5f803e3d5ffd5b505050506040513d601f19601f8201168201806040525081019061079291906118ff565b506108cf565b604051635833cdf960e01b81526001600160a01b03808d166004830152602482018b9052821660448201527317dad892347803551ceee2d377d010034df6434790635833cdf990606401610752565b60208601519150841561084357604051630e96466d60e41b81526001600160a01b03808d166004830152602482018b9052821660448201527317dad892347803551ceee2d377d010034df643479063e96466d090606401610752565b604051635833cdf960e01b81526001600160a01b03808d166004830152602482018b9052821660448201527317dad892347803551ceee2d377d010034df6434790635833cdf9906064016020604051808303815f875af11580156108a9573d5f803e3d5ffd5b505050506040513d601f19601f820116820180604052508101906108cd91906118ff565b505b876001600160a01b0316826001600160a01b031614610464576040516370a0823160e01b81523060048201526104629083908a908d906001600160a01b038416906370a0823190602401602060405180830381865afa158015610934573d5f803e3d5ffd5b505050506040513d601f19601f8201168201806040525081019061095891906118ff565b8b610fce565b61097d8773f25212e676d1f7f89cd72ffee66158f54124644586610e8a565b6040517f4232cd6300000000000000000000000000000000000000000000000000000000815230600482018190526001600160a01b0389166024830152604482018690529073f25212e676d1f7f89cd72ffee66158f54124644590634232cd63906064015f604051808303815f87803b1580156109f8575f80fd5b505af1158015610a0a573d5f803e3d5ffd5b50505050856001600160a01b0316876001600160a01b031603610a2a5750815b6040516361d9ad3f60e11b81526001600160a01b038083166004830152881660248201526044810185905273f25212e676d1f7f89cd72ffee66158f5412464459063c3b35a7e906064015f604051808303815f87803b158015610a8b575f80fd5b505af1158015610a9d573d5f803e3d5ffd5b50505050856001600160a01b0316876001600160a01b0316146105b657610ac78787858786610fce565b505050505050505050565b5f805f610af489307377b6569f0dbc4f265a575a84540c2a0cae116a90611225565b9050876001600160a01b0316866001600160a01b031614610b2357610b1c8887308888610fce565b9150610b27565b8491505b610b47867317dad892347803551ceee2d377d010034df643475f19610e8a565b805f01516001600160a01b0316866001600160a01b031603610ba8578060400151831315610b9f57610b987f7fffffffffffffffffffffffffffffffffffffffffffffffffffffffffffffff6118bd565b9250610be0565b610b98826118bd565b8060600151831315610bdc577f7fffffffffffffffffffffffffffffffffffffffffffffffffffffffffffffff9250610be0565b8192505b6040517f826265470000000000000000000000000000000000000000000000000000000081526001600160a01b038a166004820152602481018490523060448201527317dad892347803551ceee2d377d010034df64347906382626547906064016020604051808303815f875af1158015610c5d573d5f803e3d5ffd5b505050506040513d601f19601f82011682018060405250810190610c8191906118ff565b506040516370a0823160e01b81523060048201525f906001600160a01b038816906370a0823190602401602060405180830381865afa158015610cc6573d5f803e3d5ffd5b505050506040513d601f19601f82011682018060405250810190610cea91906118ff565b1115610ac7576040516370a0823160e01b8152306004820152610ac790879089906001600160a01b038316906370a0823190602401602060405180830381865afa158015610d3a573d5f803e3d5ffd5b505050506040513d601f19601f82011682018060405250810190610d5e91906118ff565b611414565b306001600160a01b0380841690861603610d7a5750845b6040516361d9ad3f60e11b81526001600160a01b038083166004830152861660248201526044810185905273f25212e676d1f7f89cd72ffee66158f5412464459063c3b35a7e906064015f604051808303815f87803b158015610ddb575f80fd5b505af1158015610ded573d5f803e3d5ffd5b50505050826001600160a01b0316856001600160a01b031614610e82576040516370a0823160e01b8152306004820152610e80908690859089906001600160a01b038416906370a0823190602401602060405180830381865afa158015610e56573d5f803e3d5ffd5b505050506040513d601f19601f82011682018060405250810190610e7a91906118ff565b86610fce565b505b505050505050565b604080516001600160a01b038481166024830152604480830185905283518084039091018152606490920183526020820180517bffffffffffffffffffffffffffffffffffffffffffffffffffffffff167f095ea7b30000000000000000000000000000000000000000000000000000000017905291515f92839290871691610f139190611938565b5f604051808303815f865af19150503d805f8114610f4c576040519150601f19603f3d011682016040523d82523d5f602084013e610f51565b606091505b5091509150818015610f7b575080511580610f7b575080806020019051810190610f7b9190611953565b610fc75760405162461bcd60e51b815260206004820152600260248201527f534100000000000000000000000000000000000000000000000000000000000060448201526064016106d7565b5050505050565b5f610fee8673e592427a0aece92de3edee1f18e0157c0586156485610e8a565b60606001835111156110ce5786835f8151811061100d5761100d611972565b6020026020010151730d500b1d8e8ef31e21c99d1db9a6444d3adf12708560018151811061103d5761103d611972565b6020908102919091018101516040516bffffffffffffffffffffffff19606096871b8116938201939093527fffffff000000000000000000000000000000000000000000000000000000000060e895861b8116603483015293861b83166037820152931b909116604b8301529188901b909116604e820152606201604051602081830303815290604052905061115c565b86835f815181106110e1576110e1611972565b60200260200101518760405160200161114a93929190606093841b6bffffffffffffffffffffffff19908116825260e89390931b7fffffff0000000000000000000000000000000000000000000000000000000000166014820152921b166017820152602b0190565b60405160208183030381529060405290505b6040805160a0810182528281526001600160a01b03871660208201524281830152606081018690525f608082015290517fc04b8d5900000000000000000000000000000000000000000000000000000000815273e592427a0aece92de3edee1f18e0157c058615649063c04b8d59906111d9908490600401611986565b6020604051808303815f875af11580156111f5573d5f803e3d5ffd5b505050506040513d601f19601f8201168201806040525081019061121991906118ff565b98975050505050505050565b6112706040518060e001604052805f6001600160a01b031681526020015f6001600160a01b031681526020015f81526020015f81526020015f81526020015f81526020015f81525090565b6040517f13d21cdf0000000000000000000000000000000000000000000000000000000081526001600160a01b03851660048201525f90734f57c40d3daa7bf2ec970dd157b1268982158720906313d21cdf906024015f60405180830381865afa1580156112e0573d5f803e3d5ffd5b505050506040513d5f823e601f3d908101601f191682016040526113079190810190611a5e565b6040517ff408646e0000000000000000000000000000000000000000000000000000000081526001600160a01b0380861660048301528088166024830152861660448201529091505f90734f57c40d3daa7bf2ec970dd157b12689821587209063f408646e9060640161028060405180830381865afa15801561138c573d5f803e3d5ffd5b505050506040513d601f19601f820116820180604052508101906113b09190611b6d565b60c080840180516001600160a01b03908116875260e0860151811660208801529451918601919091526101e0820151604086015261022082015160608601526101c082015160a0860152610200909101516080850152519091168252509392505050565b604080516001600160a01b038481166024830152604480830185905283518084039091018152606490920183526020820180517bffffffffffffffffffffffffffffffffffffffffffffffffffffffff167fa9059cbb0000000000000000000000000000000000000000000000000000000017905291515f9283929087169161149d9190611938565b5f604051808303815f865af19150503d805f81146114d6576040519150601f19603f3d011682016040523d82523d5f602084013e6114db565b606091505b50915091508180156115055750805115806115055750808060200190518101906115059190611953565b610fc75760405162461bcd60e51b815260206004820152600260248201527f535400000000000000000000000000000000000000000000000000000000000060448201526064016106d7565b6001600160a01b0381168114611565575f80fd5b50565b634e487b7160e01b5f52604160045260245ffd5b604051610180810167ffffffffffffffff811182821017156115a0576115a0611568565b60405290565b604051610280810167ffffffffffffffff811182821017156115a0576115a0611568565b604051601f8201601f1916810167ffffffffffffffff811182821017156115f3576115f3611568565b604052919050565b5f82601f83011261160a575f80fd5b8135602067ffffffffffffffff82111561162657611626611568565b8160051b6116358282016115ca565b928352848101820192828101908785111561164e575f80fd5b83870192505b8483101561167e57823562ffffff8116811461166f575f8081fd5b82529183019190830190611654565b979650505050505050565b5f805f805f805f60e0888a03121561169f575f80fd5b87356116aa81611551565b965060208801356116ba81611551565b955060408801356116ca81611551565b9450606088013593506080880135925060a08801356116e881611551565b915060c088013567ffffffffffffffff811115611703575f80fd5b61170f8a828b016115fb565b91505092959891949750929550565b5f805f8060808587031215611731575f80fd5b843561173c81611551565b9350602085013561174c81611551565b925060408501359150606085013567ffffffffffffffff81111561176e575f80fd5b61177a878288016115fb565b91505092959194509250565b5f805f805f60a0868803121561179a575f80fd5b85356117a581611551565b945060208601356117b581611551565b93506040860135925060608601356117cc81611551565b9150608086013567ffffffffffffffff8111156117e7575f80fd5b6117f3888289016115fb565b9150509295509295909350565b5f805f805f8060c08789031215611815575f80fd5b863561182081611551565b9550602087013561183081611551565b9450604087013561184081611551565b9350606087013561185081611551565b92506080870135915060a087013567ffffffffffffffff811115611872575f80fd5b61187e89828a016115fb565b9150509295509295509295565b805161189681611551565b919050565b5f602082840312156118ab575f80fd5b81516118b681611551565b9392505050565b5f7f800000000000000000000000000000000000000000000000000000000000000082036118f957634e487b7160e01b5f52601160045260245ffd5b505f0390565b5f6020828403121561190f575f80fd5b5051919050565b5f5b83811015611930578181015183820152602001611918565b50505f910152565b5f8251611949818460208701611916565b9190910192915050565b5f60208284031215611963575f80fd5b815180151581146118b6575f80fd5b634e487b7160e01b5f52603260045260245ffd5b602081525f825160a0602084015280518060c08501526119ad8160e0860160208501611916565b6001600160a01b0360208601511660408501526040850151606085015260608501516080850152608085015160a085015260e0601f19601f8301168501019250505092915050565b5f82601f830112611a04575f80fd5b815167ffffffffffffffff811115611a1e57611a1e611568565b611a31601f8201601f19166020016115ca565b818152846020838601011115611a45575f80fd5b611a56826020830160208701611916565b949350505050565b5f60208284031215611a6e575f80fd5b815167ffffffffffffffff80821115611a85575f80fd5b908301906101808286031215611a99575f80fd5b611aa161157c565b8251815260208301516020820152604083015160408201526060830151606082015260808301516080820152611ad960a0840161188b565b60a0820152611aea60c0840161188b565b60c0820152611afb60e0840161188b565b60e08201526101008084015183811115611b13575f80fd5b611b1f888287016119f5565b8284015250506101208084015183811115611b38575f80fd5b611b44888287016119f5565b918301919091525061014083810151908201526101609283015192810192909252509392505050565b5f6102808284031215611b7e575f80fd5b611b866115a6565b825181526020808401519082015260408084015190820152606080840151908201526080808401519082015260a0808401519082015260c0808401519082015260e08084015190820152610100808401519082015261012080840151908201526101408084015190820152610160808401519082015261018080840151908201526101a080840151908201526101c080840151908201526101e0808401519082015261020080840151908201526102208084015190820152610240808401519082015261026092830151928101929092525091905056fea2646970667358221220aee7ff318de98fae40bfc30611d729de9595049a5fc5109808fac3112a66756864736f6c63430008140033",
			"opcodes": "PUSH1 0xA0 PUSH1 0x40 MSTORE CALLVALUE DUP1 ISZERO PUSH2 0xF JUMPI PUSH0 DUP1 REVERT JUMPDEST POP CALLER PUSH1 0x80 MSTORE PUSH1 0x80 MLOAD PUSH2 0x1C93 PUSH2 0x2C PUSH0 CODECOPY PUSH0 PUSH2 0x1EF ADD MSTORE PUSH2 0x1C93 PUSH0 RETURN INVALID PUSH1 0x80 PUSH1 0x40 MSTORE CALLVALUE DUP1 ISZERO PUSH2 0xF JUMPI PUSH0 DUP1 REVERT JUMPDEST POP PUSH1 0x4 CALLDATASIZE LT PUSH2 0xCF JUMPI PUSH0 CALLDATALOAD PUSH1 0xE0 SHR DUP1 PUSH4 0xB5C8B759 GT PUSH2 0x7D JUMPI DUP1 PUSH4 0xC31C9C07 GT PUSH2 0x58 JUMPI DUP1 PUSH4 0xC31C9C07 EQ PUSH2 0x1B4 JUMPI DUP1 PUSH4 0xE1AB2228 EQ PUSH2 0x1CF JUMPI DUP1 PUSH4 0xF77C4791 EQ PUSH2 0x1EA JUMPI PUSH0 DUP1 REVERT JUMPDEST DUP1 PUSH4 0xB5C8B759 EQ PUSH2 0x173 JUMPI DUP1 PUSH4 0xB93BC415 EQ PUSH2 0x186 JUMPI DUP1 PUSH4 0xBAECBFCD EQ PUSH2 0x1A1 JUMPI PUSH0 DUP1 REVERT JUMPDEST DUP1 PUSH4 0x6BBB194B GT PUSH2 0xAD JUMPI DUP1 PUSH4 0x6BBB194B EQ PUSH2 0x132 JUMPI DUP1 PUSH4 0x73E8F1FA EQ PUSH2 0x14D JUMPI DUP1 PUSH4 0xA36CC4CD EQ PUSH2 0x160 JUMPI PUSH0 DUP1 REVERT JUMPDEST DUP1 PUSH4 0x315A1451 EQ PUSH2 0xD3 JUMPI DUP1 PUSH4 0x63B0E66A EQ PUSH2 0xE8 JUMPI DUP1 PUSH4 0x6B5E7305 EQ PUSH2 0x11F JUMPI JUMPDEST PUSH0 DUP1 REVERT JUMPDEST PUSH2 0xE6 PUSH2 0xE1 CALLDATASIZE PUSH1 0x4 PUSH2 0x1689 JUMP JUMPDEST PUSH2 0x211 JUMP JUMPDEST STOP JUMPDEST PUSH2 0x103 PUSH20 0x4F57C40D3DAA7BF2EC970DD157B1268982158720 DUP2 JUMP JUMPDEST PUSH1 0x40 MLOAD PUSH1 0x1 PUSH1 0x1 PUSH1 0xA0 SHL SUB SWAP1 SWAP2 AND DUP2 MSTORE PUSH1 0x20 ADD PUSH1 0x40 MLOAD DUP1 SWAP2 SUB SWAP1 RETURN JUMPDEST PUSH2 0xE6 PUSH2 0x12D CALLDATASIZE PUSH1 0x4 PUSH2 0x171E JUMP JUMPDEST PUSH2 0x471 JUMP JUMPDEST PUSH2 0x103 PUSH20 0xF25212E676D1F7F89CD72FFEE66158F541246445 DUP2 JUMP JUMPDEST PUSH2 0xE6 PUSH2 0x15B CALLDATASIZE PUSH1 0x4 PUSH2 0x1786 JUMP JUMPDEST PUSH2 0x5C0 JUMP JUMPDEST PUSH2 0xE6 PUSH2 0x16E CALLDATASIZE PUSH1 0x4 PUSH2 0x1689 JUMP JUMPDEST PUSH2 0x95E JUMP JUMPDEST PUSH2 0xE6 PUSH2 0x181 CALLDATASIZE PUSH1 0x4 PUSH2 0x1800 JUMP JUMPDEST PUSH2 0xAD2 JUMP JUMPDEST PUSH2 0x103 PUSH20 0x17DAD892347803551CEEE2D377D010034DF64347 DUP2 JUMP JUMPDEST PUSH2 0xE6 PUSH2 0x1AF CALLDATASIZE PUSH1 0x4 PUSH2 0x1786 JUMP JUMPDEST PUSH2 0xD63 JUMP JUMPDEST PUSH2 0x103 PUSH20 0xE592427A0AECE92DE3EDEE1F18E0157C05861564 DUP2 JUMP JUMPDEST PUSH2 0x103 PUSH20 0x77B6569F0DBC4F265A575A84540C2A0CAE116A90 DUP2 JUMP JUMPDEST PUSH2 0x103 PUSH32 0x0 DUP2 JUMP JUMPDEST PUSH0 DUP8 PUSH1 0x1 PUSH1 0x1 PUSH1 0xA0 SHL SUB AND PUSH4 0xDFE1681 PUSH1 0x40 MLOAD DUP2 PUSH4 0xFFFFFFFF AND PUSH1 0xE0 SHL DUP2 MSTORE PUSH1 0x4 ADD PUSH1 0x20 PUSH1 0x40 MLOAD DUP1 DUP4 SUB DUP2 DUP7 GAS STATICCALL ISZERO DUP1 ISZERO PUSH2 0x24E JUMPI RETURNDATASIZE PUSH0 DUP1 RETURNDATACOPY RETURNDATASIZE PUSH0 REVERT JUMPDEST POP POP POP POP PUSH1 0x40 MLOAD RETURNDATASIZE PUSH1 0x1F NOT PUSH1 0x1F DUP3 ADD AND DUP3 ADD DUP1 PUSH1 0x40 MSTORE POP DUP2 ADD SWAP1 PUSH2 0x272 SWAP2 SWAP1 PUSH2 0x189B JUMP JUMPDEST SWAP1 POP PUSH0 DUP9 PUSH1 0x1 PUSH1 0x1 PUSH1 0xA0 SHL SUB AND PUSH4 0xD21220A7 PUSH1 0x40 MLOAD DUP2 PUSH4 0xFFFFFFFF AND PUSH1 0xE0 SHL DUP2 MSTORE PUSH1 0x4 ADD PUSH1 0x20 PUSH1 0x40 MLOAD DUP1 DUP4 SUB DUP2 DUP7 GAS STATICCALL ISZERO DUP1 ISZERO PUSH2 0x2B1 JUMPI RETURNDATASIZE PUSH0 DUP1 RETURNDATACOPY RETURNDATASIZE PUSH0 REVERT JUMPDEST POP POP POP POP PUSH1 0x40 MLOAD RETURNDATASIZE PUSH1 0x1F NOT PUSH1 0x1F DUP3 ADD AND DUP3 ADD DUP1 PUSH1 0x40 MSTORE POP DUP2 ADD SWAP1 PUSH2 0x2D5 SWAP2 SWAP1 PUSH2 0x189B JUMP JUMPDEST SWAP1 POP PUSH0 ADDRESS DUP2 DUP8 SLT ISZERO PUSH2 0x2E9 JUMPI DUP4 SWAP2 POP PUSH2 0x2ED JUMP JUMPDEST DUP3 SWAP2 POP JUMPDEST DUP9 PUSH1 0x1 PUSH1 0x1 PUSH1 0xA0 SHL SUB AND DUP3 PUSH1 0x1 PUSH1 0x1 PUSH1 0xA0 SHL SUB AND SUB PUSH2 0x309 JUMPI POP DUP5 JUMPDEST PUSH2 0x328 DUP11 PUSH20 0x17DAD892347803551CEEE2D377D010034DF64347 DUP11 PUSH2 0xE8A JUMP JUMPDEST PUSH1 0x40 MLOAD PUSH32 0x8DEE946000000000000000000000000000000000000000000000000000000000 DUP2 MSTORE PUSH1 0x1 PUSH1 0x1 PUSH1 0xA0 SHL SUB DUP1 DUP14 AND PUSH1 0x4 DUP4 ADD MSTORE PUSH1 0x24 DUP3 ADD DUP10 SWAP1 MSTORE PUSH1 0x44 DUP3 ADD DUP11 SWAP1 MSTORE DUP3 AND PUSH1 0x64 DUP3 ADD MSTORE PUSH20 0x17DAD892347803551CEEE2D377D010034DF64347 SWAP1 PUSH4 0x8DEE9460 SWAP1 PUSH1 0x84 ADD PUSH0 PUSH1 0x40 MLOAD DUP1 DUP4 SUB DUP2 PUSH0 DUP8 DUP1 EXTCODESIZE ISZERO DUP1 ISZERO PUSH2 0x3A9 JUMPI PUSH0 DUP1 REVERT JUMPDEST POP GAS CALL ISZERO DUP1 ISZERO PUSH2 0x3BB JUMPI RETURNDATASIZE PUSH0 DUP1 RETURNDATACOPY RETURNDATASIZE PUSH0 REVERT JUMPDEST POP POP POP POP DUP9 PUSH1 0x1 PUSH1 0x1 PUSH1 0xA0 SHL SUB AND DUP3 PUSH1 0x1 PUSH1 0x1 PUSH1 0xA0 SHL SUB AND EQ PUSH2 0x464 JUMPI PUSH0 DUP8 SLT ISZERO PUSH2 0x3EC JUMPI PUSH2 0x3E9 DUP8 PUSH2 0x18BD JUMP JUMPDEST SWAP7 POP JUMPDEST PUSH1 0x40 MLOAD PUSH4 0x70A08231 PUSH1 0xE0 SHL DUP2 MSTORE ADDRESS PUSH1 0x4 DUP3 ADD MSTORE PUSH2 0x462 SWAP1 DUP4 SWAP1 DUP12 SWAP1 DUP10 SWAP1 PUSH1 0x1 PUSH1 0x1 PUSH1 0xA0 SHL SUB DUP5 AND SWAP1 PUSH4 0x70A08231 SWAP1 PUSH1 0x24 ADD PUSH1 0x20 PUSH1 0x40 MLOAD DUP1 DUP4 SUB DUP2 DUP7 GAS STATICCALL ISZERO DUP1 ISZERO PUSH2 0x438 JUMPI RETURNDATASIZE PUSH0 DUP1 RETURNDATACOPY RETURNDATASIZE PUSH0 REVERT JUMPDEST POP POP POP POP PUSH1 0x40 MLOAD RETURNDATASIZE PUSH1 0x1F NOT PUSH1 0x1F DUP3 ADD AND DUP3 ADD DUP1 PUSH1 0x40 MSTORE POP DUP2 ADD SWAP1 PUSH2 0x45C SWAP2 SWAP1 PUSH2 0x18FF JUMP JUMPDEST DUP10 PUSH2 0xFCE JUMP JUMPDEST POP JUMPDEST POP POP POP POP POP POP POP POP POP POP POP JUMP JUMPDEST DUP3 PUSH1 0x1 PUSH1 0x1 PUSH1 0xA0 SHL SUB AND DUP5 PUSH1 0x1 PUSH1 0x1 PUSH1 0xA0 SHL SUB AND EQ PUSH2 0x499 JUMPI PUSH2 0x497 DUP4 DUP6 ADDRESS DUP6 DUP6 PUSH2 0xFCE JUMP JUMPDEST POP JUMPDEST PUSH2 0x4B9 DUP5 PUSH20 0xF25212E676D1F7F89CD72FFEE66158F541246445 PUSH0 NOT PUSH2 0xE8A JUMP JUMPDEST PUSH1 0x40 MLOAD PUSH4 0x70A08231 PUSH1 0xE0 SHL DUP2 MSTORE ADDRESS PUSH1 0x4 DUP3 ADD DUP2 SWAP1 MSTORE PUSH20 0xF25212E676D1F7F89CD72FFEE66158F541246445 SWAP2 PUSH4 0x4232CD63 SWAP2 SWAP1 DUP8 SWAP1 PUSH1 0x1 PUSH1 0x1 PUSH1 0xA0 SHL SUB DUP3 AND SWAP1 PUSH4 0x70A08231 SWAP1 PUSH1 0x24 ADD PUSH1 0x20 PUSH1 0x40 MLOAD DUP1 DUP4 SUB DUP2 DUP7 GAS STATICCALL ISZERO DUP1 ISZERO PUSH2 0x51C JUMPI RETURNDATASIZE PUSH0 DUP1 RETURNDATACOPY RETURNDATASIZE PUSH0 REVERT JUMPDEST POP POP POP POP PUSH1 0x40 MLOAD RETURNDATASIZE PUSH1 0x1F NOT PUSH1 0x1F DUP3 ADD AND DUP3 ADD DUP1 PUSH1 0x40 MSTORE POP DUP2 ADD SWAP1 PUSH2 0x540 SWAP2 SWAP1 PUSH2 0x18FF JUMP JUMPDEST PUSH1 0x40 MLOAD PUSH32 0xFFFFFFFF00000000000000000000000000000000000000000000000000000000 PUSH1 0xE0 DUP7 SWAP1 SHL AND DUP2 MSTORE PUSH1 0x1 PUSH1 0x1 PUSH1 0xA0 SHL SUB SWAP4 DUP5 AND PUSH1 0x4 DUP3 ADD MSTORE SWAP3 SWAP1 SWAP2 AND PUSH1 0x24 DUP4 ADD MSTORE PUSH1 0x44 DUP3 ADD MSTORE PUSH1 0x64 ADD PUSH0 PUSH1 0x40 MLOAD DUP1 DUP4 SUB DUP2 PUSH0 DUP8 DUP1 EXTCODESIZE ISZERO DUP1 ISZERO PUSH2 0x5A4 JUMPI PUSH0 DUP1 REVERT JUMPDEST POP GAS CALL ISZERO DUP1 ISZERO PUSH2 0x5B6 JUMPI RETURNDATASIZE PUSH0 DUP1 RETURNDATACOPY RETURNDATASIZE PUSH0 REVERT JUMPDEST POP POP POP POP POP POP POP POP JUMP JUMPDEST PUSH0 PUSH2 0x5E0 DUP7 ADDRESS PUSH20 0x77B6569F0DBC4F265A575A84540C2A0CAE116A90 PUSH2 0x1225 JUMP JUMPDEST PUSH1 0x40 DUP2 DUP2 ADD MLOAD PUSH1 0x60 DUP4 ADD MLOAD SWAP2 MLOAD PUSH32 0x4B7CAB4A00000000000000000000000000000000000000000000000000000000 DUP2 MSTORE PUSH1 0x1 PUSH1 0x1 PUSH1 0xA0 SHL SUB DUP11 AND PUSH1 0x4 DUP3 ADD MSTORE ADDRESS PUSH1 0x24 DUP3 ADD MSTORE SWAP3 SWAP4 POP SWAP2 PUSH0 SWAP1 PUSH20 0x77B6569F0DBC4F265A575A84540C2A0CAE116A90 SWAP1 PUSH4 0x4B7CAB4A SWAP1 PUSH1 0x44 ADD PUSH1 0x20 PUSH1 0x40 MLOAD DUP1 DUP4 SUB DUP2 PUSH0 DUP8 GAS CALL ISZERO DUP1 ISZERO PUSH2 0x666 JUMPI RETURNDATASIZE PUSH0 DUP1 RETURNDATACOPY RETURNDATASIZE PUSH0 REVERT JUMPDEST POP POP POP POP PUSH1 0x40 MLOAD RETURNDATASIZE PUSH1 0x1F NOT PUSH1 0x1F DUP3 ADD AND DUP3 ADD DUP1 PUSH1 0x40 MSTORE POP DUP2 ADD SWAP1 PUSH2 0x68A SWAP2 SWAP1 PUSH2 0x18FF JUMP JUMPDEST SWAP1 POP DUP1 PUSH0 SUB PUSH2 0x6E0 JUMPI PUSH1 0x40 MLOAD PUSH3 0x461BCD PUSH1 0xE5 SHL DUP2 MSTORE PUSH1 0x20 PUSH1 0x4 DUP3 ADD MSTORE PUSH1 0x11 PUSH1 0x24 DUP3 ADD MSTORE PUSH32 0x4E6F20506F736974696F6E20466F756E64000000000000000000000000000000 PUSH1 0x44 DUP3 ADD MSTORE PUSH1 0x64 ADD JUMPDEST PUSH1 0x40 MLOAD DUP1 SWAP2 SUB SWAP1 REVERT JUMPDEST PUSH0 ADDRESS PUSH1 0x1 PUSH1 0x1 PUSH1 0xA0 SHL SUB DUP9 AND DUP3 SUB PUSH2 0x6F5 JUMPI POP DUP9 JUMPDEST PUSH0 DUP10 SLT ISZERO PUSH2 0x7E7 JUMPI DUP6 MLOAD SWAP2 POP DUP4 ISZERO PUSH2 0x798 JUMPI PUSH1 0x40 MLOAD PUSH4 0xE96466D PUSH1 0xE4 SHL DUP2 MSTORE PUSH1 0x1 PUSH1 0x1 PUSH1 0xA0 SHL SUB DUP1 DUP14 AND PUSH1 0x4 DUP4 ADD MSTORE PUSH1 0x24 DUP3 ADD DUP12 SWAP1 MSTORE DUP3 AND PUSH1 0x44 DUP3 ADD MSTORE PUSH20 0x17DAD892347803551CEEE2D377D010034DF64347 SWAP1 PUSH4 0xE96466D0 SWAP1 PUSH1 0x64 ADD JUMPDEST PUSH1 0x20 PUSH1 0x40 MLOAD DUP1 DUP4 SUB DUP2 PUSH0 DUP8 GAS CALL ISZERO DUP1 ISZERO PUSH2 0x76E JUMPI RETURNDATASIZE PUSH0 DUP1 RETURNDATACOPY RETURNDATASIZE PUSH0 REVERT JUMPDEST POP POP POP POP PUSH1 0x40 MLOAD RETURNDATASIZE PUSH1 0x1F NOT PUSH1 0x1F DUP3 ADD AND DUP3 ADD DUP1 PUSH1 0x40 MSTORE POP DUP2 ADD SWAP1 PUSH2 0x792 SWAP2 SWAP1 PUSH2 0x18FF JUMP JUMPDEST POP PUSH2 0x8CF JUMP JUMPDEST PUSH1 0x40 MLOAD PUSH4 0x5833CDF9 PUSH1 0xE0 SHL DUP2 MSTORE PUSH1 0x1 PUSH1 0x1 PUSH1 0xA0 SHL SUB DUP1 DUP14 AND PUSH1 0x4 DUP4 ADD MSTORE PUSH1 0x24 DUP3 ADD DUP12 SWAP1 MSTORE DUP3 AND PUSH1 0x44 DUP3 ADD MSTORE PUSH20 0x17DAD892347803551CEEE2D377D010034DF64347 SWAP1 PUSH4 0x5833CDF9 SWAP1 PUSH1 0x64 ADD PUSH2 0x752 JUMP JUMPDEST PUSH1 0x20 DUP7 ADD MLOAD SWAP2 POP DUP5 ISZERO PUSH2 0x843 JUMPI PUSH1 0x40 MLOAD PUSH4 0xE96466D PUSH1 0xE4 SHL DUP2 MSTORE PUSH1 0x1 PUSH1 0x1 PUSH1 0xA0 SHL SUB DUP1 DUP14 AND PUSH1 0x4 DUP4 ADD MSTORE PUSH1 0x24 DUP3 ADD DUP12 SWAP1 MSTORE DUP3 AND PUSH1 0x44 DUP3 ADD MSTORE PUSH20 0x17DAD892347803551CEEE2D377D010034DF64347 SWAP1 PUSH4 0xE96466D0 SWAP1 PUSH1 0x64 ADD PUSH2 0x752 JUMP JUMPDEST PUSH1 0x40 MLOAD PUSH4 0x5833CDF9 PUSH1 0xE0 SHL DUP2 MSTORE PUSH1 0x1 PUSH1 0x1 PUSH1 0xA0 SHL SUB DUP1 DUP14 AND PUSH1 0x4 DUP4 ADD MSTORE PUSH1 0x24 DUP3 ADD DUP12 SWAP1 MSTORE DUP3 AND PUSH1 0x44 DUP3 ADD MSTORE PUSH20 0x17DAD892347803551CEEE2D377D010034DF64347 SWAP1 PUSH4 0x5833CDF9 SWAP1 PUSH1 0x64 ADD PUSH1 0x20 PUSH1 0x40 MLOAD DUP1 DUP4 SUB DUP2 PUSH0 DUP8 GAS CALL ISZERO DUP1 ISZERO PUSH2 0x8A9 JUMPI RETURNDATASIZE PUSH0 DUP1 RETURNDATACOPY RETURNDATASIZE PUSH0 REVERT JUMPDEST POP POP POP POP PUSH1 0x40 MLOAD RETURNDATASIZE PUSH1 0x1F NOT PUSH1 0x1F DUP3 ADD AND DUP3 ADD DUP1 PUSH1 0x40 MSTORE POP DUP2 ADD SWAP1 PUSH2 0x8CD SWAP2 SWAP1 PUSH2 0x18FF JUMP JUMPDEST POP JUMPDEST DUP8 PUSH1 0x1 PUSH1 0x1 PUSH1 0xA0 SHL SUB AND DUP3 PUSH1 0x1 PUSH1 0x1 PUSH1 0xA0 SHL SUB AND EQ PUSH2 0x464 JUMPI PUSH1 0x40 MLOAD PUSH4 0x70A08231 PUSH1 0xE0 SHL DUP2 MSTORE ADDRESS PUSH1 0x4 DUP3 ADD MSTORE PUSH2 0x462 SWAP1 DUP4 SWAP1 DUP11 SWAP1 DUP14 SWAP1 PUSH1 0x1 PUSH1 0x1 PUSH1 0xA0 SHL SUB DUP5 AND SWAP1 PUSH4 0x70A08231 SWAP1 PUSH1 0x24 ADD PUSH1 0x20 PUSH1 0x40 MLOAD DUP1 DUP4 SUB DUP2 DUP7 GAS STATICCALL ISZERO DUP1 ISZERO PUSH2 0x934 JUMPI RETURNDATASIZE PUSH0 DUP1 RETURNDATACOPY RETURNDATASIZE PUSH0 REVERT JUMPDEST POP POP POP POP PUSH1 0x40 MLOAD RETURNDATASIZE PUSH1 0x1F NOT PUSH1 0x1F DUP3 ADD AND DUP3 ADD DUP1 PUSH1 0x40 MSTORE POP DUP2 ADD SWAP1 PUSH2 0x958 SWAP2 SWAP1 PUSH2 0x18FF JUMP JUMPDEST DUP12 PUSH2 0xFCE JUMP JUMPDEST PUSH2 0x97D DUP8 PUSH20 0xF25212E676D1F7F89CD72FFEE66158F541246445 DUP7 PUSH2 0xE8A JUMP JUMPDEST PUSH1 0x40 MLOAD PUSH32 0x4232CD6300000000000000000000000000000000000000000000000000000000 DUP2 MSTORE ADDRESS PUSH1 0x4 DUP3 ADD DUP2 SWAP1 MSTORE PUSH1 0x1 PUSH1 0x1 PUSH1 0xA0 SHL SUB DUP10 AND PUSH1 0x24 DUP4 ADD MSTORE PUSH1 0x44 DUP3 ADD DUP7 SWAP1 MSTORE SWAP1 PUSH20 0xF25212E676D1F7F89CD72FFEE66158F541246445 SWAP1 PUSH4 0x4232CD63 SWAP1 PUSH1 0x64 ADD PUSH0 PUSH1 0x40 MLOAD DUP1 DUP4 SUB DUP2 PUSH0 DUP8 DUP1 EXTCODESIZE ISZERO DUP1 ISZERO PUSH2 0x9F8 JUMPI PUSH0 DUP1 REVERT JUMPDEST POP GAS CALL ISZERO DUP1 ISZERO PUSH2 0xA0A JUMPI RETURNDATASIZE PUSH0 DUP1 RETURNDATACOPY RETURNDATASIZE PUSH0 REVERT JUMPDEST POP POP POP POP DUP6 PUSH1 0x1 PUSH1 0x1 PUSH1 0xA0 SHL SUB AND DUP8 PUSH1 0x1 PUSH1 0x1 PUSH1 0xA0 SHL SUB AND SUB PUSH2 0xA2A JUMPI POP DUP2 JUMPDEST PUSH1 0x40 MLOAD PUSH4 0x61D9AD3F PUSH1 0xE1 SHL DUP2 MSTORE PUSH1 0x1 PUSH1 0x1 PUSH1 0xA0 SHL SUB DUP1 DUP4 AND PUSH1 0x4 DUP4 ADD MSTORE DUP9 AND PUSH1 0x24 DUP3 ADD MSTORE PUSH1 0x44 DUP2 ADD DUP6 SWAP1 MSTORE PUSH20 0xF25212E676D1F7F89CD72FFEE66158F541246445 SWAP1 PUSH4 0xC3B35A7E SWAP1 PUSH1 0x64 ADD PUSH0 PUSH1 0x40 MLOAD DUP1 DUP4 SUB DUP2 PUSH0 DUP8 DUP1 EXTCODESIZE ISZERO DUP1 ISZERO PUSH2 0xA8B JUMPI PUSH0 DUP1 REVERT JUMPDEST POP GAS CALL ISZERO DUP1 ISZERO PUSH2 0xA9D JUMPI RETURNDATASIZE PUSH0 DUP1 RETURNDATACOPY RETURNDATASIZE PUSH0 REVERT JUMPDEST POP POP POP POP DUP6 PUSH1 0x1 PUSH1 0x1 PUSH1 0xA0 SHL SUB AND DUP8 PUSH1 0x1 PUSH1 0x1 PUSH1 0xA0 SHL SUB AND EQ PUSH2 0x5B6 JUMPI PUSH2 0xAC7 DUP8 DUP8 DUP6 DUP8 DUP7 PUSH2 0xFCE JUMP JUMPDEST POP POP POP POP POP POP POP POP POP JUMP JUMPDEST PUSH0 DUP1 PUSH0 PUSH2 0xAF4 DUP10 ADDRESS PUSH20 0x77B6569F0DBC4F265A575A84540C2A0CAE116A90 PUSH2 0x1225 JUMP JUMPDEST SWAP1 POP DUP8 PUSH1 0x1 PUSH1 0x1 PUSH1 0xA0 SHL SUB AND DUP7 PUSH1 0x1 PUSH1 0x1 PUSH1 0xA0 SHL SUB AND EQ PUSH2 0xB23 JUMPI PUSH2 0xB1C DUP9 DUP8 ADDRESS DUP9 DUP9 PUSH2 0xFCE JUMP JUMPDEST SWAP2 POP PUSH2 0xB27 JUMP JUMPDEST DUP5 SWAP2 POP JUMPDEST PUSH2 0xB47 DUP7 PUSH20 0x17DAD892347803551CEEE2D377D010034DF64347 PUSH0 NOT PUSH2 0xE8A JUMP JUMPDEST DUP1 PUSH0 ADD MLOAD PUSH1 0x1 PUSH1 0x1 PUSH1 0xA0 SHL SUB AND DUP7 PUSH1 0x1 PUSH1 0x1 PUSH1 0xA0 SHL SUB AND SUB PUSH2 0xBA8 JUMPI DUP1 PUSH1 0x40 ADD MLOAD DUP4 SGT ISZERO PUSH2 0xB9F JUMPI PUSH2 0xB98 PUSH32 0x7FFFFFFFFFFFFFFFFFFFFFFFFFFFFFFFFFFFFFFFFFFFFFFFFFFFFFFFFFFFFFFF PUSH2 0x18BD JUMP JUMPDEST SWAP3 POP PUSH2 0xBE0 JUMP JUMPDEST PUSH2 0xB98 DUP3 PUSH2 0x18BD JUMP JUMPDEST DUP1 PUSH1 0x60 ADD MLOAD DUP4 SGT ISZERO PUSH2 0xBDC JUMPI PUSH32 0x7FFFFFFFFFFFFFFFFFFFFFFFFFFFFFFFFFFFFFFFFFFFFFFFFFFFFFFFFFFFFFFF SWAP3 POP PUSH2 0xBE0 JUMP JUMPDEST DUP2 SWAP3 POP JUMPDEST PUSH1 0x40 MLOAD PUSH32 0x8262654700000000000000000000000000000000000000000000000000000000 DUP2 MSTORE PUSH1 0x1 PUSH1 0x1 PUSH1 0xA0 SHL SUB DUP11 AND PUSH1 0x4 DUP3 ADD MSTORE PUSH1 0x24 DUP2 ADD DUP5 SWAP1 MSTORE ADDRESS PUSH1 0x44 DUP3 ADD MSTORE PUSH20 0x17DAD892347803551CEEE2D377D010034DF64347 SWAP1 PUSH4 0x82626547 SWAP1 PUSH1 0x64 ADD PUSH1 0x20 PUSH1 0x40 MLOAD DUP1 DUP4 SUB DUP2 PUSH0 DUP8 GAS CALL ISZERO DUP1 ISZERO PUSH2 0xC5D JUMPI RETURNDATASIZE PUSH0 DUP1 RETURNDATACOPY RETURNDATASIZE PUSH0 REVERT JUMPDEST POP POP POP POP PUSH1 0x40 MLOAD RETURNDATASIZE PUSH1 0x1F NOT PUSH1 0x1F DUP3 ADD AND DUP3 ADD DUP1 PUSH1 0x40 MSTORE POP DUP2 ADD SWAP1 PUSH2 0xC81 SWAP2 SWAP1 PUSH2 0x18FF JUMP JUMPDEST POP PUSH1 0x40 MLOAD PUSH4 0x70A08231 PUSH1 0xE0 SHL DUP2 MSTORE ADDRESS PUSH1 0x4 DUP3 ADD MSTORE PUSH0 SWAP1 PUSH1 0x1 PUSH1 0x1 PUSH1 0xA0 SHL SUB DUP9 AND SWAP1 PUSH4 0x70A08231 SWAP1 PUSH1 0x24 ADD PUSH1 0x20 PUSH1 0x40 MLOAD DUP1 DUP4 SUB DUP2 DUP7 GAS STATICCALL ISZERO DUP1 ISZERO PUSH2 0xCC6 JUMPI RETURNDATASIZE PUSH0 DUP1 RETURNDATACOPY RETURNDATASIZE PUSH0 REVERT JUMPDEST POP POP POP POP PUSH1 0x40 MLOAD RETURNDATASIZE PUSH1 0x1F NOT PUSH1 0x1F DUP3 ADD AND DUP3 ADD DUP1 PUSH1 0x40 MSTORE POP DUP2 ADD SWAP1 PUSH2 0xCEA SWAP2 SWAP1 PUSH2 0x18FF JUMP JUMPDEST GT ISZERO PUSH2 0xAC7 JUMPI PUSH1 0x40 MLOAD PUSH4 0x70A08231 PUSH1 0xE0 SHL DUP2 MSTORE ADDRESS PUSH1 0x4 DUP3 ADD MSTORE PUSH2 0xAC7 SWAP1 DUP8 SWAP1 DUP10 SWAP1 PUSH1 0x1 PUSH1 0x1 PUSH1 0xA0 SHL SUB DUP4 AND SWAP1 PUSH4 0x70A08231 SWAP1 PUSH1 0x24 ADD PUSH1 0x20 PUSH1 0x40 MLOAD DUP1 DUP4 SUB DUP2 DUP7 GAS STATICCALL ISZERO DUP1 ISZERO PUSH2 0xD3A JUMPI RETURNDATASIZE PUSH0 DUP1 RETURNDATACOPY RETURNDATASIZE PUSH0 REVERT JUMPDEST POP POP POP POP PUSH1 0x40 MLOAD RETURNDATASIZE PUSH1 0x1F NOT PUSH1 0x1F DUP3 ADD AND DUP3 ADD DUP1 PUSH1 0x40 MSTORE POP DUP2 ADD SWAP1 PUSH2 0xD5E SWAP2 SWAP1 PUSH2 0x18FF JUMP JUMPDEST PUSH2 0x1414 JUMP JUMPDEST ADDRESS PUSH1 0x1 PUSH1 0x1 PUSH1 0xA0 SHL SUB DUP1 DUP5 AND SWAP1 DUP7 AND SUB PUSH2 0xD7A JUMPI POP DUP5 JUMPDEST PUSH1 0x40 MLOAD PUSH4 0x61D9AD3F PUSH1 0xE1 SHL DUP2 MSTORE PUSH1 0x1 PUSH1 0x1 PUSH1 0xA0 SHL SUB DUP1 DUP4 AND PUSH1 0x4 DUP4 ADD MSTORE DUP7 AND PUSH1 0x24 DUP3 ADD MSTORE PUSH1 0x44 DUP2 ADD DUP6 SWAP1 MSTORE PUSH20 0xF25212E676D1F7F89CD72FFEE66158F541246445 SWAP1 PUSH4 0xC3B35A7E SWAP1 PUSH1 0x64 ADD PUSH0 PUSH1 0x40 MLOAD DUP1 DUP4 SUB DUP2 PUSH0 DUP8 DUP1 EXTCODESIZE ISZERO DUP1 ISZERO PUSH2 0xDDB JUMPI PUSH0 DUP1 REVERT JUMPDEST POP GAS CALL ISZERO DUP1 ISZERO PUSH2 0xDED JUMPI RETURNDATASIZE PUSH0 DUP1 RETURNDATACOPY RETURNDATASIZE PUSH0 REVERT JUMPDEST POP POP POP POP DUP3 PUSH1 0x1 PUSH1 0x1 PUSH1 0xA0 SHL SUB AND DUP6 PUSH1 0x1 PUSH1 0x1 PUSH1 0xA0 SHL SUB AND EQ PUSH2 0xE82 JUMPI PUSH1 0x40 MLOAD PUSH4 0x70A08231 PUSH1 0xE0 SHL DUP2 MSTORE ADDRESS PUSH1 0x4 DUP3 ADD MSTORE PUSH2 0xE80 SWAP1 DUP7 SWAP1 DUP6 SWAP1 DUP10 SWAP1 PUSH1 0x1 PUSH1 0x1 PUSH1 0xA0 SHL SUB DUP5 AND SWAP1 PUSH4 0x70A08231 SWAP1 PUSH1 0x24 ADD PUSH1 0x20 PUSH1 0x40 MLOAD DUP1 DUP4 SUB DUP2 DUP7 GAS STATICCALL ISZERO DUP1 ISZERO PUSH2 0xE56 JUMPI RETURNDATASIZE PUSH0 DUP1 RETURNDATACOPY RETURNDATASIZE PUSH0 REVERT JUMPDEST POP POP POP POP PUSH1 0x40 MLOAD RETURNDATASIZE PUSH1 0x1F NOT PUSH1 0x1F DUP3 ADD AND DUP3 ADD DUP1 PUSH1 0x40 MSTORE POP DUP2 ADD SWAP1 PUSH2 0xE7A SWAP2 SWAP1 PUSH2 0x18FF JUMP JUMPDEST DUP7 PUSH2 0xFCE JUMP JUMPDEST POP JUMPDEST POP POP POP POP POP POP JUMP JUMPDEST PUSH1 0x40 DUP1 MLOAD PUSH1 0x1 PUSH1 0x1 PUSH1 0xA0 SHL SUB DUP5 DUP2 AND PUSH1 0x24 DUP4 ADD MSTORE PUSH1 0x44 DUP1 DUP4 ADD DUP6 SWAP1 MSTORE DUP4 MLOAD DUP1 DUP5 SUB SWAP1 SWAP2 ADD DUP2 MSTORE PUSH1 0x64 SWAP1 SWAP3 ADD DUP4 MSTORE PUSH1 0x20 DUP3 ADD DUP1 MLOAD PUSH28 0xFFFFFFFFFFFFFFFFFFFFFFFFFFFFFFFFFFFFFFFFFFFFFFFFFFFFFFFF AND PUSH32 0x95EA7B300000000000000000000000000000000000000000000000000000000 OR SWAP1 MSTORE SWAP2 MLOAD PUSH0 SWAP3 DUP4 SWAP3 SWAP1 DUP8 AND SWAP2 PUSH2 0xF13 SWAP2 SWAP1 PUSH2 0x1938 JUMP JUMPDEST PUSH0 PUSH1 0x40 MLOAD DUP1 DUP4 SUB DUP2 PUSH0 DUP7 GAS CALL SWAP2 POP POP RETURNDATASIZE DUP1 PUSH0 DUP2 EQ PUSH2 0xF4C JUMPI PUSH1 0x40 MLOAD SWAP2 POP PUSH1 0x1F NOT PUSH1 0x3F RETURNDATASIZE ADD AND DUP3 ADD PUSH1 0x40 MSTORE RETURNDATASIZE DUP3 MSTORE RETURNDATASIZE PUSH0 PUSH1 0x20 DUP5 ADD RETURNDATACOPY PUSH2 0xF51 JUMP JUMPDEST PUSH1 0x60 SWAP2 POP JUMPDEST POP SWAP2 POP SWAP2 POP DUP2 DUP1 ISZERO PUSH2 0xF7B JUMPI POP DUP1 MLOAD ISZERO DUP1 PUSH2 0xF7B JUMPI POP DUP1 DUP1 PUSH1 0x20 ADD SWAP1 MLOAD DUP2 ADD SWAP1 PUSH2 0xF7B SWAP2 SWAP1 PUSH2 0x1953 JUMP JUMPDEST PUSH2 0xFC7 JUMPI PUSH1 0x40 MLOAD PUSH3 0x461BCD PUSH1 0xE5 SHL DUP2 MSTORE PUSH1 0x20 PUSH1 0x4 DUP3 ADD MSTORE PUSH1 0x2 PUSH1 0x24 DUP3 ADD MSTORE PUSH32 0x5341000000000000000000000000000000000000000000000000000000000000 PUSH1 0x44 DUP3 ADD MSTORE PUSH1 0x64 ADD PUSH2 0x6D7 JUMP JUMPDEST POP POP POP POP POP JUMP JUMPDEST PUSH0 PUSH2 0xFEE DUP7 PUSH20 0xE592427A0AECE92DE3EDEE1F18E0157C05861564 DUP6 PUSH2 0xE8A JUMP JUMPDEST PUSH1 0x60 PUSH1 0x1 DUP4 MLOAD GT ISZERO PUSH2 0x10CE JUMPI DUP7 DUP4 PUSH0 DUP2 MLOAD DUP2 LT PUSH2 0x100D JUMPI PUSH2 0x100D PUSH2 0x1972 JUMP JUMPDEST PUSH1 0x20 MUL PUSH1 0x20 ADD ADD MLOAD PUSH20 0xD500B1D8E8EF31E21C99D1DB9A6444D3ADF1270 DUP6 PUSH1 0x1 DUP2 MLOAD DUP2 LT PUSH2 0x103D JUMPI PUSH2 0x103D PUSH2 0x1972 JUMP JUMPDEST PUSH1 0x20 SWAP1 DUP2 MUL SWAP2 SWAP1 SWAP2 ADD DUP2 ADD MLOAD PUSH1 0x40 MLOAD PUSH12 0xFFFFFFFFFFFFFFFFFFFFFFFF NOT PUSH1 0x60 SWAP7 DUP8 SHL DUP2 AND SWAP4 DUP3 ADD SWAP4 SWAP1 SWAP4 MSTORE PUSH32 0xFFFFFF0000000000000000000000000000000000000000000000000000000000 PUSH1 0xE8 SWAP6 DUP7 SHL DUP2 AND PUSH1 0x34 DUP4 ADD MSTORE SWAP4 DUP7 SHL DUP4 AND PUSH1 0x37 DUP3 ADD MSTORE SWAP4 SHL SWAP1 SWAP2 AND PUSH1 0x4B DUP4 ADD MSTORE SWAP2 DUP9 SWAP1 SHL SWAP1 SWAP2 AND PUSH1 0x4E DUP3 ADD MSTORE PUSH1 0x62 ADD PUSH1 0x40 MLOAD PUSH1 0x20 DUP2 DUP4 SUB SUB DUP2 MSTORE SWAP1 PUSH1 0x40 MSTORE SWAP1 POP PUSH2 0x115C JUMP JUMPDEST DUP7 DUP4 PUSH0 DUP2 MLOAD DUP2 LT PUSH2 0x10E1 JUMPI PUSH2 0x10E1 PUSH2 0x1972 JUMP JUMPDEST PUSH1 0x20 MUL PUSH1 0x20 ADD ADD MLOAD DUP8 PUSH1 0x40 MLOAD PUSH1 0x20 ADD PUSH2 0x114A SWAP4 SWAP3 SWAP2 SWAP1 PUSH1 0x60 SWAP4 DUP5 SHL PUSH12 0xFFFFFFFFFFFFFFFFFFFFFFFF NOT SWAP1 DUP2 AND DUP3 MSTORE PUSH1 0xE8 SWAP4 SWAP1 SWAP4 SHL PUSH32 0xFFFFFF0000000000000000000000000000000000000000000000000000000000 AND PUSH1 0x14 DUP3 ADD MSTORE SWAP3 SHL AND PUSH1 0x17 DUP3 ADD MSTORE PUSH1 0x2B ADD SWAP1 JUMP JUMPDEST PUSH1 0x40 MLOAD PUSH1 0x20 DUP2 DUP4 SUB SUB DUP2 MSTORE SWAP1 PUSH1 0x40 MSTORE SWAP1 POP JUMPDEST PUSH1 0x40 DUP1 MLOAD PUSH1 0xA0 DUP2 ADD DUP3 MSTORE DUP3 DUP2 MSTORE PUSH1 0x1 PUSH1 0x1 PUSH1 0xA0 SHL SUB DUP8 AND PUSH1 0x20 DUP3 ADD MSTORE TIMESTAMP DUP2 DUP4 ADD MSTORE PUSH1 0x60 DUP2 ADD DUP7 SWAP1 MSTORE PUSH0 PUSH1 0x80 DUP3 ADD MSTORE SWAP1 MLOAD PUSH32 0xC04B8D5900000000000000000000000000000000000000000000000000000000 DUP2 MSTORE PUSH20 0xE592427A0AECE92DE3EDEE1F18E0157C05861564 SWAP1 PUSH4 0xC04B8D59 SWAP1 PUSH2 0x11D9 SWAP1 DUP5 SWAP1 PUSH1 0x4 ADD PUSH2 0x1986 JUMP JUMPDEST PUSH1 0x20 PUSH1 0x40 MLOAD DUP1 DUP4 SUB DUP2 PUSH0 DUP8 GAS CALL ISZERO DUP1 ISZERO PUSH2 0x11F5 JUMPI RETURNDATASIZE PUSH0 DUP1 RETURNDATACOPY RETURNDATASIZE PUSH0 REVERT JUMPDEST POP POP POP POP PUSH1 0x40 MLOAD RETURNDATASIZE PUSH1 0x1F NOT PUSH1 0x1F DUP3 ADD AND DUP3 ADD DUP1 PUSH1 0x40 MSTORE POP DUP2 ADD SWAP1 PUSH2 0x1219 SWAP2 SWAP1 PUSH2 0x18FF JUMP JUMPDEST SWAP9 SWAP8 POP POP POP POP POP POP POP POP JUMP JUMPDEST PUSH2 0x1270 PUSH1 0x40 MLOAD DUP1 PUSH1 0xE0 ADD PUSH1 0x40 MSTORE DUP1 PUSH0 PUSH1 0x1 PUSH1 0x1 PUSH1 0xA0 SHL SUB AND DUP2 MSTORE PUSH1 0x20 ADD PUSH0 PUSH1 0x1 PUSH1 0x1 PUSH1 0xA0 SHL SUB AND DUP2 MSTORE PUSH1 0x20 ADD PUSH0 DUP2 MSTORE PUSH1 0x20 ADD PUSH0 DUP2 MSTORE PUSH1 0x20 ADD PUSH0 DUP2 MSTORE PUSH1 0x20 ADD PUSH0 DUP2 MSTORE PUSH1 0x20 ADD PUSH0 DUP2 MSTORE POP SWAP1 JUMP JUMPDEST PUSH1 0x40 MLOAD PUSH32 0x13D21CDF00000000000000000000000000000000000000000000000000000000 DUP2 MSTORE PUSH1 0x1 PUSH1 0x1 PUSH1 0xA0 SHL SUB DUP6 AND PUSH1 0x4 DUP3 ADD MSTORE PUSH0 SWAP1 PUSH20 0x4F57C40D3DAA7BF2EC970DD157B1268982158720 SWAP1 PUSH4 0x13D21CDF SWAP1 PUSH1 0x24 ADD PUSH0 PUSH1 0x40 MLOAD DUP1 DUP4 SUB DUP2 DUP7 GAS STATICCALL ISZERO DUP1 ISZERO PUSH2 0x12E0 JUMPI RETURNDATASIZE PUSH0 DUP1 RETURNDATACOPY RETURNDATASIZE PUSH0 REVERT JUMPDEST POP POP POP POP PUSH1 0x40 MLOAD RETURNDATASIZE PUSH0 DUP3 RETURNDATACOPY PUSH1 0x1F RETURNDATASIZE SWAP1 DUP2 ADD PUSH1 0x1F NOT AND DUP3 ADD PUSH1 0x40 MSTORE PUSH2 0x1307 SWAP2 SWAP1 DUP2 ADD SWAP1 PUSH2 0x1A5E JUMP JUMPDEST PUSH1 0x40 MLOAD PUSH32 0xF408646E00000000000000000000000000000000000000000000000000000000 DUP2 MSTORE PUSH1 0x1 PUSH1 0x1 PUSH1 0xA0 SHL SUB DUP1 DUP7 AND PUSH1 0x4 DUP4 ADD MSTORE DUP1 DUP9 AND PUSH1 0x24 DUP4 ADD MSTORE DUP7 AND PUSH1 0x44 DUP3 ADD MSTORE SWAP1 SWAP2 POP PUSH0 SWAP1 PUSH20 0x4F57C40D3DAA7BF2EC970DD157B1268982158720 SWAP1 PUSH4 0xF408646E SWAP1 PUSH1 0x64 ADD PUSH2 0x280 PUSH1 0x40 MLOAD DUP1 DUP4 SUB DUP2 DUP7 GAS STATICCALL ISZERO DUP1 ISZERO PUSH2 0x138C JUMPI RETURNDATASIZE PUSH0 DUP1 RETURNDATACOPY RETURNDATASIZE PUSH0 REVERT JUMPDEST POP POP POP POP PUSH1 0x40 MLOAD RETURNDATASIZE PUSH1 0x1F NOT PUSH1 0x1F DUP3 ADD AND DUP3 ADD DUP1 PUSH1 0x40 MSTORE POP DUP2 ADD SWAP1 PUSH2 0x13B0 SWAP2 SWAP1 PUSH2 0x1B6D JUMP JUMPDEST PUSH1 0xC0 DUP1 DUP5 ADD DUP1 MLOAD PUSH1 0x1 PUSH1 0x1 PUSH1 0xA0 SHL SUB SWAP1 DUP2 AND DUP8 MSTORE PUSH1 0xE0 DUP7 ADD MLOAD DUP2 AND PUSH1 0x20 DUP9 ADD MSTORE SWAP5 MLOAD SWAP2 DUP7 ADD SWAP2 SWAP1 SWAP2 MSTORE PUSH2 0x1E0 DUP3 ADD MLOAD PUSH1 0x40 DUP7 ADD MSTORE PUSH2 0x220 DUP3 ADD MLOAD PUSH1 0x60 DUP7 ADD MSTORE PUSH2 0x1C0 DUP3 ADD MLOAD PUSH1 0xA0 DUP7 ADD MSTORE PUSH2 0x200 SWAP1 SWAP2 ADD MLOAD PUSH1 0x80 DUP6 ADD MSTORE MLOAD SWAP1 SWAP2 AND DUP3 MSTORE POP SWAP4 SWAP3 POP POP POP JUMP JUMPDEST PUSH1 0x40 DUP1 MLOAD PUSH1 0x1 PUSH1 0x1 PUSH1 0xA0 SHL SUB DUP5 DUP2 AND PUSH1 0x24 DUP4 ADD MSTORE PUSH1 0x44 DUP1 DUP4 ADD DUP6 SWAP1 MSTORE DUP4 MLOAD DUP1 DUP5 SUB SWAP1 SWAP2 ADD DUP2 MSTORE PUSH1 0x64 SWAP1 SWAP3 ADD DUP4 MSTORE PUSH1 0x20 DUP3 ADD DUP1 MLOAD PUSH28 0xFFFFFFFFFFFFFFFFFFFFFFFFFFFFFFFFFFFFFFFFFFFFFFFFFFFFFFFF AND PUSH32 0xA9059CBB00000000000000000000000000000000000000000000000000000000 OR SWAP1 MSTORE SWAP2 MLOAD PUSH0 SWAP3 DUP4 SWAP3 SWAP1 DUP8 AND SWAP2 PUSH2 0x149D SWAP2 SWAP1 PUSH2 0x1938 JUMP JUMPDEST PUSH0 PUSH1 0x40 MLOAD DUP1 DUP4 SUB DUP2 PUSH0 DUP7 GAS CALL SWAP2 POP POP RETURNDATASIZE DUP1 PUSH0 DUP2 EQ PUSH2 0x14D6 JUMPI PUSH1 0x40 MLOAD SWAP2 POP PUSH1 0x1F NOT PUSH1 0x3F RETURNDATASIZE ADD AND DUP3 ADD PUSH1 0x40 MSTORE RETURNDATASIZE DUP3 MSTORE RETURNDATASIZE PUSH0 PUSH1 0x20 DUP5 ADD RETURNDATACOPY PUSH2 0x14DB JUMP JUMPDEST PUSH1 0x60 SWAP2 POP JUMPDEST POP SWAP2 POP SWAP2 POP DUP2 DUP1 ISZERO PUSH2 0x1505 JUMPI POP DUP1 MLOAD ISZERO DUP1 PUSH2 0x1505 JUMPI POP DUP1 DUP1 PUSH1 0x20 ADD SWAP1 MLOAD DUP2 ADD SWAP1 PUSH2 0x1505 SWAP2 SWAP1 PUSH2 0x1953 JUMP JUMPDEST PUSH2 0xFC7 JUMPI PUSH1 0x40 MLOAD PUSH3 0x461BCD PUSH1 0xE5 SHL DUP2 MSTORE PUSH1 0x20 PUSH1 0x4 DUP3 ADD MSTORE PUSH1 0x2 PUSH1 0x24 DUP3 ADD MSTORE PUSH32 0x5354000000000000000000000000000000000000000000000000000000000000 PUSH1 0x44 DUP3 ADD MSTORE PUSH1 0x64 ADD PUSH2 0x6D7 JUMP JUMPDEST PUSH1 0x1 PUSH1 0x1 PUSH1 0xA0 SHL SUB DUP2 AND DUP2 EQ PUSH2 0x1565 JUMPI PUSH0 DUP1 REVERT JUMPDEST POP JUMP JUMPDEST PUSH4 0x4E487B71 PUSH1 0xE0 SHL PUSH0 MSTORE PUSH1 0x41 PUSH1 0x4 MSTORE PUSH1 0x24 PUSH0 REVERT JUMPDEST PUSH1 0x40 MLOAD PUSH2 0x180 DUP2 ADD PUSH8 0xFFFFFFFFFFFFFFFF DUP2 GT DUP3 DUP3 LT OR ISZERO PUSH2 0x15A0 JUMPI PUSH2 0x15A0 PUSH2 0x1568 JUMP JUMPDEST PUSH1 0x40 MSTORE SWAP1 JUMP JUMPDEST PUSH1 0x40 MLOAD PUSH2 0x280 DUP2 ADD PUSH8 0xFFFFFFFFFFFFFFFF DUP2 GT DUP3 DUP3 LT OR ISZERO PUSH2 0x15A0 JUMPI PUSH2 0x15A0 PUSH2 0x1568 JUMP JUMPDEST PUSH1 0x40 MLOAD PUSH1 0x1F DUP3 ADD PUSH1 0x1F NOT AND DUP2 ADD PUSH8 0xFFFFFFFFFFFFFFFF DUP2 GT DUP3 DUP3 LT OR ISZERO PUSH2 0x15F3 JUMPI PUSH2 0x15F3 PUSH2 0x1568 JUMP JUMPDEST PUSH1 0x40 MSTORE SWAP2 SWAP1 POP JUMP JUMPDEST PUSH0 DUP3 PUSH1 0x1F DUP4 ADD SLT PUSH2 0x160A JUMPI PUSH0 DUP1 REVERT JUMPDEST DUP2 CALLDATALOAD PUSH1 0x20 PUSH8 0xFFFFFFFFFFFFFFFF DUP3 GT ISZERO PUSH2 0x1626 JUMPI PUSH2 0x1626 PUSH2 0x1568 JUMP JUMPDEST DUP2 PUSH1 0x5 SHL PUSH2 0x1635 DUP3 DUP3 ADD PUSH2 0x15CA JUMP JUMPDEST SWAP3 DUP4 MSTORE DUP5 DUP2 ADD DUP3 ADD SWAP3 DUP3 DUP2 ADD SWAP1 DUP8 DUP6 GT ISZERO PUSH2 0x164E JUMPI PUSH0 DUP1 REVERT JUMPDEST DUP4 DUP8 ADD SWAP3 POP JUMPDEST DUP5 DUP4 LT ISZERO PUSH2 0x167E JUMPI DUP3 CALLDATALOAD PUSH3 0xFFFFFF DUP2 AND DUP2 EQ PUSH2 0x166F JUMPI PUSH0 DUP1 DUP2 REVERT JUMPDEST DUP3 MSTORE SWAP2 DUP4 ADD SWAP2 SWAP1 DUP4 ADD SWAP1 PUSH2 0x1654 JUMP JUMPDEST SWAP8 SWAP7 POP POP POP POP POP POP POP JUMP JUMPDEST PUSH0 DUP1 PUSH0 DUP1 PUSH0 DUP1 PUSH0 PUSH1 0xE0 DUP9 DUP11 SUB SLT ISZERO PUSH2 0x169F JUMPI PUSH0 DUP1 REVERT JUMPDEST DUP8 CALLDATALOAD PUSH2 0x16AA DUP2 PUSH2 0x1551 JUMP JUMPDEST SWAP7 POP PUSH1 0x20 DUP9 ADD CALLDATALOAD PUSH2 0x16BA DUP2 PUSH2 0x1551 JUMP JUMPDEST SWAP6 POP PUSH1 0x40 DUP9 ADD CALLDATALOAD PUSH2 0x16CA DUP2 PUSH2 0x1551 JUMP JUMPDEST SWAP5 POP PUSH1 0x60 DUP9 ADD CALLDATALOAD SWAP4 POP PUSH1 0x80 DUP9 ADD CALLDATALOAD SWAP3 POP PUSH1 0xA0 DUP9 ADD CALLDATALOAD PUSH2 0x16E8 DUP2 PUSH2 0x1551 JUMP JUMPDEST SWAP2 POP PUSH1 0xC0 DUP9 ADD CALLDATALOAD PUSH8 0xFFFFFFFFFFFFFFFF DUP2 GT ISZERO PUSH2 0x1703 JUMPI PUSH0 DUP1 REVERT JUMPDEST PUSH2 0x170F DUP11 DUP3 DUP12 ADD PUSH2 0x15FB JUMP JUMPDEST SWAP2 POP POP SWAP3 SWAP6 SWAP9 SWAP2 SWAP5 SWAP8 POP SWAP3 SWAP6 POP JUMP JUMPDEST PUSH0 DUP1 PUSH0 DUP1 PUSH1 0x80 DUP6 DUP8 SUB SLT ISZERO PUSH2 0x1731 JUMPI PUSH0 DUP1 REVERT JUMPDEST DUP5 CALLDATALOAD PUSH2 0x173C DUP2 PUSH2 0x1551 JUMP JUMPDEST SWAP4 POP PUSH1 0x20 DUP6 ADD CALLDATALOAD PUSH2 0x174C DUP2 PUSH2 0x1551 JUMP JUMPDEST SWAP3 POP PUSH1 0x40 DUP6 ADD CALLDATALOAD SWAP2 POP PUSH1 0x60 DUP6 ADD CALLDATALOAD PUSH8 0xFFFFFFFFFFFFFFFF DUP2 GT ISZERO PUSH2 0x176E JUMPI PUSH0 DUP1 REVERT JUMPDEST PUSH2 0x177A DUP8 DUP3 DUP9 ADD PUSH2 0x15FB JUMP JUMPDEST SWAP2 POP POP SWAP3 SWAP6 SWAP2 SWAP5 POP SWAP3 POP JUMP JUMPDEST PUSH0 DUP1 PUSH0 DUP1 PUSH0 PUSH1 0xA0 DUP7 DUP9 SUB SLT ISZERO PUSH2 0x179A JUMPI PUSH0 DUP1 REVERT JUMPDEST DUP6 CALLDATALOAD PUSH2 0x17A5 DUP2 PUSH2 0x1551 JUMP JUMPDEST SWAP5 POP PUSH1 0x20 DUP7 ADD CALLDATALOAD PUSH2 0x17B5 DUP2 PUSH2 0x1551 JUMP JUMPDEST SWAP4 POP PUSH1 0x40 DUP7 ADD CALLDATALOAD SWAP3 POP PUSH1 0x60 DUP7 ADD CALLDATALOAD PUSH2 0x17CC DUP2 PUSH2 0x1551 JUMP JUMPDEST SWAP2 POP PUSH1 0x80 DUP7 ADD CALLDATALOAD PUSH8 0xFFFFFFFFFFFFFFFF DUP2 GT ISZERO PUSH2 0x17E7 JUMPI PUSH0 DUP1 REVERT JUMPDEST PUSH2 0x17F3 DUP9 DUP3 DUP10 ADD PUSH2 0x15FB JUMP JUMPDEST SWAP2 POP POP SWAP3 SWAP6 POP SWAP3 SWAP6 SWAP1 SWAP4 POP JUMP JUMPDEST PUSH0 DUP1 PUSH0 DUP1 PUSH0 DUP1 PUSH1 0xC0 DUP8 DUP10 SUB SLT ISZERO PUSH2 0x1815 JUMPI PUSH0 DUP1 REVERT JUMPDEST DUP7 CALLDATALOAD PUSH2 0x1820 DUP2 PUSH2 0x1551 JUMP JUMPDEST SWAP6 POP PUSH1 0x20 DUP8 ADD CALLDATALOAD PUSH2 0x1830 DUP2 PUSH2 0x1551 JUMP JUMPDEST SWAP5 POP PUSH1 0x40 DUP8 ADD CALLDATALOAD PUSH2 0x1840 DUP2 PUSH2 0x1551 JUMP JUMPDEST SWAP4 POP PUSH1 0x60 DUP8 ADD CALLDATALOAD PUSH2 0x1850 DUP2 PUSH2 0x1551 JUMP JUMPDEST SWAP3 POP PUSH1 0x80 DUP8 ADD CALLDATALOAD SWAP2 POP PUSH1 0xA0 DUP8 ADD CALLDATALOAD PUSH8 0xFFFFFFFFFFFFFFFF DUP2 GT ISZERO PUSH2 0x1872 JUMPI PUSH0 DUP1 REVERT JUMPDEST PUSH2 0x187E DUP10 DUP3 DUP11 ADD PUSH2 0x15FB JUMP JUMPDEST SWAP2 POP POP SWAP3 SWAP6 POP SWAP3 SWAP6 POP SWAP3 SWAP6 JUMP JUMPDEST DUP1 MLOAD PUSH2 0x1896 DUP2 PUSH2 0x1551 JUMP JUMPDEST SWAP2 SWAP1 POP JUMP JUMPDEST PUSH0 PUSH1 0x20 DUP3 DUP5 SUB SLT ISZERO PUSH2 0x18AB JUMPI PUSH0 DUP1 REVERT JUMPDEST DUP2 MLOAD PUSH2 0x18B6 DUP2 PUSH2 0x1551 JUMP JUMPDEST SWAP4 SWAP3 POP POP POP JUMP JUMPDEST PUSH0 PUSH32 0x8000000000000000000000000000000000000000000000000000000000000000 DUP3 SUB PUSH2 0x18F9 JUMPI PUSH4 0x4E487B71 PUSH1 0xE0 SHL PUSH0 MSTORE PUSH1 0x11 PUSH1 0x4 MSTORE PUSH1 0x24 PUSH0 REVERT JUMPDEST POP PUSH0 SUB SWAP1 JUMP JUMPDEST PUSH0 PUSH1 0x20 DUP3 DUP5 SUB SLT ISZERO PUSH2 0x190F JUMPI PUSH0 DUP1 REVERT JUMPDEST POP MLOAD SWAP2 SWAP1 POP JUMP JUMPDEST PUSH0 JUMPDEST DUP4 DUP2 LT ISZERO PUSH2 0x1930 JUMPI DUP2 DUP2 ADD MLOAD DUP4 DUP3 ADD MSTORE PUSH1 0x20 ADD PUSH2 0x1918 JUMP JUMPDEST POP POP PUSH0 SWAP2 ADD MSTORE JUMP JUMPDEST PUSH0 DUP3 MLOAD PUSH2 0x1949 DUP2 DUP5 PUSH1 0x20 DUP8 ADD PUSH2 0x1916 JUMP JUMPDEST SWAP2 SWAP1 SWAP2 ADD SWAP3 SWAP2 POP POP JUMP JUMPDEST PUSH0 PUSH1 0x20 DUP3 DUP5 SUB SLT ISZERO PUSH2 0x1963 JUMPI PUSH0 DUP1 REVERT JUMPDEST DUP2 MLOAD DUP1 ISZERO ISZERO DUP2 EQ PUSH2 0x18B6 JUMPI PUSH0 DUP1 REVERT JUMPDEST PUSH4 0x4E487B71 PUSH1 0xE0 SHL PUSH0 MSTORE PUSH1 0x32 PUSH1 0x4 MSTORE PUSH1 0x24 PUSH0 REVERT JUMPDEST PUSH1 0x20 DUP2 MSTORE PUSH0 DUP3 MLOAD PUSH1 0xA0 PUSH1 0x20 DUP5 ADD MSTORE DUP1 MLOAD DUP1 PUSH1 0xC0 DUP6 ADD MSTORE PUSH2 0x19AD DUP2 PUSH1 0xE0 DUP7 ADD PUSH1 0x20 DUP6 ADD PUSH2 0x1916 JUMP JUMPDEST PUSH1 0x1 PUSH1 0x1 PUSH1 0xA0 SHL SUB PUSH1 0x20 DUP7 ADD MLOAD AND PUSH1 0x40 DUP6 ADD MSTORE PUSH1 0x40 DUP6 ADD MLOAD PUSH1 0x60 DUP6 ADD MSTORE PUSH1 0x60 DUP6 ADD MLOAD PUSH1 0x80 DUP6 ADD MSTORE PUSH1 0x80 DUP6 ADD MLOAD PUSH1 0xA0 DUP6 ADD MSTORE PUSH1 0xE0 PUSH1 0x1F NOT PUSH1 0x1F DUP4 ADD AND DUP6 ADD ADD SWAP3 POP POP POP SWAP3 SWAP2 POP POP JUMP JUMPDEST PUSH0 DUP3 PUSH1 0x1F DUP4 ADD SLT PUSH2 0x1A04 JUMPI PUSH0 DUP1 REVERT JUMPDEST DUP2 MLOAD PUSH8 0xFFFFFFFFFFFFFFFF DUP2 GT ISZERO PUSH2 0x1A1E JUMPI PUSH2 0x1A1E PUSH2 0x1568 JUMP JUMPDEST PUSH2 0x1A31 PUSH1 0x1F DUP3 ADD PUSH1 0x1F NOT AND PUSH1 0x20 ADD PUSH2 0x15CA JUMP JUMPDEST DUP2 DUP2 MSTORE DUP5 PUSH1 0x20 DUP4 DUP7 ADD ADD GT ISZERO PUSH2 0x1A45 JUMPI PUSH0 DUP1 REVERT JUMPDEST PUSH2 0x1A56 DUP3 PUSH1 0x20 DUP4 ADD PUSH1 0x20 DUP8 ADD PUSH2 0x1916 JUMP JUMPDEST SWAP5 SWAP4 POP POP POP POP JUMP JUMPDEST PUSH0 PUSH1 0x20 DUP3 DUP5 SUB SLT ISZERO PUSH2 0x1A6E JUMPI PUSH0 DUP1 REVERT JUMPDEST DUP2 MLOAD PUSH8 0xFFFFFFFFFFFFFFFF DUP1 DUP3 GT ISZERO PUSH2 0x1A85 JUMPI PUSH0 DUP1 REVERT JUMPDEST SWAP1 DUP4 ADD SWAP1 PUSH2 0x180 DUP3 DUP7 SUB SLT ISZERO PUSH2 0x1A99 JUMPI PUSH0 DUP1 REVERT JUMPDEST PUSH2 0x1AA1 PUSH2 0x157C JUMP JUMPDEST DUP3 MLOAD DUP2 MSTORE PUSH1 0x20 DUP4 ADD MLOAD PUSH1 0x20 DUP3 ADD MSTORE PUSH1 0x40 DUP4 ADD MLOAD PUSH1 0x40 DUP3 ADD MSTORE PUSH1 0x60 DUP4 ADD MLOAD PUSH1 0x60 DUP3 ADD MSTORE PUSH1 0x80 DUP4 ADD MLOAD PUSH1 0x80 DUP3 ADD MSTORE PUSH2 0x1AD9 PUSH1 0xA0 DUP5 ADD PUSH2 0x188B JUMP JUMPDEST PUSH1 0xA0 DUP3 ADD MSTORE PUSH2 0x1AEA PUSH1 0xC0 DUP5 ADD PUSH2 0x188B JUMP JUMPDEST PUSH1 0xC0 DUP3 ADD MSTORE PUSH2 0x1AFB PUSH1 0xE0 DUP5 ADD PUSH2 0x188B JUMP JUMPDEST PUSH1 0xE0 DUP3 ADD MSTORE PUSH2 0x100 DUP1 DUP5 ADD MLOAD DUP4 DUP2 GT ISZERO PUSH2 0x1B13 JUMPI PUSH0 DUP1 REVERT JUMPDEST PUSH2 0x1B1F DUP9 DUP3 DUP8 ADD PUSH2 0x19F5 JUMP JUMPDEST DUP3 DUP5 ADD MSTORE POP POP PUSH2 0x120 DUP1 DUP5 ADD MLOAD DUP4 DUP2 GT ISZERO PUSH2 0x1B38 JUMPI PUSH0 DUP1 REVERT JUMPDEST PUSH2 0x1B44 DUP9 DUP3 DUP8 ADD PUSH2 0x19F5 JUMP JUMPDEST SWAP2 DUP4 ADD SWAP2 SWAP1 SWAP2 MSTORE POP PUSH2 0x140 DUP4 DUP2 ADD MLOAD SWAP1 DUP3 ADD MSTORE PUSH2 0x160 SWAP3 DUP4 ADD MLOAD SWAP3 DUP2 ADD SWAP3 SWAP1 SWAP3 MSTORE POP SWAP4 SWAP3 POP POP POP JUMP JUMPDEST PUSH0 PUSH2 0x280 DUP3 DUP5 SUB SLT ISZERO PUSH2 0x1B7E JUMPI PUSH0 DUP1 REVERT JUMPDEST PUSH2 0x1B86 PUSH2 0x15A6 JUMP JUMPDEST DUP3 MLOAD DUP2 MSTORE PUSH1 0x20 DUP1 DUP5 ADD MLOAD SWAP1 DUP3 ADD MSTORE PUSH1 0x40 DUP1 DUP5 ADD MLOAD SWAP1 DUP3 ADD MSTORE PUSH1 0x60 DUP1 DUP5 ADD MLOAD SWAP1 DUP3 ADD MSTORE PUSH1 0x80 DUP1 DUP5 ADD MLOAD SWAP1 DUP3 ADD MSTORE PUSH1 0xA0 DUP1 DUP5 ADD MLOAD SWAP1 DUP3 ADD MSTORE PUSH1 0xC0 DUP1 DUP5 ADD MLOAD SWAP1 DUP3 ADD MSTORE PUSH1 0xE0 DUP1 DUP5 ADD MLOAD SWAP1 DUP3 ADD MSTORE PUSH2 0x100 DUP1 DUP5 ADD MLOAD SWAP1 DUP3 ADD MSTORE PUSH2 0x120 DUP1 DUP5 ADD MLOAD SWAP1 DUP3 ADD MSTORE PUSH2 0x140 DUP1 DUP5 ADD MLOAD SWAP1 DUP3 ADD MSTORE PUSH2 0x160 DUP1 DUP5 ADD MLOAD SWAP1 DUP3 ADD MSTORE PUSH2 0x180 DUP1 DUP5 ADD MLOAD SWAP1 DUP3 ADD MSTORE PUSH2 0x1A0 DUP1 DUP5 ADD MLOAD SWAP1 DUP3 ADD MSTORE PUSH2 0x1C0 DUP1 DUP5 ADD MLOAD SWAP1 DUP3 ADD MSTORE PUSH2 0x1E0 DUP1 DUP5 ADD MLOAD SWAP1 DUP3 ADD MSTORE PUSH2 0x200 DUP1 DUP5 ADD MLOAD SWAP1 DUP3 ADD MSTORE PUSH2 0x220 DUP1 DUP5 ADD MLOAD SWAP1 DUP3 ADD MSTORE PUSH2 0x240 DUP1 DUP5 ADD MLOAD SWAP1 DUP3 ADD MSTORE PUSH2 0x260 SWAP3 DUP4 ADD MLOAD SWAP3 DUP2 ADD SWAP3 SWAP1 SWAP3 MSTORE POP SWAP2 SWAP1 POP JUMP INVALID LOG2 PUSH5 0x6970667358 0x22 SLT KECCAK256 0xAE 0xE7 SELFDESTRUCT BALANCE DUP14 0xE9 DUP16 0xAE BLOCKHASH 0xBF 0xC3 MOD GT 0xD7 0x29 0xDE SWAP6 SWAP6 DIV SWAP11 PUSH0 0xC5 LT SWAP9 ADDMOD STATICCALL 0xC3 GT 0x2A PUSH7 0x756864736F6C63 NUMBER STOP ADDMOD EQ STOP CALLER "
		},
		"gasEstimates": {
			"creation": {
				"codeDepositCost": "1463000",
				"executionCost": "infinite",
				"totalCost": "infinite"
			},
			"external": {
				"cometAddress()": "226",
				"compBorrow(address,address,address,uint256,uint256,address,uint24[])": "infinite",
				"compRedeem(address,address,uint256,address,uint24[])": "infinite",
				"compRepay(address,address,uint256,uint24[])": "infinite",
				"controller()": "infinite",
				"helper()": "249",
				"swapRouter()": "225",
				"uniBorrow(address,address,address,uint256,int256,address,uint24[])": "infinite",
				"uniRedeem(address,address,int256,address,uint24[])": "infinite",
				"uniRepay(address,address,address,address,uint256,uint24[])": "infinite",
				"unilendCore()": "248",
				"unilendPosition()": "247"
			},
			"internal": {
				"exactInputSwap(address,address,address,uint256,uint24[] memory)": "infinite",
				"getPoolData(address,address,address)": "infinite"
			}
		},
		"methodIdentifiers": {
			"cometAddress()": "6bbb194b",
			"compBorrow(address,address,address,uint256,uint256,address,uint24[])": "a36cc4cd",
			"compRedeem(address,address,uint256,address,uint24[])": "baecbfcd",
			"compRepay(address,address,uint256,uint24[])": "6b5e7305",
			"controller()": "f77c4791",
			"helper()": "63b0e66a",
			"swapRouter()": "c31c9c07",
			"uniBorrow(address,address,address,uint256,int256,address,uint24[])": "315a1451",
			"uniRedeem(address,address,int256,address,uint24[])": "73e8f1fa",
			"uniRepay(address,address,address,address,uint256,uint24[])": "b5c8b759",
			"unilendCore()": "b93bc415",
			"unilendPosition()": "e1ab2228"
		}
	},
	"abi": [
		{
			"inputs": [],
			"stateMutability": "nonpayable",
			"type": "constructor"
		},
		{
			"anonymous": false,
			"inputs": [
				{
					"indexed": true,
					"internalType": "address",
					"name": "tokenAddress",
					"type": "address"
				},
				{
					"indexed": true,
					"internalType": "address",
					"name": "user",
					"type": "address"
				},
				{
					"indexed": false,
					"internalType": "int256",
					"name": "amount",
					"type": "int256"
				},
				{
					"indexed": false,
					"internalType": "uint256",
					"name": "time",
					"type": "uint256"
				}
			],
			"name": "Borrowed",
			"type": "event"
		},
		{
			"anonymous": false,
			"inputs": [
				{
					"indexed": true,
					"internalType": "uint256",
					"name": "value1",
					"type": "uint256"
				},
				{
					"indexed": true,
					"internalType": "uint256",
					"name": "value2",
					"type": "uint256"
				},
				{
					"indexed": true,
					"internalType": "uint256",
					"name": "value3",
					"type": "uint256"
				}
			],
			"name": "Log",
			"type": "event"
		},
		{
			"inputs": [],
			"name": "cometAddress",
			"outputs": [
				{
					"internalType": "contract IComet",
					"name": "",
					"type": "address"
				}
			],
			"stateMutability": "view",
			"type": "function"
		},
		{
			"inputs": [
				{
					"internalType": "address",
					"name": "_supplyAsset",
					"type": "address"
				},
				{
					"internalType": "address",
					"name": "_borrowAsset",
					"type": "address"
				},
				{
					"internalType": "address",
					"name": "_tokenOut",
					"type": "address"
				},
				{
					"internalType": "uint256",
					"name": "_supplyAmount",
					"type": "uint256"
				},
				{
					"internalType": "uint256",
					"name": "_borrowAmount",
					"type": "uint256"
				},
				{
					"internalType": "address",
					"name": "_user",
					"type": "address"
				},
				{
					"internalType": "uint24[]",
					"name": "_route",
					"type": "uint24[]"
				}
			],
			"name": "compBorrow",
			"outputs": [],
			"stateMutability": "nonpayable",
			"type": "function"
		},
		{
			"inputs": [
				{
					"internalType": "address",
					"name": "_user",
					"type": "address"
				},
				{
					"internalType": "address",
					"name": "_collateralToken",
					"type": "address"
				},
				{
					"internalType": "uint256",
					"name": "_collateralAmount",
					"type": "uint256"
				},
				{
					"internalType": "address",
					"name": "_tokenOut",
					"type": "address"
				},
				{
					"internalType": "uint24[]",
					"name": "_route",
					"type": "uint24[]"
				}
			],
			"name": "compRedeem",
			"outputs": [],
			"stateMutability": "nonpayable",
			"type": "function"
		},
		{
			"inputs": [
				{
					"internalType": "address",
					"name": "_borrowedToken",
					"type": "address"
				},
				{
					"internalType": "address",
					"name": "_tokenIn",
					"type": "address"
				},
				{
					"internalType": "uint256",
					"name": "_repayAmount",
					"type": "uint256"
				},
				{
					"internalType": "uint24[]",
					"name": "_route",
					"type": "uint24[]"
				}
			],
			"name": "compRepay",
			"outputs": [],
			"stateMutability": "nonpayable",
			"type": "function"
		},
		{
			"inputs": [],
			"name": "controller",
			"outputs": [
				{
					"internalType": "address",
					"name": "",
					"type": "address"
				}
			],
			"stateMutability": "view",
			"type": "function"
		},
		{
			"inputs": [],
			"name": "helper",
			"outputs": [
				{
					"internalType": "contract IUnilendHelper",
					"name": "",
					"type": "address"
				}
			],
			"stateMutability": "view",
			"type": "function"
		},
		{
			"inputs": [],
			"name": "swapRouter",
			"outputs": [
				{
					"internalType": "contract ISwapRouter",
					"name": "",
					"type": "address"
				}
			],
			"stateMutability": "view",
			"type": "function"
		},
		{
			"inputs": [
				{
					"internalType": "address",
					"name": "_pool",
					"type": "address"
				},
				{
					"internalType": "address",
					"name": "_supplyAsset",
					"type": "address"
				},
				{
					"internalType": "address",
					"name": "_tokenOut",
					"type": "address"
				},
				{
					"internalType": "uint256",
					"name": "_collateral_amount",
					"type": "uint256"
				},
				{
					"internalType": "int256",
					"name": "_amount",
					"type": "int256"
				},
				{
					"internalType": "address",
					"name": "_user",
					"type": "address"
				},
				{
					"internalType": "uint24[]",
					"name": "_route",
					"type": "uint24[]"
				}
			],
			"name": "uniBorrow",
			"outputs": [],
			"stateMutability": "nonpayable",
			"type": "function"
		},
		{
			"inputs": [
				{
					"internalType": "address",
					"name": "_pool",
					"type": "address"
				},
				{
					"internalType": "address",
					"name": "_user",
					"type": "address"
				},
				{
					"internalType": "int256",
					"name": "_amount",
					"type": "int256"
				},
				{
					"internalType": "address",
					"name": "_tokenOut",
					"type": "address"
				},
				{
					"internalType": "uint24[]",
					"name": "_route",
					"type": "uint24[]"
				}
			],
			"name": "uniRedeem",
			"outputs": [],
			"stateMutability": "nonpayable",
			"type": "function"
		},
		{
			"inputs": [
				{
					"internalType": "address",
					"name": "_pool",
					"type": "address"
				},
				{
					"internalType": "address",
					"name": "_tokenIn",
					"type": "address"
				},
				{
					"internalType": "address",
					"name": "_user",
					"type": "address"
				},
				{
					"internalType": "address",
					"name": "_borrowAddress",
					"type": "address"
				},
				{
					"internalType": "uint256",
					"name": "_repayAmount",
					"type": "uint256"
				},
				{
					"internalType": "uint24[]",
					"name": "_route",
					"type": "uint24[]"
				}
			],
			"name": "uniRepay",
			"outputs": [],
			"stateMutability": "nonpayable",
			"type": "function"
		},
		{
			"inputs": [],
			"name": "unilendCore",
			"outputs": [
				{
					"internalType": "contract IUnilendV2Core",
					"name": "",
					"type": "address"
				}
			],
			"stateMutability": "view",
			"type": "function"
		},
		{
			"inputs": [],
			"name": "unilendPosition",
			"outputs": [
				{
					"internalType": "contract IUnilendV2Position",
					"name": "",
					"type": "address"
				}
			],
			"stateMutability": "view",
			"type": "function"
		}
	]
}