{
	"data": {
		"bytecode": {
			"linkReferences": {},
			"object": "60a060405234801561000f575f80fd5b5033608052608051611ae661002c5f395f6101d10152611ae65ff3fe608060405234801561000f575f80fd5b50600436106100c4575f3560e01c8063b5c8b7591161007d578063e1ab222811610058578063e1ab22281461019e578063e2bdb2c6146101b9578063f77c4791146101cc575f80fd5b8063b5c8b75914610155578063b93bc41514610168578063c31c9c0714610183575f80fd5b8063687a1204116100ad578063687a1204146101145780636bbb194b14610127578063a36cc4cd14610142575f80fd5b8063315a1451146100c857806363b0e66a146100dd575b5f80fd5b6100db6100d63660046114ca565b6101f3565b005b6100f8734f57c40d3daa7bf2ec970dd157b126898215872081565b6040516001600160a01b03909116815260200160405180910390f35b6100db61012236600461155f565b610417565b6100f873f25212e676d1f7f89cd72ffee66158f54124644581565b6100db6101503660046114ca565b6107a3565b6100db6101633660046115d9565b6108dc565b6100f87317dad892347803551ceee2d377d010034df6434781565b6100f873e592427a0aece92de3edee1f18e0157c0586156481565b6100f87377b6569f0dbc4f265a575a84540c2a0cae116a9081565b6100db6101c7366004611664565b610b0f565b6100f87f000000000000000000000000000000000000000000000000000000000000000081565b5f876001600160a01b0316630dfe16816040518163ffffffff1660e01b8152600401602060405180830381865afa158015610230573d5f803e3d5ffd5b505050506040513d601f19601f8201168201806040525081019061025491906116ee565b90505f886001600160a01b031663d21220a76040518163ffffffff1660e01b8152600401602060405180830381865afa158015610293573d5f803e3d5ffd5b505050506040513d601f19601f820116820180604052508101906102b791906116ee565b90505f808612156102c95750816102cc565b50805b6102eb897317dad892347803551ceee2d377d010034df6434789610ccb565b6040517f8dee94600000000000000000000000000000000000000000000000000000000081526001600160a01b038b16600482015260248101879052604481018890523060648201527317dad892347803551ceee2d377d010034df6434790638dee9460906084015f604051808303815f87803b15801561036a575f80fd5b505af115801561037c573d5f803e3d5ffd5b505050505f8612156103945761039186611710565b95505b6040516370a0823160e01b815230600482015261040a9082908a9088906001600160a01b038416906370a0823190602401602060405180830381865afa1580156103e0573d5f803e3d5ffd5b505050506040513d601f19601f820116820180604052508101906104049190611752565b88610e0f565b5050505050505050505050565b5f61043786307377b6569f0dbc4f265a575a84540c2a0cae116a90611066565b604081810151606083015191517f4b7cab4a0000000000000000000000000000000000000000000000000000000081526001600160a01b038a166004820152306024820152929350915f907377b6569f0dbc4f265a575a84540c2a0cae116a9090634b7cab4a906044016020604051808303815f875af11580156104bd573d5f803e3d5ffd5b505050506040513d601f19601f820116820180604052508101906104e19190611752565b9050805f036105375760405162461bcd60e51b815260206004820152601160248201527f4e6f20506f736974696f6e20466f756e6400000000000000000000000000000060448201526064015b60405180910390fd5b5f808812156106255750835182156105d857604051630e96466d60e41b81526001600160a01b038b166004820152602481018990523060448201527317dad892347803551ceee2d377d010034df643479063e96466d0906064015b6020604051808303815f875af11580156105ae573d5f803e3d5ffd5b505050506040513d601f19601f820116820180604052508101906105d29190611752565b50610708565b604051635833cdf960e01b81526001600160a01b038b166004820152602481018990523060448201527317dad892347803551ceee2d377d010034df6434790635833cdf990606401610592565b506020840151831561067e57604051630e96466d60e41b81526001600160a01b038b166004820152602481018990523060448201527317dad892347803551ceee2d377d010034df643479063e96466d090606401610592565b604051635833cdf960e01b81526001600160a01b038b166004820152602481018990523060448201527317dad892347803551ceee2d377d010034df6434790635833cdf9906064016020604051808303815f875af11580156106e2573d5f803e3d5ffd5b505050506040513d601f19601f820116820180604052508101906107069190611752565b505b866001600160a01b0316816001600160a01b031614610797576040516370a0823160e01b815230600482015261040a90829089908c906001600160a01b038416906370a0823190602401602060405180830381865afa15801561076d573d5f803e3d5ffd5b505050506040513d601f19601f820116820180604052508101906107919190611752565b8a610e0f565b50505050505050505050565b6107c28773f25212e676d1f7f89cd72ffee66158f54124644586610ccb565b6040517f4232cd630000000000000000000000000000000000000000000000000000000081523060048201526001600160a01b03881660248201526044810185905273f25212e676d1f7f89cd72ffee66158f54124644590634232cd63906064015f604051808303815f87803b15801561083a575f80fd5b505af115801561084c573d5f803e3d5ffd5b50506040516361d9ad3f60e11b81523060048201526001600160a01b03891660248201526044810186905273f25212e676d1f7f89cd72ffee66158f541246445925063c3b35a7e91506064015f604051808303815f87803b1580156108af575f80fd5b505af11580156108c1573d5f803e3d5ffd5b505050506108d28686848685610e0f565b5050505050505050565b5f805f6108fe89307377b6569f0dbc4f265a575a84540c2a0cae116a90611066565b9050876001600160a01b0316866001600160a01b03161461092d576109268887308888610e0f565b9150610931565b8491505b610951867317dad892347803551ceee2d377d010034df643475f19610ccb565b805f01516001600160a01b0316866001600160a01b03160361097d5761097682611710565b9250610981565b8192505b6040517f826265470000000000000000000000000000000000000000000000000000000081526001600160a01b038a166004820152602481018490523060448201527317dad892347803551ceee2d377d010034df64347906382626547906064016020604051808303815f875af11580156109fe573d5f803e3d5ffd5b505050506040513d601f19601f82011682018060405250810190610a229190611752565b506040516370a0823160e01b81523060048201525f906001600160a01b038816906370a0823190602401602060405180830381865afa158015610a67573d5f803e3d5ffd5b505050506040513d601f19601f82011682018060405250810190610a8b9190611752565b1115610b04576040516370a0823160e01b8152306004820152610b0490879089906001600160a01b038316906370a0823190602401602060405180830381865afa158015610adb573d5f803e3d5ffd5b505050506040513d601f19601f82011682018060405250810190610aff9190611752565b611255565b505050505050505050565b856001600160a01b0316876001600160a01b031614610b3757610b358688308585610e0f565b505b610b578773f25212e676d1f7f89cd72ffee66158f5412464455f19610ccb565b6040516370a0823160e01b8152306004820181905273f25212e676d1f7f89cd72ffee66158f54124644591634232cd6391908a906001600160a01b038216906370a0823190602401602060405180830381865afa158015610bba573d5f803e3d5ffd5b505050506040513d601f19601f82011682018060405250810190610bde9190611752565b6040517fffffffff0000000000000000000000000000000000000000000000000000000060e086901b1681526001600160a01b03938416600482015292909116602483015260448201526064015f604051808303815f87803b158015610c42575f80fd5b505af1158015610c54573d5f803e3d5ffd5b50506040516361d9ad3f60e11b81526001600160a01b038089166004830152871660248201526044810186905273f25212e676d1f7f89cd72ffee66158f541246445925063c3b35a7e91506064015f604051808303815f87803b158015610cb9575f80fd5b505af115801561040a573d5f803e3d5ffd5b604080516001600160a01b038481166024830152604480830185905283518084039091018152606490920183526020820180517bffffffffffffffffffffffffffffffffffffffffffffffffffffffff167f095ea7b30000000000000000000000000000000000000000000000000000000017905291515f92839290871691610d54919061178b565b5f604051808303815f865af19150503d805f8114610d8d576040519150601f19603f3d011682016040523d82523d5f602084013e610d92565b606091505b5091509150818015610dbc575080511580610dbc575080806020019051810190610dbc91906117a6565b610e085760405162461bcd60e51b815260206004820152600260248201527f5341000000000000000000000000000000000000000000000000000000000000604482015260640161052e565b5050505050565b5f610e2f8673e592427a0aece92de3edee1f18e0157c0586156485610ccb565b6060600183511115610f0f5786835f81518110610e4e57610e4e6117c5565b6020026020010151730d500b1d8e8ef31e21c99d1db9a6444d3adf127085600181518110610e7e57610e7e6117c5565b6020908102919091018101516040516bffffffffffffffffffffffff19606096871b8116938201939093527fffffff000000000000000000000000000000000000000000000000000000000060e895861b8116603483015293861b83166037820152931b909116604b8301529188901b909116604e8201526062016040516020818303038152906040529050610f9d565b86835f81518110610f2257610f226117c5565b602002602001015187604051602001610f8b93929190606093841b6bffffffffffffffffffffffff19908116825260e89390931b7fffffff0000000000000000000000000000000000000000000000000000000000166014820152921b166017820152602b0190565b60405160208183030381529060405290505b6040805160a0810182528281526001600160a01b03871660208201524281830152606081018690525f608082015290517fc04b8d5900000000000000000000000000000000000000000000000000000000815273e592427a0aece92de3edee1f18e0157c058615649063c04b8d599061101a9084906004016117d9565b6020604051808303815f875af1158015611036573d5f803e3d5ffd5b505050506040513d601f19601f8201168201806040525081019061105a9190611752565b98975050505050505050565b6110b16040518060e001604052805f6001600160a01b031681526020015f6001600160a01b031681526020015f81526020015f81526020015f81526020015f81526020015f81525090565b6040517f13d21cdf0000000000000000000000000000000000000000000000000000000081526001600160a01b03851660048201525f90734f57c40d3daa7bf2ec970dd157b1268982158720906313d21cdf906024015f60405180830381865afa158015611121573d5f803e3d5ffd5b505050506040513d5f823e601f3d908101601f1916820160405261114891908101906118b1565b6040517ff408646e0000000000000000000000000000000000000000000000000000000081526001600160a01b0380861660048301528088166024830152861660448201529091505f90734f57c40d3daa7bf2ec970dd157b12689821587209063f408646e9060640161028060405180830381865afa1580156111cd573d5f803e3d5ffd5b505050506040513d601f19601f820116820180604052508101906111f191906119c0565b60c080840180516001600160a01b03908116875260e0860151811660208801529451918601919091526101e0820151604086015261022082015160608601526101c082015160a0860152610200909101516080850152519091168252509392505050565b604080516001600160a01b038481166024830152604480830185905283518084039091018152606490920183526020820180517bffffffffffffffffffffffffffffffffffffffffffffffffffffffff167fa9059cbb0000000000000000000000000000000000000000000000000000000017905291515f928392908716916112de919061178b565b5f604051808303815f865af19150503d805f8114611317576040519150601f19603f3d011682016040523d82523d5f602084013e61131c565b606091505b509150915081801561134657508051158061134657508080602001905181019061134691906117a6565b610e085760405162461bcd60e51b815260206004820152600260248201527f5354000000000000000000000000000000000000000000000000000000000000604482015260640161052e565b6001600160a01b03811681146113a6575f80fd5b50565b634e487b7160e01b5f52604160045260245ffd5b604051610180810167ffffffffffffffff811182821017156113e1576113e16113a9565b60405290565b604051610280810167ffffffffffffffff811182821017156113e1576113e16113a9565b604051601f8201601f1916810167ffffffffffffffff81118282101715611434576114346113a9565b604052919050565b5f82601f83011261144b575f80fd5b8135602067ffffffffffffffff821115611467576114676113a9565b8160051b61147682820161140b565b928352848101820192828101908785111561148f575f80fd5b83870192505b848310156114bf57823562ffffff811681146114b0575f8081fd5b82529183019190830190611495565b979650505050505050565b5f805f805f805f60e0888a0312156114e0575f80fd5b87356114eb81611392565b965060208801356114fb81611392565b9550604088013561150b81611392565b9450606088013593506080880135925060a088013561152981611392565b915060c088013567ffffffffffffffff811115611544575f80fd5b6115508a828b0161143c565b91505092959891949750929550565b5f805f805f60a08688031215611573575f80fd5b853561157e81611392565b9450602086013561158e81611392565b93506040860135925060608601356115a581611392565b9150608086013567ffffffffffffffff8111156115c0575f80fd5b6115cc8882890161143c565b9150509295509295909350565b5f805f805f8060c087890312156115ee575f80fd5b86356115f981611392565b9550602087013561160981611392565b9450604087013561161981611392565b9350606087013561162981611392565b92506080870135915060a087013567ffffffffffffffff81111561164b575f80fd5b61165789828a0161143c565b9150509295509295509295565b5f805f805f805f60e0888a03121561167a575f80fd5b873561168581611392565b9650602088013561169581611392565b955060408801356116a581611392565b945060608801356116b581611392565b93506080880135925060a0880135915060c088013567ffffffffffffffff811115611544575f80fd5b80516116e981611392565b919050565b5f602082840312156116fe575f80fd5b815161170981611392565b9392505050565b5f7f8000000000000000000000000000000000000000000000000000000000000000820361174c57634e487b7160e01b5f52601160045260245ffd5b505f0390565b5f60208284031215611762575f80fd5b5051919050565b5f5b8381101561178357818101518382015260200161176b565b50505f910152565b5f825161179c818460208701611769565b9190910192915050565b5f602082840312156117b6575f80fd5b81518015158114611709575f80fd5b634e487b7160e01b5f52603260045260245ffd5b602081525f825160a0602084015280518060c08501526118008160e0860160208501611769565b6001600160a01b0360208601511660408501526040850151606085015260608501516080850152608085015160a085015260e0601f19601f8301168501019250505092915050565b5f82601f830112611857575f80fd5b815167ffffffffffffffff811115611871576118716113a9565b611884601f8201601f191660200161140b565b818152846020838601011115611898575f80fd5b6118a9826020830160208701611769565b949350505050565b5f602082840312156118c1575f80fd5b815167ffffffffffffffff808211156118d8575f80fd5b9083019061018082860312156118ec575f80fd5b6118f46113bd565b825181526020830151602082015260408301516040820152606083015160608201526080830151608082015261192c60a084016116de565b60a082015261193d60c084016116de565b60c082015261194e60e084016116de565b60e08201526101008084015183811115611966575f80fd5b61197288828701611848565b828401525050610120808401518381111561198b575f80fd5b61199788828701611848565b918301919091525061014083810151908201526101609283015192810192909252509392505050565b5f61028082840312156119d1575f80fd5b6119d96113e7565b825181526020808401519082015260408084015190820152606080840151908201526080808401519082015260a0808401519082015260c0808401519082015260e08084015190820152610100808401519082015261012080840151908201526101408084015190820152610160808401519082015261018080840151908201526101a080840151908201526101c080840151908201526101e0808401519082015261020080840151908201526102208084015190820152610240808401519082015261026092830151928101929092525091905056fea26469706673582212206d59090d022d014678f8f928fd0837c38465f1a7bacd44766c8266308fd9816f64736f6c63430008140033",
			"opcodes": "PUSH1 0xA0 PUSH1 0x40 MSTORE CALLVALUE DUP1 ISZERO PUSH2 0xF JUMPI PUSH0 DUP1 REVERT JUMPDEST POP CALLER PUSH1 0x80 MSTORE PUSH1 0x80 MLOAD PUSH2 0x1AE6 PUSH2 0x2C PUSH0 CODECOPY PUSH0 PUSH2 0x1D1 ADD MSTORE PUSH2 0x1AE6 PUSH0 RETURN INVALID PUSH1 0x80 PUSH1 0x40 MSTORE CALLVALUE DUP1 ISZERO PUSH2 0xF JUMPI PUSH0 DUP1 REVERT JUMPDEST POP PUSH1 0x4 CALLDATASIZE LT PUSH2 0xC4 JUMPI PUSH0 CALLDATALOAD PUSH1 0xE0 SHR DUP1 PUSH4 0xB5C8B759 GT PUSH2 0x7D JUMPI DUP1 PUSH4 0xE1AB2228 GT PUSH2 0x58 JUMPI DUP1 PUSH4 0xE1AB2228 EQ PUSH2 0x19E JUMPI DUP1 PUSH4 0xE2BDB2C6 EQ PUSH2 0x1B9 JUMPI DUP1 PUSH4 0xF77C4791 EQ PUSH2 0x1CC JUMPI PUSH0 DUP1 REVERT JUMPDEST DUP1 PUSH4 0xB5C8B759 EQ PUSH2 0x155 JUMPI DUP1 PUSH4 0xB93BC415 EQ PUSH2 0x168 JUMPI DUP1 PUSH4 0xC31C9C07 EQ PUSH2 0x183 JUMPI PUSH0 DUP1 REVERT JUMPDEST DUP1 PUSH4 0x687A1204 GT PUSH2 0xAD JUMPI DUP1 PUSH4 0x687A1204 EQ PUSH2 0x114 JUMPI DUP1 PUSH4 0x6BBB194B EQ PUSH2 0x127 JUMPI DUP1 PUSH4 0xA36CC4CD EQ PUSH2 0x142 JUMPI PUSH0 DUP1 REVERT JUMPDEST DUP1 PUSH4 0x315A1451 EQ PUSH2 0xC8 JUMPI DUP1 PUSH4 0x63B0E66A EQ PUSH2 0xDD JUMPI JUMPDEST PUSH0 DUP1 REVERT JUMPDEST PUSH2 0xDB PUSH2 0xD6 CALLDATASIZE PUSH1 0x4 PUSH2 0x14CA JUMP JUMPDEST PUSH2 0x1F3 JUMP JUMPDEST STOP JUMPDEST PUSH2 0xF8 PUSH20 0x4F57C40D3DAA7BF2EC970DD157B1268982158720 DUP2 JUMP JUMPDEST PUSH1 0x40 MLOAD PUSH1 0x1 PUSH1 0x1 PUSH1 0xA0 SHL SUB SWAP1 SWAP2 AND DUP2 MSTORE PUSH1 0x20 ADD PUSH1 0x40 MLOAD DUP1 SWAP2 SUB SWAP1 RETURN JUMPDEST PUSH2 0xDB PUSH2 0x122 CALLDATASIZE PUSH1 0x4 PUSH2 0x155F JUMP JUMPDEST PUSH2 0x417 JUMP JUMPDEST PUSH2 0xF8 PUSH20 0xF25212E676D1F7F89CD72FFEE66158F541246445 DUP2 JUMP JUMPDEST PUSH2 0xDB PUSH2 0x150 CALLDATASIZE PUSH1 0x4 PUSH2 0x14CA JUMP JUMPDEST PUSH2 0x7A3 JUMP JUMPDEST PUSH2 0xDB PUSH2 0x163 CALLDATASIZE PUSH1 0x4 PUSH2 0x15D9 JUMP JUMPDEST PUSH2 0x8DC JUMP JUMPDEST PUSH2 0xF8 PUSH20 0x17DAD892347803551CEEE2D377D010034DF64347 DUP2 JUMP JUMPDEST PUSH2 0xF8 PUSH20 0xE592427A0AECE92DE3EDEE1F18E0157C05861564 DUP2 JUMP JUMPDEST PUSH2 0xF8 PUSH20 0x77B6569F0DBC4F265A575A84540C2A0CAE116A90 DUP2 JUMP JUMPDEST PUSH2 0xDB PUSH2 0x1C7 CALLDATASIZE PUSH1 0x4 PUSH2 0x1664 JUMP JUMPDEST PUSH2 0xB0F JUMP JUMPDEST PUSH2 0xF8 PUSH32 0x0 DUP2 JUMP JUMPDEST PUSH0 DUP8 PUSH1 0x1 PUSH1 0x1 PUSH1 0xA0 SHL SUB AND PUSH4 0xDFE1681 PUSH1 0x40 MLOAD DUP2 PUSH4 0xFFFFFFFF AND PUSH1 0xE0 SHL DUP2 MSTORE PUSH1 0x4 ADD PUSH1 0x20 PUSH1 0x40 MLOAD DUP1 DUP4 SUB DUP2 DUP7 GAS STATICCALL ISZERO DUP1 ISZERO PUSH2 0x230 JUMPI RETURNDATASIZE PUSH0 DUP1 RETURNDATACOPY RETURNDATASIZE PUSH0 REVERT JUMPDEST POP POP POP POP PUSH1 0x40 MLOAD RETURNDATASIZE PUSH1 0x1F NOT PUSH1 0x1F DUP3 ADD AND DUP3 ADD DUP1 PUSH1 0x40 MSTORE POP DUP2 ADD SWAP1 PUSH2 0x254 SWAP2 SWAP1 PUSH2 0x16EE JUMP JUMPDEST SWAP1 POP PUSH0 DUP9 PUSH1 0x1 PUSH1 0x1 PUSH1 0xA0 SHL SUB AND PUSH4 0xD21220A7 PUSH1 0x40 MLOAD DUP2 PUSH4 0xFFFFFFFF AND PUSH1 0xE0 SHL DUP2 MSTORE PUSH1 0x4 ADD PUSH1 0x20 PUSH1 0x40 MLOAD DUP1 DUP4 SUB DUP2 DUP7 GAS STATICCALL ISZERO DUP1 ISZERO PUSH2 0x293 JUMPI RETURNDATASIZE PUSH0 DUP1 RETURNDATACOPY RETURNDATASIZE PUSH0 REVERT JUMPDEST POP POP POP POP PUSH1 0x40 MLOAD RETURNDATASIZE PUSH1 0x1F NOT PUSH1 0x1F DUP3 ADD AND DUP3 ADD DUP1 PUSH1 0x40 MSTORE POP DUP2 ADD SWAP1 PUSH2 0x2B7 SWAP2 SWAP1 PUSH2 0x16EE JUMP JUMPDEST SWAP1 POP PUSH0 DUP1 DUP7 SLT ISZERO PUSH2 0x2C9 JUMPI POP DUP2 PUSH2 0x2CC JUMP JUMPDEST POP DUP1 JUMPDEST PUSH2 0x2EB DUP10 PUSH20 0x17DAD892347803551CEEE2D377D010034DF64347 DUP10 PUSH2 0xCCB JUMP JUMPDEST PUSH1 0x40 MLOAD PUSH32 0x8DEE946000000000000000000000000000000000000000000000000000000000 DUP2 MSTORE PUSH1 0x1 PUSH1 0x1 PUSH1 0xA0 SHL SUB DUP12 AND PUSH1 0x4 DUP3 ADD MSTORE PUSH1 0x24 DUP2 ADD DUP8 SWAP1 MSTORE PUSH1 0x44 DUP2 ADD DUP9 SWAP1 MSTORE ADDRESS PUSH1 0x64 DUP3 ADD MSTORE PUSH20 0x17DAD892347803551CEEE2D377D010034DF64347 SWAP1 PUSH4 0x8DEE9460 SWAP1 PUSH1 0x84 ADD PUSH0 PUSH1 0x40 MLOAD DUP1 DUP4 SUB DUP2 PUSH0 DUP8 DUP1 EXTCODESIZE ISZERO DUP1 ISZERO PUSH2 0x36A JUMPI PUSH0 DUP1 REVERT JUMPDEST POP GAS CALL ISZERO DUP1 ISZERO PUSH2 0x37C JUMPI RETURNDATASIZE PUSH0 DUP1 RETURNDATACOPY RETURNDATASIZE PUSH0 REVERT JUMPDEST POP POP POP POP PUSH0 DUP7 SLT ISZERO PUSH2 0x394 JUMPI PUSH2 0x391 DUP7 PUSH2 0x1710 JUMP JUMPDEST SWAP6 POP JUMPDEST PUSH1 0x40 MLOAD PUSH4 0x70A08231 PUSH1 0xE0 SHL DUP2 MSTORE ADDRESS PUSH1 0x4 DUP3 ADD MSTORE PUSH2 0x40A SWAP1 DUP3 SWAP1 DUP11 SWAP1 DUP9 SWAP1 PUSH1 0x1 PUSH1 0x1 PUSH1 0xA0 SHL SUB DUP5 AND SWAP1 PUSH4 0x70A08231 SWAP1 PUSH1 0x24 ADD PUSH1 0x20 PUSH1 0x40 MLOAD DUP1 DUP4 SUB DUP2 DUP7 GAS STATICCALL ISZERO DUP1 ISZERO PUSH2 0x3E0 JUMPI RETURNDATASIZE PUSH0 DUP1 RETURNDATACOPY RETURNDATASIZE PUSH0 REVERT JUMPDEST POP POP POP POP PUSH1 0x40 MLOAD RETURNDATASIZE PUSH1 0x1F NOT PUSH1 0x1F DUP3 ADD AND DUP3 ADD DUP1 PUSH1 0x40 MSTORE POP DUP2 ADD SWAP1 PUSH2 0x404 SWAP2 SWAP1 PUSH2 0x1752 JUMP JUMPDEST DUP9 PUSH2 0xE0F JUMP JUMPDEST POP POP POP POP POP POP POP POP POP POP POP JUMP JUMPDEST PUSH0 PUSH2 0x437 DUP7 ADDRESS PUSH20 0x77B6569F0DBC4F265A575A84540C2A0CAE116A90 PUSH2 0x1066 JUMP JUMPDEST PUSH1 0x40 DUP2 DUP2 ADD MLOAD PUSH1 0x60 DUP4 ADD MLOAD SWAP2 MLOAD PUSH32 0x4B7CAB4A00000000000000000000000000000000000000000000000000000000 DUP2 MSTORE PUSH1 0x1 PUSH1 0x1 PUSH1 0xA0 SHL SUB DUP11 AND PUSH1 0x4 DUP3 ADD MSTORE ADDRESS PUSH1 0x24 DUP3 ADD MSTORE SWAP3 SWAP4 POP SWAP2 PUSH0 SWAP1 PUSH20 0x77B6569F0DBC4F265A575A84540C2A0CAE116A90 SWAP1 PUSH4 0x4B7CAB4A SWAP1 PUSH1 0x44 ADD PUSH1 0x20 PUSH1 0x40 MLOAD DUP1 DUP4 SUB DUP2 PUSH0 DUP8 GAS CALL ISZERO DUP1 ISZERO PUSH2 0x4BD JUMPI RETURNDATASIZE PUSH0 DUP1 RETURNDATACOPY RETURNDATASIZE PUSH0 REVERT JUMPDEST POP POP POP POP PUSH1 0x40 MLOAD RETURNDATASIZE PUSH1 0x1F NOT PUSH1 0x1F DUP3 ADD AND DUP3 ADD DUP1 PUSH1 0x40 MSTORE POP DUP2 ADD SWAP1 PUSH2 0x4E1 SWAP2 SWAP1 PUSH2 0x1752 JUMP JUMPDEST SWAP1 POP DUP1 PUSH0 SUB PUSH2 0x537 JUMPI PUSH1 0x40 MLOAD PUSH3 0x461BCD PUSH1 0xE5 SHL DUP2 MSTORE PUSH1 0x20 PUSH1 0x4 DUP3 ADD MSTORE PUSH1 0x11 PUSH1 0x24 DUP3 ADD MSTORE PUSH32 0x4E6F20506F736974696F6E20466F756E64000000000000000000000000000000 PUSH1 0x44 DUP3 ADD MSTORE PUSH1 0x64 ADD JUMPDEST PUSH1 0x40 MLOAD DUP1 SWAP2 SUB SWAP1 REVERT JUMPDEST PUSH0 DUP1 DUP9 SLT ISZERO PUSH2 0x625 JUMPI POP DUP4 MLOAD DUP3 ISZERO PUSH2 0x5D8 JUMPI PUSH1 0x40 MLOAD PUSH4 0xE96466D PUSH1 0xE4 SHL DUP2 MSTORE PUSH1 0x1 PUSH1 0x1 PUSH1 0xA0 SHL SUB DUP12 AND PUSH1 0x4 DUP3 ADD MSTORE PUSH1 0x24 DUP2 ADD DUP10 SWAP1 MSTORE ADDRESS PUSH1 0x44 DUP3 ADD MSTORE PUSH20 0x17DAD892347803551CEEE2D377D010034DF64347 SWAP1 PUSH4 0xE96466D0 SWAP1 PUSH1 0x64 ADD JUMPDEST PUSH1 0x20 PUSH1 0x40 MLOAD DUP1 DUP4 SUB DUP2 PUSH0 DUP8 GAS CALL ISZERO DUP1 ISZERO PUSH2 0x5AE JUMPI RETURNDATASIZE PUSH0 DUP1 RETURNDATACOPY RETURNDATASIZE PUSH0 REVERT JUMPDEST POP POP POP POP PUSH1 0x40 MLOAD RETURNDATASIZE PUSH1 0x1F NOT PUSH1 0x1F DUP3 ADD AND DUP3 ADD DUP1 PUSH1 0x40 MSTORE POP DUP2 ADD SWAP1 PUSH2 0x5D2 SWAP2 SWAP1 PUSH2 0x1752 JUMP JUMPDEST POP PUSH2 0x708 JUMP JUMPDEST PUSH1 0x40 MLOAD PUSH4 0x5833CDF9 PUSH1 0xE0 SHL DUP2 MSTORE PUSH1 0x1 PUSH1 0x1 PUSH1 0xA0 SHL SUB DUP12 AND PUSH1 0x4 DUP3 ADD MSTORE PUSH1 0x24 DUP2 ADD DUP10 SWAP1 MSTORE ADDRESS PUSH1 0x44 DUP3 ADD MSTORE PUSH20 0x17DAD892347803551CEEE2D377D010034DF64347 SWAP1 PUSH4 0x5833CDF9 SWAP1 PUSH1 0x64 ADD PUSH2 0x592 JUMP JUMPDEST POP PUSH1 0x20 DUP5 ADD MLOAD DUP4 ISZERO PUSH2 0x67E JUMPI PUSH1 0x40 MLOAD PUSH4 0xE96466D PUSH1 0xE4 SHL DUP2 MSTORE PUSH1 0x1 PUSH1 0x1 PUSH1 0xA0 SHL SUB DUP12 AND PUSH1 0x4 DUP3 ADD MSTORE PUSH1 0x24 DUP2 ADD DUP10 SWAP1 MSTORE ADDRESS PUSH1 0x44 DUP3 ADD MSTORE PUSH20 0x17DAD892347803551CEEE2D377D010034DF64347 SWAP1 PUSH4 0xE96466D0 SWAP1 PUSH1 0x64 ADD PUSH2 0x592 JUMP JUMPDEST PUSH1 0x40 MLOAD PUSH4 0x5833CDF9 PUSH1 0xE0 SHL DUP2 MSTORE PUSH1 0x1 PUSH1 0x1 PUSH1 0xA0 SHL SUB DUP12 AND PUSH1 0x4 DUP3 ADD MSTORE PUSH1 0x24 DUP2 ADD DUP10 SWAP1 MSTORE ADDRESS PUSH1 0x44 DUP3 ADD MSTORE PUSH20 0x17DAD892347803551CEEE2D377D010034DF64347 SWAP1 PUSH4 0x5833CDF9 SWAP1 PUSH1 0x64 ADD PUSH1 0x20 PUSH1 0x40 MLOAD DUP1 DUP4 SUB DUP2 PUSH0 DUP8 GAS CALL ISZERO DUP1 ISZERO PUSH2 0x6E2 JUMPI RETURNDATASIZE PUSH0 DUP1 RETURNDATACOPY RETURNDATASIZE PUSH0 REVERT JUMPDEST POP POP POP POP PUSH1 0x40 MLOAD RETURNDATASIZE PUSH1 0x1F NOT PUSH1 0x1F DUP3 ADD AND DUP3 ADD DUP1 PUSH1 0x40 MSTORE POP DUP2 ADD SWAP1 PUSH2 0x706 SWAP2 SWAP1 PUSH2 0x1752 JUMP JUMPDEST POP JUMPDEST DUP7 PUSH1 0x1 PUSH1 0x1 PUSH1 0xA0 SHL SUB AND DUP2 PUSH1 0x1 PUSH1 0x1 PUSH1 0xA0 SHL SUB AND EQ PUSH2 0x797 JUMPI PUSH1 0x40 MLOAD PUSH4 0x70A08231 PUSH1 0xE0 SHL DUP2 MSTORE ADDRESS PUSH1 0x4 DUP3 ADD MSTORE PUSH2 0x40A SWAP1 DUP3 SWAP1 DUP10 SWAP1 DUP13 SWAP1 PUSH1 0x1 PUSH1 0x1 PUSH1 0xA0 SHL SUB DUP5 AND SWAP1 PUSH4 0x70A08231 SWAP1 PUSH1 0x24 ADD PUSH1 0x20 PUSH1 0x40 MLOAD DUP1 DUP4 SUB DUP2 DUP7 GAS STATICCALL ISZERO DUP1 ISZERO PUSH2 0x76D JUMPI RETURNDATASIZE PUSH0 DUP1 RETURNDATACOPY RETURNDATASIZE PUSH0 REVERT JUMPDEST POP POP POP POP PUSH1 0x40 MLOAD RETURNDATASIZE PUSH1 0x1F NOT PUSH1 0x1F DUP3 ADD AND DUP3 ADD DUP1 PUSH1 0x40 MSTORE POP DUP2 ADD SWAP1 PUSH2 0x791 SWAP2 SWAP1 PUSH2 0x1752 JUMP JUMPDEST DUP11 PUSH2 0xE0F JUMP JUMPDEST POP POP POP POP POP POP POP POP POP POP JUMP JUMPDEST PUSH2 0x7C2 DUP8 PUSH20 0xF25212E676D1F7F89CD72FFEE66158F541246445 DUP7 PUSH2 0xCCB JUMP JUMPDEST PUSH1 0x40 MLOAD PUSH32 0x4232CD6300000000000000000000000000000000000000000000000000000000 DUP2 MSTORE ADDRESS PUSH1 0x4 DUP3 ADD MSTORE PUSH1 0x1 PUSH1 0x1 PUSH1 0xA0 SHL SUB DUP9 AND PUSH1 0x24 DUP3 ADD MSTORE PUSH1 0x44 DUP2 ADD DUP6 SWAP1 MSTORE PUSH20 0xF25212E676D1F7F89CD72FFEE66158F541246445 SWAP1 PUSH4 0x4232CD63 SWAP1 PUSH1 0x64 ADD PUSH0 PUSH1 0x40 MLOAD DUP1 DUP4 SUB DUP2 PUSH0 DUP8 DUP1 EXTCODESIZE ISZERO DUP1 ISZERO PUSH2 0x83A JUMPI PUSH0 DUP1 REVERT JUMPDEST POP GAS CALL ISZERO DUP1 ISZERO PUSH2 0x84C JUMPI RETURNDATASIZE PUSH0 DUP1 RETURNDATACOPY RETURNDATASIZE PUSH0 REVERT JUMPDEST POP POP PUSH1 0x40 MLOAD PUSH4 0x61D9AD3F PUSH1 0xE1 SHL DUP2 MSTORE ADDRESS PUSH1 0x4 DUP3 ADD MSTORE PUSH1 0x1 PUSH1 0x1 PUSH1 0xA0 SHL SUB DUP10 AND PUSH1 0x24 DUP3 ADD MSTORE PUSH1 0x44 DUP2 ADD DUP7 SWAP1 MSTORE PUSH20 0xF25212E676D1F7F89CD72FFEE66158F541246445 SWAP3 POP PUSH4 0xC3B35A7E SWAP2 POP PUSH1 0x64 ADD PUSH0 PUSH1 0x40 MLOAD DUP1 DUP4 SUB DUP2 PUSH0 DUP8 DUP1 EXTCODESIZE ISZERO DUP1 ISZERO PUSH2 0x8AF JUMPI PUSH0 DUP1 REVERT JUMPDEST POP GAS CALL ISZERO DUP1 ISZERO PUSH2 0x8C1 JUMPI RETURNDATASIZE PUSH0 DUP1 RETURNDATACOPY RETURNDATASIZE PUSH0 REVERT JUMPDEST POP POP POP POP PUSH2 0x8D2 DUP7 DUP7 DUP5 DUP7 DUP6 PUSH2 0xE0F JUMP JUMPDEST POP POP POP POP POP POP POP POP JUMP JUMPDEST PUSH0 DUP1 PUSH0 PUSH2 0x8FE DUP10 ADDRESS PUSH20 0x77B6569F0DBC4F265A575A84540C2A0CAE116A90 PUSH2 0x1066 JUMP JUMPDEST SWAP1 POP DUP8 PUSH1 0x1 PUSH1 0x1 PUSH1 0xA0 SHL SUB AND DUP7 PUSH1 0x1 PUSH1 0x1 PUSH1 0xA0 SHL SUB AND EQ PUSH2 0x92D JUMPI PUSH2 0x926 DUP9 DUP8 ADDRESS DUP9 DUP9 PUSH2 0xE0F JUMP JUMPDEST SWAP2 POP PUSH2 0x931 JUMP JUMPDEST DUP5 SWAP2 POP JUMPDEST PUSH2 0x951 DUP7 PUSH20 0x17DAD892347803551CEEE2D377D010034DF64347 PUSH0 NOT PUSH2 0xCCB JUMP JUMPDEST DUP1 PUSH0 ADD MLOAD PUSH1 0x1 PUSH1 0x1 PUSH1 0xA0 SHL SUB AND DUP7 PUSH1 0x1 PUSH1 0x1 PUSH1 0xA0 SHL SUB AND SUB PUSH2 0x97D JUMPI PUSH2 0x976 DUP3 PUSH2 0x1710 JUMP JUMPDEST SWAP3 POP PUSH2 0x981 JUMP JUMPDEST DUP2 SWAP3 POP JUMPDEST PUSH1 0x40 MLOAD PUSH32 0x8262654700000000000000000000000000000000000000000000000000000000 DUP2 MSTORE PUSH1 0x1 PUSH1 0x1 PUSH1 0xA0 SHL SUB DUP11 AND PUSH1 0x4 DUP3 ADD MSTORE PUSH1 0x24 DUP2 ADD DUP5 SWAP1 MSTORE ADDRESS PUSH1 0x44 DUP3 ADD MSTORE PUSH20 0x17DAD892347803551CEEE2D377D010034DF64347 SWAP1 PUSH4 0x82626547 SWAP1 PUSH1 0x64 ADD PUSH1 0x20 PUSH1 0x40 MLOAD DUP1 DUP4 SUB DUP2 PUSH0 DUP8 GAS CALL ISZERO DUP1 ISZERO PUSH2 0x9FE JUMPI RETURNDATASIZE PUSH0 DUP1 RETURNDATACOPY RETURNDATASIZE PUSH0 REVERT JUMPDEST POP POP POP POP PUSH1 0x40 MLOAD RETURNDATASIZE PUSH1 0x1F NOT PUSH1 0x1F DUP3 ADD AND DUP3 ADD DUP1 PUSH1 0x40 MSTORE POP DUP2 ADD SWAP1 PUSH2 0xA22 SWAP2 SWAP1 PUSH2 0x1752 JUMP JUMPDEST POP PUSH1 0x40 MLOAD PUSH4 0x70A08231 PUSH1 0xE0 SHL DUP2 MSTORE ADDRESS PUSH1 0x4 DUP3 ADD MSTORE PUSH0 SWAP1 PUSH1 0x1 PUSH1 0x1 PUSH1 0xA0 SHL SUB DUP9 AND SWAP1 PUSH4 0x70A08231 SWAP1 PUSH1 0x24 ADD PUSH1 0x20 PUSH1 0x40 MLOAD DUP1 DUP4 SUB DUP2 DUP7 GAS STATICCALL ISZERO DUP1 ISZERO PUSH2 0xA67 JUMPI RETURNDATASIZE PUSH0 DUP1 RETURNDATACOPY RETURNDATASIZE PUSH0 REVERT JUMPDEST POP POP POP POP PUSH1 0x40 MLOAD RETURNDATASIZE PUSH1 0x1F NOT PUSH1 0x1F DUP3 ADD AND DUP3 ADD DUP1 PUSH1 0x40 MSTORE POP DUP2 ADD SWAP1 PUSH2 0xA8B SWAP2 SWAP1 PUSH2 0x1752 JUMP JUMPDEST GT ISZERO PUSH2 0xB04 JUMPI PUSH1 0x40 MLOAD PUSH4 0x70A08231 PUSH1 0xE0 SHL DUP2 MSTORE ADDRESS PUSH1 0x4 DUP3 ADD MSTORE PUSH2 0xB04 SWAP1 DUP8 SWAP1 DUP10 SWAP1 PUSH1 0x1 PUSH1 0x1 PUSH1 0xA0 SHL SUB DUP4 AND SWAP1 PUSH4 0x70A08231 SWAP1 PUSH1 0x24 ADD PUSH1 0x20 PUSH1 0x40 MLOAD DUP1 DUP4 SUB DUP2 DUP7 GAS STATICCALL ISZERO DUP1 ISZERO PUSH2 0xADB JUMPI RETURNDATASIZE PUSH0 DUP1 RETURNDATACOPY RETURNDATASIZE PUSH0 REVERT JUMPDEST POP POP POP POP PUSH1 0x40 MLOAD RETURNDATASIZE PUSH1 0x1F NOT PUSH1 0x1F DUP3 ADD AND DUP3 ADD DUP1 PUSH1 0x40 MSTORE POP DUP2 ADD SWAP1 PUSH2 0xAFF SWAP2 SWAP1 PUSH2 0x1752 JUMP JUMPDEST PUSH2 0x1255 JUMP JUMPDEST POP POP POP POP POP POP POP POP POP JUMP JUMPDEST DUP6 PUSH1 0x1 PUSH1 0x1 PUSH1 0xA0 SHL SUB AND DUP8 PUSH1 0x1 PUSH1 0x1 PUSH1 0xA0 SHL SUB AND EQ PUSH2 0xB37 JUMPI PUSH2 0xB35 DUP7 DUP9 ADDRESS DUP6 DUP6 PUSH2 0xE0F JUMP JUMPDEST POP JUMPDEST PUSH2 0xB57 DUP8 PUSH20 0xF25212E676D1F7F89CD72FFEE66158F541246445 PUSH0 NOT PUSH2 0xCCB JUMP JUMPDEST PUSH1 0x40 MLOAD PUSH4 0x70A08231 PUSH1 0xE0 SHL DUP2 MSTORE ADDRESS PUSH1 0x4 DUP3 ADD DUP2 SWAP1 MSTORE PUSH20 0xF25212E676D1F7F89CD72FFEE66158F541246445 SWAP2 PUSH4 0x4232CD63 SWAP2 SWAP1 DUP11 SWAP1 PUSH1 0x1 PUSH1 0x1 PUSH1 0xA0 SHL SUB DUP3 AND SWAP1 PUSH4 0x70A08231 SWAP1 PUSH1 0x24 ADD PUSH1 0x20 PUSH1 0x40 MLOAD DUP1 DUP4 SUB DUP2 DUP7 GAS STATICCALL ISZERO DUP1 ISZERO PUSH2 0xBBA JUMPI RETURNDATASIZE PUSH0 DUP1 RETURNDATACOPY RETURNDATASIZE PUSH0 REVERT JUMPDEST POP POP POP POP PUSH1 0x40 MLOAD RETURNDATASIZE PUSH1 0x1F NOT PUSH1 0x1F DUP3 ADD AND DUP3 ADD DUP1 PUSH1 0x40 MSTORE POP DUP2 ADD SWAP1 PUSH2 0xBDE SWAP2 SWAP1 PUSH2 0x1752 JUMP JUMPDEST PUSH1 0x40 MLOAD PUSH32 0xFFFFFFFF00000000000000000000000000000000000000000000000000000000 PUSH1 0xE0 DUP7 SWAP1 SHL AND DUP2 MSTORE PUSH1 0x1 PUSH1 0x1 PUSH1 0xA0 SHL SUB SWAP4 DUP5 AND PUSH1 0x4 DUP3 ADD MSTORE SWAP3 SWAP1 SWAP2 AND PUSH1 0x24 DUP4 ADD MSTORE PUSH1 0x44 DUP3 ADD MSTORE PUSH1 0x64 ADD PUSH0 PUSH1 0x40 MLOAD DUP1 DUP4 SUB DUP2 PUSH0 DUP8 DUP1 EXTCODESIZE ISZERO DUP1 ISZERO PUSH2 0xC42 JUMPI PUSH0 DUP1 REVERT JUMPDEST POP GAS CALL ISZERO DUP1 ISZERO PUSH2 0xC54 JUMPI RETURNDATASIZE PUSH0 DUP1 RETURNDATACOPY RETURNDATASIZE PUSH0 REVERT JUMPDEST POP POP PUSH1 0x40 MLOAD PUSH4 0x61D9AD3F PUSH1 0xE1 SHL DUP2 MSTORE PUSH1 0x1 PUSH1 0x1 PUSH1 0xA0 SHL SUB DUP1 DUP10 AND PUSH1 0x4 DUP4 ADD MSTORE DUP8 AND PUSH1 0x24 DUP3 ADD MSTORE PUSH1 0x44 DUP2 ADD DUP7 SWAP1 MSTORE PUSH20 0xF25212E676D1F7F89CD72FFEE66158F541246445 SWAP3 POP PUSH4 0xC3B35A7E SWAP2 POP PUSH1 0x64 ADD PUSH0 PUSH1 0x40 MLOAD DUP1 DUP4 SUB DUP2 PUSH0 DUP8 DUP1 EXTCODESIZE ISZERO DUP1 ISZERO PUSH2 0xCB9 JUMPI PUSH0 DUP1 REVERT JUMPDEST POP GAS CALL ISZERO DUP1 ISZERO PUSH2 0x40A JUMPI RETURNDATASIZE PUSH0 DUP1 RETURNDATACOPY RETURNDATASIZE PUSH0 REVERT JUMPDEST PUSH1 0x40 DUP1 MLOAD PUSH1 0x1 PUSH1 0x1 PUSH1 0xA0 SHL SUB DUP5 DUP2 AND PUSH1 0x24 DUP4 ADD MSTORE PUSH1 0x44 DUP1 DUP4 ADD DUP6 SWAP1 MSTORE DUP4 MLOAD DUP1 DUP5 SUB SWAP1 SWAP2 ADD DUP2 MSTORE PUSH1 0x64 SWAP1 SWAP3 ADD DUP4 MSTORE PUSH1 0x20 DUP3 ADD DUP1 MLOAD PUSH28 0xFFFFFFFFFFFFFFFFFFFFFFFFFFFFFFFFFFFFFFFFFFFFFFFFFFFFFFFF AND PUSH32 0x95EA7B300000000000000000000000000000000000000000000000000000000 OR SWAP1 MSTORE SWAP2 MLOAD PUSH0 SWAP3 DUP4 SWAP3 SWAP1 DUP8 AND SWAP2 PUSH2 0xD54 SWAP2 SWAP1 PUSH2 0x178B JUMP JUMPDEST PUSH0 PUSH1 0x40 MLOAD DUP1 DUP4 SUB DUP2 PUSH0 DUP7 GAS CALL SWAP2 POP POP RETURNDATASIZE DUP1 PUSH0 DUP2 EQ PUSH2 0xD8D JUMPI PUSH1 0x40 MLOAD SWAP2 POP PUSH1 0x1F NOT PUSH1 0x3F RETURNDATASIZE ADD AND DUP3 ADD PUSH1 0x40 MSTORE RETURNDATASIZE DUP3 MSTORE RETURNDATASIZE PUSH0 PUSH1 0x20 DUP5 ADD RETURNDATACOPY PUSH2 0xD92 JUMP JUMPDEST PUSH1 0x60 SWAP2 POP JUMPDEST POP SWAP2 POP SWAP2 POP DUP2 DUP1 ISZERO PUSH2 0xDBC JUMPI POP DUP1 MLOAD ISZERO DUP1 PUSH2 0xDBC JUMPI POP DUP1 DUP1 PUSH1 0x20 ADD SWAP1 MLOAD DUP2 ADD SWAP1 PUSH2 0xDBC SWAP2 SWAP1 PUSH2 0x17A6 JUMP JUMPDEST PUSH2 0xE08 JUMPI PUSH1 0x40 MLOAD PUSH3 0x461BCD PUSH1 0xE5 SHL DUP2 MSTORE PUSH1 0x20 PUSH1 0x4 DUP3 ADD MSTORE PUSH1 0x2 PUSH1 0x24 DUP3 ADD MSTORE PUSH32 0x5341000000000000000000000000000000000000000000000000000000000000 PUSH1 0x44 DUP3 ADD MSTORE PUSH1 0x64 ADD PUSH2 0x52E JUMP JUMPDEST POP POP POP POP POP JUMP JUMPDEST PUSH0 PUSH2 0xE2F DUP7 PUSH20 0xE592427A0AECE92DE3EDEE1F18E0157C05861564 DUP6 PUSH2 0xCCB JUMP JUMPDEST PUSH1 0x60 PUSH1 0x1 DUP4 MLOAD GT ISZERO PUSH2 0xF0F JUMPI DUP7 DUP4 PUSH0 DUP2 MLOAD DUP2 LT PUSH2 0xE4E JUMPI PUSH2 0xE4E PUSH2 0x17C5 JUMP JUMPDEST PUSH1 0x20 MUL PUSH1 0x20 ADD ADD MLOAD PUSH20 0xD500B1D8E8EF31E21C99D1DB9A6444D3ADF1270 DUP6 PUSH1 0x1 DUP2 MLOAD DUP2 LT PUSH2 0xE7E JUMPI PUSH2 0xE7E PUSH2 0x17C5 JUMP JUMPDEST PUSH1 0x20 SWAP1 DUP2 MUL SWAP2 SWAP1 SWAP2 ADD DUP2 ADD MLOAD PUSH1 0x40 MLOAD PUSH12 0xFFFFFFFFFFFFFFFFFFFFFFFF NOT PUSH1 0x60 SWAP7 DUP8 SHL DUP2 AND SWAP4 DUP3 ADD SWAP4 SWAP1 SWAP4 MSTORE PUSH32 0xFFFFFF0000000000000000000000000000000000000000000000000000000000 PUSH1 0xE8 SWAP6 DUP7 SHL DUP2 AND PUSH1 0x34 DUP4 ADD MSTORE SWAP4 DUP7 SHL DUP4 AND PUSH1 0x37 DUP3 ADD MSTORE SWAP4 SHL SWAP1 SWAP2 AND PUSH1 0x4B DUP4 ADD MSTORE SWAP2 DUP9 SWAP1 SHL SWAP1 SWAP2 AND PUSH1 0x4E DUP3 ADD MSTORE PUSH1 0x62 ADD PUSH1 0x40 MLOAD PUSH1 0x20 DUP2 DUP4 SUB SUB DUP2 MSTORE SWAP1 PUSH1 0x40 MSTORE SWAP1 POP PUSH2 0xF9D JUMP JUMPDEST DUP7 DUP4 PUSH0 DUP2 MLOAD DUP2 LT PUSH2 0xF22 JUMPI PUSH2 0xF22 PUSH2 0x17C5 JUMP JUMPDEST PUSH1 0x20 MUL PUSH1 0x20 ADD ADD MLOAD DUP8 PUSH1 0x40 MLOAD PUSH1 0x20 ADD PUSH2 0xF8B SWAP4 SWAP3 SWAP2 SWAP1 PUSH1 0x60 SWAP4 DUP5 SHL PUSH12 0xFFFFFFFFFFFFFFFFFFFFFFFF NOT SWAP1 DUP2 AND DUP3 MSTORE PUSH1 0xE8 SWAP4 SWAP1 SWAP4 SHL PUSH32 0xFFFFFF0000000000000000000000000000000000000000000000000000000000 AND PUSH1 0x14 DUP3 ADD MSTORE SWAP3 SHL AND PUSH1 0x17 DUP3 ADD MSTORE PUSH1 0x2B ADD SWAP1 JUMP JUMPDEST PUSH1 0x40 MLOAD PUSH1 0x20 DUP2 DUP4 SUB SUB DUP2 MSTORE SWAP1 PUSH1 0x40 MSTORE SWAP1 POP JUMPDEST PUSH1 0x40 DUP1 MLOAD PUSH1 0xA0 DUP2 ADD DUP3 MSTORE DUP3 DUP2 MSTORE PUSH1 0x1 PUSH1 0x1 PUSH1 0xA0 SHL SUB DUP8 AND PUSH1 0x20 DUP3 ADD MSTORE TIMESTAMP DUP2 DUP4 ADD MSTORE PUSH1 0x60 DUP2 ADD DUP7 SWAP1 MSTORE PUSH0 PUSH1 0x80 DUP3 ADD MSTORE SWAP1 MLOAD PUSH32 0xC04B8D5900000000000000000000000000000000000000000000000000000000 DUP2 MSTORE PUSH20 0xE592427A0AECE92DE3EDEE1F18E0157C05861564 SWAP1 PUSH4 0xC04B8D59 SWAP1 PUSH2 0x101A SWAP1 DUP5 SWAP1 PUSH1 0x4 ADD PUSH2 0x17D9 JUMP JUMPDEST PUSH1 0x20 PUSH1 0x40 MLOAD DUP1 DUP4 SUB DUP2 PUSH0 DUP8 GAS CALL ISZERO DUP1 ISZERO PUSH2 0x1036 JUMPI RETURNDATASIZE PUSH0 DUP1 RETURNDATACOPY RETURNDATASIZE PUSH0 REVERT JUMPDEST POP POP POP POP PUSH1 0x40 MLOAD RETURNDATASIZE PUSH1 0x1F NOT PUSH1 0x1F DUP3 ADD AND DUP3 ADD DUP1 PUSH1 0x40 MSTORE POP DUP2 ADD SWAP1 PUSH2 0x105A SWAP2 SWAP1 PUSH2 0x1752 JUMP JUMPDEST SWAP9 SWAP8 POP POP POP POP POP POP POP POP JUMP JUMPDEST PUSH2 0x10B1 PUSH1 0x40 MLOAD DUP1 PUSH1 0xE0 ADD PUSH1 0x40 MSTORE DUP1 PUSH0 PUSH1 0x1 PUSH1 0x1 PUSH1 0xA0 SHL SUB AND DUP2 MSTORE PUSH1 0x20 ADD PUSH0 PUSH1 0x1 PUSH1 0x1 PUSH1 0xA0 SHL SUB AND DUP2 MSTORE PUSH1 0x20 ADD PUSH0 DUP2 MSTORE PUSH1 0x20 ADD PUSH0 DUP2 MSTORE PUSH1 0x20 ADD PUSH0 DUP2 MSTORE PUSH1 0x20 ADD PUSH0 DUP2 MSTORE PUSH1 0x20 ADD PUSH0 DUP2 MSTORE POP SWAP1 JUMP JUMPDEST PUSH1 0x40 MLOAD PUSH32 0x13D21CDF00000000000000000000000000000000000000000000000000000000 DUP2 MSTORE PUSH1 0x1 PUSH1 0x1 PUSH1 0xA0 SHL SUB DUP6 AND PUSH1 0x4 DUP3 ADD MSTORE PUSH0 SWAP1 PUSH20 0x4F57C40D3DAA7BF2EC970DD157B1268982158720 SWAP1 PUSH4 0x13D21CDF SWAP1 PUSH1 0x24 ADD PUSH0 PUSH1 0x40 MLOAD DUP1 DUP4 SUB DUP2 DUP7 GAS STATICCALL ISZERO DUP1 ISZERO PUSH2 0x1121 JUMPI RETURNDATASIZE PUSH0 DUP1 RETURNDATACOPY RETURNDATASIZE PUSH0 REVERT JUMPDEST POP POP POP POP PUSH1 0x40 MLOAD RETURNDATASIZE PUSH0 DUP3 RETURNDATACOPY PUSH1 0x1F RETURNDATASIZE SWAP1 DUP2 ADD PUSH1 0x1F NOT AND DUP3 ADD PUSH1 0x40 MSTORE PUSH2 0x1148 SWAP2 SWAP1 DUP2 ADD SWAP1 PUSH2 0x18B1 JUMP JUMPDEST PUSH1 0x40 MLOAD PUSH32 0xF408646E00000000000000000000000000000000000000000000000000000000 DUP2 MSTORE PUSH1 0x1 PUSH1 0x1 PUSH1 0xA0 SHL SUB DUP1 DUP7 AND PUSH1 0x4 DUP4 ADD MSTORE DUP1 DUP9 AND PUSH1 0x24 DUP4 ADD MSTORE DUP7 AND PUSH1 0x44 DUP3 ADD MSTORE SWAP1 SWAP2 POP PUSH0 SWAP1 PUSH20 0x4F57C40D3DAA7BF2EC970DD157B1268982158720 SWAP1 PUSH4 0xF408646E SWAP1 PUSH1 0x64 ADD PUSH2 0x280 PUSH1 0x40 MLOAD DUP1 DUP4 SUB DUP2 DUP7 GAS STATICCALL ISZERO DUP1 ISZERO PUSH2 0x11CD JUMPI RETURNDATASIZE PUSH0 DUP1 RETURNDATACOPY RETURNDATASIZE PUSH0 REVERT JUMPDEST POP POP POP POP PUSH1 0x40 MLOAD RETURNDATASIZE PUSH1 0x1F NOT PUSH1 0x1F DUP3 ADD AND DUP3 ADD DUP1 PUSH1 0x40 MSTORE POP DUP2 ADD SWAP1 PUSH2 0x11F1 SWAP2 SWAP1 PUSH2 0x19C0 JUMP JUMPDEST PUSH1 0xC0 DUP1 DUP5 ADD DUP1 MLOAD PUSH1 0x1 PUSH1 0x1 PUSH1 0xA0 SHL SUB SWAP1 DUP2 AND DUP8 MSTORE PUSH1 0xE0 DUP7 ADD MLOAD DUP2 AND PUSH1 0x20 DUP9 ADD MSTORE SWAP5 MLOAD SWAP2 DUP7 ADD SWAP2 SWAP1 SWAP2 MSTORE PUSH2 0x1E0 DUP3 ADD MLOAD PUSH1 0x40 DUP7 ADD MSTORE PUSH2 0x220 DUP3 ADD MLOAD PUSH1 0x60 DUP7 ADD MSTORE PUSH2 0x1C0 DUP3 ADD MLOAD PUSH1 0xA0 DUP7 ADD MSTORE PUSH2 0x200 SWAP1 SWAP2 ADD MLOAD PUSH1 0x80 DUP6 ADD MSTORE MLOAD SWAP1 SWAP2 AND DUP3 MSTORE POP SWAP4 SWAP3 POP POP POP JUMP JUMPDEST PUSH1 0x40 DUP1 MLOAD PUSH1 0x1 PUSH1 0x1 PUSH1 0xA0 SHL SUB DUP5 DUP2 AND PUSH1 0x24 DUP4 ADD MSTORE PUSH1 0x44 DUP1 DUP4 ADD DUP6 SWAP1 MSTORE DUP4 MLOAD DUP1 DUP5 SUB SWAP1 SWAP2 ADD DUP2 MSTORE PUSH1 0x64 SWAP1 SWAP3 ADD DUP4 MSTORE PUSH1 0x20 DUP3 ADD DUP1 MLOAD PUSH28 0xFFFFFFFFFFFFFFFFFFFFFFFFFFFFFFFFFFFFFFFFFFFFFFFFFFFFFFFF AND PUSH32 0xA9059CBB00000000000000000000000000000000000000000000000000000000 OR SWAP1 MSTORE SWAP2 MLOAD PUSH0 SWAP3 DUP4 SWAP3 SWAP1 DUP8 AND SWAP2 PUSH2 0x12DE SWAP2 SWAP1 PUSH2 0x178B JUMP JUMPDEST PUSH0 PUSH1 0x40 MLOAD DUP1 DUP4 SUB DUP2 PUSH0 DUP7 GAS CALL SWAP2 POP POP RETURNDATASIZE DUP1 PUSH0 DUP2 EQ PUSH2 0x1317 JUMPI PUSH1 0x40 MLOAD SWAP2 POP PUSH1 0x1F NOT PUSH1 0x3F RETURNDATASIZE ADD AND DUP3 ADD PUSH1 0x40 MSTORE RETURNDATASIZE DUP3 MSTORE RETURNDATASIZE PUSH0 PUSH1 0x20 DUP5 ADD RETURNDATACOPY PUSH2 0x131C JUMP JUMPDEST PUSH1 0x60 SWAP2 POP JUMPDEST POP SWAP2 POP SWAP2 POP DUP2 DUP1 ISZERO PUSH2 0x1346 JUMPI POP DUP1 MLOAD ISZERO DUP1 PUSH2 0x1346 JUMPI POP DUP1 DUP1 PUSH1 0x20 ADD SWAP1 MLOAD DUP2 ADD SWAP1 PUSH2 0x1346 SWAP2 SWAP1 PUSH2 0x17A6 JUMP JUMPDEST PUSH2 0xE08 JUMPI PUSH1 0x40 MLOAD PUSH3 0x461BCD PUSH1 0xE5 SHL DUP2 MSTORE PUSH1 0x20 PUSH1 0x4 DUP3 ADD MSTORE PUSH1 0x2 PUSH1 0x24 DUP3 ADD MSTORE PUSH32 0x5354000000000000000000000000000000000000000000000000000000000000 PUSH1 0x44 DUP3 ADD MSTORE PUSH1 0x64 ADD PUSH2 0x52E JUMP JUMPDEST PUSH1 0x1 PUSH1 0x1 PUSH1 0xA0 SHL SUB DUP2 AND DUP2 EQ PUSH2 0x13A6 JUMPI PUSH0 DUP1 REVERT JUMPDEST POP JUMP JUMPDEST PUSH4 0x4E487B71 PUSH1 0xE0 SHL PUSH0 MSTORE PUSH1 0x41 PUSH1 0x4 MSTORE PUSH1 0x24 PUSH0 REVERT JUMPDEST PUSH1 0x40 MLOAD PUSH2 0x180 DUP2 ADD PUSH8 0xFFFFFFFFFFFFFFFF DUP2 GT DUP3 DUP3 LT OR ISZERO PUSH2 0x13E1 JUMPI PUSH2 0x13E1 PUSH2 0x13A9 JUMP JUMPDEST PUSH1 0x40 MSTORE SWAP1 JUMP JUMPDEST PUSH1 0x40 MLOAD PUSH2 0x280 DUP2 ADD PUSH8 0xFFFFFFFFFFFFFFFF DUP2 GT DUP3 DUP3 LT OR ISZERO PUSH2 0x13E1 JUMPI PUSH2 0x13E1 PUSH2 0x13A9 JUMP JUMPDEST PUSH1 0x40 MLOAD PUSH1 0x1F DUP3 ADD PUSH1 0x1F NOT AND DUP2 ADD PUSH8 0xFFFFFFFFFFFFFFFF DUP2 GT DUP3 DUP3 LT OR ISZERO PUSH2 0x1434 JUMPI PUSH2 0x1434 PUSH2 0x13A9 JUMP JUMPDEST PUSH1 0x40 MSTORE SWAP2 SWAP1 POP JUMP JUMPDEST PUSH0 DUP3 PUSH1 0x1F DUP4 ADD SLT PUSH2 0x144B JUMPI PUSH0 DUP1 REVERT JUMPDEST DUP2 CALLDATALOAD PUSH1 0x20 PUSH8 0xFFFFFFFFFFFFFFFF DUP3 GT ISZERO PUSH2 0x1467 JUMPI PUSH2 0x1467 PUSH2 0x13A9 JUMP JUMPDEST DUP2 PUSH1 0x5 SHL PUSH2 0x1476 DUP3 DUP3 ADD PUSH2 0x140B JUMP JUMPDEST SWAP3 DUP4 MSTORE DUP5 DUP2 ADD DUP3 ADD SWAP3 DUP3 DUP2 ADD SWAP1 DUP8 DUP6 GT ISZERO PUSH2 0x148F JUMPI PUSH0 DUP1 REVERT JUMPDEST DUP4 DUP8 ADD SWAP3 POP JUMPDEST DUP5 DUP4 LT ISZERO PUSH2 0x14BF JUMPI DUP3 CALLDATALOAD PUSH3 0xFFFFFF DUP2 AND DUP2 EQ PUSH2 0x14B0 JUMPI PUSH0 DUP1 DUP2 REVERT JUMPDEST DUP3 MSTORE SWAP2 DUP4 ADD SWAP2 SWAP1 DUP4 ADD SWAP1 PUSH2 0x1495 JUMP JUMPDEST SWAP8 SWAP7 POP POP POP POP POP POP POP JUMP JUMPDEST PUSH0 DUP1 PUSH0 DUP1 PUSH0 DUP1 PUSH0 PUSH1 0xE0 DUP9 DUP11 SUB SLT ISZERO PUSH2 0x14E0 JUMPI PUSH0 DUP1 REVERT JUMPDEST DUP8 CALLDATALOAD PUSH2 0x14EB DUP2 PUSH2 0x1392 JUMP JUMPDEST SWAP7 POP PUSH1 0x20 DUP9 ADD CALLDATALOAD PUSH2 0x14FB DUP2 PUSH2 0x1392 JUMP JUMPDEST SWAP6 POP PUSH1 0x40 DUP9 ADD CALLDATALOAD PUSH2 0x150B DUP2 PUSH2 0x1392 JUMP JUMPDEST SWAP5 POP PUSH1 0x60 DUP9 ADD CALLDATALOAD SWAP4 POP PUSH1 0x80 DUP9 ADD CALLDATALOAD SWAP3 POP PUSH1 0xA0 DUP9 ADD CALLDATALOAD PUSH2 0x1529 DUP2 PUSH2 0x1392 JUMP JUMPDEST SWAP2 POP PUSH1 0xC0 DUP9 ADD CALLDATALOAD PUSH8 0xFFFFFFFFFFFFFFFF DUP2 GT ISZERO PUSH2 0x1544 JUMPI PUSH0 DUP1 REVERT JUMPDEST PUSH2 0x1550 DUP11 DUP3 DUP12 ADD PUSH2 0x143C JUMP JUMPDEST SWAP2 POP POP SWAP3 SWAP6 SWAP9 SWAP2 SWAP5 SWAP8 POP SWAP3 SWAP6 POP JUMP JUMPDEST PUSH0 DUP1 PUSH0 DUP1 PUSH0 PUSH1 0xA0 DUP7 DUP9 SUB SLT ISZERO PUSH2 0x1573 JUMPI PUSH0 DUP1 REVERT JUMPDEST DUP6 CALLDATALOAD PUSH2 0x157E DUP2 PUSH2 0x1392 JUMP JUMPDEST SWAP5 POP PUSH1 0x20 DUP7 ADD CALLDATALOAD PUSH2 0x158E DUP2 PUSH2 0x1392 JUMP JUMPDEST SWAP4 POP PUSH1 0x40 DUP7 ADD CALLDATALOAD SWAP3 POP PUSH1 0x60 DUP7 ADD CALLDATALOAD PUSH2 0x15A5 DUP2 PUSH2 0x1392 JUMP JUMPDEST SWAP2 POP PUSH1 0x80 DUP7 ADD CALLDATALOAD PUSH8 0xFFFFFFFFFFFFFFFF DUP2 GT ISZERO PUSH2 0x15C0 JUMPI PUSH0 DUP1 REVERT JUMPDEST PUSH2 0x15CC DUP9 DUP3 DUP10 ADD PUSH2 0x143C JUMP JUMPDEST SWAP2 POP POP SWAP3 SWAP6 POP SWAP3 SWAP6 SWAP1 SWAP4 POP JUMP JUMPDEST PUSH0 DUP1 PUSH0 DUP1 PUSH0 DUP1 PUSH1 0xC0 DUP8 DUP10 SUB SLT ISZERO PUSH2 0x15EE JUMPI PUSH0 DUP1 REVERT JUMPDEST DUP7 CALLDATALOAD PUSH2 0x15F9 DUP2 PUSH2 0x1392 JUMP JUMPDEST SWAP6 POP PUSH1 0x20 DUP8 ADD CALLDATALOAD PUSH2 0x1609 DUP2 PUSH2 0x1392 JUMP JUMPDEST SWAP5 POP PUSH1 0x40 DUP8 ADD CALLDATALOAD PUSH2 0x1619 DUP2 PUSH2 0x1392 JUMP JUMPDEST SWAP4 POP PUSH1 0x60 DUP8 ADD CALLDATALOAD PUSH2 0x1629 DUP2 PUSH2 0x1392 JUMP JUMPDEST SWAP3 POP PUSH1 0x80 DUP8 ADD CALLDATALOAD SWAP2 POP PUSH1 0xA0 DUP8 ADD CALLDATALOAD PUSH8 0xFFFFFFFFFFFFFFFF DUP2 GT ISZERO PUSH2 0x164B JUMPI PUSH0 DUP1 REVERT JUMPDEST PUSH2 0x1657 DUP10 DUP3 DUP11 ADD PUSH2 0x143C JUMP JUMPDEST SWAP2 POP POP SWAP3 SWAP6 POP SWAP3 SWAP6 POP SWAP3 SWAP6 JUMP JUMPDEST PUSH0 DUP1 PUSH0 DUP1 PUSH0 DUP1 PUSH0 PUSH1 0xE0 DUP9 DUP11 SUB SLT ISZERO PUSH2 0x167A JUMPI PUSH0 DUP1 REVERT JUMPDEST DUP8 CALLDATALOAD PUSH2 0x1685 DUP2 PUSH2 0x1392 JUMP JUMPDEST SWAP7 POP PUSH1 0x20 DUP9 ADD CALLDATALOAD PUSH2 0x1695 DUP2 PUSH2 0x1392 JUMP JUMPDEST SWAP6 POP PUSH1 0x40 DUP9 ADD CALLDATALOAD PUSH2 0x16A5 DUP2 PUSH2 0x1392 JUMP JUMPDEST SWAP5 POP PUSH1 0x60 DUP9 ADD CALLDATALOAD PUSH2 0x16B5 DUP2 PUSH2 0x1392 JUMP JUMPDEST SWAP4 POP PUSH1 0x80 DUP9 ADD CALLDATALOAD SWAP3 POP PUSH1 0xA0 DUP9 ADD CALLDATALOAD SWAP2 POP PUSH1 0xC0 DUP9 ADD CALLDATALOAD PUSH8 0xFFFFFFFFFFFFFFFF DUP2 GT ISZERO PUSH2 0x1544 JUMPI PUSH0 DUP1 REVERT JUMPDEST DUP1 MLOAD PUSH2 0x16E9 DUP2 PUSH2 0x1392 JUMP JUMPDEST SWAP2 SWAP1 POP JUMP JUMPDEST PUSH0 PUSH1 0x20 DUP3 DUP5 SUB SLT ISZERO PUSH2 0x16FE JUMPI PUSH0 DUP1 REVERT JUMPDEST DUP2 MLOAD PUSH2 0x1709 DUP2 PUSH2 0x1392 JUMP JUMPDEST SWAP4 SWAP3 POP POP POP JUMP JUMPDEST PUSH0 PUSH32 0x8000000000000000000000000000000000000000000000000000000000000000 DUP3 SUB PUSH2 0x174C JUMPI PUSH4 0x4E487B71 PUSH1 0xE0 SHL PUSH0 MSTORE PUSH1 0x11 PUSH1 0x4 MSTORE PUSH1 0x24 PUSH0 REVERT JUMPDEST POP PUSH0 SUB SWAP1 JUMP JUMPDEST PUSH0 PUSH1 0x20 DUP3 DUP5 SUB SLT ISZERO PUSH2 0x1762 JUMPI PUSH0 DUP1 REVERT JUMPDEST POP MLOAD SWAP2 SWAP1 POP JUMP JUMPDEST PUSH0 JUMPDEST DUP4 DUP2 LT ISZERO PUSH2 0x1783 JUMPI DUP2 DUP2 ADD MLOAD DUP4 DUP3 ADD MSTORE PUSH1 0x20 ADD PUSH2 0x176B JUMP JUMPDEST POP POP PUSH0 SWAP2 ADD MSTORE JUMP JUMPDEST PUSH0 DUP3 MLOAD PUSH2 0x179C DUP2 DUP5 PUSH1 0x20 DUP8 ADD PUSH2 0x1769 JUMP JUMPDEST SWAP2 SWAP1 SWAP2 ADD SWAP3 SWAP2 POP POP JUMP JUMPDEST PUSH0 PUSH1 0x20 DUP3 DUP5 SUB SLT ISZERO PUSH2 0x17B6 JUMPI PUSH0 DUP1 REVERT JUMPDEST DUP2 MLOAD DUP1 ISZERO ISZERO DUP2 EQ PUSH2 0x1709 JUMPI PUSH0 DUP1 REVERT JUMPDEST PUSH4 0x4E487B71 PUSH1 0xE0 SHL PUSH0 MSTORE PUSH1 0x32 PUSH1 0x4 MSTORE PUSH1 0x24 PUSH0 REVERT JUMPDEST PUSH1 0x20 DUP2 MSTORE PUSH0 DUP3 MLOAD PUSH1 0xA0 PUSH1 0x20 DUP5 ADD MSTORE DUP1 MLOAD DUP1 PUSH1 0xC0 DUP6 ADD MSTORE PUSH2 0x1800 DUP2 PUSH1 0xE0 DUP7 ADD PUSH1 0x20 DUP6 ADD PUSH2 0x1769 JUMP JUMPDEST PUSH1 0x1 PUSH1 0x1 PUSH1 0xA0 SHL SUB PUSH1 0x20 DUP7 ADD MLOAD AND PUSH1 0x40 DUP6 ADD MSTORE PUSH1 0x40 DUP6 ADD MLOAD PUSH1 0x60 DUP6 ADD MSTORE PUSH1 0x60 DUP6 ADD MLOAD PUSH1 0x80 DUP6 ADD MSTORE PUSH1 0x80 DUP6 ADD MLOAD PUSH1 0xA0 DUP6 ADD MSTORE PUSH1 0xE0 PUSH1 0x1F NOT PUSH1 0x1F DUP4 ADD AND DUP6 ADD ADD SWAP3 POP POP POP SWAP3 SWAP2 POP POP JUMP JUMPDEST PUSH0 DUP3 PUSH1 0x1F DUP4 ADD SLT PUSH2 0x1857 JUMPI PUSH0 DUP1 REVERT JUMPDEST DUP2 MLOAD PUSH8 0xFFFFFFFFFFFFFFFF DUP2 GT ISZERO PUSH2 0x1871 JUMPI PUSH2 0x1871 PUSH2 0x13A9 JUMP JUMPDEST PUSH2 0x1884 PUSH1 0x1F DUP3 ADD PUSH1 0x1F NOT AND PUSH1 0x20 ADD PUSH2 0x140B JUMP JUMPDEST DUP2 DUP2 MSTORE DUP5 PUSH1 0x20 DUP4 DUP7 ADD ADD GT ISZERO PUSH2 0x1898 JUMPI PUSH0 DUP1 REVERT JUMPDEST PUSH2 0x18A9 DUP3 PUSH1 0x20 DUP4 ADD PUSH1 0x20 DUP8 ADD PUSH2 0x1769 JUMP JUMPDEST SWAP5 SWAP4 POP POP POP POP JUMP JUMPDEST PUSH0 PUSH1 0x20 DUP3 DUP5 SUB SLT ISZERO PUSH2 0x18C1 JUMPI PUSH0 DUP1 REVERT JUMPDEST DUP2 MLOAD PUSH8 0xFFFFFFFFFFFFFFFF DUP1 DUP3 GT ISZERO PUSH2 0x18D8 JUMPI PUSH0 DUP1 REVERT JUMPDEST SWAP1 DUP4 ADD SWAP1 PUSH2 0x180 DUP3 DUP7 SUB SLT ISZERO PUSH2 0x18EC JUMPI PUSH0 DUP1 REVERT JUMPDEST PUSH2 0x18F4 PUSH2 0x13BD JUMP JUMPDEST DUP3 MLOAD DUP2 MSTORE PUSH1 0x20 DUP4 ADD MLOAD PUSH1 0x20 DUP3 ADD MSTORE PUSH1 0x40 DUP4 ADD MLOAD PUSH1 0x40 DUP3 ADD MSTORE PUSH1 0x60 DUP4 ADD MLOAD PUSH1 0x60 DUP3 ADD MSTORE PUSH1 0x80 DUP4 ADD MLOAD PUSH1 0x80 DUP3 ADD MSTORE PUSH2 0x192C PUSH1 0xA0 DUP5 ADD PUSH2 0x16DE JUMP JUMPDEST PUSH1 0xA0 DUP3 ADD MSTORE PUSH2 0x193D PUSH1 0xC0 DUP5 ADD PUSH2 0x16DE JUMP JUMPDEST PUSH1 0xC0 DUP3 ADD MSTORE PUSH2 0x194E PUSH1 0xE0 DUP5 ADD PUSH2 0x16DE JUMP JUMPDEST PUSH1 0xE0 DUP3 ADD MSTORE PUSH2 0x100 DUP1 DUP5 ADD MLOAD DUP4 DUP2 GT ISZERO PUSH2 0x1966 JUMPI PUSH0 DUP1 REVERT JUMPDEST PUSH2 0x1972 DUP9 DUP3 DUP8 ADD PUSH2 0x1848 JUMP JUMPDEST DUP3 DUP5 ADD MSTORE POP POP PUSH2 0x120 DUP1 DUP5 ADD MLOAD DUP4 DUP2 GT ISZERO PUSH2 0x198B JUMPI PUSH0 DUP1 REVERT JUMPDEST PUSH2 0x1997 DUP9 DUP3 DUP8 ADD PUSH2 0x1848 JUMP JUMPDEST SWAP2 DUP4 ADD SWAP2 SWAP1 SWAP2 MSTORE POP PUSH2 0x140 DUP4 DUP2 ADD MLOAD SWAP1 DUP3 ADD MSTORE PUSH2 0x160 SWAP3 DUP4 ADD MLOAD SWAP3 DUP2 ADD SWAP3 SWAP1 SWAP3 MSTORE POP SWAP4 SWAP3 POP POP POP JUMP JUMPDEST PUSH0 PUSH2 0x280 DUP3 DUP5 SUB SLT ISZERO PUSH2 0x19D1 JUMPI PUSH0 DUP1 REVERT JUMPDEST PUSH2 0x19D9 PUSH2 0x13E7 JUMP JUMPDEST DUP3 MLOAD DUP2 MSTORE PUSH1 0x20 DUP1 DUP5 ADD MLOAD SWAP1 DUP3 ADD MSTORE PUSH1 0x40 DUP1 DUP5 ADD MLOAD SWAP1 DUP3 ADD MSTORE PUSH1 0x60 DUP1 DUP5 ADD MLOAD SWAP1 DUP3 ADD MSTORE PUSH1 0x80 DUP1 DUP5 ADD MLOAD SWAP1 DUP3 ADD MSTORE PUSH1 0xA0 DUP1 DUP5 ADD MLOAD SWAP1 DUP3 ADD MSTORE PUSH1 0xC0 DUP1 DUP5 ADD MLOAD SWAP1 DUP3 ADD MSTORE PUSH1 0xE0 DUP1 DUP5 ADD MLOAD SWAP1 DUP3 ADD MSTORE PUSH2 0x100 DUP1 DUP5 ADD MLOAD SWAP1 DUP3 ADD MSTORE PUSH2 0x120 DUP1 DUP5 ADD MLOAD SWAP1 DUP3 ADD MSTORE PUSH2 0x140 DUP1 DUP5 ADD MLOAD SWAP1 DUP3 ADD MSTORE PUSH2 0x160 DUP1 DUP5 ADD MLOAD SWAP1 DUP3 ADD MSTORE PUSH2 0x180 DUP1 DUP5 ADD MLOAD SWAP1 DUP3 ADD MSTORE PUSH2 0x1A0 DUP1 DUP5 ADD MLOAD SWAP1 DUP3 ADD MSTORE PUSH2 0x1C0 DUP1 DUP5 ADD MLOAD SWAP1 DUP3 ADD MSTORE PUSH2 0x1E0 DUP1 DUP5 ADD MLOAD SWAP1 DUP3 ADD MSTORE PUSH2 0x200 DUP1 DUP5 ADD MLOAD SWAP1 DUP3 ADD MSTORE PUSH2 0x220 DUP1 DUP5 ADD MLOAD SWAP1 DUP3 ADD MSTORE PUSH2 0x240 DUP1 DUP5 ADD MLOAD SWAP1 DUP3 ADD MSTORE PUSH2 0x260 SWAP3 DUP4 ADD MLOAD SWAP3 DUP2 ADD SWAP3 SWAP1 SWAP3 MSTORE POP SWAP2 SWAP1 POP JUMP INVALID LOG2 PUSH5 0x6970667358 0x22 SLT KECCAK256 PUSH14 0x59090D022D014678F8F928FD0837 0xC3 DUP5 PUSH6 0xF1A7BACD4476 PUSH13 0x8266308FD9816F64736F6C6343 STOP ADDMOD EQ STOP CALLER "
		},
		"gasEstimates": {
			"creation": {
				"codeDepositCost": "1377200",
				"executionCost": "infinite",
				"totalCost": "infinite"
			},
			"external": {
				"cometAddress()": "248",
				"compBorrow(address,address,address,uint256,uint256,address,uint24[])": "infinite",
				"compRepay(address,address,address,address,uint256,uint256,uint24[])": "infinite",
				"controller()": "infinite",
				"helper()": "249",
				"redeem(address,address,int256,address,uint24[])": "infinite",
				"swapRouter()": "270",
				"uniBorrow(address,address,address,uint256,int256,address,uint24[])": "infinite",
				"uniRepay(address,address,address,address,uint256,uint24[])": "infinite",
				"unilendCore()": "248",
				"unilendPosition()": "225"
			},
			"internal": {
				"exactInputSwap(address,address,address,uint256,uint24[] memory)": "infinite",
				"getPoolData(address,address,address)": "infinite"
			}
		},
		"methodIdentifiers": {
			"cometAddress()": "6bbb194b",
			"compBorrow(address,address,address,uint256,uint256,address,uint24[])": "a36cc4cd",
			"compRepay(address,address,address,address,uint256,uint256,uint24[])": "e2bdb2c6",
			"controller()": "f77c4791",
			"helper()": "63b0e66a",
			"redeem(address,address,int256,address,uint24[])": "687a1204",
			"swapRouter()": "c31c9c07",
			"uniBorrow(address,address,address,uint256,int256,address,uint24[])": "315a1451",
			"uniRepay(address,address,address,address,uint256,uint24[])": "b5c8b759",
			"unilendCore()": "b93bc415",
			"unilendPosition()": "e1ab2228"
		}
	},
	"abi": [
		{
			"inputs": [],
			"stateMutability": "nonpayable",
			"type": "constructor"
		},
		{
			"anonymous": false,
			"inputs": [
				{
					"indexed": true,
					"internalType": "address",
					"name": "tokenAddress",
					"type": "address"
				},
				{
					"indexed": true,
					"internalType": "address",
					"name": "user",
					"type": "address"
				},
				{
					"indexed": false,
					"internalType": "int256",
					"name": "amount",
					"type": "int256"
				},
				{
					"indexed": false,
					"internalType": "uint256",
					"name": "time",
					"type": "uint256"
				}
			],
			"name": "Borrowed",
			"type": "event"
		},
		{
			"anonymous": false,
			"inputs": [
				{
					"indexed": true,
					"internalType": "uint256",
					"name": "value1",
					"type": "uint256"
				},
				{
					"indexed": true,
					"internalType": "uint256",
					"name": "value2",
					"type": "uint256"
				},
				{
					"indexed": true,
					"internalType": "uint256",
					"name": "value3",
					"type": "uint256"
				}
			],
			"name": "Log",
			"type": "event"
		},
		{
			"inputs": [],
			"name": "cometAddress",
			"outputs": [
				{
					"internalType": "contract IComet",
					"name": "",
					"type": "address"
				}
			],
			"stateMutability": "view",
			"type": "function"
		},
		{
			"inputs": [
				{
					"internalType": "address",
					"name": "_supplyAsset",
					"type": "address"
				},
				{
					"internalType": "address",
					"name": "_borrowAsset",
					"type": "address"
				},
				{
					"internalType": "address",
					"name": "_tokenOut",
					"type": "address"
				},
				{
					"internalType": "uint256",
					"name": "_supplyAmount",
					"type": "uint256"
				},
				{
					"internalType": "uint256",
					"name": "_borrowAmount",
					"type": "uint256"
				},
				{
					"internalType": "address",
					"name": "_user",
					"type": "address"
				},
				{
					"internalType": "uint24[]",
					"name": "_route",
					"type": "uint24[]"
				}
			],
			"name": "compBorrow",
			"outputs": [],
			"stateMutability": "nonpayable",
			"type": "function"
		},
		{
			"inputs": [
				{
					"internalType": "address",
					"name": "_borrowedToken",
					"type": "address"
				},
				{
					"internalType": "address",
					"name": "_tokenIn",
					"type": "address"
				},
				{
					"internalType": "address",
					"name": "_user",
					"type": "address"
				},
				{
					"internalType": "address",
					"name": "_collateralToken",
					"type": "address"
				},
				{
					"internalType": "uint256",
					"name": "_collateralAmount",
					"type": "uint256"
				},
				{
					"internalType": "uint256",
					"name": "_repayAmount",
					"type": "uint256"
				},
				{
					"internalType": "uint24[]",
					"name": "_route",
					"type": "uint24[]"
				}
			],
			"name": "compRepay",
			"outputs": [],
			"stateMutability": "nonpayable",
			"type": "function"
		},
		{
			"inputs": [],
			"name": "controller",
			"outputs": [
				{
					"internalType": "address",
					"name": "",
					"type": "address"
				}
			],
			"stateMutability": "view",
			"type": "function"
		},
		{
			"inputs": [],
			"name": "helper",
			"outputs": [
				{
					"internalType": "contract IUnilendHelper",
					"name": "",
					"type": "address"
				}
			],
			"stateMutability": "view",
			"type": "function"
		},
		{
			"inputs": [
				{
					"internalType": "address",
					"name": "_pool",
					"type": "address"
				},
				{
					"internalType": "address",
					"name": "_user",
					"type": "address"
				},
				{
					"internalType": "int256",
					"name": "_amount",
					"type": "int256"
				},
				{
					"internalType": "address",
					"name": "_tokenOut",
					"type": "address"
				},
				{
					"internalType": "uint24[]",
					"name": "_route",
					"type": "uint24[]"
				}
			],
			"name": "redeem",
			"outputs": [],
			"stateMutability": "nonpayable",
			"type": "function"
		},
		{
			"inputs": [],
			"name": "swapRouter",
			"outputs": [
				{
					"internalType": "contract ISwapRouter",
					"name": "",
					"type": "address"
				}
			],
			"stateMutability": "view",
			"type": "function"
		},
		{
			"inputs": [
				{
					"internalType": "address",
					"name": "_pool",
					"type": "address"
				},
				{
					"internalType": "address",
					"name": "_supplyAsset",
					"type": "address"
				},
				{
					"internalType": "address",
					"name": "_tokenOUt",
					"type": "address"
				},
				{
					"internalType": "uint256",
					"name": "_collateral_amount",
					"type": "uint256"
				},
				{
					"internalType": "int256",
					"name": "_amount",
					"type": "int256"
				},
				{
					"internalType": "address",
					"name": "_user",
					"type": "address"
				},
				{
					"internalType": "uint24[]",
					"name": "_route",
					"type": "uint24[]"
				}
			],
			"name": "uniBorrow",
			"outputs": [],
			"stateMutability": "nonpayable",
			"type": "function"
		},
		{
			"inputs": [
				{
					"internalType": "address",
					"name": "_pool",
					"type": "address"
				},
				{
					"internalType": "address",
					"name": "_tokenIn",
					"type": "address"
				},
				{
					"internalType": "address",
					"name": "_user",
					"type": "address"
				},
				{
					"internalType": "address",
					"name": "_borrowAddress",
					"type": "address"
				},
				{
					"internalType": "uint256",
					"name": "_repayAmount",
					"type": "uint256"
				},
				{
					"internalType": "uint24[]",
					"name": "_route",
					"type": "uint24[]"
				}
			],
			"name": "uniRepay",
			"outputs": [],
			"stateMutability": "nonpayable",
			"type": "function"
		},
		{
			"inputs": [],
			"name": "unilendCore",
			"outputs": [
				{
					"internalType": "contract IUnilendV2Core",
					"name": "",
					"type": "address"
				}
			],
			"stateMutability": "view",
			"type": "function"
		},
		{
			"inputs": [],
			"name": "unilendPosition",
			"outputs": [
				{
					"internalType": "contract IUnilendV2Position",
					"name": "",
					"type": "address"
				}
			],
			"stateMutability": "view",
			"type": "function"
		}
	]
}