{
	"data": {
		"bytecode": {
			"linkReferences": {},
			"object": "60a060405234801561000f575f80fd5b5033608052608051610e9761002c5f395f6101580152610e975ff3fe608060405234801561000f575f80fd5b5060043610610085575f3560e01c8063b93bc41511610058578063b93bc415146100fc578063c31c9c0714610117578063de63a93514610132578063f77c479114610153575f80fd5b8063501f5dbe146100895780636bbb194b1461009e5780638f558189146100d6578063a6d7f530146100e9575b5f80fd5b61009c610097366004610adc565b61017a565b005b6100b973f25212e676d1f7f89cd72ffee66158f54124644581565b6040516001600160a01b0390911681526020015b60405180910390f35b61009c6100e4366004610b3e565b61029d565b61009c6100f7366004610bb1565b6103ac565b6100b97317dad892347803551ceee2d377d010034df6434781565b6100b973e592427a0aece92de3edee1f18e0157c0586156481565b610145610140366004610c13565b61054e565b6040519081526020016100cd565b6100b97f000000000000000000000000000000000000000000000000000000000000000081565b846001600160a01b0316866001600160a01b0316146101a5576101a585878684610bb86127106106ae565b6101c58673f25212e676d1f7f89cd72ffee66158f5412464455f19610846565b604051634232cd6360e01b815273f25212e676d1f7f89cd72ffee66158f54124644590634232cd63906102009030908a908690600401610c7d565b5f604051808303815f87803b158015610217575f80fd5b505af1158015610229573d5f803e3d5ffd5b50506040516361d9ad3f60e11b815273f25212e676d1f7f89cd72ffee66158f541246445925063c3b35a7e915061026890309087908790600401610c7d565b5f604051808303815f87803b15801561027f575f80fd5b505af1158015610291573d5f803e3d5ffd5b50505050505050505050565b6102bc867317dad892347803551ceee2d377d010034df6434785610846565b60405163046f74a360e51b81526001600160a01b038816600482015260248101839052604481018490523060648201527317dad892347803551ceee2d377d010034df6434790638dee9460906084015f604051808303815f87803b158015610322575f80fd5b505af1158015610334573d5f803e3d5ffd5b505050505f82121561034c5761034982610ca1565b91505b6040805183815242602082015233916001600160a01b038716917f5c06a1aaf5c5275372ca9abaf754ad6a6887f107a8e8f557854f7cc8fb06327c910160405180910390a36103a384868385610bb8612710610945565b50505050505050565b6040516370a0823160e01b8152306004820152610445906001600160a01b038816906370a0823190602401602060405180830381865afa1580156103f2573d5f803e3d5ffd5b505050506040513d601f19601f820116820180604052508101906104169190610cc7565b6040518060400160405280601181526020017062616c616e6365206f6620737570706c7960781b815250610a0c565b6104648673f25212e676d1f7f89cd72ffee66158f54124644585610846565b604051634232cd6360e01b815273f25212e676d1f7f89cd72ffee66158f54124644590634232cd639061049f9030908a908890600401610c7d565b5f604051808303815f87803b1580156104b6575f80fd5b505af11580156104c8573d5f803e3d5ffd5b50506040516361d9ad3f60e11b815273f25212e676d1f7f89cd72ffee66158f541246445925063c3b35a7e915061050790309089908790600401610c7d565b5f604051808303815f87803b15801561051e575f80fd5b505af1158015610530573d5f803e3d5ffd5b5050505061054685858385610bb8612710610945565b505050505050565b5f866001600160a01b0316866001600160a01b03161461058e575f82121561057c5761057982610ca1565b90505b61058e87878784610bb86127106106ae565b604051638262654760e01b81526001600160a01b03808a16600483015260248201849052861660448201527317dad892347803551ceee2d377d010034df64347906382626547906064016020604051808303815f875af11580156105f4573d5f803e3d5ffd5b505050506040513d601f19601f820116820180604052508101906106189190610cc7565b506040516399cd69d160e01b815260048101859052602481018490526001600160a01b03861660448201527317dad892347803551ceee2d377d010034df64347906399cd69d1906064016020604051808303815f875af115801561067e573d5f803e3d5ffd5b505050506040513d601f19601f820116820180604052508101906106a29190610cc7565b50979650505050505050565b6106ce8673e592427a0aece92de3edee1f18e0157c058615645f19610846565b6040805160a081019091525f90806107018986730d500b1d8e8ef31e21c99d1db9a6444d3adf1270878c60c08701610cde565b6040516020818303038152906040528152602001866001600160a01b031681526020014281526020018581526020015f815250905073e592427a0aece92de3edee1f18e0157c058615646001600160a01b031663f28c0498826040518263ffffffff1660e01b81526004016107769190610dcd565b6020604051808303815f875af1158015610792573d5f803e3d5ffd5b505050506040513d601f19601f820116820180604052508101906107b69190610cc7565b5060408051808201825260078152661cddd85c1c195960ca1b602082015290516370a0823160e01b81526001600160a01b0387811660048301526103a39291908916906370a0823190602401602060405180830381865afa15801561081d573d5f803e3d5ffd5b505050506040513d601f19601f820116820180604052508101906108419190610cc7565b610a55565b604080516001600160a01b038481166024830152604480830185905283518084039091018152606490920183526020820180516001600160e01b031663095ea7b360e01b17905291515f928392908716916108a19190610de6565b5f604051808303815f865af19150503d805f81146108da576040519150601f19603f3d011682016040523d82523d5f602084013e6108df565b606091505b50915091508180156109095750805115806109095750808060200190518101906109099190610e01565b61093e5760405162461bcd60e51b8152602060048201526002602482015261534160f01b604482015260640160405180910390fd5b5050505050565b6109648673e592427a0aece92de3edee1f18e0157c0586156485610846565b6040805160a081019091525f90806109978986730d500b1d8e8ef31e21c99d1db9a6444d3adf1270878c60c08701610cde565b6040516020818303038152906040528152602001866001600160a01b031681526020014281526020018581526020015f815250905073e592427a0aece92de3edee1f18e0157c058615646001600160a01b031663c04b8d59826040518263ffffffff1660e01b81526004016107769190610dcd565b610a518282604051602401610a22929190610e20565b60408051601f198184030181529190526020810180516001600160e01b031663643fd0df60e01b179052610a96565b5050565b610a518282604051602401610a6b929190610e40565b60408051601f198184030181529190526020810180516001600160e01b0316632d839cb360e21b1790525b610a9f81610aa2565b50565b5f6a636f6e736f6c652e6c6f6790505f80835160208501845afa505050565b80356001600160a01b0381168114610ad7575f80fd5b919050565b5f805f805f8060c08789031215610af1575f80fd5b610afa87610ac1565b9550610b0860208801610ac1565b9450610b1660408801610ac1565b9350610b2460608801610ac1565b92506080870135915060a087013590509295509295509295565b5f805f805f805f60e0888a031215610b54575f80fd5b610b5d88610ac1565b9650610b6b60208901610ac1565b9550610b7960408901610ac1565b9450610b8760608901610ac1565b93506080880135925060a08801359150610ba360c08901610ac1565b905092959891949750929550565b5f805f805f8060c08789031215610bc6575f80fd5b610bcf87610ac1565b9550610bdd60208801610ac1565b9450610beb60408801610ac1565b93506060870135925060808701359150610c0760a08801610ac1565b90509295509295509295565b5f805f805f805f60e0888a031215610c29575f80fd5b610c3288610ac1565b9650610c4060208901610ac1565b9550610c4e60408901610ac1565b9450610c5c60608901610ac1565b9699959850939660808101359560a0820135955060c0909101359350915050565b6001600160a01b039384168152919092166020820152604081019190915260600190565b5f600160ff1b8201610cc157634e487b7160e01b5f52601160045260245ffd5b505f0390565b5f60208284031215610cd7575f80fd5b5051919050565b6bffffffffffffffffffffffff19606096871b811682526001600160e81b031960e896871b8116601484015294871b811660178301529290941b909216602b840152921b909116602e82015260420190565b5f5b83811015610d4a578181015183820152602001610d32565b50505f910152565b5f8151808452610d69816020860160208601610d30565b601f01601f19169290920160200192915050565b5f815160a08452610d9160a0850182610d52565b6020848101516001600160a01b031690860152604080850151908601526060808501519086015260809384015193909401929092525090919050565b602081525f610ddf6020830184610d7d565b9392505050565b5f8251610df7818460208701610d30565b9190910192915050565b5f60208284031215610e11575f80fd5b81518015158114610ddf575f80fd5b828152604060208201525f610e386040830184610d52565b949350505050565b604081525f610e526040830185610d52565b9050826020830152939250505056fea26469706673582212207b8c441d93a9512cdb8bb5a92e9d62ef520ea52c8269d1fc6c6abc9d0755f71d64736f6c63430008140033",
			"opcodes": "PUSH1 0xA0 PUSH1 0x40 MSTORE CALLVALUE DUP1 ISZERO PUSH2 0xF JUMPI PUSH0 DUP1 REVERT JUMPDEST POP CALLER PUSH1 0x80 MSTORE PUSH1 0x80 MLOAD PUSH2 0xE97 PUSH2 0x2C PUSH0 CODECOPY PUSH0 PUSH2 0x158 ADD MSTORE PUSH2 0xE97 PUSH0 RETURN INVALID PUSH1 0x80 PUSH1 0x40 MSTORE CALLVALUE DUP1 ISZERO PUSH2 0xF JUMPI PUSH0 DUP1 REVERT JUMPDEST POP PUSH1 0x4 CALLDATASIZE LT PUSH2 0x85 JUMPI PUSH0 CALLDATALOAD PUSH1 0xE0 SHR DUP1 PUSH4 0xB93BC415 GT PUSH2 0x58 JUMPI DUP1 PUSH4 0xB93BC415 EQ PUSH2 0xFC JUMPI DUP1 PUSH4 0xC31C9C07 EQ PUSH2 0x117 JUMPI DUP1 PUSH4 0xDE63A935 EQ PUSH2 0x132 JUMPI DUP1 PUSH4 0xF77C4791 EQ PUSH2 0x153 JUMPI PUSH0 DUP1 REVERT JUMPDEST DUP1 PUSH4 0x501F5DBE EQ PUSH2 0x89 JUMPI DUP1 PUSH4 0x6BBB194B EQ PUSH2 0x9E JUMPI DUP1 PUSH4 0x8F558189 EQ PUSH2 0xD6 JUMPI DUP1 PUSH4 0xA6D7F530 EQ PUSH2 0xE9 JUMPI JUMPDEST PUSH0 DUP1 REVERT JUMPDEST PUSH2 0x9C PUSH2 0x97 CALLDATASIZE PUSH1 0x4 PUSH2 0xADC JUMP JUMPDEST PUSH2 0x17A JUMP JUMPDEST STOP JUMPDEST PUSH2 0xB9 PUSH20 0xF25212E676D1F7F89CD72FFEE66158F541246445 DUP2 JUMP JUMPDEST PUSH1 0x40 MLOAD PUSH1 0x1 PUSH1 0x1 PUSH1 0xA0 SHL SUB SWAP1 SWAP2 AND DUP2 MSTORE PUSH1 0x20 ADD JUMPDEST PUSH1 0x40 MLOAD DUP1 SWAP2 SUB SWAP1 RETURN JUMPDEST PUSH2 0x9C PUSH2 0xE4 CALLDATASIZE PUSH1 0x4 PUSH2 0xB3E JUMP JUMPDEST PUSH2 0x29D JUMP JUMPDEST PUSH2 0x9C PUSH2 0xF7 CALLDATASIZE PUSH1 0x4 PUSH2 0xBB1 JUMP JUMPDEST PUSH2 0x3AC JUMP JUMPDEST PUSH2 0xB9 PUSH20 0x17DAD892347803551CEEE2D377D010034DF64347 DUP2 JUMP JUMPDEST PUSH2 0xB9 PUSH20 0xE592427A0AECE92DE3EDEE1F18E0157C05861564 DUP2 JUMP JUMPDEST PUSH2 0x145 PUSH2 0x140 CALLDATASIZE PUSH1 0x4 PUSH2 0xC13 JUMP JUMPDEST PUSH2 0x54E JUMP JUMPDEST PUSH1 0x40 MLOAD SWAP1 DUP2 MSTORE PUSH1 0x20 ADD PUSH2 0xCD JUMP JUMPDEST PUSH2 0xB9 PUSH32 0x0 DUP2 JUMP JUMPDEST DUP5 PUSH1 0x1 PUSH1 0x1 PUSH1 0xA0 SHL SUB AND DUP7 PUSH1 0x1 PUSH1 0x1 PUSH1 0xA0 SHL SUB AND EQ PUSH2 0x1A5 JUMPI PUSH2 0x1A5 DUP6 DUP8 DUP7 DUP5 PUSH2 0xBB8 PUSH2 0x2710 PUSH2 0x6AE JUMP JUMPDEST PUSH2 0x1C5 DUP7 PUSH20 0xF25212E676D1F7F89CD72FFEE66158F541246445 PUSH0 NOT PUSH2 0x846 JUMP JUMPDEST PUSH1 0x40 MLOAD PUSH4 0x4232CD63 PUSH1 0xE0 SHL DUP2 MSTORE PUSH20 0xF25212E676D1F7F89CD72FFEE66158F541246445 SWAP1 PUSH4 0x4232CD63 SWAP1 PUSH2 0x200 SWAP1 ADDRESS SWAP1 DUP11 SWAP1 DUP7 SWAP1 PUSH1 0x4 ADD PUSH2 0xC7D JUMP JUMPDEST PUSH0 PUSH1 0x40 MLOAD DUP1 DUP4 SUB DUP2 PUSH0 DUP8 DUP1 EXTCODESIZE ISZERO DUP1 ISZERO PUSH2 0x217 JUMPI PUSH0 DUP1 REVERT JUMPDEST POP GAS CALL ISZERO DUP1 ISZERO PUSH2 0x229 JUMPI RETURNDATASIZE PUSH0 DUP1 RETURNDATACOPY RETURNDATASIZE PUSH0 REVERT JUMPDEST POP POP PUSH1 0x40 MLOAD PUSH4 0x61D9AD3F PUSH1 0xE1 SHL DUP2 MSTORE PUSH20 0xF25212E676D1F7F89CD72FFEE66158F541246445 SWAP3 POP PUSH4 0xC3B35A7E SWAP2 POP PUSH2 0x268 SWAP1 ADDRESS SWAP1 DUP8 SWAP1 DUP8 SWAP1 PUSH1 0x4 ADD PUSH2 0xC7D JUMP JUMPDEST PUSH0 PUSH1 0x40 MLOAD DUP1 DUP4 SUB DUP2 PUSH0 DUP8 DUP1 EXTCODESIZE ISZERO DUP1 ISZERO PUSH2 0x27F JUMPI PUSH0 DUP1 REVERT JUMPDEST POP GAS CALL ISZERO DUP1 ISZERO PUSH2 0x291 JUMPI RETURNDATASIZE PUSH0 DUP1 RETURNDATACOPY RETURNDATASIZE PUSH0 REVERT JUMPDEST POP POP POP POP POP POP POP POP POP POP JUMP JUMPDEST PUSH2 0x2BC DUP7 PUSH20 0x17DAD892347803551CEEE2D377D010034DF64347 DUP6 PUSH2 0x846 JUMP JUMPDEST PUSH1 0x40 MLOAD PUSH4 0x46F74A3 PUSH1 0xE5 SHL DUP2 MSTORE PUSH1 0x1 PUSH1 0x1 PUSH1 0xA0 SHL SUB DUP9 AND PUSH1 0x4 DUP3 ADD MSTORE PUSH1 0x24 DUP2 ADD DUP4 SWAP1 MSTORE PUSH1 0x44 DUP2 ADD DUP5 SWAP1 MSTORE ADDRESS PUSH1 0x64 DUP3 ADD MSTORE PUSH20 0x17DAD892347803551CEEE2D377D010034DF64347 SWAP1 PUSH4 0x8DEE9460 SWAP1 PUSH1 0x84 ADD PUSH0 PUSH1 0x40 MLOAD DUP1 DUP4 SUB DUP2 PUSH0 DUP8 DUP1 EXTCODESIZE ISZERO DUP1 ISZERO PUSH2 0x322 JUMPI PUSH0 DUP1 REVERT JUMPDEST POP GAS CALL ISZERO DUP1 ISZERO PUSH2 0x334 JUMPI RETURNDATASIZE PUSH0 DUP1 RETURNDATACOPY RETURNDATASIZE PUSH0 REVERT JUMPDEST POP POP POP POP PUSH0 DUP3 SLT ISZERO PUSH2 0x34C JUMPI PUSH2 0x349 DUP3 PUSH2 0xCA1 JUMP JUMPDEST SWAP2 POP JUMPDEST PUSH1 0x40 DUP1 MLOAD DUP4 DUP2 MSTORE TIMESTAMP PUSH1 0x20 DUP3 ADD MSTORE CALLER SWAP2 PUSH1 0x1 PUSH1 0x1 PUSH1 0xA0 SHL SUB DUP8 AND SWAP2 PUSH32 0x5C06A1AAF5C5275372CA9ABAF754AD6A6887F107A8E8F557854F7CC8FB06327C SWAP2 ADD PUSH1 0x40 MLOAD DUP1 SWAP2 SUB SWAP1 LOG3 PUSH2 0x3A3 DUP5 DUP7 DUP4 DUP6 PUSH2 0xBB8 PUSH2 0x2710 PUSH2 0x945 JUMP JUMPDEST POP POP POP POP POP POP POP JUMP JUMPDEST PUSH1 0x40 MLOAD PUSH4 0x70A08231 PUSH1 0xE0 SHL DUP2 MSTORE ADDRESS PUSH1 0x4 DUP3 ADD MSTORE PUSH2 0x445 SWAP1 PUSH1 0x1 PUSH1 0x1 PUSH1 0xA0 SHL SUB DUP9 AND SWAP1 PUSH4 0x70A08231 SWAP1 PUSH1 0x24 ADD PUSH1 0x20 PUSH1 0x40 MLOAD DUP1 DUP4 SUB DUP2 DUP7 GAS STATICCALL ISZERO DUP1 ISZERO PUSH2 0x3F2 JUMPI RETURNDATASIZE PUSH0 DUP1 RETURNDATACOPY RETURNDATASIZE PUSH0 REVERT JUMPDEST POP POP POP POP PUSH1 0x40 MLOAD RETURNDATASIZE PUSH1 0x1F NOT PUSH1 0x1F DUP3 ADD AND DUP3 ADD DUP1 PUSH1 0x40 MSTORE POP DUP2 ADD SWAP1 PUSH2 0x416 SWAP2 SWAP1 PUSH2 0xCC7 JUMP JUMPDEST PUSH1 0x40 MLOAD DUP1 PUSH1 0x40 ADD PUSH1 0x40 MSTORE DUP1 PUSH1 0x11 DUP2 MSTORE PUSH1 0x20 ADD PUSH17 0x62616C616E6365206F6620737570706C79 PUSH1 0x78 SHL DUP2 MSTORE POP PUSH2 0xA0C JUMP JUMPDEST PUSH2 0x464 DUP7 PUSH20 0xF25212E676D1F7F89CD72FFEE66158F541246445 DUP6 PUSH2 0x846 JUMP JUMPDEST PUSH1 0x40 MLOAD PUSH4 0x4232CD63 PUSH1 0xE0 SHL DUP2 MSTORE PUSH20 0xF25212E676D1F7F89CD72FFEE66158F541246445 SWAP1 PUSH4 0x4232CD63 SWAP1 PUSH2 0x49F SWAP1 ADDRESS SWAP1 DUP11 SWAP1 DUP9 SWAP1 PUSH1 0x4 ADD PUSH2 0xC7D JUMP JUMPDEST PUSH0 PUSH1 0x40 MLOAD DUP1 DUP4 SUB DUP2 PUSH0 DUP8 DUP1 EXTCODESIZE ISZERO DUP1 ISZERO PUSH2 0x4B6 JUMPI PUSH0 DUP1 REVERT JUMPDEST POP GAS CALL ISZERO DUP1 ISZERO PUSH2 0x4C8 JUMPI RETURNDATASIZE PUSH0 DUP1 RETURNDATACOPY RETURNDATASIZE PUSH0 REVERT JUMPDEST POP POP PUSH1 0x40 MLOAD PUSH4 0x61D9AD3F PUSH1 0xE1 SHL DUP2 MSTORE PUSH20 0xF25212E676D1F7F89CD72FFEE66158F541246445 SWAP3 POP PUSH4 0xC3B35A7E SWAP2 POP PUSH2 0x507 SWAP1 ADDRESS SWAP1 DUP10 SWAP1 DUP8 SWAP1 PUSH1 0x4 ADD PUSH2 0xC7D JUMP JUMPDEST PUSH0 PUSH1 0x40 MLOAD DUP1 DUP4 SUB DUP2 PUSH0 DUP8 DUP1 EXTCODESIZE ISZERO DUP1 ISZERO PUSH2 0x51E JUMPI PUSH0 DUP1 REVERT JUMPDEST POP GAS CALL ISZERO DUP1 ISZERO PUSH2 0x530 JUMPI RETURNDATASIZE PUSH0 DUP1 RETURNDATACOPY RETURNDATASIZE PUSH0 REVERT JUMPDEST POP POP POP POP PUSH2 0x546 DUP6 DUP6 DUP4 DUP6 PUSH2 0xBB8 PUSH2 0x2710 PUSH2 0x945 JUMP JUMPDEST POP POP POP POP POP POP JUMP JUMPDEST PUSH0 DUP7 PUSH1 0x1 PUSH1 0x1 PUSH1 0xA0 SHL SUB AND DUP7 PUSH1 0x1 PUSH1 0x1 PUSH1 0xA0 SHL SUB AND EQ PUSH2 0x58E JUMPI PUSH0 DUP3 SLT ISZERO PUSH2 0x57C JUMPI PUSH2 0x579 DUP3 PUSH2 0xCA1 JUMP JUMPDEST SWAP1 POP JUMPDEST PUSH2 0x58E DUP8 DUP8 DUP8 DUP5 PUSH2 0xBB8 PUSH2 0x2710 PUSH2 0x6AE JUMP JUMPDEST PUSH1 0x40 MLOAD PUSH4 0x82626547 PUSH1 0xE0 SHL DUP2 MSTORE PUSH1 0x1 PUSH1 0x1 PUSH1 0xA0 SHL SUB DUP1 DUP11 AND PUSH1 0x4 DUP4 ADD MSTORE PUSH1 0x24 DUP3 ADD DUP5 SWAP1 MSTORE DUP7 AND PUSH1 0x44 DUP3 ADD MSTORE PUSH20 0x17DAD892347803551CEEE2D377D010034DF64347 SWAP1 PUSH4 0x82626547 SWAP1 PUSH1 0x64 ADD PUSH1 0x20 PUSH1 0x40 MLOAD DUP1 DUP4 SUB DUP2 PUSH0 DUP8 GAS CALL ISZERO DUP1 ISZERO PUSH2 0x5F4 JUMPI RETURNDATASIZE PUSH0 DUP1 RETURNDATACOPY RETURNDATASIZE PUSH0 REVERT JUMPDEST POP POP POP POP PUSH1 0x40 MLOAD RETURNDATASIZE PUSH1 0x1F NOT PUSH1 0x1F DUP3 ADD AND DUP3 ADD DUP1 PUSH1 0x40 MSTORE POP DUP2 ADD SWAP1 PUSH2 0x618 SWAP2 SWAP1 PUSH2 0xCC7 JUMP JUMPDEST POP PUSH1 0x40 MLOAD PUSH4 0x99CD69D1 PUSH1 0xE0 SHL DUP2 MSTORE PUSH1 0x4 DUP2 ADD DUP6 SWAP1 MSTORE PUSH1 0x24 DUP2 ADD DUP5 SWAP1 MSTORE PUSH1 0x1 PUSH1 0x1 PUSH1 0xA0 SHL SUB DUP7 AND PUSH1 0x44 DUP3 ADD MSTORE PUSH20 0x17DAD892347803551CEEE2D377D010034DF64347 SWAP1 PUSH4 0x99CD69D1 SWAP1 PUSH1 0x64 ADD PUSH1 0x20 PUSH1 0x40 MLOAD DUP1 DUP4 SUB DUP2 PUSH0 DUP8 GAS CALL ISZERO DUP1 ISZERO PUSH2 0x67E JUMPI RETURNDATASIZE PUSH0 DUP1 RETURNDATACOPY RETURNDATASIZE PUSH0 REVERT JUMPDEST POP POP POP POP PUSH1 0x40 MLOAD RETURNDATASIZE PUSH1 0x1F NOT PUSH1 0x1F DUP3 ADD AND DUP3 ADD DUP1 PUSH1 0x40 MSTORE POP DUP2 ADD SWAP1 PUSH2 0x6A2 SWAP2 SWAP1 PUSH2 0xCC7 JUMP JUMPDEST POP SWAP8 SWAP7 POP POP POP POP POP POP POP JUMP JUMPDEST PUSH2 0x6CE DUP7 PUSH20 0xE592427A0AECE92DE3EDEE1F18E0157C05861564 PUSH0 NOT PUSH2 0x846 JUMP JUMPDEST PUSH1 0x40 DUP1 MLOAD PUSH1 0xA0 DUP2 ADD SWAP1 SWAP2 MSTORE PUSH0 SWAP1 DUP1 PUSH2 0x701 DUP10 DUP7 PUSH20 0xD500B1D8E8EF31E21C99D1DB9A6444D3ADF1270 DUP8 DUP13 PUSH1 0xC0 DUP8 ADD PUSH2 0xCDE JUMP JUMPDEST PUSH1 0x40 MLOAD PUSH1 0x20 DUP2 DUP4 SUB SUB DUP2 MSTORE SWAP1 PUSH1 0x40 MSTORE DUP2 MSTORE PUSH1 0x20 ADD DUP7 PUSH1 0x1 PUSH1 0x1 PUSH1 0xA0 SHL SUB AND DUP2 MSTORE PUSH1 0x20 ADD TIMESTAMP DUP2 MSTORE PUSH1 0x20 ADD DUP6 DUP2 MSTORE PUSH1 0x20 ADD PUSH0 DUP2 MSTORE POP SWAP1 POP PUSH20 0xE592427A0AECE92DE3EDEE1F18E0157C05861564 PUSH1 0x1 PUSH1 0x1 PUSH1 0xA0 SHL SUB AND PUSH4 0xF28C0498 DUP3 PUSH1 0x40 MLOAD DUP3 PUSH4 0xFFFFFFFF AND PUSH1 0xE0 SHL DUP2 MSTORE PUSH1 0x4 ADD PUSH2 0x776 SWAP2 SWAP1 PUSH2 0xDCD JUMP JUMPDEST PUSH1 0x20 PUSH1 0x40 MLOAD DUP1 DUP4 SUB DUP2 PUSH0 DUP8 GAS CALL ISZERO DUP1 ISZERO PUSH2 0x792 JUMPI RETURNDATASIZE PUSH0 DUP1 RETURNDATACOPY RETURNDATASIZE PUSH0 REVERT JUMPDEST POP POP POP POP PUSH1 0x40 MLOAD RETURNDATASIZE PUSH1 0x1F NOT PUSH1 0x1F DUP3 ADD AND DUP3 ADD DUP1 PUSH1 0x40 MSTORE POP DUP2 ADD SWAP1 PUSH2 0x7B6 SWAP2 SWAP1 PUSH2 0xCC7 JUMP JUMPDEST POP PUSH1 0x40 DUP1 MLOAD DUP1 DUP3 ADD DUP3 MSTORE PUSH1 0x7 DUP2 MSTORE PUSH7 0x1CDDD85C1C1959 PUSH1 0xCA SHL PUSH1 0x20 DUP3 ADD MSTORE SWAP1 MLOAD PUSH4 0x70A08231 PUSH1 0xE0 SHL DUP2 MSTORE PUSH1 0x1 PUSH1 0x1 PUSH1 0xA0 SHL SUB DUP8 DUP2 AND PUSH1 0x4 DUP4 ADD MSTORE PUSH2 0x3A3 SWAP3 SWAP2 SWAP1 DUP10 AND SWAP1 PUSH4 0x70A08231 SWAP1 PUSH1 0x24 ADD PUSH1 0x20 PUSH1 0x40 MLOAD DUP1 DUP4 SUB DUP2 DUP7 GAS STATICCALL ISZERO DUP1 ISZERO PUSH2 0x81D JUMPI RETURNDATASIZE PUSH0 DUP1 RETURNDATACOPY RETURNDATASIZE PUSH0 REVERT JUMPDEST POP POP POP POP PUSH1 0x40 MLOAD RETURNDATASIZE PUSH1 0x1F NOT PUSH1 0x1F DUP3 ADD AND DUP3 ADD DUP1 PUSH1 0x40 MSTORE POP DUP2 ADD SWAP1 PUSH2 0x841 SWAP2 SWAP1 PUSH2 0xCC7 JUMP JUMPDEST PUSH2 0xA55 JUMP JUMPDEST PUSH1 0x40 DUP1 MLOAD PUSH1 0x1 PUSH1 0x1 PUSH1 0xA0 SHL SUB DUP5 DUP2 AND PUSH1 0x24 DUP4 ADD MSTORE PUSH1 0x44 DUP1 DUP4 ADD DUP6 SWAP1 MSTORE DUP4 MLOAD DUP1 DUP5 SUB SWAP1 SWAP2 ADD DUP2 MSTORE PUSH1 0x64 SWAP1 SWAP3 ADD DUP4 MSTORE PUSH1 0x20 DUP3 ADD DUP1 MLOAD PUSH1 0x1 PUSH1 0x1 PUSH1 0xE0 SHL SUB AND PUSH4 0x95EA7B3 PUSH1 0xE0 SHL OR SWAP1 MSTORE SWAP2 MLOAD PUSH0 SWAP3 DUP4 SWAP3 SWAP1 DUP8 AND SWAP2 PUSH2 0x8A1 SWAP2 SWAP1 PUSH2 0xDE6 JUMP JUMPDEST PUSH0 PUSH1 0x40 MLOAD DUP1 DUP4 SUB DUP2 PUSH0 DUP7 GAS CALL SWAP2 POP POP RETURNDATASIZE DUP1 PUSH0 DUP2 EQ PUSH2 0x8DA JUMPI PUSH1 0x40 MLOAD SWAP2 POP PUSH1 0x1F NOT PUSH1 0x3F RETURNDATASIZE ADD AND DUP3 ADD PUSH1 0x40 MSTORE RETURNDATASIZE DUP3 MSTORE RETURNDATASIZE PUSH0 PUSH1 0x20 DUP5 ADD RETURNDATACOPY PUSH2 0x8DF JUMP JUMPDEST PUSH1 0x60 SWAP2 POP JUMPDEST POP SWAP2 POP SWAP2 POP DUP2 DUP1 ISZERO PUSH2 0x909 JUMPI POP DUP1 MLOAD ISZERO DUP1 PUSH2 0x909 JUMPI POP DUP1 DUP1 PUSH1 0x20 ADD SWAP1 MLOAD DUP2 ADD SWAP1 PUSH2 0x909 SWAP2 SWAP1 PUSH2 0xE01 JUMP JUMPDEST PUSH2 0x93E JUMPI PUSH1 0x40 MLOAD PUSH3 0x461BCD PUSH1 0xE5 SHL DUP2 MSTORE PUSH1 0x20 PUSH1 0x4 DUP3 ADD MSTORE PUSH1 0x2 PUSH1 0x24 DUP3 ADD MSTORE PUSH2 0x5341 PUSH1 0xF0 SHL PUSH1 0x44 DUP3 ADD MSTORE PUSH1 0x64 ADD PUSH1 0x40 MLOAD DUP1 SWAP2 SUB SWAP1 REVERT JUMPDEST POP POP POP POP POP JUMP JUMPDEST PUSH2 0x964 DUP7 PUSH20 0xE592427A0AECE92DE3EDEE1F18E0157C05861564 DUP6 PUSH2 0x846 JUMP JUMPDEST PUSH1 0x40 DUP1 MLOAD PUSH1 0xA0 DUP2 ADD SWAP1 SWAP2 MSTORE PUSH0 SWAP1 DUP1 PUSH2 0x997 DUP10 DUP7 PUSH20 0xD500B1D8E8EF31E21C99D1DB9A6444D3ADF1270 DUP8 DUP13 PUSH1 0xC0 DUP8 ADD PUSH2 0xCDE JUMP JUMPDEST PUSH1 0x40 MLOAD PUSH1 0x20 DUP2 DUP4 SUB SUB DUP2 MSTORE SWAP1 PUSH1 0x40 MSTORE DUP2 MSTORE PUSH1 0x20 ADD DUP7 PUSH1 0x1 PUSH1 0x1 PUSH1 0xA0 SHL SUB AND DUP2 MSTORE PUSH1 0x20 ADD TIMESTAMP DUP2 MSTORE PUSH1 0x20 ADD DUP6 DUP2 MSTORE PUSH1 0x20 ADD PUSH0 DUP2 MSTORE POP SWAP1 POP PUSH20 0xE592427A0AECE92DE3EDEE1F18E0157C05861564 PUSH1 0x1 PUSH1 0x1 PUSH1 0xA0 SHL SUB AND PUSH4 0xC04B8D59 DUP3 PUSH1 0x40 MLOAD DUP3 PUSH4 0xFFFFFFFF AND PUSH1 0xE0 SHL DUP2 MSTORE PUSH1 0x4 ADD PUSH2 0x776 SWAP2 SWAP1 PUSH2 0xDCD JUMP JUMPDEST PUSH2 0xA51 DUP3 DUP3 PUSH1 0x40 MLOAD PUSH1 0x24 ADD PUSH2 0xA22 SWAP3 SWAP2 SWAP1 PUSH2 0xE20 JUMP JUMPDEST PUSH1 0x40 DUP1 MLOAD PUSH1 0x1F NOT DUP2 DUP5 SUB ADD DUP2 MSTORE SWAP2 SWAP1 MSTORE PUSH1 0x20 DUP2 ADD DUP1 MLOAD PUSH1 0x1 PUSH1 0x1 PUSH1 0xE0 SHL SUB AND PUSH4 0x643FD0DF PUSH1 0xE0 SHL OR SWAP1 MSTORE PUSH2 0xA96 JUMP JUMPDEST POP POP JUMP JUMPDEST PUSH2 0xA51 DUP3 DUP3 PUSH1 0x40 MLOAD PUSH1 0x24 ADD PUSH2 0xA6B SWAP3 SWAP2 SWAP1 PUSH2 0xE40 JUMP JUMPDEST PUSH1 0x40 DUP1 MLOAD PUSH1 0x1F NOT DUP2 DUP5 SUB ADD DUP2 MSTORE SWAP2 SWAP1 MSTORE PUSH1 0x20 DUP2 ADD DUP1 MLOAD PUSH1 0x1 PUSH1 0x1 PUSH1 0xE0 SHL SUB AND PUSH4 0x2D839CB3 PUSH1 0xE2 SHL OR SWAP1 MSTORE JUMPDEST PUSH2 0xA9F DUP2 PUSH2 0xAA2 JUMP JUMPDEST POP JUMP JUMPDEST PUSH0 PUSH11 0x636F6E736F6C652E6C6F67 SWAP1 POP PUSH0 DUP1 DUP4 MLOAD PUSH1 0x20 DUP6 ADD DUP5 GAS STATICCALL POP POP POP JUMP JUMPDEST DUP1 CALLDATALOAD PUSH1 0x1 PUSH1 0x1 PUSH1 0xA0 SHL SUB DUP2 AND DUP2 EQ PUSH2 0xAD7 JUMPI PUSH0 DUP1 REVERT JUMPDEST SWAP2 SWAP1 POP JUMP JUMPDEST PUSH0 DUP1 PUSH0 DUP1 PUSH0 DUP1 PUSH1 0xC0 DUP8 DUP10 SUB SLT ISZERO PUSH2 0xAF1 JUMPI PUSH0 DUP1 REVERT JUMPDEST PUSH2 0xAFA DUP8 PUSH2 0xAC1 JUMP JUMPDEST SWAP6 POP PUSH2 0xB08 PUSH1 0x20 DUP9 ADD PUSH2 0xAC1 JUMP JUMPDEST SWAP5 POP PUSH2 0xB16 PUSH1 0x40 DUP9 ADD PUSH2 0xAC1 JUMP JUMPDEST SWAP4 POP PUSH2 0xB24 PUSH1 0x60 DUP9 ADD PUSH2 0xAC1 JUMP JUMPDEST SWAP3 POP PUSH1 0x80 DUP8 ADD CALLDATALOAD SWAP2 POP PUSH1 0xA0 DUP8 ADD CALLDATALOAD SWAP1 POP SWAP3 SWAP6 POP SWAP3 SWAP6 POP SWAP3 SWAP6 JUMP JUMPDEST PUSH0 DUP1 PUSH0 DUP1 PUSH0 DUP1 PUSH0 PUSH1 0xE0 DUP9 DUP11 SUB SLT ISZERO PUSH2 0xB54 JUMPI PUSH0 DUP1 REVERT JUMPDEST PUSH2 0xB5D DUP9 PUSH2 0xAC1 JUMP JUMPDEST SWAP7 POP PUSH2 0xB6B PUSH1 0x20 DUP10 ADD PUSH2 0xAC1 JUMP JUMPDEST SWAP6 POP PUSH2 0xB79 PUSH1 0x40 DUP10 ADD PUSH2 0xAC1 JUMP JUMPDEST SWAP5 POP PUSH2 0xB87 PUSH1 0x60 DUP10 ADD PUSH2 0xAC1 JUMP JUMPDEST SWAP4 POP PUSH1 0x80 DUP9 ADD CALLDATALOAD SWAP3 POP PUSH1 0xA0 DUP9 ADD CALLDATALOAD SWAP2 POP PUSH2 0xBA3 PUSH1 0xC0 DUP10 ADD PUSH2 0xAC1 JUMP JUMPDEST SWAP1 POP SWAP3 SWAP6 SWAP9 SWAP2 SWAP5 SWAP8 POP SWAP3 SWAP6 POP JUMP JUMPDEST PUSH0 DUP1 PUSH0 DUP1 PUSH0 DUP1 PUSH1 0xC0 DUP8 DUP10 SUB SLT ISZERO PUSH2 0xBC6 JUMPI PUSH0 DUP1 REVERT JUMPDEST PUSH2 0xBCF DUP8 PUSH2 0xAC1 JUMP JUMPDEST SWAP6 POP PUSH2 0xBDD PUSH1 0x20 DUP9 ADD PUSH2 0xAC1 JUMP JUMPDEST SWAP5 POP PUSH2 0xBEB PUSH1 0x40 DUP9 ADD PUSH2 0xAC1 JUMP JUMPDEST SWAP4 POP PUSH1 0x60 DUP8 ADD CALLDATALOAD SWAP3 POP PUSH1 0x80 DUP8 ADD CALLDATALOAD SWAP2 POP PUSH2 0xC07 PUSH1 0xA0 DUP9 ADD PUSH2 0xAC1 JUMP JUMPDEST SWAP1 POP SWAP3 SWAP6 POP SWAP3 SWAP6 POP SWAP3 SWAP6 JUMP JUMPDEST PUSH0 DUP1 PUSH0 DUP1 PUSH0 DUP1 PUSH0 PUSH1 0xE0 DUP9 DUP11 SUB SLT ISZERO PUSH2 0xC29 JUMPI PUSH0 DUP1 REVERT JUMPDEST PUSH2 0xC32 DUP9 PUSH2 0xAC1 JUMP JUMPDEST SWAP7 POP PUSH2 0xC40 PUSH1 0x20 DUP10 ADD PUSH2 0xAC1 JUMP JUMPDEST SWAP6 POP PUSH2 0xC4E PUSH1 0x40 DUP10 ADD PUSH2 0xAC1 JUMP JUMPDEST SWAP5 POP PUSH2 0xC5C PUSH1 0x60 DUP10 ADD PUSH2 0xAC1 JUMP JUMPDEST SWAP7 SWAP10 SWAP6 SWAP9 POP SWAP4 SWAP7 PUSH1 0x80 DUP2 ADD CALLDATALOAD SWAP6 PUSH1 0xA0 DUP3 ADD CALLDATALOAD SWAP6 POP PUSH1 0xC0 SWAP1 SWAP2 ADD CALLDATALOAD SWAP4 POP SWAP2 POP POP JUMP JUMPDEST PUSH1 0x1 PUSH1 0x1 PUSH1 0xA0 SHL SUB SWAP4 DUP5 AND DUP2 MSTORE SWAP2 SWAP1 SWAP3 AND PUSH1 0x20 DUP3 ADD MSTORE PUSH1 0x40 DUP2 ADD SWAP2 SWAP1 SWAP2 MSTORE PUSH1 0x60 ADD SWAP1 JUMP JUMPDEST PUSH0 PUSH1 0x1 PUSH1 0xFF SHL DUP3 ADD PUSH2 0xCC1 JUMPI PUSH4 0x4E487B71 PUSH1 0xE0 SHL PUSH0 MSTORE PUSH1 0x11 PUSH1 0x4 MSTORE PUSH1 0x24 PUSH0 REVERT JUMPDEST POP PUSH0 SUB SWAP1 JUMP JUMPDEST PUSH0 PUSH1 0x20 DUP3 DUP5 SUB SLT ISZERO PUSH2 0xCD7 JUMPI PUSH0 DUP1 REVERT JUMPDEST POP MLOAD SWAP2 SWAP1 POP JUMP JUMPDEST PUSH12 0xFFFFFFFFFFFFFFFFFFFFFFFF NOT PUSH1 0x60 SWAP7 DUP8 SHL DUP2 AND DUP3 MSTORE PUSH1 0x1 PUSH1 0x1 PUSH1 0xE8 SHL SUB NOT PUSH1 0xE8 SWAP7 DUP8 SHL DUP2 AND PUSH1 0x14 DUP5 ADD MSTORE SWAP5 DUP8 SHL DUP2 AND PUSH1 0x17 DUP4 ADD MSTORE SWAP3 SWAP1 SWAP5 SHL SWAP1 SWAP3 AND PUSH1 0x2B DUP5 ADD MSTORE SWAP3 SHL SWAP1 SWAP2 AND PUSH1 0x2E DUP3 ADD MSTORE PUSH1 0x42 ADD SWAP1 JUMP JUMPDEST PUSH0 JUMPDEST DUP4 DUP2 LT ISZERO PUSH2 0xD4A JUMPI DUP2 DUP2 ADD MLOAD DUP4 DUP3 ADD MSTORE PUSH1 0x20 ADD PUSH2 0xD32 JUMP JUMPDEST POP POP PUSH0 SWAP2 ADD MSTORE JUMP JUMPDEST PUSH0 DUP2 MLOAD DUP1 DUP5 MSTORE PUSH2 0xD69 DUP2 PUSH1 0x20 DUP7 ADD PUSH1 0x20 DUP7 ADD PUSH2 0xD30 JUMP JUMPDEST PUSH1 0x1F ADD PUSH1 0x1F NOT AND SWAP3 SWAP1 SWAP3 ADD PUSH1 0x20 ADD SWAP3 SWAP2 POP POP JUMP JUMPDEST PUSH0 DUP2 MLOAD PUSH1 0xA0 DUP5 MSTORE PUSH2 0xD91 PUSH1 0xA0 DUP6 ADD DUP3 PUSH2 0xD52 JUMP JUMPDEST PUSH1 0x20 DUP5 DUP2 ADD MLOAD PUSH1 0x1 PUSH1 0x1 PUSH1 0xA0 SHL SUB AND SWAP1 DUP7 ADD MSTORE PUSH1 0x40 DUP1 DUP6 ADD MLOAD SWAP1 DUP7 ADD MSTORE PUSH1 0x60 DUP1 DUP6 ADD MLOAD SWAP1 DUP7 ADD MSTORE PUSH1 0x80 SWAP4 DUP5 ADD MLOAD SWAP4 SWAP1 SWAP5 ADD SWAP3 SWAP1 SWAP3 MSTORE POP SWAP1 SWAP2 SWAP1 POP JUMP JUMPDEST PUSH1 0x20 DUP2 MSTORE PUSH0 PUSH2 0xDDF PUSH1 0x20 DUP4 ADD DUP5 PUSH2 0xD7D JUMP JUMPDEST SWAP4 SWAP3 POP POP POP JUMP JUMPDEST PUSH0 DUP3 MLOAD PUSH2 0xDF7 DUP2 DUP5 PUSH1 0x20 DUP8 ADD PUSH2 0xD30 JUMP JUMPDEST SWAP2 SWAP1 SWAP2 ADD SWAP3 SWAP2 POP POP JUMP JUMPDEST PUSH0 PUSH1 0x20 DUP3 DUP5 SUB SLT ISZERO PUSH2 0xE11 JUMPI PUSH0 DUP1 REVERT JUMPDEST DUP2 MLOAD DUP1 ISZERO ISZERO DUP2 EQ PUSH2 0xDDF JUMPI PUSH0 DUP1 REVERT JUMPDEST DUP3 DUP2 MSTORE PUSH1 0x40 PUSH1 0x20 DUP3 ADD MSTORE PUSH0 PUSH2 0xE38 PUSH1 0x40 DUP4 ADD DUP5 PUSH2 0xD52 JUMP JUMPDEST SWAP5 SWAP4 POP POP POP POP JUMP JUMPDEST PUSH1 0x40 DUP2 MSTORE PUSH0 PUSH2 0xE52 PUSH1 0x40 DUP4 ADD DUP6 PUSH2 0xD52 JUMP JUMPDEST SWAP1 POP DUP3 PUSH1 0x20 DUP4 ADD MSTORE SWAP4 SWAP3 POP POP POP JUMP INVALID LOG2 PUSH5 0x6970667358 0x22 SLT KECCAK256 PUSH28 0x8C441D93A9512CDB8BB5A92E9D62EF520EA52C8269D1FC6C6ABC9D07 SSTORE 0xF7 SAR PUSH5 0x736F6C6343 STOP ADDMOD EQ STOP CALLER "
		},
		"gasEstimates": {
			"creation": {
				"codeDepositCost": "747000",
				"executionCost": "infinite",
				"totalCost": "infinite"
			},
			"external": {
				"InitBorrow(address,address,address,address,uint256,int256,address)": "infinite",
				"cometAddress()": "227",
				"compBorrow(address,address,address,uint256,uint256,address)": "infinite",
				"compRepay(address,address,address,address,uint256,uint256)": "infinite",
				"controller()": "infinite",
				"repayBorrow(address,address,address,address,uint256,int256,int256)": "infinite",
				"swapRouter()": "226",
				"unilendCore()": "204"
			},
			"internal": {
				"exactInputSwap(address,address,address,uint256,uint24,uint24)": "infinite",
				"exctOutputSwap(address,address,address,uint256,uint24,uint24)": "infinite"
			}
		},
		"methodIdentifiers": {
			"InitBorrow(address,address,address,address,uint256,int256,address)": "8f558189",
			"cometAddress()": "6bbb194b",
			"compBorrow(address,address,address,uint256,uint256,address)": "a6d7f530",
			"compRepay(address,address,address,address,uint256,uint256)": "501f5dbe",
			"controller()": "f77c4791",
			"repayBorrow(address,address,address,address,uint256,int256,int256)": "de63a935",
			"swapRouter()": "c31c9c07",
			"unilendCore()": "b93bc415"
		}
	},
	"abi": [
		{
			"inputs": [],
			"stateMutability": "nonpayable",
			"type": "constructor"
		},
		{
			"anonymous": false,
			"inputs": [
				{
					"indexed": true,
					"internalType": "address",
					"name": "tokenAddress",
					"type": "address"
				},
				{
					"indexed": true,
					"internalType": "address",
					"name": "user",
					"type": "address"
				},
				{
					"indexed": false,
					"internalType": "int256",
					"name": "amount",
					"type": "int256"
				},
				{
					"indexed": false,
					"internalType": "uint256",
					"name": "time",
					"type": "uint256"
				}
			],
			"name": "Borrowed",
			"type": "event"
		},
		{
			"inputs": [
				{
					"internalType": "address",
					"name": "_pool",
					"type": "address"
				},
				{
					"internalType": "address",
					"name": "_supplyAsset",
					"type": "address"
				},
				{
					"internalType": "address",
					"name": "_tokenOUt",
					"type": "address"
				},
				{
					"internalType": "address",
					"name": "_borrowToken",
					"type": "address"
				},
				{
					"internalType": "uint256",
					"name": "_collateral_amount",
					"type": "uint256"
				},
				{
					"internalType": "int256",
					"name": "_amount",
					"type": "int256"
				},
				{
					"internalType": "address",
					"name": "_user",
					"type": "address"
				}
			],
			"name": "InitBorrow",
			"outputs": [],
			"stateMutability": "nonpayable",
			"type": "function"
		},
		{
			"inputs": [],
			"name": "cometAddress",
			"outputs": [
				{
					"internalType": "contract IComet",
					"name": "",
					"type": "address"
				}
			],
			"stateMutability": "view",
			"type": "function"
		},
		{
			"inputs": [
				{
					"internalType": "address",
					"name": "_supplyAsset",
					"type": "address"
				},
				{
					"internalType": "address",
					"name": "_borrowAsset",
					"type": "address"
				},
				{
					"internalType": "address",
					"name": "_tokenOut",
					"type": "address"
				},
				{
					"internalType": "uint256",
					"name": "_supplyAmount",
					"type": "uint256"
				},
				{
					"internalType": "uint256",
					"name": "_borrowAmount",
					"type": "uint256"
				},
				{
					"internalType": "address",
					"name": "_user",
					"type": "address"
				}
			],
			"name": "compBorrow",
			"outputs": [],
			"stateMutability": "nonpayable",
			"type": "function"
		},
		{
			"inputs": [
				{
					"internalType": "address",
					"name": "_borrowedToken",
					"type": "address"
				},
				{
					"internalType": "address",
					"name": "_tokenIn",
					"type": "address"
				},
				{
					"internalType": "address",
					"name": "_user",
					"type": "address"
				},
				{
					"internalType": "address",
					"name": "_collateralToken",
					"type": "address"
				},
				{
					"internalType": "uint256",
					"name": "_collateralAmount",
					"type": "uint256"
				},
				{
					"internalType": "uint256",
					"name": "_repayAmount",
					"type": "uint256"
				}
			],
			"name": "compRepay",
			"outputs": [],
			"stateMutability": "nonpayable",
			"type": "function"
		},
		{
			"inputs": [],
			"name": "controller",
			"outputs": [
				{
					"internalType": "address",
					"name": "",
					"type": "address"
				}
			],
			"stateMutability": "view",
			"type": "function"
		},
		{
			"inputs": [
				{
					"internalType": "address",
					"name": "_pool",
					"type": "address"
				},
				{
					"internalType": "address",
					"name": "_tokenIn",
					"type": "address"
				},
				{
					"internalType": "address",
					"name": "_borrowedToken",
					"type": "address"
				},
				{
					"internalType": "address",
					"name": "_user",
					"type": "address"
				},
				{
					"internalType": "uint256",
					"name": "_nftID",
					"type": "uint256"
				},
				{
					"internalType": "int256",
					"name": "_amountOut",
					"type": "int256"
				},
				{
					"internalType": "int256",
					"name": "_repayAmount",
					"type": "int256"
				}
			],
			"name": "repayBorrow",
			"outputs": [
				{
					"internalType": "int256",
					"name": "repayAmount",
					"type": "int256"
				}
			],
			"stateMutability": "nonpayable",
			"type": "function"
		},
		{
			"inputs": [],
			"name": "swapRouter",
			"outputs": [
				{
					"internalType": "contract ISwapRouter",
					"name": "",
					"type": "address"
				}
			],
			"stateMutability": "view",
			"type": "function"
		},
		{
			"inputs": [],
			"name": "unilendCore",
			"outputs": [
				{
					"internalType": "contract IUnilendV2Core",
					"name": "",
					"type": "address"
				}
			],
			"stateMutability": "view",
			"type": "function"
		}
	]
}