{
	"data": {
		"bytecode": {
			"linkReferences": {},
			"object": "60a060405234801561000f575f80fd5b5060015f5533608052608051611cf06100305f395f6101ef0152611cf05ff3fe608060405234801561000f575f80fd5b50600436106100cf575f3560e01c8063b5c8b7591161007d578063c31c9c0711610058578063c31c9c07146101b4578063e1ab2228146101cf578063f77c4791146101ea575f80fd5b8063b5c8b75914610173578063b93bc41514610186578063baecbfcd146101a1575f80fd5b80636bbb194b116100ad5780636bbb194b1461013257806373e8f1fa1461014d578063a36cc4cd14610160575f80fd5b8063315a1451146100d357806363b0e66a146100e85780636b5e73051461011f575b5f80fd5b6100e66100e136600461162d565b610211565b005b610103734f57c40d3daa7bf2ec970dd157b126898215872081565b6040516001600160a01b03909116815260200160405180910390f35b6100e661012d3660046116c8565b610489565b61010373f25212e676d1f7f89cd72ffee66158f54124644581565b6100e661015b366004611736565b610566565b6100e661016e36600461162d565b61090f565b6100e66101813660046117b6565b610a7a565b6101037317dad892347803551ceee2d377d010034df6434781565b6100e66101af366004611736565b610cbe565b61010373e592427a0aece92de3edee1f18e0157c0586156481565b6101037377b6569f0dbc4f265a575a84540c2a0cae116a9081565b6101037f000000000000000000000000000000000000000000000000000000000000000081565b610219610dfe565b5f886001600160a01b0316630dfe16816040518163ffffffff1660e01b8152600401602060405180830381865afa158015610256573d5f803e3d5ffd5b505050506040513d601f19601f8201168201806040525081019061027a9190611858565b90505f896001600160a01b031663d21220a76040518163ffffffff1660e01b8152600401602060405180830381865afa1580156102b9573d5f803e3d5ffd5b505050506040513d601f19601f820116820180604052508101906102dd9190611858565b90505f8087126102ed57816102ef565b825b90505f896001600160a01b0316826001600160a01b0316146103115730610313565b865b90506103348b7317dad892347803551ceee2d377d010034df643478b610e3f565b6040517f8dee94600000000000000000000000000000000000000000000000000000000081526001600160a01b03808e166004830152602482018a9052604482018b9052821660648201527317dad892347803551ceee2d377d010034df6434790638dee9460906084015f604051808303815f87803b1580156103b5575f80fd5b505af11580156103c7573d5f803e3d5ffd5b50505050896001600160a01b0316826001600160a01b031614610472575f8812156103f8576103f58861187a565b97505b6040516370a0823160e01b81523060048201526104709083908c908a906001600160a01b038416906370a08231906024015b602060405180830381865afa158015610445573d5f803e3d5ffd5b505050506040513d601f19601f8201168201806040525081019061046991906118bc565b8a8a610ee5565b505b5050505061047f60015f55565b5050505050505050565b610491610dfe565b5f846001600160a01b0316866001600160a01b0316036104b157836104bf565b6104bf858730878787610ee5565b90506104e08673f25212e676d1f7f89cd72ffee66158f54124644583610e3f565b604051634232cd6360e01b81523060048201526001600160a01b03871660248201526044810182905273f25212e676d1f7f89cd72ffee66158f54124644590634232cd63906064015f604051808303815f87803b15801561053f575f80fd5b505af1158015610551573d5f803e3d5ffd5b505050505061055f60015f55565b5050505050565b61056e610dfe565b5f61058e87307377b6569f0dbc4f265a575a84540c2a0cae116a90610fe0565b6040517f4b7cab4a0000000000000000000000000000000000000000000000000000000081526001600160a01b03891660048201523060248201529091505f907377b6569f0dbc4f265a575a84540c2a0cae116a9090634b7cab4a906044016020604051808303815f875af1158015610609573d5f803e3d5ffd5b505050506040513d601f19601f8201168201806040525081019061062d91906118bc565b9050805f036106835760405162461bcd60e51b815260206004820152601160248201527f4e6f20506f736974696f6e20466f756e6400000000000000000000000000000060448201526064015b60405180910390fd5b5f308188121561079957835191506001600160a01b03808316908816146106aa57306106ac565b885b60608501519091501561074a57604051630e96466d60e41b81526001600160a01b03808c166004830152602482018a9052821660448201527317dad892347803551ceee2d377d010034df643479063e96466d0906064015b6020604051808303815f875af1158015610720573d5f803e3d5ffd5b505050506040513d601f19601f8201168201806040525081019061074491906118bc565b506108a9565b604051635833cdf960e01b81526001600160a01b03808c166004830152602482018a9052821660448201527317dad892347803551ceee2d377d010034df6434790635833cdf990606401610704565b83602001519150866001600160a01b0316826001600160a01b0316146107bf57306107c1565b885b60408501519091501561081d57604051630e96466d60e41b81526001600160a01b03808c166004830152602482018a9052821660448201527317dad892347803551ceee2d377d010034df643479063e96466d090606401610704565b604051635833cdf960e01b81526001600160a01b03808c166004830152602482018a9052821660448201527317dad892347803551ceee2d377d010034df6434790635833cdf9906064016020604051808303815f875af1158015610883573d5f803e3d5ffd5b505050506040513d601f19601f820116820180604052508101906108a791906118bc565b505b866001600160a01b0316826001600160a01b0316146108fa576040516370a0823160e01b81523060048201526108f890839089908c906001600160a01b038416906370a082319060240161042a565b505b5050505061090760015f55565b505050505050565b610917610dfe565b6109368873f25212e676d1f7f89cd72ffee66158f54124644587610e3f565b604051634232cd6360e01b81523060048201526001600160a01b03891660248201526044810186905273f25212e676d1f7f89cd72ffee66158f54124644590634232cd63906064015f604051808303815f87803b158015610995575f80fd5b505af11580156109a7573d5f803e3d5ffd5b505050505f866001600160a01b0316886001600160a01b0316146109cb57306109cd565b835b6040516361d9ad3f60e11b81526001600160a01b0380831660048301528a1660248201526044810187905290915073f25212e676d1f7f89cd72ffee66158f5412464459063c3b35a7e906064015f604051808303815f87803b158015610a31575f80fd5b505af1158015610a43573d5f803e3d5ffd5b50505050866001600160a01b0316886001600160a01b031614610a7057610a6e888886888787610ee5565b505b5061047f60015f55565b610a82610dfe565b5f80610aa389307377b6569f0dbc4f265a575a84540c2a0cae116a90610fe0565b90505f886001600160a01b0316876001600160a01b031603610ac55785610ad3565b610ad3898830898989610ee5565b9050610af4877317dad892347803551ceee2d377d010034df6434783610e3f565b815f01516001600160a01b0316876001600160a01b031603610b545781604001518312610b4b57610b447f7fffffffffffffffffffffffffffffffffffffffffffffffffffffffffffffff61187a565b9250610b8b565b610b448161187a565b81606001518312610b87577f7fffffffffffffffffffffffffffffffffffffffffffffffffffffffffffffff9250610b8b565b8092505b6040517f826265470000000000000000000000000000000000000000000000000000000081526001600160a01b038b166004820152602481018490523060448201527317dad892347803551ceee2d377d010034df64347906382626547906064016020604051808303815f875af1158015610c08573d5f803e3d5ffd5b505050506040513d601f19601f82011682018060405250810190610c2c91906118bc565b506040516370a0823160e01b81523060048201525f906001600160a01b038916906370a0823190602401602060405180830381865afa158015610c71573d5f803e3d5ffd5b505050506040513d601f19601f82011682018060405250810190610c9591906118bc565b90508015610ca857610ca8888a836111c5565b50505050610cb560015f55565b50505050505050565b610cc6610dfe565b5f836001600160a01b0316866001600160a01b031614610ce65730610ce8565b865b6040516361d9ad3f60e11b81526001600160a01b038083166004830152881660248201526044810187905290915073f25212e676d1f7f89cd72ffee66158f5412464459063c3b35a7e906064015f604051808303815f87803b158015610d4c575f80fd5b505af1158015610d5e573d5f803e3d5ffd5b50505050836001600160a01b0316866001600160a01b031614610df4576040516370a0823160e01b8152306004820152610df290879086908a906001600160a01b038416906370a0823190602401602060405180830381865afa158015610dc7573d5f803e3d5ffd5b505050506040513d601f19601f82011682018060405250810190610deb91906118bc565b8787610ee5565b505b5061090760015f55565b60025f5403610e39576040517f3ee5aeb500000000000000000000000000000000000000000000000000000000815260040160405180910390fd5b60025f55565b6040517fdd62ed3e0000000000000000000000000000000000000000000000000000000081523060048201526001600160a01b0383811660248301525f919085169063dd62ed3e90604401602060405180830381865afa158015610ea5573d5f803e3d5ffd5b505050506040513d601f19601f82011682018060405250810190610ec991906118bc565b905081811015610edf57610edf84845f19611302565b50505050565b5f610f058773e592427a0aece92de3edee1f18e0157c0586156486611302565b5f610f128888868661143f565b6040805160a0810182528281526001600160a01b03891660208201524281830152606081018890525f608082015290517fc04b8d590000000000000000000000000000000000000000000000000000000081529192509073e592427a0aece92de3edee1f18e0157c058615649063c04b8d5990610f939084906004016118f5565b6020604051808303815f875af1158015610faf573d5f803e3d5ffd5b505050506040513d601f19601f82011682018060405250810190610fd391906118bc565b9998505050505050505050565b61102b6040518060e001604052805f6001600160a01b031681526020015f6001600160a01b031681526020015f81526020015f81526020015f81526020015f81526020015f81525090565b6040517f13d21cdf0000000000000000000000000000000000000000000000000000000081526001600160a01b03851660048201525f90734f57c40d3daa7bf2ec970dd157b1268982158720906313d21cdf906024015f60405180830381865afa15801561109b573d5f803e3d5ffd5b505050506040513d5f823e601f3d908101601f191682016040526110c29190810190611a4b565b6040517ff408646e0000000000000000000000000000000000000000000000000000000081526001600160a01b0380861660048301528088166024830152861660448201529091505f90734f57c40d3daa7bf2ec970dd157b12689821587209063f408646e9060640161028060405180830381865afa158015611147573d5f803e3d5ffd5b505050506040513d601f19601f8201168201806040525081019061116b9190611b5a565b60c0808401516001600160a01b03908116865260e0850151166020860152925192840192909252506101e0810151604083015261022081015160608301526101c081015160a0830152610200015160808201529392505050565b604080516001600160a01b038481166024830152604480830185905283518084039091018152606490920183526020820180517bffffffffffffffffffffffffffffffffffffffffffffffffffffffff167fa9059cbb0000000000000000000000000000000000000000000000000000000017905291515f9283929087169161124e9190611c4a565b5f604051808303815f865af19150503d805f8114611287576040519150601f19603f3d011682016040523d82523d5f602084013e61128c565b606091505b50915091508180156112b65750805115806112b65750808060200190518101906112b69190611c65565b61055f5760405162461bcd60e51b815260206004820152600260248201527f5354000000000000000000000000000000000000000000000000000000000000604482015260640161067a565b604080516001600160a01b038481166024830152604480830185905283518084039091018152606490920183526020820180517bffffffffffffffffffffffffffffffffffffffffffffffffffffffff167f095ea7b30000000000000000000000000000000000000000000000000000000017905291515f9283929087169161138b9190611c4a565b5f604051808303815f865af19150503d805f81146113c4576040519150601f19603f3d011682016040523d82523d5f602084013e6113c9565b606091505b50915091508180156113f35750805115806113f35750808060200190518101906113f39190611c65565b61055f5760405162461bcd60e51b815260206004820152600260248201527f5341000000000000000000000000000000000000000000000000000000000000604482015260640161067a565b60606001821115611534578483835f81811061145d5761145d611c84565b90506020020160208101906114729190611c98565b730d500b1d8e8ef31e21c99d1db9a6444d3adf12708585600181811061149a5761149a611c84565b90506020020160208101906114af9190611c98565b6040516bffffffffffffffffffffffff19606095861b811660208301527fffffff000000000000000000000000000000000000000000000000000000000060e895861b8116603484015293861b811660378301529190931b909116604b8301529186901b909116604e82015260620160405160208183030381529060405290506115c6565b8483835f81811061154757611547611c84565b905060200201602081019061155c9190611c98565b604051606092831b6bffffffffffffffffffffffff19908116602083015260e89290921b7fffffff00000000000000000000000000000000000000000000000000000000001660348201529186901b166037820152604b0160405160208183030381529060405290505b949350505050565b6001600160a01b03811681146115e2575f80fd5b50565b5f8083601f8401126115f5575f80fd5b50813567ffffffffffffffff81111561160c575f80fd5b6020830191508360208260051b8501011115611626575f80fd5b9250929050565b5f805f805f805f8060e0898b031215611644575f80fd5b883561164f816115ce565b9750602089013561165f816115ce565b9650604089013561166f816115ce565b9550606089013594506080890135935060a089013561168d816115ce565b925060c089013567ffffffffffffffff8111156116a8575f80fd5b6116b48b828c016115e5565b999c989b5096995094979396929594505050565b5f805f805f608086880312156116dc575f80fd5b85356116e7816115ce565b945060208601356116f7816115ce565b935060408601359250606086013567ffffffffffffffff811115611719575f80fd5b611725888289016115e5565b969995985093965092949392505050565b5f805f805f8060a0878903121561174b575f80fd5b8635611756816115ce565b95506020870135611766816115ce565b945060408701359350606087013561177d816115ce565b9250608087013567ffffffffffffffff811115611798575f80fd5b6117a489828a016115e5565b979a9699509497509295939492505050565b5f805f805f805f60c0888a0312156117cc575f80fd5b87356117d7816115ce565b965060208801356117e7816115ce565b955060408801356117f7816115ce565b94506060880135611807816115ce565b93506080880135925060a088013567ffffffffffffffff811115611829575f80fd5b6118358a828b016115e5565b989b979a50959850939692959293505050565b8051611853816115ce565b919050565b5f60208284031215611868575f80fd5b8151611873816115ce565b9392505050565b5f7f800000000000000000000000000000000000000000000000000000000000000082036118b657634e487b7160e01b5f52601160045260245ffd5b505f0390565b5f602082840312156118cc575f80fd5b5051919050565b5f5b838110156118ed5781810151838201526020016118d5565b50505f910152565b602081525f825160a0602084015280518060c085015261191c8160e08601602085016118d3565b6001600160a01b0360208601511660408501526040850151606085015260608501516080850152608085015160a085015260e0601f19601f8301168501019250505092915050565b634e487b7160e01b5f52604160045260245ffd5b604051610180810167ffffffffffffffff8111828210171561199c5761199c611964565b60405290565b604051610280810167ffffffffffffffff8111828210171561199c5761199c611964565b5f82601f8301126119d5575f80fd5b815167ffffffffffffffff808211156119f0576119f0611964565b604051601f8301601f19908116603f01168101908282118183101715611a1857611a18611964565b81604052838152866020858801011115611a30575f80fd5b611a418460208301602089016118d3565b9695505050505050565b5f60208284031215611a5b575f80fd5b815167ffffffffffffffff80821115611a72575f80fd5b908301906101808286031215611a86575f80fd5b611a8e611978565b8251815260208301516020820152604083015160408201526060830151606082015260808301516080820152611ac660a08401611848565b60a0820152611ad760c08401611848565b60c0820152611ae860e08401611848565b60e08201526101008084015183811115611b00575f80fd5b611b0c888287016119c6565b8284015250506101208084015183811115611b25575f80fd5b611b31888287016119c6565b918301919091525061014083810151908201526101609283015192810192909252509392505050565b5f6102808284031215611b6b575f80fd5b611b736119a2565b825181526020808401519082015260408084015190820152606080840151908201526080808401519082015260a0808401519082015260c0808401519082015260e08084015190820152610100808401519082015261012080840151908201526101408084015190820152610160808401519082015261018080840151908201526101a080840151908201526101c080840151908201526101e08084015190820152610200808401519082015261022080840151908201526102408084015190820152610260928301519281019290925250919050565b5f8251611c5b8184602087016118d3565b9190910192915050565b5f60208284031215611c75575f80fd5b81518015158114611873575f80fd5b634e487b7160e01b5f52603260045260245ffd5b5f60208284031215611ca8575f80fd5b813562ffffff81168114611873575f80fdfea264697066735822122064c60270b3dc1ae81c9787dfb48f1a81bb6fd0ad097401c33698f04ac2df472164736f6c63430008140033",
			"opcodes": "PUSH1 0xA0 PUSH1 0x40 MSTORE CALLVALUE DUP1 ISZERO PUSH2 0xF JUMPI PUSH0 DUP1 REVERT JUMPDEST POP PUSH1 0x1 PUSH0 SSTORE CALLER PUSH1 0x80 MSTORE PUSH1 0x80 MLOAD PUSH2 0x1CF0 PUSH2 0x30 PUSH0 CODECOPY PUSH0 PUSH2 0x1EF ADD MSTORE PUSH2 0x1CF0 PUSH0 RETURN INVALID PUSH1 0x80 PUSH1 0x40 MSTORE CALLVALUE DUP1 ISZERO PUSH2 0xF JUMPI PUSH0 DUP1 REVERT JUMPDEST POP PUSH1 0x4 CALLDATASIZE LT PUSH2 0xCF JUMPI PUSH0 CALLDATALOAD PUSH1 0xE0 SHR DUP1 PUSH4 0xB5C8B759 GT PUSH2 0x7D JUMPI DUP1 PUSH4 0xC31C9C07 GT PUSH2 0x58 JUMPI DUP1 PUSH4 0xC31C9C07 EQ PUSH2 0x1B4 JUMPI DUP1 PUSH4 0xE1AB2228 EQ PUSH2 0x1CF JUMPI DUP1 PUSH4 0xF77C4791 EQ PUSH2 0x1EA JUMPI PUSH0 DUP1 REVERT JUMPDEST DUP1 PUSH4 0xB5C8B759 EQ PUSH2 0x173 JUMPI DUP1 PUSH4 0xB93BC415 EQ PUSH2 0x186 JUMPI DUP1 PUSH4 0xBAECBFCD EQ PUSH2 0x1A1 JUMPI PUSH0 DUP1 REVERT JUMPDEST DUP1 PUSH4 0x6BBB194B GT PUSH2 0xAD JUMPI DUP1 PUSH4 0x6BBB194B EQ PUSH2 0x132 JUMPI DUP1 PUSH4 0x73E8F1FA EQ PUSH2 0x14D JUMPI DUP1 PUSH4 0xA36CC4CD EQ PUSH2 0x160 JUMPI PUSH0 DUP1 REVERT JUMPDEST DUP1 PUSH4 0x315A1451 EQ PUSH2 0xD3 JUMPI DUP1 PUSH4 0x63B0E66A EQ PUSH2 0xE8 JUMPI DUP1 PUSH4 0x6B5E7305 EQ PUSH2 0x11F JUMPI JUMPDEST PUSH0 DUP1 REVERT JUMPDEST PUSH2 0xE6 PUSH2 0xE1 CALLDATASIZE PUSH1 0x4 PUSH2 0x162D JUMP JUMPDEST PUSH2 0x211 JUMP JUMPDEST STOP JUMPDEST PUSH2 0x103 PUSH20 0x4F57C40D3DAA7BF2EC970DD157B1268982158720 DUP2 JUMP JUMPDEST PUSH1 0x40 MLOAD PUSH1 0x1 PUSH1 0x1 PUSH1 0xA0 SHL SUB SWAP1 SWAP2 AND DUP2 MSTORE PUSH1 0x20 ADD PUSH1 0x40 MLOAD DUP1 SWAP2 SUB SWAP1 RETURN JUMPDEST PUSH2 0xE6 PUSH2 0x12D CALLDATASIZE PUSH1 0x4 PUSH2 0x16C8 JUMP JUMPDEST PUSH2 0x489 JUMP JUMPDEST PUSH2 0x103 PUSH20 0xF25212E676D1F7F89CD72FFEE66158F541246445 DUP2 JUMP JUMPDEST PUSH2 0xE6 PUSH2 0x15B CALLDATASIZE PUSH1 0x4 PUSH2 0x1736 JUMP JUMPDEST PUSH2 0x566 JUMP JUMPDEST PUSH2 0xE6 PUSH2 0x16E CALLDATASIZE PUSH1 0x4 PUSH2 0x162D JUMP JUMPDEST PUSH2 0x90F JUMP JUMPDEST PUSH2 0xE6 PUSH2 0x181 CALLDATASIZE PUSH1 0x4 PUSH2 0x17B6 JUMP JUMPDEST PUSH2 0xA7A JUMP JUMPDEST PUSH2 0x103 PUSH20 0x17DAD892347803551CEEE2D377D010034DF64347 DUP2 JUMP JUMPDEST PUSH2 0xE6 PUSH2 0x1AF CALLDATASIZE PUSH1 0x4 PUSH2 0x1736 JUMP JUMPDEST PUSH2 0xCBE JUMP JUMPDEST PUSH2 0x103 PUSH20 0xE592427A0AECE92DE3EDEE1F18E0157C05861564 DUP2 JUMP JUMPDEST PUSH2 0x103 PUSH20 0x77B6569F0DBC4F265A575A84540C2A0CAE116A90 DUP2 JUMP JUMPDEST PUSH2 0x103 PUSH32 0x0 DUP2 JUMP JUMPDEST PUSH2 0x219 PUSH2 0xDFE JUMP JUMPDEST PUSH0 DUP9 PUSH1 0x1 PUSH1 0x1 PUSH1 0xA0 SHL SUB AND PUSH4 0xDFE1681 PUSH1 0x40 MLOAD DUP2 PUSH4 0xFFFFFFFF AND PUSH1 0xE0 SHL DUP2 MSTORE PUSH1 0x4 ADD PUSH1 0x20 PUSH1 0x40 MLOAD DUP1 DUP4 SUB DUP2 DUP7 GAS STATICCALL ISZERO DUP1 ISZERO PUSH2 0x256 JUMPI RETURNDATASIZE PUSH0 DUP1 RETURNDATACOPY RETURNDATASIZE PUSH0 REVERT JUMPDEST POP POP POP POP PUSH1 0x40 MLOAD RETURNDATASIZE PUSH1 0x1F NOT PUSH1 0x1F DUP3 ADD AND DUP3 ADD DUP1 PUSH1 0x40 MSTORE POP DUP2 ADD SWAP1 PUSH2 0x27A SWAP2 SWAP1 PUSH2 0x1858 JUMP JUMPDEST SWAP1 POP PUSH0 DUP10 PUSH1 0x1 PUSH1 0x1 PUSH1 0xA0 SHL SUB AND PUSH4 0xD21220A7 PUSH1 0x40 MLOAD DUP2 PUSH4 0xFFFFFFFF AND PUSH1 0xE0 SHL DUP2 MSTORE PUSH1 0x4 ADD PUSH1 0x20 PUSH1 0x40 MLOAD DUP1 DUP4 SUB DUP2 DUP7 GAS STATICCALL ISZERO DUP1 ISZERO PUSH2 0x2B9 JUMPI RETURNDATASIZE PUSH0 DUP1 RETURNDATACOPY RETURNDATASIZE PUSH0 REVERT JUMPDEST POP POP POP POP PUSH1 0x40 MLOAD RETURNDATASIZE PUSH1 0x1F NOT PUSH1 0x1F DUP3 ADD AND DUP3 ADD DUP1 PUSH1 0x40 MSTORE POP DUP2 ADD SWAP1 PUSH2 0x2DD SWAP2 SWAP1 PUSH2 0x1858 JUMP JUMPDEST SWAP1 POP PUSH0 DUP1 DUP8 SLT PUSH2 0x2ED JUMPI DUP2 PUSH2 0x2EF JUMP JUMPDEST DUP3 JUMPDEST SWAP1 POP PUSH0 DUP10 PUSH1 0x1 PUSH1 0x1 PUSH1 0xA0 SHL SUB AND DUP3 PUSH1 0x1 PUSH1 0x1 PUSH1 0xA0 SHL SUB AND EQ PUSH2 0x311 JUMPI ADDRESS PUSH2 0x313 JUMP JUMPDEST DUP7 JUMPDEST SWAP1 POP PUSH2 0x334 DUP12 PUSH20 0x17DAD892347803551CEEE2D377D010034DF64347 DUP12 PUSH2 0xE3F JUMP JUMPDEST PUSH1 0x40 MLOAD PUSH32 0x8DEE946000000000000000000000000000000000000000000000000000000000 DUP2 MSTORE PUSH1 0x1 PUSH1 0x1 PUSH1 0xA0 SHL SUB DUP1 DUP15 AND PUSH1 0x4 DUP4 ADD MSTORE PUSH1 0x24 DUP3 ADD DUP11 SWAP1 MSTORE PUSH1 0x44 DUP3 ADD DUP12 SWAP1 MSTORE DUP3 AND PUSH1 0x64 DUP3 ADD MSTORE PUSH20 0x17DAD892347803551CEEE2D377D010034DF64347 SWAP1 PUSH4 0x8DEE9460 SWAP1 PUSH1 0x84 ADD PUSH0 PUSH1 0x40 MLOAD DUP1 DUP4 SUB DUP2 PUSH0 DUP8 DUP1 EXTCODESIZE ISZERO DUP1 ISZERO PUSH2 0x3B5 JUMPI PUSH0 DUP1 REVERT JUMPDEST POP GAS CALL ISZERO DUP1 ISZERO PUSH2 0x3C7 JUMPI RETURNDATASIZE PUSH0 DUP1 RETURNDATACOPY RETURNDATASIZE PUSH0 REVERT JUMPDEST POP POP POP POP DUP10 PUSH1 0x1 PUSH1 0x1 PUSH1 0xA0 SHL SUB AND DUP3 PUSH1 0x1 PUSH1 0x1 PUSH1 0xA0 SHL SUB AND EQ PUSH2 0x472 JUMPI PUSH0 DUP9 SLT ISZERO PUSH2 0x3F8 JUMPI PUSH2 0x3F5 DUP9 PUSH2 0x187A JUMP JUMPDEST SWAP8 POP JUMPDEST PUSH1 0x40 MLOAD PUSH4 0x70A08231 PUSH1 0xE0 SHL DUP2 MSTORE ADDRESS PUSH1 0x4 DUP3 ADD MSTORE PUSH2 0x470 SWAP1 DUP4 SWAP1 DUP13 SWAP1 DUP11 SWAP1 PUSH1 0x1 PUSH1 0x1 PUSH1 0xA0 SHL SUB DUP5 AND SWAP1 PUSH4 0x70A08231 SWAP1 PUSH1 0x24 ADD JUMPDEST PUSH1 0x20 PUSH1 0x40 MLOAD DUP1 DUP4 SUB DUP2 DUP7 GAS STATICCALL ISZERO DUP1 ISZERO PUSH2 0x445 JUMPI RETURNDATASIZE PUSH0 DUP1 RETURNDATACOPY RETURNDATASIZE PUSH0 REVERT JUMPDEST POP POP POP POP PUSH1 0x40 MLOAD RETURNDATASIZE PUSH1 0x1F NOT PUSH1 0x1F DUP3 ADD AND DUP3 ADD DUP1 PUSH1 0x40 MSTORE POP DUP2 ADD SWAP1 PUSH2 0x469 SWAP2 SWAP1 PUSH2 0x18BC JUMP JUMPDEST DUP11 DUP11 PUSH2 0xEE5 JUMP JUMPDEST POP JUMPDEST POP POP POP POP PUSH2 0x47F PUSH1 0x1 PUSH0 SSTORE JUMP JUMPDEST POP POP POP POP POP POP POP POP JUMP JUMPDEST PUSH2 0x491 PUSH2 0xDFE JUMP JUMPDEST PUSH0 DUP5 PUSH1 0x1 PUSH1 0x1 PUSH1 0xA0 SHL SUB AND DUP7 PUSH1 0x1 PUSH1 0x1 PUSH1 0xA0 SHL SUB AND SUB PUSH2 0x4B1 JUMPI DUP4 PUSH2 0x4BF JUMP JUMPDEST PUSH2 0x4BF DUP6 DUP8 ADDRESS DUP8 DUP8 DUP8 PUSH2 0xEE5 JUMP JUMPDEST SWAP1 POP PUSH2 0x4E0 DUP7 PUSH20 0xF25212E676D1F7F89CD72FFEE66158F541246445 DUP4 PUSH2 0xE3F JUMP JUMPDEST PUSH1 0x40 MLOAD PUSH4 0x4232CD63 PUSH1 0xE0 SHL DUP2 MSTORE ADDRESS PUSH1 0x4 DUP3 ADD MSTORE PUSH1 0x1 PUSH1 0x1 PUSH1 0xA0 SHL SUB DUP8 AND PUSH1 0x24 DUP3 ADD MSTORE PUSH1 0x44 DUP2 ADD DUP3 SWAP1 MSTORE PUSH20 0xF25212E676D1F7F89CD72FFEE66158F541246445 SWAP1 PUSH4 0x4232CD63 SWAP1 PUSH1 0x64 ADD PUSH0 PUSH1 0x40 MLOAD DUP1 DUP4 SUB DUP2 PUSH0 DUP8 DUP1 EXTCODESIZE ISZERO DUP1 ISZERO PUSH2 0x53F JUMPI PUSH0 DUP1 REVERT JUMPDEST POP GAS CALL ISZERO DUP1 ISZERO PUSH2 0x551 JUMPI RETURNDATASIZE PUSH0 DUP1 RETURNDATACOPY RETURNDATASIZE PUSH0 REVERT JUMPDEST POP POP POP POP POP PUSH2 0x55F PUSH1 0x1 PUSH0 SSTORE JUMP JUMPDEST POP POP POP POP POP JUMP JUMPDEST PUSH2 0x56E PUSH2 0xDFE JUMP JUMPDEST PUSH0 PUSH2 0x58E DUP8 ADDRESS PUSH20 0x77B6569F0DBC4F265A575A84540C2A0CAE116A90 PUSH2 0xFE0 JUMP JUMPDEST PUSH1 0x40 MLOAD PUSH32 0x4B7CAB4A00000000000000000000000000000000000000000000000000000000 DUP2 MSTORE PUSH1 0x1 PUSH1 0x1 PUSH1 0xA0 SHL SUB DUP10 AND PUSH1 0x4 DUP3 ADD MSTORE ADDRESS PUSH1 0x24 DUP3 ADD MSTORE SWAP1 SWAP2 POP PUSH0 SWAP1 PUSH20 0x77B6569F0DBC4F265A575A84540C2A0CAE116A90 SWAP1 PUSH4 0x4B7CAB4A SWAP1 PUSH1 0x44 ADD PUSH1 0x20 PUSH1 0x40 MLOAD DUP1 DUP4 SUB DUP2 PUSH0 DUP8 GAS CALL ISZERO DUP1 ISZERO PUSH2 0x609 JUMPI RETURNDATASIZE PUSH0 DUP1 RETURNDATACOPY RETURNDATASIZE PUSH0 REVERT JUMPDEST POP POP POP POP PUSH1 0x40 MLOAD RETURNDATASIZE PUSH1 0x1F NOT PUSH1 0x1F DUP3 ADD AND DUP3 ADD DUP1 PUSH1 0x40 MSTORE POP DUP2 ADD SWAP1 PUSH2 0x62D SWAP2 SWAP1 PUSH2 0x18BC JUMP JUMPDEST SWAP1 POP DUP1 PUSH0 SUB PUSH2 0x683 JUMPI PUSH1 0x40 MLOAD PUSH3 0x461BCD PUSH1 0xE5 SHL DUP2 MSTORE PUSH1 0x20 PUSH1 0x4 DUP3 ADD MSTORE PUSH1 0x11 PUSH1 0x24 DUP3 ADD MSTORE PUSH32 0x4E6F20506F736974696F6E20466F756E64000000000000000000000000000000 PUSH1 0x44 DUP3 ADD MSTORE PUSH1 0x64 ADD JUMPDEST PUSH1 0x40 MLOAD DUP1 SWAP2 SUB SWAP1 REVERT JUMPDEST PUSH0 ADDRESS DUP2 DUP9 SLT ISZERO PUSH2 0x799 JUMPI DUP4 MLOAD SWAP2 POP PUSH1 0x1 PUSH1 0x1 PUSH1 0xA0 SHL SUB DUP1 DUP4 AND SWAP1 DUP9 AND EQ PUSH2 0x6AA JUMPI ADDRESS PUSH2 0x6AC JUMP JUMPDEST DUP9 JUMPDEST PUSH1 0x60 DUP6 ADD MLOAD SWAP1 SWAP2 POP ISZERO PUSH2 0x74A JUMPI PUSH1 0x40 MLOAD PUSH4 0xE96466D PUSH1 0xE4 SHL DUP2 MSTORE PUSH1 0x1 PUSH1 0x1 PUSH1 0xA0 SHL SUB DUP1 DUP13 AND PUSH1 0x4 DUP4 ADD MSTORE PUSH1 0x24 DUP3 ADD DUP11 SWAP1 MSTORE DUP3 AND PUSH1 0x44 DUP3 ADD MSTORE PUSH20 0x17DAD892347803551CEEE2D377D010034DF64347 SWAP1 PUSH4 0xE96466D0 SWAP1 PUSH1 0x64 ADD JUMPDEST PUSH1 0x20 PUSH1 0x40 MLOAD DUP1 DUP4 SUB DUP2 PUSH0 DUP8 GAS CALL ISZERO DUP1 ISZERO PUSH2 0x720 JUMPI RETURNDATASIZE PUSH0 DUP1 RETURNDATACOPY RETURNDATASIZE PUSH0 REVERT JUMPDEST POP POP POP POP PUSH1 0x40 MLOAD RETURNDATASIZE PUSH1 0x1F NOT PUSH1 0x1F DUP3 ADD AND DUP3 ADD DUP1 PUSH1 0x40 MSTORE POP DUP2 ADD SWAP1 PUSH2 0x744 SWAP2 SWAP1 PUSH2 0x18BC JUMP JUMPDEST POP PUSH2 0x8A9 JUMP JUMPDEST PUSH1 0x40 MLOAD PUSH4 0x5833CDF9 PUSH1 0xE0 SHL DUP2 MSTORE PUSH1 0x1 PUSH1 0x1 PUSH1 0xA0 SHL SUB DUP1 DUP13 AND PUSH1 0x4 DUP4 ADD MSTORE PUSH1 0x24 DUP3 ADD DUP11 SWAP1 MSTORE DUP3 AND PUSH1 0x44 DUP3 ADD MSTORE PUSH20 0x17DAD892347803551CEEE2D377D010034DF64347 SWAP1 PUSH4 0x5833CDF9 SWAP1 PUSH1 0x64 ADD PUSH2 0x704 JUMP JUMPDEST DUP4 PUSH1 0x20 ADD MLOAD SWAP2 POP DUP7 PUSH1 0x1 PUSH1 0x1 PUSH1 0xA0 SHL SUB AND DUP3 PUSH1 0x1 PUSH1 0x1 PUSH1 0xA0 SHL SUB AND EQ PUSH2 0x7BF JUMPI ADDRESS PUSH2 0x7C1 JUMP JUMPDEST DUP9 JUMPDEST PUSH1 0x40 DUP6 ADD MLOAD SWAP1 SWAP2 POP ISZERO PUSH2 0x81D JUMPI PUSH1 0x40 MLOAD PUSH4 0xE96466D PUSH1 0xE4 SHL DUP2 MSTORE PUSH1 0x1 PUSH1 0x1 PUSH1 0xA0 SHL SUB DUP1 DUP13 AND PUSH1 0x4 DUP4 ADD MSTORE PUSH1 0x24 DUP3 ADD DUP11 SWAP1 MSTORE DUP3 AND PUSH1 0x44 DUP3 ADD MSTORE PUSH20 0x17DAD892347803551CEEE2D377D010034DF64347 SWAP1 PUSH4 0xE96466D0 SWAP1 PUSH1 0x64 ADD PUSH2 0x704 JUMP JUMPDEST PUSH1 0x40 MLOAD PUSH4 0x5833CDF9 PUSH1 0xE0 SHL DUP2 MSTORE PUSH1 0x1 PUSH1 0x1 PUSH1 0xA0 SHL SUB DUP1 DUP13 AND PUSH1 0x4 DUP4 ADD MSTORE PUSH1 0x24 DUP3 ADD DUP11 SWAP1 MSTORE DUP3 AND PUSH1 0x44 DUP3 ADD MSTORE PUSH20 0x17DAD892347803551CEEE2D377D010034DF64347 SWAP1 PUSH4 0x5833CDF9 SWAP1 PUSH1 0x64 ADD PUSH1 0x20 PUSH1 0x40 MLOAD DUP1 DUP4 SUB DUP2 PUSH0 DUP8 GAS CALL ISZERO DUP1 ISZERO PUSH2 0x883 JUMPI RETURNDATASIZE PUSH0 DUP1 RETURNDATACOPY RETURNDATASIZE PUSH0 REVERT JUMPDEST POP POP POP POP PUSH1 0x40 MLOAD RETURNDATASIZE PUSH1 0x1F NOT PUSH1 0x1F DUP3 ADD AND DUP3 ADD DUP1 PUSH1 0x40 MSTORE POP DUP2 ADD SWAP1 PUSH2 0x8A7 SWAP2 SWAP1 PUSH2 0x18BC JUMP JUMPDEST POP JUMPDEST DUP7 PUSH1 0x1 PUSH1 0x1 PUSH1 0xA0 SHL SUB AND DUP3 PUSH1 0x1 PUSH1 0x1 PUSH1 0xA0 SHL SUB AND EQ PUSH2 0x8FA JUMPI PUSH1 0x40 MLOAD PUSH4 0x70A08231 PUSH1 0xE0 SHL DUP2 MSTORE ADDRESS PUSH1 0x4 DUP3 ADD MSTORE PUSH2 0x8F8 SWAP1 DUP4 SWAP1 DUP10 SWAP1 DUP13 SWAP1 PUSH1 0x1 PUSH1 0x1 PUSH1 0xA0 SHL SUB DUP5 AND SWAP1 PUSH4 0x70A08231 SWAP1 PUSH1 0x24 ADD PUSH2 0x42A JUMP JUMPDEST POP JUMPDEST POP POP POP POP PUSH2 0x907 PUSH1 0x1 PUSH0 SSTORE JUMP JUMPDEST POP POP POP POP POP POP JUMP JUMPDEST PUSH2 0x917 PUSH2 0xDFE JUMP JUMPDEST PUSH2 0x936 DUP9 PUSH20 0xF25212E676D1F7F89CD72FFEE66158F541246445 DUP8 PUSH2 0xE3F JUMP JUMPDEST PUSH1 0x40 MLOAD PUSH4 0x4232CD63 PUSH1 0xE0 SHL DUP2 MSTORE ADDRESS PUSH1 0x4 DUP3 ADD MSTORE PUSH1 0x1 PUSH1 0x1 PUSH1 0xA0 SHL SUB DUP10 AND PUSH1 0x24 DUP3 ADD MSTORE PUSH1 0x44 DUP2 ADD DUP7 SWAP1 MSTORE PUSH20 0xF25212E676D1F7F89CD72FFEE66158F541246445 SWAP1 PUSH4 0x4232CD63 SWAP1 PUSH1 0x64 ADD PUSH0 PUSH1 0x40 MLOAD DUP1 DUP4 SUB DUP2 PUSH0 DUP8 DUP1 EXTCODESIZE ISZERO DUP1 ISZERO PUSH2 0x995 JUMPI PUSH0 DUP1 REVERT JUMPDEST POP GAS CALL ISZERO DUP1 ISZERO PUSH2 0x9A7 JUMPI RETURNDATASIZE PUSH0 DUP1 RETURNDATACOPY RETURNDATASIZE PUSH0 REVERT JUMPDEST POP POP POP POP PUSH0 DUP7 PUSH1 0x1 PUSH1 0x1 PUSH1 0xA0 SHL SUB AND DUP9 PUSH1 0x1 PUSH1 0x1 PUSH1 0xA0 SHL SUB AND EQ PUSH2 0x9CB JUMPI ADDRESS PUSH2 0x9CD JUMP JUMPDEST DUP4 JUMPDEST PUSH1 0x40 MLOAD PUSH4 0x61D9AD3F PUSH1 0xE1 SHL DUP2 MSTORE PUSH1 0x1 PUSH1 0x1 PUSH1 0xA0 SHL SUB DUP1 DUP4 AND PUSH1 0x4 DUP4 ADD MSTORE DUP11 AND PUSH1 0x24 DUP3 ADD MSTORE PUSH1 0x44 DUP2 ADD DUP8 SWAP1 MSTORE SWAP1 SWAP2 POP PUSH20 0xF25212E676D1F7F89CD72FFEE66158F541246445 SWAP1 PUSH4 0xC3B35A7E SWAP1 PUSH1 0x64 ADD PUSH0 PUSH1 0x40 MLOAD DUP1 DUP4 SUB DUP2 PUSH0 DUP8 DUP1 EXTCODESIZE ISZERO DUP1 ISZERO PUSH2 0xA31 JUMPI PUSH0 DUP1 REVERT JUMPDEST POP GAS CALL ISZERO DUP1 ISZERO PUSH2 0xA43 JUMPI RETURNDATASIZE PUSH0 DUP1 RETURNDATACOPY RETURNDATASIZE PUSH0 REVERT JUMPDEST POP POP POP POP DUP7 PUSH1 0x1 PUSH1 0x1 PUSH1 0xA0 SHL SUB AND DUP9 PUSH1 0x1 PUSH1 0x1 PUSH1 0xA0 SHL SUB AND EQ PUSH2 0xA70 JUMPI PUSH2 0xA6E DUP9 DUP9 DUP7 DUP9 DUP8 DUP8 PUSH2 0xEE5 JUMP JUMPDEST POP JUMPDEST POP PUSH2 0x47F PUSH1 0x1 PUSH0 SSTORE JUMP JUMPDEST PUSH2 0xA82 PUSH2 0xDFE JUMP JUMPDEST PUSH0 DUP1 PUSH2 0xAA3 DUP10 ADDRESS PUSH20 0x77B6569F0DBC4F265A575A84540C2A0CAE116A90 PUSH2 0xFE0 JUMP JUMPDEST SWAP1 POP PUSH0 DUP9 PUSH1 0x1 PUSH1 0x1 PUSH1 0xA0 SHL SUB AND DUP8 PUSH1 0x1 PUSH1 0x1 PUSH1 0xA0 SHL SUB AND SUB PUSH2 0xAC5 JUMPI DUP6 PUSH2 0xAD3 JUMP JUMPDEST PUSH2 0xAD3 DUP10 DUP9 ADDRESS DUP10 DUP10 DUP10 PUSH2 0xEE5 JUMP JUMPDEST SWAP1 POP PUSH2 0xAF4 DUP8 PUSH20 0x17DAD892347803551CEEE2D377D010034DF64347 DUP4 PUSH2 0xE3F JUMP JUMPDEST DUP2 PUSH0 ADD MLOAD PUSH1 0x1 PUSH1 0x1 PUSH1 0xA0 SHL SUB AND DUP8 PUSH1 0x1 PUSH1 0x1 PUSH1 0xA0 SHL SUB AND SUB PUSH2 0xB54 JUMPI DUP2 PUSH1 0x40 ADD MLOAD DUP4 SLT PUSH2 0xB4B JUMPI PUSH2 0xB44 PUSH32 0x7FFFFFFFFFFFFFFFFFFFFFFFFFFFFFFFFFFFFFFFFFFFFFFFFFFFFFFFFFFFFFFF PUSH2 0x187A JUMP JUMPDEST SWAP3 POP PUSH2 0xB8B JUMP JUMPDEST PUSH2 0xB44 DUP2 PUSH2 0x187A JUMP JUMPDEST DUP2 PUSH1 0x60 ADD MLOAD DUP4 SLT PUSH2 0xB87 JUMPI PUSH32 0x7FFFFFFFFFFFFFFFFFFFFFFFFFFFFFFFFFFFFFFFFFFFFFFFFFFFFFFFFFFFFFFF SWAP3 POP PUSH2 0xB8B JUMP JUMPDEST DUP1 SWAP3 POP JUMPDEST PUSH1 0x40 MLOAD PUSH32 0x8262654700000000000000000000000000000000000000000000000000000000 DUP2 MSTORE PUSH1 0x1 PUSH1 0x1 PUSH1 0xA0 SHL SUB DUP12 AND PUSH1 0x4 DUP3 ADD MSTORE PUSH1 0x24 DUP2 ADD DUP5 SWAP1 MSTORE ADDRESS PUSH1 0x44 DUP3 ADD MSTORE PUSH20 0x17DAD892347803551CEEE2D377D010034DF64347 SWAP1 PUSH4 0x82626547 SWAP1 PUSH1 0x64 ADD PUSH1 0x20 PUSH1 0x40 MLOAD DUP1 DUP4 SUB DUP2 PUSH0 DUP8 GAS CALL ISZERO DUP1 ISZERO PUSH2 0xC08 JUMPI RETURNDATASIZE PUSH0 DUP1 RETURNDATACOPY RETURNDATASIZE PUSH0 REVERT JUMPDEST POP POP POP POP PUSH1 0x40 MLOAD RETURNDATASIZE PUSH1 0x1F NOT PUSH1 0x1F DUP3 ADD AND DUP3 ADD DUP1 PUSH1 0x40 MSTORE POP DUP2 ADD SWAP1 PUSH2 0xC2C SWAP2 SWAP1 PUSH2 0x18BC JUMP JUMPDEST POP PUSH1 0x40 MLOAD PUSH4 0x70A08231 PUSH1 0xE0 SHL DUP2 MSTORE ADDRESS PUSH1 0x4 DUP3 ADD MSTORE PUSH0 SWAP1 PUSH1 0x1 PUSH1 0x1 PUSH1 0xA0 SHL SUB DUP10 AND SWAP1 PUSH4 0x70A08231 SWAP1 PUSH1 0x24 ADD PUSH1 0x20 PUSH1 0x40 MLOAD DUP1 DUP4 SUB DUP2 DUP7 GAS STATICCALL ISZERO DUP1 ISZERO PUSH2 0xC71 JUMPI RETURNDATASIZE PUSH0 DUP1 RETURNDATACOPY RETURNDATASIZE PUSH0 REVERT JUMPDEST POP POP POP POP PUSH1 0x40 MLOAD RETURNDATASIZE PUSH1 0x1F NOT PUSH1 0x1F DUP3 ADD AND DUP3 ADD DUP1 PUSH1 0x40 MSTORE POP DUP2 ADD SWAP1 PUSH2 0xC95 SWAP2 SWAP1 PUSH2 0x18BC JUMP JUMPDEST SWAP1 POP DUP1 ISZERO PUSH2 0xCA8 JUMPI PUSH2 0xCA8 DUP9 DUP11 DUP4 PUSH2 0x11C5 JUMP JUMPDEST POP POP POP POP PUSH2 0xCB5 PUSH1 0x1 PUSH0 SSTORE JUMP JUMPDEST POP POP POP POP POP POP POP JUMP JUMPDEST PUSH2 0xCC6 PUSH2 0xDFE JUMP JUMPDEST PUSH0 DUP4 PUSH1 0x1 PUSH1 0x1 PUSH1 0xA0 SHL SUB AND DUP7 PUSH1 0x1 PUSH1 0x1 PUSH1 0xA0 SHL SUB AND EQ PUSH2 0xCE6 JUMPI ADDRESS PUSH2 0xCE8 JUMP JUMPDEST DUP7 JUMPDEST PUSH1 0x40 MLOAD PUSH4 0x61D9AD3F PUSH1 0xE1 SHL DUP2 MSTORE PUSH1 0x1 PUSH1 0x1 PUSH1 0xA0 SHL SUB DUP1 DUP4 AND PUSH1 0x4 DUP4 ADD MSTORE DUP9 AND PUSH1 0x24 DUP3 ADD MSTORE PUSH1 0x44 DUP2 ADD DUP8 SWAP1 MSTORE SWAP1 SWAP2 POP PUSH20 0xF25212E676D1F7F89CD72FFEE66158F541246445 SWAP1 PUSH4 0xC3B35A7E SWAP1 PUSH1 0x64 ADD PUSH0 PUSH1 0x40 MLOAD DUP1 DUP4 SUB DUP2 PUSH0 DUP8 DUP1 EXTCODESIZE ISZERO DUP1 ISZERO PUSH2 0xD4C JUMPI PUSH0 DUP1 REVERT JUMPDEST POP GAS CALL ISZERO DUP1 ISZERO PUSH2 0xD5E JUMPI RETURNDATASIZE PUSH0 DUP1 RETURNDATACOPY RETURNDATASIZE PUSH0 REVERT JUMPDEST POP POP POP POP DUP4 PUSH1 0x1 PUSH1 0x1 PUSH1 0xA0 SHL SUB AND DUP7 PUSH1 0x1 PUSH1 0x1 PUSH1 0xA0 SHL SUB AND EQ PUSH2 0xDF4 JUMPI PUSH1 0x40 MLOAD PUSH4 0x70A08231 PUSH1 0xE0 SHL DUP2 MSTORE ADDRESS PUSH1 0x4 DUP3 ADD MSTORE PUSH2 0xDF2 SWAP1 DUP8 SWAP1 DUP7 SWAP1 DUP11 SWAP1 PUSH1 0x1 PUSH1 0x1 PUSH1 0xA0 SHL SUB DUP5 AND SWAP1 PUSH4 0x70A08231 SWAP1 PUSH1 0x24 ADD PUSH1 0x20 PUSH1 0x40 MLOAD DUP1 DUP4 SUB DUP2 DUP7 GAS STATICCALL ISZERO DUP1 ISZERO PUSH2 0xDC7 JUMPI RETURNDATASIZE PUSH0 DUP1 RETURNDATACOPY RETURNDATASIZE PUSH0 REVERT JUMPDEST POP POP POP POP PUSH1 0x40 MLOAD RETURNDATASIZE PUSH1 0x1F NOT PUSH1 0x1F DUP3 ADD AND DUP3 ADD DUP1 PUSH1 0x40 MSTORE POP DUP2 ADD SWAP1 PUSH2 0xDEB SWAP2 SWAP1 PUSH2 0x18BC JUMP JUMPDEST DUP8 DUP8 PUSH2 0xEE5 JUMP JUMPDEST POP JUMPDEST POP PUSH2 0x907 PUSH1 0x1 PUSH0 SSTORE JUMP JUMPDEST PUSH1 0x2 PUSH0 SLOAD SUB PUSH2 0xE39 JUMPI PUSH1 0x40 MLOAD PUSH32 0x3EE5AEB500000000000000000000000000000000000000000000000000000000 DUP2 MSTORE PUSH1 0x4 ADD PUSH1 0x40 MLOAD DUP1 SWAP2 SUB SWAP1 REVERT JUMPDEST PUSH1 0x2 PUSH0 SSTORE JUMP JUMPDEST PUSH1 0x40 MLOAD PUSH32 0xDD62ED3E00000000000000000000000000000000000000000000000000000000 DUP2 MSTORE ADDRESS PUSH1 0x4 DUP3 ADD MSTORE PUSH1 0x1 PUSH1 0x1 PUSH1 0xA0 SHL SUB DUP4 DUP2 AND PUSH1 0x24 DUP4 ADD MSTORE PUSH0 SWAP2 SWAP1 DUP6 AND SWAP1 PUSH4 0xDD62ED3E SWAP1 PUSH1 0x44 ADD PUSH1 0x20 PUSH1 0x40 MLOAD DUP1 DUP4 SUB DUP2 DUP7 GAS STATICCALL ISZERO DUP1 ISZERO PUSH2 0xEA5 JUMPI RETURNDATASIZE PUSH0 DUP1 RETURNDATACOPY RETURNDATASIZE PUSH0 REVERT JUMPDEST POP POP POP POP PUSH1 0x40 MLOAD RETURNDATASIZE PUSH1 0x1F NOT PUSH1 0x1F DUP3 ADD AND DUP3 ADD DUP1 PUSH1 0x40 MSTORE POP DUP2 ADD SWAP1 PUSH2 0xEC9 SWAP2 SWAP1 PUSH2 0x18BC JUMP JUMPDEST SWAP1 POP DUP2 DUP2 LT ISZERO PUSH2 0xEDF JUMPI PUSH2 0xEDF DUP5 DUP5 PUSH0 NOT PUSH2 0x1302 JUMP JUMPDEST POP POP POP POP JUMP JUMPDEST PUSH0 PUSH2 0xF05 DUP8 PUSH20 0xE592427A0AECE92DE3EDEE1F18E0157C05861564 DUP7 PUSH2 0x1302 JUMP JUMPDEST PUSH0 PUSH2 0xF12 DUP9 DUP9 DUP7 DUP7 PUSH2 0x143F JUMP JUMPDEST PUSH1 0x40 DUP1 MLOAD PUSH1 0xA0 DUP2 ADD DUP3 MSTORE DUP3 DUP2 MSTORE PUSH1 0x1 PUSH1 0x1 PUSH1 0xA0 SHL SUB DUP10 AND PUSH1 0x20 DUP3 ADD MSTORE TIMESTAMP DUP2 DUP4 ADD MSTORE PUSH1 0x60 DUP2 ADD DUP9 SWAP1 MSTORE PUSH0 PUSH1 0x80 DUP3 ADD MSTORE SWAP1 MLOAD PUSH32 0xC04B8D5900000000000000000000000000000000000000000000000000000000 DUP2 MSTORE SWAP2 SWAP3 POP SWAP1 PUSH20 0xE592427A0AECE92DE3EDEE1F18E0157C05861564 SWAP1 PUSH4 0xC04B8D59 SWAP1 PUSH2 0xF93 SWAP1 DUP5 SWAP1 PUSH1 0x4 ADD PUSH2 0x18F5 JUMP JUMPDEST PUSH1 0x20 PUSH1 0x40 MLOAD DUP1 DUP4 SUB DUP2 PUSH0 DUP8 GAS CALL ISZERO DUP1 ISZERO PUSH2 0xFAF JUMPI RETURNDATASIZE PUSH0 DUP1 RETURNDATACOPY RETURNDATASIZE PUSH0 REVERT JUMPDEST POP POP POP POP PUSH1 0x40 MLOAD RETURNDATASIZE PUSH1 0x1F NOT PUSH1 0x1F DUP3 ADD AND DUP3 ADD DUP1 PUSH1 0x40 MSTORE POP DUP2 ADD SWAP1 PUSH2 0xFD3 SWAP2 SWAP1 PUSH2 0x18BC JUMP JUMPDEST SWAP10 SWAP9 POP POP POP POP POP POP POP POP POP JUMP JUMPDEST PUSH2 0x102B PUSH1 0x40 MLOAD DUP1 PUSH1 0xE0 ADD PUSH1 0x40 MSTORE DUP1 PUSH0 PUSH1 0x1 PUSH1 0x1 PUSH1 0xA0 SHL SUB AND DUP2 MSTORE PUSH1 0x20 ADD PUSH0 PUSH1 0x1 PUSH1 0x1 PUSH1 0xA0 SHL SUB AND DUP2 MSTORE PUSH1 0x20 ADD PUSH0 DUP2 MSTORE PUSH1 0x20 ADD PUSH0 DUP2 MSTORE PUSH1 0x20 ADD PUSH0 DUP2 MSTORE PUSH1 0x20 ADD PUSH0 DUP2 MSTORE PUSH1 0x20 ADD PUSH0 DUP2 MSTORE POP SWAP1 JUMP JUMPDEST PUSH1 0x40 MLOAD PUSH32 0x13D21CDF00000000000000000000000000000000000000000000000000000000 DUP2 MSTORE PUSH1 0x1 PUSH1 0x1 PUSH1 0xA0 SHL SUB DUP6 AND PUSH1 0x4 DUP3 ADD MSTORE PUSH0 SWAP1 PUSH20 0x4F57C40D3DAA7BF2EC970DD157B1268982158720 SWAP1 PUSH4 0x13D21CDF SWAP1 PUSH1 0x24 ADD PUSH0 PUSH1 0x40 MLOAD DUP1 DUP4 SUB DUP2 DUP7 GAS STATICCALL ISZERO DUP1 ISZERO PUSH2 0x109B JUMPI RETURNDATASIZE PUSH0 DUP1 RETURNDATACOPY RETURNDATASIZE PUSH0 REVERT JUMPDEST POP POP POP POP PUSH1 0x40 MLOAD RETURNDATASIZE PUSH0 DUP3 RETURNDATACOPY PUSH1 0x1F RETURNDATASIZE SWAP1 DUP2 ADD PUSH1 0x1F NOT AND DUP3 ADD PUSH1 0x40 MSTORE PUSH2 0x10C2 SWAP2 SWAP1 DUP2 ADD SWAP1 PUSH2 0x1A4B JUMP JUMPDEST PUSH1 0x40 MLOAD PUSH32 0xF408646E00000000000000000000000000000000000000000000000000000000 DUP2 MSTORE PUSH1 0x1 PUSH1 0x1 PUSH1 0xA0 SHL SUB DUP1 DUP7 AND PUSH1 0x4 DUP4 ADD MSTORE DUP1 DUP9 AND PUSH1 0x24 DUP4 ADD MSTORE DUP7 AND PUSH1 0x44 DUP3 ADD MSTORE SWAP1 SWAP2 POP PUSH0 SWAP1 PUSH20 0x4F57C40D3DAA7BF2EC970DD157B1268982158720 SWAP1 PUSH4 0xF408646E SWAP1 PUSH1 0x64 ADD PUSH2 0x280 PUSH1 0x40 MLOAD DUP1 DUP4 SUB DUP2 DUP7 GAS STATICCALL ISZERO DUP1 ISZERO PUSH2 0x1147 JUMPI RETURNDATASIZE PUSH0 DUP1 RETURNDATACOPY RETURNDATASIZE PUSH0 REVERT JUMPDEST POP POP POP POP PUSH1 0x40 MLOAD RETURNDATASIZE PUSH1 0x1F NOT PUSH1 0x1F DUP3 ADD AND DUP3 ADD DUP1 PUSH1 0x40 MSTORE POP DUP2 ADD SWAP1 PUSH2 0x116B SWAP2 SWAP1 PUSH2 0x1B5A JUMP JUMPDEST PUSH1 0xC0 DUP1 DUP5 ADD MLOAD PUSH1 0x1 PUSH1 0x1 PUSH1 0xA0 SHL SUB SWAP1 DUP2 AND DUP7 MSTORE PUSH1 0xE0 DUP6 ADD MLOAD AND PUSH1 0x20 DUP7 ADD MSTORE SWAP3 MLOAD SWAP3 DUP5 ADD SWAP3 SWAP1 SWAP3 MSTORE POP PUSH2 0x1E0 DUP2 ADD MLOAD PUSH1 0x40 DUP4 ADD MSTORE PUSH2 0x220 DUP2 ADD MLOAD PUSH1 0x60 DUP4 ADD MSTORE PUSH2 0x1C0 DUP2 ADD MLOAD PUSH1 0xA0 DUP4 ADD MSTORE PUSH2 0x200 ADD MLOAD PUSH1 0x80 DUP3 ADD MSTORE SWAP4 SWAP3 POP POP POP JUMP JUMPDEST PUSH1 0x40 DUP1 MLOAD PUSH1 0x1 PUSH1 0x1 PUSH1 0xA0 SHL SUB DUP5 DUP2 AND PUSH1 0x24 DUP4 ADD MSTORE PUSH1 0x44 DUP1 DUP4 ADD DUP6 SWAP1 MSTORE DUP4 MLOAD DUP1 DUP5 SUB SWAP1 SWAP2 ADD DUP2 MSTORE PUSH1 0x64 SWAP1 SWAP3 ADD DUP4 MSTORE PUSH1 0x20 DUP3 ADD DUP1 MLOAD PUSH28 0xFFFFFFFFFFFFFFFFFFFFFFFFFFFFFFFFFFFFFFFFFFFFFFFFFFFFFFFF AND PUSH32 0xA9059CBB00000000000000000000000000000000000000000000000000000000 OR SWAP1 MSTORE SWAP2 MLOAD PUSH0 SWAP3 DUP4 SWAP3 SWAP1 DUP8 AND SWAP2 PUSH2 0x124E SWAP2 SWAP1 PUSH2 0x1C4A JUMP JUMPDEST PUSH0 PUSH1 0x40 MLOAD DUP1 DUP4 SUB DUP2 PUSH0 DUP7 GAS CALL SWAP2 POP POP RETURNDATASIZE DUP1 PUSH0 DUP2 EQ PUSH2 0x1287 JUMPI PUSH1 0x40 MLOAD SWAP2 POP PUSH1 0x1F NOT PUSH1 0x3F RETURNDATASIZE ADD AND DUP3 ADD PUSH1 0x40 MSTORE RETURNDATASIZE DUP3 MSTORE RETURNDATASIZE PUSH0 PUSH1 0x20 DUP5 ADD RETURNDATACOPY PUSH2 0x128C JUMP JUMPDEST PUSH1 0x60 SWAP2 POP JUMPDEST POP SWAP2 POP SWAP2 POP DUP2 DUP1 ISZERO PUSH2 0x12B6 JUMPI POP DUP1 MLOAD ISZERO DUP1 PUSH2 0x12B6 JUMPI POP DUP1 DUP1 PUSH1 0x20 ADD SWAP1 MLOAD DUP2 ADD SWAP1 PUSH2 0x12B6 SWAP2 SWAP1 PUSH2 0x1C65 JUMP JUMPDEST PUSH2 0x55F JUMPI PUSH1 0x40 MLOAD PUSH3 0x461BCD PUSH1 0xE5 SHL DUP2 MSTORE PUSH1 0x20 PUSH1 0x4 DUP3 ADD MSTORE PUSH1 0x2 PUSH1 0x24 DUP3 ADD MSTORE PUSH32 0x5354000000000000000000000000000000000000000000000000000000000000 PUSH1 0x44 DUP3 ADD MSTORE PUSH1 0x64 ADD PUSH2 0x67A JUMP JUMPDEST PUSH1 0x40 DUP1 MLOAD PUSH1 0x1 PUSH1 0x1 PUSH1 0xA0 SHL SUB DUP5 DUP2 AND PUSH1 0x24 DUP4 ADD MSTORE PUSH1 0x44 DUP1 DUP4 ADD DUP6 SWAP1 MSTORE DUP4 MLOAD DUP1 DUP5 SUB SWAP1 SWAP2 ADD DUP2 MSTORE PUSH1 0x64 SWAP1 SWAP3 ADD DUP4 MSTORE PUSH1 0x20 DUP3 ADD DUP1 MLOAD PUSH28 0xFFFFFFFFFFFFFFFFFFFFFFFFFFFFFFFFFFFFFFFFFFFFFFFFFFFFFFFF AND PUSH32 0x95EA7B300000000000000000000000000000000000000000000000000000000 OR SWAP1 MSTORE SWAP2 MLOAD PUSH0 SWAP3 DUP4 SWAP3 SWAP1 DUP8 AND SWAP2 PUSH2 0x138B SWAP2 SWAP1 PUSH2 0x1C4A JUMP JUMPDEST PUSH0 PUSH1 0x40 MLOAD DUP1 DUP4 SUB DUP2 PUSH0 DUP7 GAS CALL SWAP2 POP POP RETURNDATASIZE DUP1 PUSH0 DUP2 EQ PUSH2 0x13C4 JUMPI PUSH1 0x40 MLOAD SWAP2 POP PUSH1 0x1F NOT PUSH1 0x3F RETURNDATASIZE ADD AND DUP3 ADD PUSH1 0x40 MSTORE RETURNDATASIZE DUP3 MSTORE RETURNDATASIZE PUSH0 PUSH1 0x20 DUP5 ADD RETURNDATACOPY PUSH2 0x13C9 JUMP JUMPDEST PUSH1 0x60 SWAP2 POP JUMPDEST POP SWAP2 POP SWAP2 POP DUP2 DUP1 ISZERO PUSH2 0x13F3 JUMPI POP DUP1 MLOAD ISZERO DUP1 PUSH2 0x13F3 JUMPI POP DUP1 DUP1 PUSH1 0x20 ADD SWAP1 MLOAD DUP2 ADD SWAP1 PUSH2 0x13F3 SWAP2 SWAP1 PUSH2 0x1C65 JUMP JUMPDEST PUSH2 0x55F JUMPI PUSH1 0x40 MLOAD PUSH3 0x461BCD PUSH1 0xE5 SHL DUP2 MSTORE PUSH1 0x20 PUSH1 0x4 DUP3 ADD MSTORE PUSH1 0x2 PUSH1 0x24 DUP3 ADD MSTORE PUSH32 0x5341000000000000000000000000000000000000000000000000000000000000 PUSH1 0x44 DUP3 ADD MSTORE PUSH1 0x64 ADD PUSH2 0x67A JUMP JUMPDEST PUSH1 0x60 PUSH1 0x1 DUP3 GT ISZERO PUSH2 0x1534 JUMPI DUP5 DUP4 DUP4 PUSH0 DUP2 DUP2 LT PUSH2 0x145D JUMPI PUSH2 0x145D PUSH2 0x1C84 JUMP JUMPDEST SWAP1 POP PUSH1 0x20 MUL ADD PUSH1 0x20 DUP2 ADD SWAP1 PUSH2 0x1472 SWAP2 SWAP1 PUSH2 0x1C98 JUMP JUMPDEST PUSH20 0xD500B1D8E8EF31E21C99D1DB9A6444D3ADF1270 DUP6 DUP6 PUSH1 0x1 DUP2 DUP2 LT PUSH2 0x149A JUMPI PUSH2 0x149A PUSH2 0x1C84 JUMP JUMPDEST SWAP1 POP PUSH1 0x20 MUL ADD PUSH1 0x20 DUP2 ADD SWAP1 PUSH2 0x14AF SWAP2 SWAP1 PUSH2 0x1C98 JUMP JUMPDEST PUSH1 0x40 MLOAD PUSH12 0xFFFFFFFFFFFFFFFFFFFFFFFF NOT PUSH1 0x60 SWAP6 DUP7 SHL DUP2 AND PUSH1 0x20 DUP4 ADD MSTORE PUSH32 0xFFFFFF0000000000000000000000000000000000000000000000000000000000 PUSH1 0xE8 SWAP6 DUP7 SHL DUP2 AND PUSH1 0x34 DUP5 ADD MSTORE SWAP4 DUP7 SHL DUP2 AND PUSH1 0x37 DUP4 ADD MSTORE SWAP2 SWAP1 SWAP4 SHL SWAP1 SWAP2 AND PUSH1 0x4B DUP4 ADD MSTORE SWAP2 DUP7 SWAP1 SHL SWAP1 SWAP2 AND PUSH1 0x4E DUP3 ADD MSTORE PUSH1 0x62 ADD PUSH1 0x40 MLOAD PUSH1 0x20 DUP2 DUP4 SUB SUB DUP2 MSTORE SWAP1 PUSH1 0x40 MSTORE SWAP1 POP PUSH2 0x15C6 JUMP JUMPDEST DUP5 DUP4 DUP4 PUSH0 DUP2 DUP2 LT PUSH2 0x1547 JUMPI PUSH2 0x1547 PUSH2 0x1C84 JUMP JUMPDEST SWAP1 POP PUSH1 0x20 MUL ADD PUSH1 0x20 DUP2 ADD SWAP1 PUSH2 0x155C SWAP2 SWAP1 PUSH2 0x1C98 JUMP JUMPDEST PUSH1 0x40 MLOAD PUSH1 0x60 SWAP3 DUP4 SHL PUSH12 0xFFFFFFFFFFFFFFFFFFFFFFFF NOT SWAP1 DUP2 AND PUSH1 0x20 DUP4 ADD MSTORE PUSH1 0xE8 SWAP3 SWAP1 SWAP3 SHL PUSH32 0xFFFFFF0000000000000000000000000000000000000000000000000000000000 AND PUSH1 0x34 DUP3 ADD MSTORE SWAP2 DUP7 SWAP1 SHL AND PUSH1 0x37 DUP3 ADD MSTORE PUSH1 0x4B ADD PUSH1 0x40 MLOAD PUSH1 0x20 DUP2 DUP4 SUB SUB DUP2 MSTORE SWAP1 PUSH1 0x40 MSTORE SWAP1 POP JUMPDEST SWAP5 SWAP4 POP POP POP POP JUMP JUMPDEST PUSH1 0x1 PUSH1 0x1 PUSH1 0xA0 SHL SUB DUP2 AND DUP2 EQ PUSH2 0x15E2 JUMPI PUSH0 DUP1 REVERT JUMPDEST POP JUMP JUMPDEST PUSH0 DUP1 DUP4 PUSH1 0x1F DUP5 ADD SLT PUSH2 0x15F5 JUMPI PUSH0 DUP1 REVERT JUMPDEST POP DUP2 CALLDATALOAD PUSH8 0xFFFFFFFFFFFFFFFF DUP2 GT ISZERO PUSH2 0x160C JUMPI PUSH0 DUP1 REVERT JUMPDEST PUSH1 0x20 DUP4 ADD SWAP2 POP DUP4 PUSH1 0x20 DUP3 PUSH1 0x5 SHL DUP6 ADD ADD GT ISZERO PUSH2 0x1626 JUMPI PUSH0 DUP1 REVERT JUMPDEST SWAP3 POP SWAP3 SWAP1 POP JUMP JUMPDEST PUSH0 DUP1 PUSH0 DUP1 PUSH0 DUP1 PUSH0 DUP1 PUSH1 0xE0 DUP10 DUP12 SUB SLT ISZERO PUSH2 0x1644 JUMPI PUSH0 DUP1 REVERT JUMPDEST DUP9 CALLDATALOAD PUSH2 0x164F DUP2 PUSH2 0x15CE JUMP JUMPDEST SWAP8 POP PUSH1 0x20 DUP10 ADD CALLDATALOAD PUSH2 0x165F DUP2 PUSH2 0x15CE JUMP JUMPDEST SWAP7 POP PUSH1 0x40 DUP10 ADD CALLDATALOAD PUSH2 0x166F DUP2 PUSH2 0x15CE JUMP JUMPDEST SWAP6 POP PUSH1 0x60 DUP10 ADD CALLDATALOAD SWAP5 POP PUSH1 0x80 DUP10 ADD CALLDATALOAD SWAP4 POP PUSH1 0xA0 DUP10 ADD CALLDATALOAD PUSH2 0x168D DUP2 PUSH2 0x15CE JUMP JUMPDEST SWAP3 POP PUSH1 0xC0 DUP10 ADD CALLDATALOAD PUSH8 0xFFFFFFFFFFFFFFFF DUP2 GT ISZERO PUSH2 0x16A8 JUMPI PUSH0 DUP1 REVERT JUMPDEST PUSH2 0x16B4 DUP12 DUP3 DUP13 ADD PUSH2 0x15E5 JUMP JUMPDEST SWAP10 SWAP13 SWAP9 SWAP12 POP SWAP7 SWAP10 POP SWAP5 SWAP8 SWAP4 SWAP7 SWAP3 SWAP6 SWAP5 POP POP POP JUMP JUMPDEST PUSH0 DUP1 PUSH0 DUP1 PUSH0 PUSH1 0x80 DUP7 DUP9 SUB SLT ISZERO PUSH2 0x16DC JUMPI PUSH0 DUP1 REVERT JUMPDEST DUP6 CALLDATALOAD PUSH2 0x16E7 DUP2 PUSH2 0x15CE JUMP JUMPDEST SWAP5 POP PUSH1 0x20 DUP7 ADD CALLDATALOAD PUSH2 0x16F7 DUP2 PUSH2 0x15CE JUMP JUMPDEST SWAP4 POP PUSH1 0x40 DUP7 ADD CALLDATALOAD SWAP3 POP PUSH1 0x60 DUP7 ADD CALLDATALOAD PUSH8 0xFFFFFFFFFFFFFFFF DUP2 GT ISZERO PUSH2 0x1719 JUMPI PUSH0 DUP1 REVERT JUMPDEST PUSH2 0x1725 DUP9 DUP3 DUP10 ADD PUSH2 0x15E5 JUMP JUMPDEST SWAP7 SWAP10 SWAP6 SWAP9 POP SWAP4 SWAP7 POP SWAP3 SWAP5 SWAP4 SWAP3 POP POP POP JUMP JUMPDEST PUSH0 DUP1 PUSH0 DUP1 PUSH0 DUP1 PUSH1 0xA0 DUP8 DUP10 SUB SLT ISZERO PUSH2 0x174B JUMPI PUSH0 DUP1 REVERT JUMPDEST DUP7 CALLDATALOAD PUSH2 0x1756 DUP2 PUSH2 0x15CE JUMP JUMPDEST SWAP6 POP PUSH1 0x20 DUP8 ADD CALLDATALOAD PUSH2 0x1766 DUP2 PUSH2 0x15CE JUMP JUMPDEST SWAP5 POP PUSH1 0x40 DUP8 ADD CALLDATALOAD SWAP4 POP PUSH1 0x60 DUP8 ADD CALLDATALOAD PUSH2 0x177D DUP2 PUSH2 0x15CE JUMP JUMPDEST SWAP3 POP PUSH1 0x80 DUP8 ADD CALLDATALOAD PUSH8 0xFFFFFFFFFFFFFFFF DUP2 GT ISZERO PUSH2 0x1798 JUMPI PUSH0 DUP1 REVERT JUMPDEST PUSH2 0x17A4 DUP10 DUP3 DUP11 ADD PUSH2 0x15E5 JUMP JUMPDEST SWAP8 SWAP11 SWAP7 SWAP10 POP SWAP5 SWAP8 POP SWAP3 SWAP6 SWAP4 SWAP5 SWAP3 POP POP POP JUMP JUMPDEST PUSH0 DUP1 PUSH0 DUP1 PUSH0 DUP1 PUSH0 PUSH1 0xC0 DUP9 DUP11 SUB SLT ISZERO PUSH2 0x17CC JUMPI PUSH0 DUP1 REVERT JUMPDEST DUP8 CALLDATALOAD PUSH2 0x17D7 DUP2 PUSH2 0x15CE JUMP JUMPDEST SWAP7 POP PUSH1 0x20 DUP9 ADD CALLDATALOAD PUSH2 0x17E7 DUP2 PUSH2 0x15CE JUMP JUMPDEST SWAP6 POP PUSH1 0x40 DUP9 ADD CALLDATALOAD PUSH2 0x17F7 DUP2 PUSH2 0x15CE JUMP JUMPDEST SWAP5 POP PUSH1 0x60 DUP9 ADD CALLDATALOAD PUSH2 0x1807 DUP2 PUSH2 0x15CE JUMP JUMPDEST SWAP4 POP PUSH1 0x80 DUP9 ADD CALLDATALOAD SWAP3 POP PUSH1 0xA0 DUP9 ADD CALLDATALOAD PUSH8 0xFFFFFFFFFFFFFFFF DUP2 GT ISZERO PUSH2 0x1829 JUMPI PUSH0 DUP1 REVERT JUMPDEST PUSH2 0x1835 DUP11 DUP3 DUP12 ADD PUSH2 0x15E5 JUMP JUMPDEST SWAP9 SWAP12 SWAP8 SWAP11 POP SWAP6 SWAP9 POP SWAP4 SWAP7 SWAP3 SWAP6 SWAP3 SWAP4 POP POP POP JUMP JUMPDEST DUP1 MLOAD PUSH2 0x1853 DUP2 PUSH2 0x15CE JUMP JUMPDEST SWAP2 SWAP1 POP JUMP JUMPDEST PUSH0 PUSH1 0x20 DUP3 DUP5 SUB SLT ISZERO PUSH2 0x1868 JUMPI PUSH0 DUP1 REVERT JUMPDEST DUP2 MLOAD PUSH2 0x1873 DUP2 PUSH2 0x15CE JUMP JUMPDEST SWAP4 SWAP3 POP POP POP JUMP JUMPDEST PUSH0 PUSH32 0x8000000000000000000000000000000000000000000000000000000000000000 DUP3 SUB PUSH2 0x18B6 JUMPI PUSH4 0x4E487B71 PUSH1 0xE0 SHL PUSH0 MSTORE PUSH1 0x11 PUSH1 0x4 MSTORE PUSH1 0x24 PUSH0 REVERT JUMPDEST POP PUSH0 SUB SWAP1 JUMP JUMPDEST PUSH0 PUSH1 0x20 DUP3 DUP5 SUB SLT ISZERO PUSH2 0x18CC JUMPI PUSH0 DUP1 REVERT JUMPDEST POP MLOAD SWAP2 SWAP1 POP JUMP JUMPDEST PUSH0 JUMPDEST DUP4 DUP2 LT ISZERO PUSH2 0x18ED JUMPI DUP2 DUP2 ADD MLOAD DUP4 DUP3 ADD MSTORE PUSH1 0x20 ADD PUSH2 0x18D5 JUMP JUMPDEST POP POP PUSH0 SWAP2 ADD MSTORE JUMP JUMPDEST PUSH1 0x20 DUP2 MSTORE PUSH0 DUP3 MLOAD PUSH1 0xA0 PUSH1 0x20 DUP5 ADD MSTORE DUP1 MLOAD DUP1 PUSH1 0xC0 DUP6 ADD MSTORE PUSH2 0x191C DUP2 PUSH1 0xE0 DUP7 ADD PUSH1 0x20 DUP6 ADD PUSH2 0x18D3 JUMP JUMPDEST PUSH1 0x1 PUSH1 0x1 PUSH1 0xA0 SHL SUB PUSH1 0x20 DUP7 ADD MLOAD AND PUSH1 0x40 DUP6 ADD MSTORE PUSH1 0x40 DUP6 ADD MLOAD PUSH1 0x60 DUP6 ADD MSTORE PUSH1 0x60 DUP6 ADD MLOAD PUSH1 0x80 DUP6 ADD MSTORE PUSH1 0x80 DUP6 ADD MLOAD PUSH1 0xA0 DUP6 ADD MSTORE PUSH1 0xE0 PUSH1 0x1F NOT PUSH1 0x1F DUP4 ADD AND DUP6 ADD ADD SWAP3 POP POP POP SWAP3 SWAP2 POP POP JUMP JUMPDEST PUSH4 0x4E487B71 PUSH1 0xE0 SHL PUSH0 MSTORE PUSH1 0x41 PUSH1 0x4 MSTORE PUSH1 0x24 PUSH0 REVERT JUMPDEST PUSH1 0x40 MLOAD PUSH2 0x180 DUP2 ADD PUSH8 0xFFFFFFFFFFFFFFFF DUP2 GT DUP3 DUP3 LT OR ISZERO PUSH2 0x199C JUMPI PUSH2 0x199C PUSH2 0x1964 JUMP JUMPDEST PUSH1 0x40 MSTORE SWAP1 JUMP JUMPDEST PUSH1 0x40 MLOAD PUSH2 0x280 DUP2 ADD PUSH8 0xFFFFFFFFFFFFFFFF DUP2 GT DUP3 DUP3 LT OR ISZERO PUSH2 0x199C JUMPI PUSH2 0x199C PUSH2 0x1964 JUMP JUMPDEST PUSH0 DUP3 PUSH1 0x1F DUP4 ADD SLT PUSH2 0x19D5 JUMPI PUSH0 DUP1 REVERT JUMPDEST DUP2 MLOAD PUSH8 0xFFFFFFFFFFFFFFFF DUP1 DUP3 GT ISZERO PUSH2 0x19F0 JUMPI PUSH2 0x19F0 PUSH2 0x1964 JUMP JUMPDEST PUSH1 0x40 MLOAD PUSH1 0x1F DUP4 ADD PUSH1 0x1F NOT SWAP1 DUP2 AND PUSH1 0x3F ADD AND DUP2 ADD SWAP1 DUP3 DUP3 GT DUP2 DUP4 LT OR ISZERO PUSH2 0x1A18 JUMPI PUSH2 0x1A18 PUSH2 0x1964 JUMP JUMPDEST DUP2 PUSH1 0x40 MSTORE DUP4 DUP2 MSTORE DUP7 PUSH1 0x20 DUP6 DUP9 ADD ADD GT ISZERO PUSH2 0x1A30 JUMPI PUSH0 DUP1 REVERT JUMPDEST PUSH2 0x1A41 DUP5 PUSH1 0x20 DUP4 ADD PUSH1 0x20 DUP10 ADD PUSH2 0x18D3 JUMP JUMPDEST SWAP7 SWAP6 POP POP POP POP POP POP JUMP JUMPDEST PUSH0 PUSH1 0x20 DUP3 DUP5 SUB SLT ISZERO PUSH2 0x1A5B JUMPI PUSH0 DUP1 REVERT JUMPDEST DUP2 MLOAD PUSH8 0xFFFFFFFFFFFFFFFF DUP1 DUP3 GT ISZERO PUSH2 0x1A72 JUMPI PUSH0 DUP1 REVERT JUMPDEST SWAP1 DUP4 ADD SWAP1 PUSH2 0x180 DUP3 DUP7 SUB SLT ISZERO PUSH2 0x1A86 JUMPI PUSH0 DUP1 REVERT JUMPDEST PUSH2 0x1A8E PUSH2 0x1978 JUMP JUMPDEST DUP3 MLOAD DUP2 MSTORE PUSH1 0x20 DUP4 ADD MLOAD PUSH1 0x20 DUP3 ADD MSTORE PUSH1 0x40 DUP4 ADD MLOAD PUSH1 0x40 DUP3 ADD MSTORE PUSH1 0x60 DUP4 ADD MLOAD PUSH1 0x60 DUP3 ADD MSTORE PUSH1 0x80 DUP4 ADD MLOAD PUSH1 0x80 DUP3 ADD MSTORE PUSH2 0x1AC6 PUSH1 0xA0 DUP5 ADD PUSH2 0x1848 JUMP JUMPDEST PUSH1 0xA0 DUP3 ADD MSTORE PUSH2 0x1AD7 PUSH1 0xC0 DUP5 ADD PUSH2 0x1848 JUMP JUMPDEST PUSH1 0xC0 DUP3 ADD MSTORE PUSH2 0x1AE8 PUSH1 0xE0 DUP5 ADD PUSH2 0x1848 JUMP JUMPDEST PUSH1 0xE0 DUP3 ADD MSTORE PUSH2 0x100 DUP1 DUP5 ADD MLOAD DUP4 DUP2 GT ISZERO PUSH2 0x1B00 JUMPI PUSH0 DUP1 REVERT JUMPDEST PUSH2 0x1B0C DUP9 DUP3 DUP8 ADD PUSH2 0x19C6 JUMP JUMPDEST DUP3 DUP5 ADD MSTORE POP POP PUSH2 0x120 DUP1 DUP5 ADD MLOAD DUP4 DUP2 GT ISZERO PUSH2 0x1B25 JUMPI PUSH0 DUP1 REVERT JUMPDEST PUSH2 0x1B31 DUP9 DUP3 DUP8 ADD PUSH2 0x19C6 JUMP JUMPDEST SWAP2 DUP4 ADD SWAP2 SWAP1 SWAP2 MSTORE POP PUSH2 0x140 DUP4 DUP2 ADD MLOAD SWAP1 DUP3 ADD MSTORE PUSH2 0x160 SWAP3 DUP4 ADD MLOAD SWAP3 DUP2 ADD SWAP3 SWAP1 SWAP3 MSTORE POP SWAP4 SWAP3 POP POP POP JUMP JUMPDEST PUSH0 PUSH2 0x280 DUP3 DUP5 SUB SLT ISZERO PUSH2 0x1B6B JUMPI PUSH0 DUP1 REVERT JUMPDEST PUSH2 0x1B73 PUSH2 0x19A2 JUMP JUMPDEST DUP3 MLOAD DUP2 MSTORE PUSH1 0x20 DUP1 DUP5 ADD MLOAD SWAP1 DUP3 ADD MSTORE PUSH1 0x40 DUP1 DUP5 ADD MLOAD SWAP1 DUP3 ADD MSTORE PUSH1 0x60 DUP1 DUP5 ADD MLOAD SWAP1 DUP3 ADD MSTORE PUSH1 0x80 DUP1 DUP5 ADD MLOAD SWAP1 DUP3 ADD MSTORE PUSH1 0xA0 DUP1 DUP5 ADD MLOAD SWAP1 DUP3 ADD MSTORE PUSH1 0xC0 DUP1 DUP5 ADD MLOAD SWAP1 DUP3 ADD MSTORE PUSH1 0xE0 DUP1 DUP5 ADD MLOAD SWAP1 DUP3 ADD MSTORE PUSH2 0x100 DUP1 DUP5 ADD MLOAD SWAP1 DUP3 ADD MSTORE PUSH2 0x120 DUP1 DUP5 ADD MLOAD SWAP1 DUP3 ADD MSTORE PUSH2 0x140 DUP1 DUP5 ADD MLOAD SWAP1 DUP3 ADD MSTORE PUSH2 0x160 DUP1 DUP5 ADD MLOAD SWAP1 DUP3 ADD MSTORE PUSH2 0x180 DUP1 DUP5 ADD MLOAD SWAP1 DUP3 ADD MSTORE PUSH2 0x1A0 DUP1 DUP5 ADD MLOAD SWAP1 DUP3 ADD MSTORE PUSH2 0x1C0 DUP1 DUP5 ADD MLOAD SWAP1 DUP3 ADD MSTORE PUSH2 0x1E0 DUP1 DUP5 ADD MLOAD SWAP1 DUP3 ADD MSTORE PUSH2 0x200 DUP1 DUP5 ADD MLOAD SWAP1 DUP3 ADD MSTORE PUSH2 0x220 DUP1 DUP5 ADD MLOAD SWAP1 DUP3 ADD MSTORE PUSH2 0x240 DUP1 DUP5 ADD MLOAD SWAP1 DUP3 ADD MSTORE PUSH2 0x260 SWAP3 DUP4 ADD MLOAD SWAP3 DUP2 ADD SWAP3 SWAP1 SWAP3 MSTORE POP SWAP2 SWAP1 POP JUMP JUMPDEST PUSH0 DUP3 MLOAD PUSH2 0x1C5B DUP2 DUP5 PUSH1 0x20 DUP8 ADD PUSH2 0x18D3 JUMP JUMPDEST SWAP2 SWAP1 SWAP2 ADD SWAP3 SWAP2 POP POP JUMP JUMPDEST PUSH0 PUSH1 0x20 DUP3 DUP5 SUB SLT ISZERO PUSH2 0x1C75 JUMPI PUSH0 DUP1 REVERT JUMPDEST DUP2 MLOAD DUP1 ISZERO ISZERO DUP2 EQ PUSH2 0x1873 JUMPI PUSH0 DUP1 REVERT JUMPDEST PUSH4 0x4E487B71 PUSH1 0xE0 SHL PUSH0 MSTORE PUSH1 0x32 PUSH1 0x4 MSTORE PUSH1 0x24 PUSH0 REVERT JUMPDEST PUSH0 PUSH1 0x20 DUP3 DUP5 SUB SLT ISZERO PUSH2 0x1CA8 JUMPI PUSH0 DUP1 REVERT JUMPDEST DUP2 CALLDATALOAD PUSH3 0xFFFFFF DUP2 AND DUP2 EQ PUSH2 0x1873 JUMPI PUSH0 DUP1 REVERT INVALID LOG2 PUSH5 0x6970667358 0x22 SLT KECCAK256 PUSH5 0xC60270B3DC BYTE 0xE8 SHR SWAP8 DUP8 0xDF 0xB4 DUP16 BYTE DUP2 0xBB PUSH16 0xD0AD097401C33698F04AC2DF47216473 PUSH16 0x6C634300081400330000000000000000 "
		},
		"gasEstimates": {
			"creation": {
				"codeDepositCost": "1481600",
				"executionCost": "infinite",
				"totalCost": "infinite"
			},
			"external": {
				"cometAddress()": "226",
				"compBorrow(address,address,address,uint256,uint256,address,uint24[])": "infinite",
				"compRedeem(address,address,uint256,address,uint24[])": "infinite",
				"compRepay(address,address,uint256,uint24[])": "infinite",
				"controller()": "infinite",
				"helper()": "249",
				"swapRouter()": "225",
				"uniBorrow(address,address,address,uint256,int256,address,uint24[])": "infinite",
				"uniRedeem(address,address,int256,address,uint24[])": "infinite",
				"uniRepay(address,address,address,address,uint256,uint24[])": "infinite",
				"unilendCore()": "248",
				"unilendPosition()": "247"
			},
			"internal": {
				"buildSwapPath(address,address,uint24[] calldata)": "infinite",
				"exactInputSwap(address,address,address,uint256,uint24[] calldata)": "infinite",
				"getPoolData(address,address,address)": "infinite",
				"safeApproveIfNeeded(address,address,uint256)": "infinite"
			}
		},
		"methodIdentifiers": {
			"cometAddress()": "6bbb194b",
			"compBorrow(address,address,address,uint256,uint256,address,uint24[])": "a36cc4cd",
			"compRedeem(address,address,uint256,address,uint24[])": "baecbfcd",
			"compRepay(address,address,uint256,uint24[])": "6b5e7305",
			"controller()": "f77c4791",
			"helper()": "63b0e66a",
			"swapRouter()": "c31c9c07",
			"uniBorrow(address,address,address,uint256,int256,address,uint24[])": "315a1451",
			"uniRedeem(address,address,int256,address,uint24[])": "73e8f1fa",
			"uniRepay(address,address,address,address,uint256,uint24[])": "b5c8b759",
			"unilendCore()": "b93bc415",
			"unilendPosition()": "e1ab2228"
		}
	},
	"abi": [
		{
			"inputs": [],
			"stateMutability": "nonpayable",
			"type": "constructor"
		},
		{
			"inputs": [],
			"name": "ReentrancyGuardReentrantCall",
			"type": "error"
		},
		{
			"anonymous": false,
			"inputs": [
				{
					"indexed": true,
					"internalType": "address",
					"name": "tokenAddress",
					"type": "address"
				},
				{
					"indexed": true,
					"internalType": "address",
					"name": "user",
					"type": "address"
				},
				{
					"indexed": false,
					"internalType": "int256",
					"name": "amount",
					"type": "int256"
				},
				{
					"indexed": false,
					"internalType": "uint256",
					"name": "time",
					"type": "uint256"
				}
			],
			"name": "Borrowed",
			"type": "event"
		},
		{
			"anonymous": false,
			"inputs": [
				{
					"indexed": true,
					"internalType": "uint256",
					"name": "value1",
					"type": "uint256"
				},
				{
					"indexed": true,
					"internalType": "uint256",
					"name": "value2",
					"type": "uint256"
				},
				{
					"indexed": true,
					"internalType": "uint256",
					"name": "value3",
					"type": "uint256"
				}
			],
			"name": "Log",
			"type": "event"
		},
		{
			"inputs": [],
			"name": "cometAddress",
			"outputs": [
				{
					"internalType": "contract IComet",
					"name": "",
					"type": "address"
				}
			],
			"stateMutability": "view",
			"type": "function"
		},
		{
			"inputs": [
				{
					"internalType": "address",
					"name": "_supplyAsset",
					"type": "address"
				},
				{
					"internalType": "address",
					"name": "_borrowAsset",
					"type": "address"
				},
				{
					"internalType": "address",
					"name": "_tokenOut",
					"type": "address"
				},
				{
					"internalType": "uint256",
					"name": "_supplyAmount",
					"type": "uint256"
				},
				{
					"internalType": "uint256",
					"name": "_borrowAmount",
					"type": "uint256"
				},
				{
					"internalType": "address",
					"name": "_user",
					"type": "address"
				},
				{
					"internalType": "uint24[]",
					"name": "_route",
					"type": "uint24[]"
				}
			],
			"name": "compBorrow",
			"outputs": [],
			"stateMutability": "nonpayable",
			"type": "function"
		},
		{
			"inputs": [
				{
					"internalType": "address",
					"name": "_user",
					"type": "address"
				},
				{
					"internalType": "address",
					"name": "_collateralToken",
					"type": "address"
				},
				{
					"internalType": "uint256",
					"name": "_collateralAmount",
					"type": "uint256"
				},
				{
					"internalType": "address",
					"name": "_tokenOut",
					"type": "address"
				},
				{
					"internalType": "uint24[]",
					"name": "_route",
					"type": "uint24[]"
				}
			],
			"name": "compRedeem",
			"outputs": [],
			"stateMutability": "nonpayable",
			"type": "function"
		},
		{
			"inputs": [
				{
					"internalType": "address",
					"name": "_borrowedToken",
					"type": "address"
				},
				{
					"internalType": "address",
					"name": "_tokenIn",
					"type": "address"
				},
				{
					"internalType": "uint256",
					"name": "_repayAmount",
					"type": "uint256"
				},
				{
					"internalType": "uint24[]",
					"name": "_route",
					"type": "uint24[]"
				}
			],
			"name": "compRepay",
			"outputs": [],
			"stateMutability": "nonpayable",
			"type": "function"
		},
		{
			"inputs": [],
			"name": "controller",
			"outputs": [
				{
					"internalType": "address",
					"name": "",
					"type": "address"
				}
			],
			"stateMutability": "view",
			"type": "function"
		},
		{
			"inputs": [],
			"name": "helper",
			"outputs": [
				{
					"internalType": "contract IUnilendHelper",
					"name": "",
					"type": "address"
				}
			],
			"stateMutability": "view",
			"type": "function"
		},
		{
			"inputs": [],
			"name": "swapRouter",
			"outputs": [
				{
					"internalType": "contract ISwapRouter",
					"name": "",
					"type": "address"
				}
			],
			"stateMutability": "view",
			"type": "function"
		},
		{
			"inputs": [
				{
					"internalType": "address",
					"name": "_pool",
					"type": "address"
				},
				{
					"internalType": "address",
					"name": "_supplyAsset",
					"type": "address"
				},
				{
					"internalType": "address",
					"name": "_tokenOut",
					"type": "address"
				},
				{
					"internalType": "uint256",
					"name": "_collateral_amount",
					"type": "uint256"
				},
				{
					"internalType": "int256",
					"name": "_amount",
					"type": "int256"
				},
				{
					"internalType": "address",
					"name": "_user",
					"type": "address"
				},
				{
					"internalType": "uint24[]",
					"name": "_route",
					"type": "uint24[]"
				}
			],
			"name": "uniBorrow",
			"outputs": [],
			"stateMutability": "nonpayable",
			"type": "function"
		},
		{
			"inputs": [
				{
					"internalType": "address",
					"name": "_pool",
					"type": "address"
				},
				{
					"internalType": "address",
					"name": "_user",
					"type": "address"
				},
				{
					"internalType": "int256",
					"name": "_amount",
					"type": "int256"
				},
				{
					"internalType": "address",
					"name": "_tokenOut",
					"type": "address"
				},
				{
					"internalType": "uint24[]",
					"name": "_route",
					"type": "uint24[]"
				}
			],
			"name": "uniRedeem",
			"outputs": [],
			"stateMutability": "nonpayable",
			"type": "function"
		},
		{
			"inputs": [
				{
					"internalType": "address",
					"name": "_pool",
					"type": "address"
				},
				{
					"internalType": "address",
					"name": "_tokenIn",
					"type": "address"
				},
				{
					"internalType": "address",
					"name": "_user",
					"type": "address"
				},
				{
					"internalType": "address",
					"name": "_borrowAddress",
					"type": "address"
				},
				{
					"internalType": "uint256",
					"name": "_repayAmount",
					"type": "uint256"
				},
				{
					"internalType": "uint24[]",
					"name": "_route",
					"type": "uint24[]"
				}
			],
			"name": "uniRepay",
			"outputs": [],
			"stateMutability": "nonpayable",
			"type": "function"
		},
		{
			"inputs": [],
			"name": "unilendCore",
			"outputs": [
				{
					"internalType": "contract IUnilendV2Core",
					"name": "",
					"type": "address"
				}
			],
			"stateMutability": "view",
			"type": "function"
		},
		{
			"inputs": [],
			"name": "unilendPosition",
			"outputs": [
				{
					"internalType": "contract IUnilendV2Position",
					"name": "",
					"type": "address"
				}
			],
			"stateMutability": "view",
			"type": "function"
		}
	]
}