{
	"data": {
		"bytecode": {
			"linkReferences": {},
			"object": "608060405234801561000f575f80fd5b50604051610b44380380610b4483398101604081905261002e9161009b565b6001600160a01b0381166100775760405162461bcd60e51b815260206004820152600c60248201526b7a65726f206164647265737360a01b604482015260640160405180910390fd5b5f80546001600160a01b0319166001600160a01b03929092169190911790556100c8565b5f602082840312156100ab575f80fd5b81516001600160a01b03811681146100c1575f80fd5b9392505050565b610a6f806100d55f395ff3fe608060405234801561000f575f80fd5b5060043610610060575f3560e01c8063092579af1461006457806312aeb6f81461007957806321d05a751461008c5780635866b5cc1461009f5780639c1fcc4c146100b2578063faa9efe3146100e0575b5f80fd5b610077610072366004610794565b610108565b005b6100776100873660046107fe565b6101f5565b61007761009a366004610860565b6102c7565b6100776100ad3660046108c2565b6103df565b5f546100c4906001600160a01b031681565b6040516001600160a01b03909116815260200160405180910390f35b6100c46100ee366004610935565b60016020525f90815260409020546001600160a01b031681565b335f908152600160205260409020546001600160a01b031661012e5761012c6104b9565b505b335f818152600160205260409020546001600160a01b03169061015490889083856105bf565b60405163de63a93560e01b81526001600160a01b0389811660048301528881166024830152878116604483015286811660648301526084820186905260a4820185905260c4820184905282169063de63a9359060e4016020604051808303815f875af11580156101c6573d5f803e3d5ffd5b505050506040513d601f19601f820116820180604052508101906101ea9190610955565b505050505050505050565b335f908152600160205260409020546001600160a01b031661021b576102196104b9565b505b335f818152600160205260409020546001600160a01b03169061024190879083856105bf565b60405163280faedf60e11b81526001600160a01b0388811660048301528781166024830152868116604483015285811660648301526084820185905260a4820184905282169063501f5dbe9060c4015b5f604051808303815f87803b1580156102a8575f80fd5b505af11580156102ba573d5f803e3d5ffd5b5050505050505050505050565b335f908152600160205260409020546001600160a01b03166102ed576102eb6104b9565b505b335f818152600160209081526040918290205482518084019093526015835274636f6e74726163742075736572206164647265737360581b918301919091526001600160a01b0316916103419183916106c4565b61034d873383876105bf565b61038b6040518060400160405280602081526020017f736166655472616e73666572656420746f204c6f67696320436f6e7472616374815250610710565b604051630a6d7f5360e41b81526001600160a01b03888116600483015287811660248301528681166044830152606482018690526084820185905283811660a483015282169063a6d7f5309060c401610291565b335f908152600160205260409020546001600160a01b0316610405576104036104b9565b505b335f818152600160205260409020546001600160a01b03169061042b90889083876105bf565b604051638f55818960e01b81526001600160a01b0389811660048301528881166024830152878116604483015286811660648301526084820186905260a4820185905283811660c4830152821690638f5581899060e4015f604051808303815f87803b158015610499575f80fd5b505af11580156104ab573d5f803e3d5ffd5b505050505050505050505050565b335f908152600160205260408120546001600160a01b03161561052e5760405162461bcd60e51b815260206004820152602260248201527f70726f787941646472657373206372656174656420666f72207468697320757360448201526132b960f11b60648201526084015b60405180910390fd5b5f805f9054906101000a90046001600160a01b031660601b9050604051733d602d80600a3d3981f3363d3d373d3d3d363d7360601b81528160148201526e5af43d82803e903d91602b57fd5bf360881b60288201526037815ff092505081610594575f80fd5b50335f90815260016020526040902080546001600160a01b0319166001600160a01b03831617905590565b604080516001600160a01b0385811660248301528481166044830152606480830185905283518084039091018152608490920183526020820180516001600160e01b03166323b872dd60e01b17905291515f92839290881691610622919061098e565b5f604051808303815f865af19150503d805f811461065b576040519150601f19603f3d011682016040523d82523d5f602084013e610660565b606091505b509150915081801561068a57508051158061068a57508080602001905181019061068a91906109a9565b6106bc5760405162461bcd60e51b815260206004820152600360248201526229aa2360e91b6044820152606401610525565b505050505050565b61070b8383836040516024016106dc939291906109f3565b60408051601f198184030181529190526020810180516001600160e01b0316631e10e89d60e31b179052610756565b505050565b610753816040516024016107249190610a27565b60408051601f198184030181529190526020810180516001600160e01b031663104c13eb60e21b179052610756565b50565b610753815f6a636f6e736f6c652e6c6f6790505f80835160208501845afa505050565b80356001600160a01b038116811461078f575f80fd5b919050565b5f805f805f805f60e0888a0312156107aa575f80fd5b6107b388610779565b96506107c160208901610779565b95506107cf60408901610779565b94506107dd60608901610779565b9699959850939660808101359560a0820135955060c0909101359350915050565b5f805f805f8060c08789031215610813575f80fd5b61081c87610779565b955061082a60208801610779565b945061083860408801610779565b935061084660608801610779565b92506080870135915060a087013590509295509295509295565b5f805f805f8060c08789031215610875575f80fd5b61087e87610779565b955061088c60208801610779565b945061089a60408801610779565b935060608701359250608087013591506108b660a08801610779565b90509295509295509295565b5f805f805f805f60e0888a0312156108d8575f80fd5b6108e188610779565b96506108ef60208901610779565b95506108fd60408901610779565b945061090b60608901610779565b93506080880135925060a0880135915061092760c08901610779565b905092959891949750929550565b5f60208284031215610945575f80fd5b61094e82610779565b9392505050565b5f60208284031215610965575f80fd5b5051919050565b5f5b8381101561098657818101518382015260200161096e565b50505f910152565b5f825161099f81846020870161096c565b9190910192915050565b5f602082840312156109b9575f80fd5b8151801515811461094e575f80fd5b5f81518084526109df81602086016020860161096c565b601f01601f19169290920160200192915050565b5f60018060a01b03808616835260606020840152610a1460608401866109c8565b9150808416604084015250949350505050565b602081525f61094e60208301846109c856fea2646970667358221220a298b6c299c197774c6de3a7045bb0ad08ebebcf962788195a4ffe521229047d64736f6c63430008140033",
			"opcodes": "PUSH1 0x80 PUSH1 0x40 MSTORE CALLVALUE DUP1 ISZERO PUSH2 0xF JUMPI PUSH0 DUP1 REVERT JUMPDEST POP PUSH1 0x40 MLOAD PUSH2 0xB44 CODESIZE SUB DUP1 PUSH2 0xB44 DUP4 CODECOPY DUP2 ADD PUSH1 0x40 DUP2 SWAP1 MSTORE PUSH2 0x2E SWAP2 PUSH2 0x9B JUMP JUMPDEST PUSH1 0x1 PUSH1 0x1 PUSH1 0xA0 SHL SUB DUP2 AND PUSH2 0x77 JUMPI PUSH1 0x40 MLOAD PUSH3 0x461BCD PUSH1 0xE5 SHL DUP2 MSTORE PUSH1 0x20 PUSH1 0x4 DUP3 ADD MSTORE PUSH1 0xC PUSH1 0x24 DUP3 ADD MSTORE PUSH12 0x7A65726F2061646472657373 PUSH1 0xA0 SHL PUSH1 0x44 DUP3 ADD MSTORE PUSH1 0x64 ADD PUSH1 0x40 MLOAD DUP1 SWAP2 SUB SWAP1 REVERT JUMPDEST PUSH0 DUP1 SLOAD PUSH1 0x1 PUSH1 0x1 PUSH1 0xA0 SHL SUB NOT AND PUSH1 0x1 PUSH1 0x1 PUSH1 0xA0 SHL SUB SWAP3 SWAP1 SWAP3 AND SWAP2 SWAP1 SWAP2 OR SWAP1 SSTORE PUSH2 0xC8 JUMP JUMPDEST PUSH0 PUSH1 0x20 DUP3 DUP5 SUB SLT ISZERO PUSH2 0xAB JUMPI PUSH0 DUP1 REVERT JUMPDEST DUP2 MLOAD PUSH1 0x1 PUSH1 0x1 PUSH1 0xA0 SHL SUB DUP2 AND DUP2 EQ PUSH2 0xC1 JUMPI PUSH0 DUP1 REVERT JUMPDEST SWAP4 SWAP3 POP POP POP JUMP JUMPDEST PUSH2 0xA6F DUP1 PUSH2 0xD5 PUSH0 CODECOPY PUSH0 RETURN INVALID PUSH1 0x80 PUSH1 0x40 MSTORE CALLVALUE DUP1 ISZERO PUSH2 0xF JUMPI PUSH0 DUP1 REVERT JUMPDEST POP PUSH1 0x4 CALLDATASIZE LT PUSH2 0x60 JUMPI PUSH0 CALLDATALOAD PUSH1 0xE0 SHR DUP1 PUSH4 0x92579AF EQ PUSH2 0x64 JUMPI DUP1 PUSH4 0x12AEB6F8 EQ PUSH2 0x79 JUMPI DUP1 PUSH4 0x21D05A75 EQ PUSH2 0x8C JUMPI DUP1 PUSH4 0x5866B5CC EQ PUSH2 0x9F JUMPI DUP1 PUSH4 0x9C1FCC4C EQ PUSH2 0xB2 JUMPI DUP1 PUSH4 0xFAA9EFE3 EQ PUSH2 0xE0 JUMPI JUMPDEST PUSH0 DUP1 REVERT JUMPDEST PUSH2 0x77 PUSH2 0x72 CALLDATASIZE PUSH1 0x4 PUSH2 0x794 JUMP JUMPDEST PUSH2 0x108 JUMP JUMPDEST STOP JUMPDEST PUSH2 0x77 PUSH2 0x87 CALLDATASIZE PUSH1 0x4 PUSH2 0x7FE JUMP JUMPDEST PUSH2 0x1F5 JUMP JUMPDEST PUSH2 0x77 PUSH2 0x9A CALLDATASIZE PUSH1 0x4 PUSH2 0x860 JUMP JUMPDEST PUSH2 0x2C7 JUMP JUMPDEST PUSH2 0x77 PUSH2 0xAD CALLDATASIZE PUSH1 0x4 PUSH2 0x8C2 JUMP JUMPDEST PUSH2 0x3DF JUMP JUMPDEST PUSH0 SLOAD PUSH2 0xC4 SWAP1 PUSH1 0x1 PUSH1 0x1 PUSH1 0xA0 SHL SUB AND DUP2 JUMP JUMPDEST PUSH1 0x40 MLOAD PUSH1 0x1 PUSH1 0x1 PUSH1 0xA0 SHL SUB SWAP1 SWAP2 AND DUP2 MSTORE PUSH1 0x20 ADD PUSH1 0x40 MLOAD DUP1 SWAP2 SUB SWAP1 RETURN JUMPDEST PUSH2 0xC4 PUSH2 0xEE CALLDATASIZE PUSH1 0x4 PUSH2 0x935 JUMP JUMPDEST PUSH1 0x1 PUSH1 0x20 MSTORE PUSH0 SWAP1 DUP2 MSTORE PUSH1 0x40 SWAP1 KECCAK256 SLOAD PUSH1 0x1 PUSH1 0x1 PUSH1 0xA0 SHL SUB AND DUP2 JUMP JUMPDEST CALLER PUSH0 SWAP1 DUP2 MSTORE PUSH1 0x1 PUSH1 0x20 MSTORE PUSH1 0x40 SWAP1 KECCAK256 SLOAD PUSH1 0x1 PUSH1 0x1 PUSH1 0xA0 SHL SUB AND PUSH2 0x12E JUMPI PUSH2 0x12C PUSH2 0x4B9 JUMP JUMPDEST POP JUMPDEST CALLER PUSH0 DUP2 DUP2 MSTORE PUSH1 0x1 PUSH1 0x20 MSTORE PUSH1 0x40 SWAP1 KECCAK256 SLOAD PUSH1 0x1 PUSH1 0x1 PUSH1 0xA0 SHL SUB AND SWAP1 PUSH2 0x154 SWAP1 DUP9 SWAP1 DUP4 DUP6 PUSH2 0x5BF JUMP JUMPDEST PUSH1 0x40 MLOAD PUSH4 0xDE63A935 PUSH1 0xE0 SHL DUP2 MSTORE PUSH1 0x1 PUSH1 0x1 PUSH1 0xA0 SHL SUB DUP10 DUP2 AND PUSH1 0x4 DUP4 ADD MSTORE DUP9 DUP2 AND PUSH1 0x24 DUP4 ADD MSTORE DUP8 DUP2 AND PUSH1 0x44 DUP4 ADD MSTORE DUP7 DUP2 AND PUSH1 0x64 DUP4 ADD MSTORE PUSH1 0x84 DUP3 ADD DUP7 SWAP1 MSTORE PUSH1 0xA4 DUP3 ADD DUP6 SWAP1 MSTORE PUSH1 0xC4 DUP3 ADD DUP5 SWAP1 MSTORE DUP3 AND SWAP1 PUSH4 0xDE63A935 SWAP1 PUSH1 0xE4 ADD PUSH1 0x20 PUSH1 0x40 MLOAD DUP1 DUP4 SUB DUP2 PUSH0 DUP8 GAS CALL ISZERO DUP1 ISZERO PUSH2 0x1C6 JUMPI RETURNDATASIZE PUSH0 DUP1 RETURNDATACOPY RETURNDATASIZE PUSH0 REVERT JUMPDEST POP POP POP POP PUSH1 0x40 MLOAD RETURNDATASIZE PUSH1 0x1F NOT PUSH1 0x1F DUP3 ADD AND DUP3 ADD DUP1 PUSH1 0x40 MSTORE POP DUP2 ADD SWAP1 PUSH2 0x1EA SWAP2 SWAP1 PUSH2 0x955 JUMP JUMPDEST POP POP POP POP POP POP POP POP POP JUMP JUMPDEST CALLER PUSH0 SWAP1 DUP2 MSTORE PUSH1 0x1 PUSH1 0x20 MSTORE PUSH1 0x40 SWAP1 KECCAK256 SLOAD PUSH1 0x1 PUSH1 0x1 PUSH1 0xA0 SHL SUB AND PUSH2 0x21B JUMPI PUSH2 0x219 PUSH2 0x4B9 JUMP JUMPDEST POP JUMPDEST CALLER PUSH0 DUP2 DUP2 MSTORE PUSH1 0x1 PUSH1 0x20 MSTORE PUSH1 0x40 SWAP1 KECCAK256 SLOAD PUSH1 0x1 PUSH1 0x1 PUSH1 0xA0 SHL SUB AND SWAP1 PUSH2 0x241 SWAP1 DUP8 SWAP1 DUP4 DUP6 PUSH2 0x5BF JUMP JUMPDEST PUSH1 0x40 MLOAD PUSH4 0x280FAEDF PUSH1 0xE1 SHL DUP2 MSTORE PUSH1 0x1 PUSH1 0x1 PUSH1 0xA0 SHL SUB DUP9 DUP2 AND PUSH1 0x4 DUP4 ADD MSTORE DUP8 DUP2 AND PUSH1 0x24 DUP4 ADD MSTORE DUP7 DUP2 AND PUSH1 0x44 DUP4 ADD MSTORE DUP6 DUP2 AND PUSH1 0x64 DUP4 ADD MSTORE PUSH1 0x84 DUP3 ADD DUP6 SWAP1 MSTORE PUSH1 0xA4 DUP3 ADD DUP5 SWAP1 MSTORE DUP3 AND SWAP1 PUSH4 0x501F5DBE SWAP1 PUSH1 0xC4 ADD JUMPDEST PUSH0 PUSH1 0x40 MLOAD DUP1 DUP4 SUB DUP2 PUSH0 DUP8 DUP1 EXTCODESIZE ISZERO DUP1 ISZERO PUSH2 0x2A8 JUMPI PUSH0 DUP1 REVERT JUMPDEST POP GAS CALL ISZERO DUP1 ISZERO PUSH2 0x2BA JUMPI RETURNDATASIZE PUSH0 DUP1 RETURNDATACOPY RETURNDATASIZE PUSH0 REVERT JUMPDEST POP POP POP POP POP POP POP POP POP POP POP JUMP JUMPDEST CALLER PUSH0 SWAP1 DUP2 MSTORE PUSH1 0x1 PUSH1 0x20 MSTORE PUSH1 0x40 SWAP1 KECCAK256 SLOAD PUSH1 0x1 PUSH1 0x1 PUSH1 0xA0 SHL SUB AND PUSH2 0x2ED JUMPI PUSH2 0x2EB PUSH2 0x4B9 JUMP JUMPDEST POP JUMPDEST CALLER PUSH0 DUP2 DUP2 MSTORE PUSH1 0x1 PUSH1 0x20 SWAP1 DUP2 MSTORE PUSH1 0x40 SWAP2 DUP3 SWAP1 KECCAK256 SLOAD DUP3 MLOAD DUP1 DUP5 ADD SWAP1 SWAP4 MSTORE PUSH1 0x15 DUP4 MSTORE PUSH21 0x636F6E747261637420757365722061646472657373 PUSH1 0x58 SHL SWAP2 DUP4 ADD SWAP2 SWAP1 SWAP2 MSTORE PUSH1 0x1 PUSH1 0x1 PUSH1 0xA0 SHL SUB AND SWAP2 PUSH2 0x341 SWAP2 DUP4 SWAP2 PUSH2 0x6C4 JUMP JUMPDEST PUSH2 0x34D DUP8 CALLER DUP4 DUP8 PUSH2 0x5BF JUMP JUMPDEST PUSH2 0x38B PUSH1 0x40 MLOAD DUP1 PUSH1 0x40 ADD PUSH1 0x40 MSTORE DUP1 PUSH1 0x20 DUP2 MSTORE PUSH1 0x20 ADD PUSH32 0x736166655472616E73666572656420746F204C6F67696320436F6E7472616374 DUP2 MSTORE POP PUSH2 0x710 JUMP JUMPDEST PUSH1 0x40 MLOAD PUSH4 0xA6D7F53 PUSH1 0xE4 SHL DUP2 MSTORE PUSH1 0x1 PUSH1 0x1 PUSH1 0xA0 SHL SUB DUP9 DUP2 AND PUSH1 0x4 DUP4 ADD MSTORE DUP8 DUP2 AND PUSH1 0x24 DUP4 ADD MSTORE DUP7 DUP2 AND PUSH1 0x44 DUP4 ADD MSTORE PUSH1 0x64 DUP3 ADD DUP7 SWAP1 MSTORE PUSH1 0x84 DUP3 ADD DUP6 SWAP1 MSTORE DUP4 DUP2 AND PUSH1 0xA4 DUP4 ADD MSTORE DUP3 AND SWAP1 PUSH4 0xA6D7F530 SWAP1 PUSH1 0xC4 ADD PUSH2 0x291 JUMP JUMPDEST CALLER PUSH0 SWAP1 DUP2 MSTORE PUSH1 0x1 PUSH1 0x20 MSTORE PUSH1 0x40 SWAP1 KECCAK256 SLOAD PUSH1 0x1 PUSH1 0x1 PUSH1 0xA0 SHL SUB AND PUSH2 0x405 JUMPI PUSH2 0x403 PUSH2 0x4B9 JUMP JUMPDEST POP JUMPDEST CALLER PUSH0 DUP2 DUP2 MSTORE PUSH1 0x1 PUSH1 0x20 MSTORE PUSH1 0x40 SWAP1 KECCAK256 SLOAD PUSH1 0x1 PUSH1 0x1 PUSH1 0xA0 SHL SUB AND SWAP1 PUSH2 0x42B SWAP1 DUP9 SWAP1 DUP4 DUP8 PUSH2 0x5BF JUMP JUMPDEST PUSH1 0x40 MLOAD PUSH4 0x8F558189 PUSH1 0xE0 SHL DUP2 MSTORE PUSH1 0x1 PUSH1 0x1 PUSH1 0xA0 SHL SUB DUP10 DUP2 AND PUSH1 0x4 DUP4 ADD MSTORE DUP9 DUP2 AND PUSH1 0x24 DUP4 ADD MSTORE DUP8 DUP2 AND PUSH1 0x44 DUP4 ADD MSTORE DUP7 DUP2 AND PUSH1 0x64 DUP4 ADD MSTORE PUSH1 0x84 DUP3 ADD DUP7 SWAP1 MSTORE PUSH1 0xA4 DUP3 ADD DUP6 SWAP1 MSTORE DUP4 DUP2 AND PUSH1 0xC4 DUP4 ADD MSTORE DUP3 AND SWAP1 PUSH4 0x8F558189 SWAP1 PUSH1 0xE4 ADD PUSH0 PUSH1 0x40 MLOAD DUP1 DUP4 SUB DUP2 PUSH0 DUP8 DUP1 EXTCODESIZE ISZERO DUP1 ISZERO PUSH2 0x499 JUMPI PUSH0 DUP1 REVERT JUMPDEST POP GAS CALL ISZERO DUP1 ISZERO PUSH2 0x4AB JUMPI RETURNDATASIZE PUSH0 DUP1 RETURNDATACOPY RETURNDATASIZE PUSH0 REVERT JUMPDEST POP POP POP POP POP POP POP POP POP POP POP POP JUMP JUMPDEST CALLER PUSH0 SWAP1 DUP2 MSTORE PUSH1 0x1 PUSH1 0x20 MSTORE PUSH1 0x40 DUP2 KECCAK256 SLOAD PUSH1 0x1 PUSH1 0x1 PUSH1 0xA0 SHL SUB AND ISZERO PUSH2 0x52E JUMPI PUSH1 0x40 MLOAD PUSH3 0x461BCD PUSH1 0xE5 SHL DUP2 MSTORE PUSH1 0x20 PUSH1 0x4 DUP3 ADD MSTORE PUSH1 0x22 PUSH1 0x24 DUP3 ADD MSTORE PUSH32 0x70726F787941646472657373206372656174656420666F722074686973207573 PUSH1 0x44 DUP3 ADD MSTORE PUSH2 0x32B9 PUSH1 0xF1 SHL PUSH1 0x64 DUP3 ADD MSTORE PUSH1 0x84 ADD JUMPDEST PUSH1 0x40 MLOAD DUP1 SWAP2 SUB SWAP1 REVERT JUMPDEST PUSH0 DUP1 PUSH0 SWAP1 SLOAD SWAP1 PUSH2 0x100 EXP SWAP1 DIV PUSH1 0x1 PUSH1 0x1 PUSH1 0xA0 SHL SUB AND PUSH1 0x60 SHL SWAP1 POP PUSH1 0x40 MLOAD PUSH20 0x3D602D80600A3D3981F3363D3D373D3D3D363D73 PUSH1 0x60 SHL DUP2 MSTORE DUP2 PUSH1 0x14 DUP3 ADD MSTORE PUSH15 0x5AF43D82803E903D91602B57FD5BF3 PUSH1 0x88 SHL PUSH1 0x28 DUP3 ADD MSTORE PUSH1 0x37 DUP2 PUSH0 CREATE SWAP3 POP POP DUP2 PUSH2 0x594 JUMPI PUSH0 DUP1 REVERT JUMPDEST POP CALLER PUSH0 SWAP1 DUP2 MSTORE PUSH1 0x1 PUSH1 0x20 MSTORE PUSH1 0x40 SWAP1 KECCAK256 DUP1 SLOAD PUSH1 0x1 PUSH1 0x1 PUSH1 0xA0 SHL SUB NOT AND PUSH1 0x1 PUSH1 0x1 PUSH1 0xA0 SHL SUB DUP4 AND OR SWAP1 SSTORE SWAP1 JUMP JUMPDEST PUSH1 0x40 DUP1 MLOAD PUSH1 0x1 PUSH1 0x1 PUSH1 0xA0 SHL SUB DUP6 DUP2 AND PUSH1 0x24 DUP4 ADD MSTORE DUP5 DUP2 AND PUSH1 0x44 DUP4 ADD MSTORE PUSH1 0x64 DUP1 DUP4 ADD DUP6 SWAP1 MSTORE DUP4 MLOAD DUP1 DUP5 SUB SWAP1 SWAP2 ADD DUP2 MSTORE PUSH1 0x84 SWAP1 SWAP3 ADD DUP4 MSTORE PUSH1 0x20 DUP3 ADD DUP1 MLOAD PUSH1 0x1 PUSH1 0x1 PUSH1 0xE0 SHL SUB AND PUSH4 0x23B872DD PUSH1 0xE0 SHL OR SWAP1 MSTORE SWAP2 MLOAD PUSH0 SWAP3 DUP4 SWAP3 SWAP1 DUP9 AND SWAP2 PUSH2 0x622 SWAP2 SWAP1 PUSH2 0x98E JUMP JUMPDEST PUSH0 PUSH1 0x40 MLOAD DUP1 DUP4 SUB DUP2 PUSH0 DUP7 GAS CALL SWAP2 POP POP RETURNDATASIZE DUP1 PUSH0 DUP2 EQ PUSH2 0x65B JUMPI PUSH1 0x40 MLOAD SWAP2 POP PUSH1 0x1F NOT PUSH1 0x3F RETURNDATASIZE ADD AND DUP3 ADD PUSH1 0x40 MSTORE RETURNDATASIZE DUP3 MSTORE RETURNDATASIZE PUSH0 PUSH1 0x20 DUP5 ADD RETURNDATACOPY PUSH2 0x660 JUMP JUMPDEST PUSH1 0x60 SWAP2 POP JUMPDEST POP SWAP2 POP SWAP2 POP DUP2 DUP1 ISZERO PUSH2 0x68A JUMPI POP DUP1 MLOAD ISZERO DUP1 PUSH2 0x68A JUMPI POP DUP1 DUP1 PUSH1 0x20 ADD SWAP1 MLOAD DUP2 ADD SWAP1 PUSH2 0x68A SWAP2 SWAP1 PUSH2 0x9A9 JUMP JUMPDEST PUSH2 0x6BC JUMPI PUSH1 0x40 MLOAD PUSH3 0x461BCD PUSH1 0xE5 SHL DUP2 MSTORE PUSH1 0x20 PUSH1 0x4 DUP3 ADD MSTORE PUSH1 0x3 PUSH1 0x24 DUP3 ADD MSTORE PUSH3 0x29AA23 PUSH1 0xE9 SHL PUSH1 0x44 DUP3 ADD MSTORE PUSH1 0x64 ADD PUSH2 0x525 JUMP JUMPDEST POP POP POP POP POP POP JUMP JUMPDEST PUSH2 0x70B DUP4 DUP4 DUP4 PUSH1 0x40 MLOAD PUSH1 0x24 ADD PUSH2 0x6DC SWAP4 SWAP3 SWAP2 SWAP1 PUSH2 0x9F3 JUMP JUMPDEST PUSH1 0x40 DUP1 MLOAD PUSH1 0x1F NOT DUP2 DUP5 SUB ADD DUP2 MSTORE SWAP2 SWAP1 MSTORE PUSH1 0x20 DUP2 ADD DUP1 MLOAD PUSH1 0x1 PUSH1 0x1 PUSH1 0xE0 SHL SUB AND PUSH4 0x1E10E89D PUSH1 0xE3 SHL OR SWAP1 MSTORE PUSH2 0x756 JUMP JUMPDEST POP POP POP JUMP JUMPDEST PUSH2 0x753 DUP2 PUSH1 0x40 MLOAD PUSH1 0x24 ADD PUSH2 0x724 SWAP2 SWAP1 PUSH2 0xA27 JUMP JUMPDEST PUSH1 0x40 DUP1 MLOAD PUSH1 0x1F NOT DUP2 DUP5 SUB ADD DUP2 MSTORE SWAP2 SWAP1 MSTORE PUSH1 0x20 DUP2 ADD DUP1 MLOAD PUSH1 0x1 PUSH1 0x1 PUSH1 0xE0 SHL SUB AND PUSH4 0x104C13EB PUSH1 0xE2 SHL OR SWAP1 MSTORE PUSH2 0x756 JUMP JUMPDEST POP JUMP JUMPDEST PUSH2 0x753 DUP2 PUSH0 PUSH11 0x636F6E736F6C652E6C6F67 SWAP1 POP PUSH0 DUP1 DUP4 MLOAD PUSH1 0x20 DUP6 ADD DUP5 GAS STATICCALL POP POP POP JUMP JUMPDEST DUP1 CALLDATALOAD PUSH1 0x1 PUSH1 0x1 PUSH1 0xA0 SHL SUB DUP2 AND DUP2 EQ PUSH2 0x78F JUMPI PUSH0 DUP1 REVERT JUMPDEST SWAP2 SWAP1 POP JUMP JUMPDEST PUSH0 DUP1 PUSH0 DUP1 PUSH0 DUP1 PUSH0 PUSH1 0xE0 DUP9 DUP11 SUB SLT ISZERO PUSH2 0x7AA JUMPI PUSH0 DUP1 REVERT JUMPDEST PUSH2 0x7B3 DUP9 PUSH2 0x779 JUMP JUMPDEST SWAP7 POP PUSH2 0x7C1 PUSH1 0x20 DUP10 ADD PUSH2 0x779 JUMP JUMPDEST SWAP6 POP PUSH2 0x7CF PUSH1 0x40 DUP10 ADD PUSH2 0x779 JUMP JUMPDEST SWAP5 POP PUSH2 0x7DD PUSH1 0x60 DUP10 ADD PUSH2 0x779 JUMP JUMPDEST SWAP7 SWAP10 SWAP6 SWAP9 POP SWAP4 SWAP7 PUSH1 0x80 DUP2 ADD CALLDATALOAD SWAP6 PUSH1 0xA0 DUP3 ADD CALLDATALOAD SWAP6 POP PUSH1 0xC0 SWAP1 SWAP2 ADD CALLDATALOAD SWAP4 POP SWAP2 POP POP JUMP JUMPDEST PUSH0 DUP1 PUSH0 DUP1 PUSH0 DUP1 PUSH1 0xC0 DUP8 DUP10 SUB SLT ISZERO PUSH2 0x813 JUMPI PUSH0 DUP1 REVERT JUMPDEST PUSH2 0x81C DUP8 PUSH2 0x779 JUMP JUMPDEST SWAP6 POP PUSH2 0x82A PUSH1 0x20 DUP9 ADD PUSH2 0x779 JUMP JUMPDEST SWAP5 POP PUSH2 0x838 PUSH1 0x40 DUP9 ADD PUSH2 0x779 JUMP JUMPDEST SWAP4 POP PUSH2 0x846 PUSH1 0x60 DUP9 ADD PUSH2 0x779 JUMP JUMPDEST SWAP3 POP PUSH1 0x80 DUP8 ADD CALLDATALOAD SWAP2 POP PUSH1 0xA0 DUP8 ADD CALLDATALOAD SWAP1 POP SWAP3 SWAP6 POP SWAP3 SWAP6 POP SWAP3 SWAP6 JUMP JUMPDEST PUSH0 DUP1 PUSH0 DUP1 PUSH0 DUP1 PUSH1 0xC0 DUP8 DUP10 SUB SLT ISZERO PUSH2 0x875 JUMPI PUSH0 DUP1 REVERT JUMPDEST PUSH2 0x87E DUP8 PUSH2 0x779 JUMP JUMPDEST SWAP6 POP PUSH2 0x88C PUSH1 0x20 DUP9 ADD PUSH2 0x779 JUMP JUMPDEST SWAP5 POP PUSH2 0x89A PUSH1 0x40 DUP9 ADD PUSH2 0x779 JUMP JUMPDEST SWAP4 POP PUSH1 0x60 DUP8 ADD CALLDATALOAD SWAP3 POP PUSH1 0x80 DUP8 ADD CALLDATALOAD SWAP2 POP PUSH2 0x8B6 PUSH1 0xA0 DUP9 ADD PUSH2 0x779 JUMP JUMPDEST SWAP1 POP SWAP3 SWAP6 POP SWAP3 SWAP6 POP SWAP3 SWAP6 JUMP JUMPDEST PUSH0 DUP1 PUSH0 DUP1 PUSH0 DUP1 PUSH0 PUSH1 0xE0 DUP9 DUP11 SUB SLT ISZERO PUSH2 0x8D8 JUMPI PUSH0 DUP1 REVERT JUMPDEST PUSH2 0x8E1 DUP9 PUSH2 0x779 JUMP JUMPDEST SWAP7 POP PUSH2 0x8EF PUSH1 0x20 DUP10 ADD PUSH2 0x779 JUMP JUMPDEST SWAP6 POP PUSH2 0x8FD PUSH1 0x40 DUP10 ADD PUSH2 0x779 JUMP JUMPDEST SWAP5 POP PUSH2 0x90B PUSH1 0x60 DUP10 ADD PUSH2 0x779 JUMP JUMPDEST SWAP4 POP PUSH1 0x80 DUP9 ADD CALLDATALOAD SWAP3 POP PUSH1 0xA0 DUP9 ADD CALLDATALOAD SWAP2 POP PUSH2 0x927 PUSH1 0xC0 DUP10 ADD PUSH2 0x779 JUMP JUMPDEST SWAP1 POP SWAP3 SWAP6 SWAP9 SWAP2 SWAP5 SWAP8 POP SWAP3 SWAP6 POP JUMP JUMPDEST PUSH0 PUSH1 0x20 DUP3 DUP5 SUB SLT ISZERO PUSH2 0x945 JUMPI PUSH0 DUP1 REVERT JUMPDEST PUSH2 0x94E DUP3 PUSH2 0x779 JUMP JUMPDEST SWAP4 SWAP3 POP POP POP JUMP JUMPDEST PUSH0 PUSH1 0x20 DUP3 DUP5 SUB SLT ISZERO PUSH2 0x965 JUMPI PUSH0 DUP1 REVERT JUMPDEST POP MLOAD SWAP2 SWAP1 POP JUMP JUMPDEST PUSH0 JUMPDEST DUP4 DUP2 LT ISZERO PUSH2 0x986 JUMPI DUP2 DUP2 ADD MLOAD DUP4 DUP3 ADD MSTORE PUSH1 0x20 ADD PUSH2 0x96E JUMP JUMPDEST POP POP PUSH0 SWAP2 ADD MSTORE JUMP JUMPDEST PUSH0 DUP3 MLOAD PUSH2 0x99F DUP2 DUP5 PUSH1 0x20 DUP8 ADD PUSH2 0x96C JUMP JUMPDEST SWAP2 SWAP1 SWAP2 ADD SWAP3 SWAP2 POP POP JUMP JUMPDEST PUSH0 PUSH1 0x20 DUP3 DUP5 SUB SLT ISZERO PUSH2 0x9B9 JUMPI PUSH0 DUP1 REVERT JUMPDEST DUP2 MLOAD DUP1 ISZERO ISZERO DUP2 EQ PUSH2 0x94E JUMPI PUSH0 DUP1 REVERT JUMPDEST PUSH0 DUP2 MLOAD DUP1 DUP5 MSTORE PUSH2 0x9DF DUP2 PUSH1 0x20 DUP7 ADD PUSH1 0x20 DUP7 ADD PUSH2 0x96C JUMP JUMPDEST PUSH1 0x1F ADD PUSH1 0x1F NOT AND SWAP3 SWAP1 SWAP3 ADD PUSH1 0x20 ADD SWAP3 SWAP2 POP POP JUMP JUMPDEST PUSH0 PUSH1 0x1 DUP1 PUSH1 0xA0 SHL SUB DUP1 DUP7 AND DUP4 MSTORE PUSH1 0x60 PUSH1 0x20 DUP5 ADD MSTORE PUSH2 0xA14 PUSH1 0x60 DUP5 ADD DUP7 PUSH2 0x9C8 JUMP JUMPDEST SWAP2 POP DUP1 DUP5 AND PUSH1 0x40 DUP5 ADD MSTORE POP SWAP5 SWAP4 POP POP POP POP JUMP JUMPDEST PUSH1 0x20 DUP2 MSTORE PUSH0 PUSH2 0x94E PUSH1 0x20 DUP4 ADD DUP5 PUSH2 0x9C8 JUMP INVALID LOG2 PUSH5 0x6970667358 0x22 SLT KECCAK256 LOG2 SWAP9 0xB6 0xC2 SWAP10 0xC1 SWAP8 PUSH24 0x4C6DE3A7045BB0AD08EBEBCF962788195A4FFE521229047D PUSH5 0x736F6C6343 STOP ADDMOD EQ STOP CALLER "
		},
		"gasEstimates": {
			"creation": {
				"codeDepositCost": "534200",
				"executionCost": "infinite",
				"totalCost": "infinite"
			},
			"external": {
				"compoundBorrow(address,address,address,uint256,uint256,address)": "infinite",
				"logicAddress()": "2389",
				"proxyAddress(address)": "2631",
				"reapay(address,address,address,address,uint256,uint256)": "infinite",
				"uniBorrow(address,address,address,address,uint256,int256,address)": "infinite",
				"uniRepay(address,address,address,address,uint256,int256,int256)": "infinite"
			},
			"internal": {
				"createAccount()": "infinite"
			}
		},
		"methodIdentifiers": {
			"compoundBorrow(address,address,address,uint256,uint256,address)": "21d05a75",
			"logicAddress()": "9c1fcc4c",
			"proxyAddress(address)": "faa9efe3",
			"reapay(address,address,address,address,uint256,uint256)": "12aeb6f8",
			"uniBorrow(address,address,address,address,uint256,int256,address)": "5866b5cc",
			"uniRepay(address,address,address,address,uint256,int256,int256)": "092579af"
		}
	},
	"abi": [
		{
			"inputs": [
				{
					"internalType": "address",
					"name": "_logicAddress",
					"type": "address"
				}
			],
			"stateMutability": "nonpayable",
			"type": "constructor"
		},
		{
			"inputs": [
				{
					"internalType": "address",
					"name": "_supplyAsset",
					"type": "address"
				},
				{
					"internalType": "address",
					"name": "_borrowAsset",
					"type": "address"
				},
				{
					"internalType": "address",
					"name": "_tokenOut",
					"type": "address"
				},
				{
					"internalType": "uint256",
					"name": "_supplyAmount",
					"type": "uint256"
				},
				{
					"internalType": "uint256",
					"name": "_borrowAmount",
					"type": "uint256"
				},
				{
					"internalType": "address",
					"name": "_user",
					"type": "address"
				}
			],
			"name": "compoundBorrow",
			"outputs": [],
			"stateMutability": "nonpayable",
			"type": "function"
		},
		{
			"inputs": [],
			"name": "logicAddress",
			"outputs": [
				{
					"internalType": "address",
					"name": "",
					"type": "address"
				}
			],
			"stateMutability": "view",
			"type": "function"
		},
		{
			"inputs": [
				{
					"internalType": "address",
					"name": "",
					"type": "address"
				}
			],
			"name": "proxyAddress",
			"outputs": [
				{
					"internalType": "address",
					"name": "",
					"type": "address"
				}
			],
			"stateMutability": "view",
			"type": "function"
		},
		{
			"inputs": [
				{
					"internalType": "address",
					"name": "_borrowedToken",
					"type": "address"
				},
				{
					"internalType": "address",
					"name": "_tokenIn",
					"type": "address"
				},
				{
					"internalType": "address",
					"name": "_user",
					"type": "address"
				},
				{
					"internalType": "address",
					"name": "_collateralToken",
					"type": "address"
				},
				{
					"internalType": "uint256",
					"name": "_collateralAmount",
					"type": "uint256"
				},
				{
					"internalType": "uint256",
					"name": "_repayAmount",
					"type": "uint256"
				}
			],
			"name": "reapay",
			"outputs": [],
			"stateMutability": "nonpayable",
			"type": "function"
		},
		{
			"inputs": [
				{
					"internalType": "address",
					"name": "_pool",
					"type": "address"
				},
				{
					"internalType": "address",
					"name": "_supplyAsset",
					"type": "address"
				},
				{
					"internalType": "address",
					"name": "_tokenOUt",
					"type": "address"
				},
				{
					"internalType": "address",
					"name": "_borrowToken",
					"type": "address"
				},
				{
					"internalType": "uint256",
					"name": "_collateral_amount",
					"type": "uint256"
				},
				{
					"internalType": "int256",
					"name": "_amount",
					"type": "int256"
				},
				{
					"internalType": "address",
					"name": "_user",
					"type": "address"
				}
			],
			"name": "uniBorrow",
			"outputs": [],
			"stateMutability": "nonpayable",
			"type": "function"
		},
		{
			"inputs": [
				{
					"internalType": "address",
					"name": "_pool",
					"type": "address"
				},
				{
					"internalType": "address",
					"name": "_tokenIn",
					"type": "address"
				},
				{
					"internalType": "address",
					"name": "_borrowedToken",
					"type": "address"
				},
				{
					"internalType": "address",
					"name": "_user",
					"type": "address"
				},
				{
					"internalType": "uint256",
					"name": "_nftID",
					"type": "uint256"
				},
				{
					"internalType": "int256",
					"name": "_amountOut",
					"type": "int256"
				},
				{
					"internalType": "int256",
					"name": "_repayAmount",
					"type": "int256"
				}
			],
			"name": "uniRepay",
			"outputs": [],
			"stateMutability": "nonpayable",
			"type": "function"
		}
	]
}