{
	"data": {
		"bytecode": {
			"linkReferences": {},
			"object": "608060405234801561000f575f80fd5b50604051610f5d380380610f5d83398101604081905261002e916100ac565b6001600160a01b0381166100885760405162461bcd60e51b815260206004820152601560248201527f7a65726f20616464726573732070726f76696465640000000000000000000000604482015260640160405180910390fd5b5f80546001600160a01b0319166001600160a01b03929092169190911790556100d9565b5f602082840312156100bc575f80fd5b81516001600160a01b03811681146100d2575f80fd5b9392505050565b610e77806100e65f395ff3fe608060405234801561000f575f80fd5b5060043610610085575f3560e01c80634d37c3b7116100585780634d37c3b7146100d75780637eda2ab1146100ea5780639c1fcc4c146100fd578063faa9efe31461012b575f80fd5b806318b95b8b146100895780632b3ba5d91461009e57806335e164d0146100b1578063491aaed1146100c4575b5f80fd5b61009c6100973660046109be565b610153565b005b61009c6100ac366004610a7e565b61022f565b61009c6100bf366004610a7e565b6102e0565b61009c6100d23660046109be565b61038c565b61009c6100e5366004610b23565b610432565b61009c6100f8366004610bcd565b6104ec565b5f5461010f906001600160a01b031681565b6040516001600160a01b03909116815260200160405180910390f35b61010f610139366004610c83565b60016020525f90815260409020546001600160a01b031681565b335f908152600160205260409020546001600160a01b0316610179576101776105b2565b505b335f818152600160209081526040909120549083015160608401516001600160a01b03909216926101ab928490610703565b806001600160a01b031663315a1451835f015184602001518560400151866060015187608001518860a001518960c001516040518863ffffffff1660e01b81526004016101fe9796959493929190610ce1565b5f604051808303815f87803b158015610215575f80fd5b505af1158015610227573d5f803e3d5ffd5b505050505050565b335f908152600160205260409020546001600160a01b0316806102995760405162461bcd60e51b815260206004820152601660248201527f4e6f20706f736974696f6e20617661696c61626c65210000000000000000000060448201526064015b60405180910390fd5b806001600160a01b03166373e8f1fa835f015184602001518560400151866060015187608001516040518663ffffffff1660e01b81526004016101fe959493929190610d35565b335f908152600160205260409020546001600160a01b0316806103455760405162461bcd60e51b815260206004820152601d60248201527f4e6f20626f72726f7720706f736974696f6e20617661696c61626c65210000006044820152606401610290565b806001600160a01b031663baecbfcd835f015184602001518560400151866060015187608001516040518663ffffffff1660e01b81526004016101fe959493929190610d35565b335f908152600160205260409020546001600160a01b03166103b2576103b06105b2565b505b335f81815260016020526040902054825160608401516001600160a01b03909216926103df928490610703565b806001600160a01b031663a36cc4cd835f015184602001518560400151866060015187608001518860a001518960c001516040518863ffffffff1660e01b81526004016101fe9796959493929190610ce1565b335f908152600160205260409020546001600160a01b0316806104975760405162461bcd60e51b815260206004820152601d60248201527f4e6f20626f72726f7720706f736974696f6e20617661696c61626c65210000006044820152606401610290565b6104ab826020015133838560400151610703565b806001600160a01b0316636b5e7305835f01518460200151856040015186606001516040518563ffffffff1660e01b81526004016101fe9493929190610d6e565b335f908152600160205260409020546001600160a01b0316806105515760405162461bcd60e51b815260206004820152601d60248201527f4e6f20626f72726f7720706f736974696f6e20617661696c61626c65210000006044820152606401610290565b610565826020015133838560800151610703565b806001600160a01b031663b5c8b759835f015184602001518560400151866060015187608001518860a001516040518763ffffffff1660e01b81526004016101fe96959493929190610da9565b335f908152600160205260408120546001600160a01b0316156106175760405162461bcd60e51b815260206004820152601660248201527f4163636f756e7420616c726561647920657869737473000000000000000000006044820152606401610290565b5f805f9054906101000a90046001600160a01b031660601b90506040517f3d602d80600a3d3981f3363d3d373d3d3d363d7300000000000000000000000081528160148201527f5af43d82803e903d91602b57fd5bf3000000000000000000000000000000000060288201526037815ff092505081610694575f80fd5b335f8181526001602052604080822080547fffffffffffffffffffffffff0000000000000000000000000000000000000000166001600160a01b03871690811790915590519092917fac631f3001b55ea1509cf3d7e74898f85392a61a76e8149181ae1259622dabc891a35090565b604080516001600160a01b0385811660248301528481166044830152606480830185905283518084039091018152608490920183526020820180517bffffffffffffffffffffffffffffffffffffffffffffffffffffffff167f23b872dd0000000000000000000000000000000000000000000000000000000017905291515f928392908816916107949190610df6565b5f604051808303815f865af19150503d805f81146107cd576040519150601f19603f3d011682016040523d82523d5f602084013e6107d2565b606091505b50915091508180156107fc5750805115806107fc5750808060200190518101906107fc9190610e22565b6102275760405162461bcd60e51b815260206004820152600360248201527f53544600000000000000000000000000000000000000000000000000000000006044820152606401610290565b7f4e487b71000000000000000000000000000000000000000000000000000000005f52604160045260245ffd5b60405160e0810167ffffffffffffffff8111828210171561089857610898610848565b60405290565b60405160a0810167ffffffffffffffff8111828210171561089857610898610848565b60405160c0810167ffffffffffffffff8111828210171561089857610898610848565b604051601f8201601f1916810167ffffffffffffffff8111828210171561090d5761090d610848565b604052919050565b80356001600160a01b038116811461092b575f80fd5b919050565b5f82601f83011261093f575f80fd5b8135602067ffffffffffffffff82111561095b5761095b610848565b8160051b61096a8282016108e4565b9283528481018201928281019087851115610983575f80fd5b83870192505b848310156109b357823562ffffff811681146109a4575f8081fd5b82529183019190830190610989565b979650505050505050565b5f602082840312156109ce575f80fd5b813567ffffffffffffffff808211156109e5575f80fd5b9083019060e082860312156109f8575f80fd5b610a00610875565b610a0983610915565b8152610a1760208401610915565b6020820152610a2860408401610915565b60408201526060830135606082015260808301356080820152610a4d60a08401610915565b60a082015260c083013582811115610a63575f80fd5b610a6f87828601610930565b60c08301525095945050505050565b5f60208284031215610a8e575f80fd5b813567ffffffffffffffff80821115610aa5575f80fd5b9083019060a08286031215610ab8575f80fd5b610ac061089e565b610ac983610915565b8152610ad760208401610915565b602082015260408301356040820152610af260608401610915565b6060820152608083013582811115610b08575f80fd5b610b1487828601610930565b60808301525095945050505050565b5f60208284031215610b33575f80fd5b813567ffffffffffffffff80821115610b4a575f80fd5b9083019060808286031215610b5d575f80fd5b604051608081018181108382111715610b7857610b78610848565b604052610b8483610915565b8152610b9260208401610915565b602082015260408301356040820152606083013582811115610bb2575f80fd5b610bbe87828601610930565b60608301525095945050505050565b5f60208284031215610bdd575f80fd5b813567ffffffffffffffff80821115610bf4575f80fd5b9083019060c08286031215610c07575f80fd5b610c0f6108c1565b610c1883610915565b8152610c2660208401610915565b6020820152610c3760408401610915565b6040820152610c4860608401610915565b60608201526080830135608082015260a083013582811115610c68575f80fd5b610c7487828601610930565b60a08301525095945050505050565b5f60208284031215610c93575f80fd5b610c9c82610915565b9392505050565b5f8151808452602080850194508084015f5b83811015610cd657815162ffffff1687529582019590820190600101610cb5565b509495945050505050565b5f6001600160a01b03808a1683528089166020840152808816604084015286606084015285608084015280851660a08401525060e060c0830152610d2860e0830184610ca3565b9998505050505050505050565b5f6001600160a01b038088168352808716602084015285604084015280851660608401525060a060808301526109b360a0830184610ca3565b5f6001600160a01b03808716835280861660208401525083604083015260806060830152610d9f6080830184610ca3565b9695505050505050565b5f6001600160a01b0380891683528088166020840152808716604084015280861660608401525083608083015260c060a0830152610dea60c0830184610ca3565b98975050505050505050565b5f82515f5b81811015610e155760208186018101518583015201610dfb565b505f920191825250919050565b5f60208284031215610e32575f80fd5b81518015158114610c9c575f80fdfea2646970667358221220697ab20989bc9e6c1f76e3813d13bd2f12dcb4b250e644cd2d665c2a71188b1664736f6c63430008140033",
			"opcodes": "PUSH1 0x80 PUSH1 0x40 MSTORE CALLVALUE DUP1 ISZERO PUSH2 0xF JUMPI PUSH0 DUP1 REVERT JUMPDEST POP PUSH1 0x40 MLOAD PUSH2 0xF5D CODESIZE SUB DUP1 PUSH2 0xF5D DUP4 CODECOPY DUP2 ADD PUSH1 0x40 DUP2 SWAP1 MSTORE PUSH2 0x2E SWAP2 PUSH2 0xAC JUMP JUMPDEST PUSH1 0x1 PUSH1 0x1 PUSH1 0xA0 SHL SUB DUP2 AND PUSH2 0x88 JUMPI PUSH1 0x40 MLOAD PUSH3 0x461BCD PUSH1 0xE5 SHL DUP2 MSTORE PUSH1 0x20 PUSH1 0x4 DUP3 ADD MSTORE PUSH1 0x15 PUSH1 0x24 DUP3 ADD MSTORE PUSH32 0x7A65726F20616464726573732070726F76696465640000000000000000000000 PUSH1 0x44 DUP3 ADD MSTORE PUSH1 0x64 ADD PUSH1 0x40 MLOAD DUP1 SWAP2 SUB SWAP1 REVERT JUMPDEST PUSH0 DUP1 SLOAD PUSH1 0x1 PUSH1 0x1 PUSH1 0xA0 SHL SUB NOT AND PUSH1 0x1 PUSH1 0x1 PUSH1 0xA0 SHL SUB SWAP3 SWAP1 SWAP3 AND SWAP2 SWAP1 SWAP2 OR SWAP1 SSTORE PUSH2 0xD9 JUMP JUMPDEST PUSH0 PUSH1 0x20 DUP3 DUP5 SUB SLT ISZERO PUSH2 0xBC JUMPI PUSH0 DUP1 REVERT JUMPDEST DUP2 MLOAD PUSH1 0x1 PUSH1 0x1 PUSH1 0xA0 SHL SUB DUP2 AND DUP2 EQ PUSH2 0xD2 JUMPI PUSH0 DUP1 REVERT JUMPDEST SWAP4 SWAP3 POP POP POP JUMP JUMPDEST PUSH2 0xE77 DUP1 PUSH2 0xE6 PUSH0 CODECOPY PUSH0 RETURN INVALID PUSH1 0x80 PUSH1 0x40 MSTORE CALLVALUE DUP1 ISZERO PUSH2 0xF JUMPI PUSH0 DUP1 REVERT JUMPDEST POP PUSH1 0x4 CALLDATASIZE LT PUSH2 0x85 JUMPI PUSH0 CALLDATALOAD PUSH1 0xE0 SHR DUP1 PUSH4 0x4D37C3B7 GT PUSH2 0x58 JUMPI DUP1 PUSH4 0x4D37C3B7 EQ PUSH2 0xD7 JUMPI DUP1 PUSH4 0x7EDA2AB1 EQ PUSH2 0xEA JUMPI DUP1 PUSH4 0x9C1FCC4C EQ PUSH2 0xFD JUMPI DUP1 PUSH4 0xFAA9EFE3 EQ PUSH2 0x12B JUMPI PUSH0 DUP1 REVERT JUMPDEST DUP1 PUSH4 0x18B95B8B EQ PUSH2 0x89 JUMPI DUP1 PUSH4 0x2B3BA5D9 EQ PUSH2 0x9E JUMPI DUP1 PUSH4 0x35E164D0 EQ PUSH2 0xB1 JUMPI DUP1 PUSH4 0x491AAED1 EQ PUSH2 0xC4 JUMPI JUMPDEST PUSH0 DUP1 REVERT JUMPDEST PUSH2 0x9C PUSH2 0x97 CALLDATASIZE PUSH1 0x4 PUSH2 0x9BE JUMP JUMPDEST PUSH2 0x153 JUMP JUMPDEST STOP JUMPDEST PUSH2 0x9C PUSH2 0xAC CALLDATASIZE PUSH1 0x4 PUSH2 0xA7E JUMP JUMPDEST PUSH2 0x22F JUMP JUMPDEST PUSH2 0x9C PUSH2 0xBF CALLDATASIZE PUSH1 0x4 PUSH2 0xA7E JUMP JUMPDEST PUSH2 0x2E0 JUMP JUMPDEST PUSH2 0x9C PUSH2 0xD2 CALLDATASIZE PUSH1 0x4 PUSH2 0x9BE JUMP JUMPDEST PUSH2 0x38C JUMP JUMPDEST PUSH2 0x9C PUSH2 0xE5 CALLDATASIZE PUSH1 0x4 PUSH2 0xB23 JUMP JUMPDEST PUSH2 0x432 JUMP JUMPDEST PUSH2 0x9C PUSH2 0xF8 CALLDATASIZE PUSH1 0x4 PUSH2 0xBCD JUMP JUMPDEST PUSH2 0x4EC JUMP JUMPDEST PUSH0 SLOAD PUSH2 0x10F SWAP1 PUSH1 0x1 PUSH1 0x1 PUSH1 0xA0 SHL SUB AND DUP2 JUMP JUMPDEST PUSH1 0x40 MLOAD PUSH1 0x1 PUSH1 0x1 PUSH1 0xA0 SHL SUB SWAP1 SWAP2 AND DUP2 MSTORE PUSH1 0x20 ADD PUSH1 0x40 MLOAD DUP1 SWAP2 SUB SWAP1 RETURN JUMPDEST PUSH2 0x10F PUSH2 0x139 CALLDATASIZE PUSH1 0x4 PUSH2 0xC83 JUMP JUMPDEST PUSH1 0x1 PUSH1 0x20 MSTORE PUSH0 SWAP1 DUP2 MSTORE PUSH1 0x40 SWAP1 KECCAK256 SLOAD PUSH1 0x1 PUSH1 0x1 PUSH1 0xA0 SHL SUB AND DUP2 JUMP JUMPDEST CALLER PUSH0 SWAP1 DUP2 MSTORE PUSH1 0x1 PUSH1 0x20 MSTORE PUSH1 0x40 SWAP1 KECCAK256 SLOAD PUSH1 0x1 PUSH1 0x1 PUSH1 0xA0 SHL SUB AND PUSH2 0x179 JUMPI PUSH2 0x177 PUSH2 0x5B2 JUMP JUMPDEST POP JUMPDEST CALLER PUSH0 DUP2 DUP2 MSTORE PUSH1 0x1 PUSH1 0x20 SWAP1 DUP2 MSTORE PUSH1 0x40 SWAP1 SWAP2 KECCAK256 SLOAD SWAP1 DUP4 ADD MLOAD PUSH1 0x60 DUP5 ADD MLOAD PUSH1 0x1 PUSH1 0x1 PUSH1 0xA0 SHL SUB SWAP1 SWAP3 AND SWAP3 PUSH2 0x1AB SWAP3 DUP5 SWAP1 PUSH2 0x703 JUMP JUMPDEST DUP1 PUSH1 0x1 PUSH1 0x1 PUSH1 0xA0 SHL SUB AND PUSH4 0x315A1451 DUP4 PUSH0 ADD MLOAD DUP5 PUSH1 0x20 ADD MLOAD DUP6 PUSH1 0x40 ADD MLOAD DUP7 PUSH1 0x60 ADD MLOAD DUP8 PUSH1 0x80 ADD MLOAD DUP9 PUSH1 0xA0 ADD MLOAD DUP10 PUSH1 0xC0 ADD MLOAD PUSH1 0x40 MLOAD DUP9 PUSH4 0xFFFFFFFF AND PUSH1 0xE0 SHL DUP2 MSTORE PUSH1 0x4 ADD PUSH2 0x1FE SWAP8 SWAP7 SWAP6 SWAP5 SWAP4 SWAP3 SWAP2 SWAP1 PUSH2 0xCE1 JUMP JUMPDEST PUSH0 PUSH1 0x40 MLOAD DUP1 DUP4 SUB DUP2 PUSH0 DUP8 DUP1 EXTCODESIZE ISZERO DUP1 ISZERO PUSH2 0x215 JUMPI PUSH0 DUP1 REVERT JUMPDEST POP GAS CALL ISZERO DUP1 ISZERO PUSH2 0x227 JUMPI RETURNDATASIZE PUSH0 DUP1 RETURNDATACOPY RETURNDATASIZE PUSH0 REVERT JUMPDEST POP POP POP POP POP POP JUMP JUMPDEST CALLER PUSH0 SWAP1 DUP2 MSTORE PUSH1 0x1 PUSH1 0x20 MSTORE PUSH1 0x40 SWAP1 KECCAK256 SLOAD PUSH1 0x1 PUSH1 0x1 PUSH1 0xA0 SHL SUB AND DUP1 PUSH2 0x299 JUMPI PUSH1 0x40 MLOAD PUSH3 0x461BCD PUSH1 0xE5 SHL DUP2 MSTORE PUSH1 0x20 PUSH1 0x4 DUP3 ADD MSTORE PUSH1 0x16 PUSH1 0x24 DUP3 ADD MSTORE PUSH32 0x4E6F20706F736974696F6E20617661696C61626C652100000000000000000000 PUSH1 0x44 DUP3 ADD MSTORE PUSH1 0x64 ADD JUMPDEST PUSH1 0x40 MLOAD DUP1 SWAP2 SUB SWAP1 REVERT JUMPDEST DUP1 PUSH1 0x1 PUSH1 0x1 PUSH1 0xA0 SHL SUB AND PUSH4 0x73E8F1FA DUP4 PUSH0 ADD MLOAD DUP5 PUSH1 0x20 ADD MLOAD DUP6 PUSH1 0x40 ADD MLOAD DUP7 PUSH1 0x60 ADD MLOAD DUP8 PUSH1 0x80 ADD MLOAD PUSH1 0x40 MLOAD DUP7 PUSH4 0xFFFFFFFF AND PUSH1 0xE0 SHL DUP2 MSTORE PUSH1 0x4 ADD PUSH2 0x1FE SWAP6 SWAP5 SWAP4 SWAP3 SWAP2 SWAP1 PUSH2 0xD35 JUMP JUMPDEST CALLER PUSH0 SWAP1 DUP2 MSTORE PUSH1 0x1 PUSH1 0x20 MSTORE PUSH1 0x40 SWAP1 KECCAK256 SLOAD PUSH1 0x1 PUSH1 0x1 PUSH1 0xA0 SHL SUB AND DUP1 PUSH2 0x345 JUMPI PUSH1 0x40 MLOAD PUSH3 0x461BCD PUSH1 0xE5 SHL DUP2 MSTORE PUSH1 0x20 PUSH1 0x4 DUP3 ADD MSTORE PUSH1 0x1D PUSH1 0x24 DUP3 ADD MSTORE PUSH32 0x4E6F20626F72726F7720706F736974696F6E20617661696C61626C6521000000 PUSH1 0x44 DUP3 ADD MSTORE PUSH1 0x64 ADD PUSH2 0x290 JUMP JUMPDEST DUP1 PUSH1 0x1 PUSH1 0x1 PUSH1 0xA0 SHL SUB AND PUSH4 0xBAECBFCD DUP4 PUSH0 ADD MLOAD DUP5 PUSH1 0x20 ADD MLOAD DUP6 PUSH1 0x40 ADD MLOAD DUP7 PUSH1 0x60 ADD MLOAD DUP8 PUSH1 0x80 ADD MLOAD PUSH1 0x40 MLOAD DUP7 PUSH4 0xFFFFFFFF AND PUSH1 0xE0 SHL DUP2 MSTORE PUSH1 0x4 ADD PUSH2 0x1FE SWAP6 SWAP5 SWAP4 SWAP3 SWAP2 SWAP1 PUSH2 0xD35 JUMP JUMPDEST CALLER PUSH0 SWAP1 DUP2 MSTORE PUSH1 0x1 PUSH1 0x20 MSTORE PUSH1 0x40 SWAP1 KECCAK256 SLOAD PUSH1 0x1 PUSH1 0x1 PUSH1 0xA0 SHL SUB AND PUSH2 0x3B2 JUMPI PUSH2 0x3B0 PUSH2 0x5B2 JUMP JUMPDEST POP JUMPDEST CALLER PUSH0 DUP2 DUP2 MSTORE PUSH1 0x1 PUSH1 0x20 MSTORE PUSH1 0x40 SWAP1 KECCAK256 SLOAD DUP3 MLOAD PUSH1 0x60 DUP5 ADD MLOAD PUSH1 0x1 PUSH1 0x1 PUSH1 0xA0 SHL SUB SWAP1 SWAP3 AND SWAP3 PUSH2 0x3DF SWAP3 DUP5 SWAP1 PUSH2 0x703 JUMP JUMPDEST DUP1 PUSH1 0x1 PUSH1 0x1 PUSH1 0xA0 SHL SUB AND PUSH4 0xA36CC4CD DUP4 PUSH0 ADD MLOAD DUP5 PUSH1 0x20 ADD MLOAD DUP6 PUSH1 0x40 ADD MLOAD DUP7 PUSH1 0x60 ADD MLOAD DUP8 PUSH1 0x80 ADD MLOAD DUP9 PUSH1 0xA0 ADD MLOAD DUP10 PUSH1 0xC0 ADD MLOAD PUSH1 0x40 MLOAD DUP9 PUSH4 0xFFFFFFFF AND PUSH1 0xE0 SHL DUP2 MSTORE PUSH1 0x4 ADD PUSH2 0x1FE SWAP8 SWAP7 SWAP6 SWAP5 SWAP4 SWAP3 SWAP2 SWAP1 PUSH2 0xCE1 JUMP JUMPDEST CALLER PUSH0 SWAP1 DUP2 MSTORE PUSH1 0x1 PUSH1 0x20 MSTORE PUSH1 0x40 SWAP1 KECCAK256 SLOAD PUSH1 0x1 PUSH1 0x1 PUSH1 0xA0 SHL SUB AND DUP1 PUSH2 0x497 JUMPI PUSH1 0x40 MLOAD PUSH3 0x461BCD PUSH1 0xE5 SHL DUP2 MSTORE PUSH1 0x20 PUSH1 0x4 DUP3 ADD MSTORE PUSH1 0x1D PUSH1 0x24 DUP3 ADD MSTORE PUSH32 0x4E6F20626F72726F7720706F736974696F6E20617661696C61626C6521000000 PUSH1 0x44 DUP3 ADD MSTORE PUSH1 0x64 ADD PUSH2 0x290 JUMP JUMPDEST PUSH2 0x4AB DUP3 PUSH1 0x20 ADD MLOAD CALLER DUP4 DUP6 PUSH1 0x40 ADD MLOAD PUSH2 0x703 JUMP JUMPDEST DUP1 PUSH1 0x1 PUSH1 0x1 PUSH1 0xA0 SHL SUB AND PUSH4 0x6B5E7305 DUP4 PUSH0 ADD MLOAD DUP5 PUSH1 0x20 ADD MLOAD DUP6 PUSH1 0x40 ADD MLOAD DUP7 PUSH1 0x60 ADD MLOAD PUSH1 0x40 MLOAD DUP6 PUSH4 0xFFFFFFFF AND PUSH1 0xE0 SHL DUP2 MSTORE PUSH1 0x4 ADD PUSH2 0x1FE SWAP5 SWAP4 SWAP3 SWAP2 SWAP1 PUSH2 0xD6E JUMP JUMPDEST CALLER PUSH0 SWAP1 DUP2 MSTORE PUSH1 0x1 PUSH1 0x20 MSTORE PUSH1 0x40 SWAP1 KECCAK256 SLOAD PUSH1 0x1 PUSH1 0x1 PUSH1 0xA0 SHL SUB AND DUP1 PUSH2 0x551 JUMPI PUSH1 0x40 MLOAD PUSH3 0x461BCD PUSH1 0xE5 SHL DUP2 MSTORE PUSH1 0x20 PUSH1 0x4 DUP3 ADD MSTORE PUSH1 0x1D PUSH1 0x24 DUP3 ADD MSTORE PUSH32 0x4E6F20626F72726F7720706F736974696F6E20617661696C61626C6521000000 PUSH1 0x44 DUP3 ADD MSTORE PUSH1 0x64 ADD PUSH2 0x290 JUMP JUMPDEST PUSH2 0x565 DUP3 PUSH1 0x20 ADD MLOAD CALLER DUP4 DUP6 PUSH1 0x80 ADD MLOAD PUSH2 0x703 JUMP JUMPDEST DUP1 PUSH1 0x1 PUSH1 0x1 PUSH1 0xA0 SHL SUB AND PUSH4 0xB5C8B759 DUP4 PUSH0 ADD MLOAD DUP5 PUSH1 0x20 ADD MLOAD DUP6 PUSH1 0x40 ADD MLOAD DUP7 PUSH1 0x60 ADD MLOAD DUP8 PUSH1 0x80 ADD MLOAD DUP9 PUSH1 0xA0 ADD MLOAD PUSH1 0x40 MLOAD DUP8 PUSH4 0xFFFFFFFF AND PUSH1 0xE0 SHL DUP2 MSTORE PUSH1 0x4 ADD PUSH2 0x1FE SWAP7 SWAP6 SWAP5 SWAP4 SWAP3 SWAP2 SWAP1 PUSH2 0xDA9 JUMP JUMPDEST CALLER PUSH0 SWAP1 DUP2 MSTORE PUSH1 0x1 PUSH1 0x20 MSTORE PUSH1 0x40 DUP2 KECCAK256 SLOAD PUSH1 0x1 PUSH1 0x1 PUSH1 0xA0 SHL SUB AND ISZERO PUSH2 0x617 JUMPI PUSH1 0x40 MLOAD PUSH3 0x461BCD PUSH1 0xE5 SHL DUP2 MSTORE PUSH1 0x20 PUSH1 0x4 DUP3 ADD MSTORE PUSH1 0x16 PUSH1 0x24 DUP3 ADD MSTORE PUSH32 0x4163636F756E7420616C72656164792065786973747300000000000000000000 PUSH1 0x44 DUP3 ADD MSTORE PUSH1 0x64 ADD PUSH2 0x290 JUMP JUMPDEST PUSH0 DUP1 PUSH0 SWAP1 SLOAD SWAP1 PUSH2 0x100 EXP SWAP1 DIV PUSH1 0x1 PUSH1 0x1 PUSH1 0xA0 SHL SUB AND PUSH1 0x60 SHL SWAP1 POP PUSH1 0x40 MLOAD PUSH32 0x3D602D80600A3D3981F3363D3D373D3D3D363D73000000000000000000000000 DUP2 MSTORE DUP2 PUSH1 0x14 DUP3 ADD MSTORE PUSH32 0x5AF43D82803E903D91602B57FD5BF30000000000000000000000000000000000 PUSH1 0x28 DUP3 ADD MSTORE PUSH1 0x37 DUP2 PUSH0 CREATE SWAP3 POP POP DUP2 PUSH2 0x694 JUMPI PUSH0 DUP1 REVERT JUMPDEST CALLER PUSH0 DUP2 DUP2 MSTORE PUSH1 0x1 PUSH1 0x20 MSTORE PUSH1 0x40 DUP1 DUP3 KECCAK256 DUP1 SLOAD PUSH32 0xFFFFFFFFFFFFFFFFFFFFFFFF0000000000000000000000000000000000000000 AND PUSH1 0x1 PUSH1 0x1 PUSH1 0xA0 SHL SUB DUP8 AND SWAP1 DUP2 OR SWAP1 SWAP2 SSTORE SWAP1 MLOAD SWAP1 SWAP3 SWAP2 PUSH32 0xAC631F3001B55EA1509CF3D7E74898F85392A61A76E8149181AE1259622DABC8 SWAP2 LOG3 POP SWAP1 JUMP JUMPDEST PUSH1 0x40 DUP1 MLOAD PUSH1 0x1 PUSH1 0x1 PUSH1 0xA0 SHL SUB DUP6 DUP2 AND PUSH1 0x24 DUP4 ADD MSTORE DUP5 DUP2 AND PUSH1 0x44 DUP4 ADD MSTORE PUSH1 0x64 DUP1 DUP4 ADD DUP6 SWAP1 MSTORE DUP4 MLOAD DUP1 DUP5 SUB SWAP1 SWAP2 ADD DUP2 MSTORE PUSH1 0x84 SWAP1 SWAP3 ADD DUP4 MSTORE PUSH1 0x20 DUP3 ADD DUP1 MLOAD PUSH28 0xFFFFFFFFFFFFFFFFFFFFFFFFFFFFFFFFFFFFFFFFFFFFFFFFFFFFFFFF AND PUSH32 0x23B872DD00000000000000000000000000000000000000000000000000000000 OR SWAP1 MSTORE SWAP2 MLOAD PUSH0 SWAP3 DUP4 SWAP3 SWAP1 DUP9 AND SWAP2 PUSH2 0x794 SWAP2 SWAP1 PUSH2 0xDF6 JUMP JUMPDEST PUSH0 PUSH1 0x40 MLOAD DUP1 DUP4 SUB DUP2 PUSH0 DUP7 GAS CALL SWAP2 POP POP RETURNDATASIZE DUP1 PUSH0 DUP2 EQ PUSH2 0x7CD JUMPI PUSH1 0x40 MLOAD SWAP2 POP PUSH1 0x1F NOT PUSH1 0x3F RETURNDATASIZE ADD AND DUP3 ADD PUSH1 0x40 MSTORE RETURNDATASIZE DUP3 MSTORE RETURNDATASIZE PUSH0 PUSH1 0x20 DUP5 ADD RETURNDATACOPY PUSH2 0x7D2 JUMP JUMPDEST PUSH1 0x60 SWAP2 POP JUMPDEST POP SWAP2 POP SWAP2 POP DUP2 DUP1 ISZERO PUSH2 0x7FC JUMPI POP DUP1 MLOAD ISZERO DUP1 PUSH2 0x7FC JUMPI POP DUP1 DUP1 PUSH1 0x20 ADD SWAP1 MLOAD DUP2 ADD SWAP1 PUSH2 0x7FC SWAP2 SWAP1 PUSH2 0xE22 JUMP JUMPDEST PUSH2 0x227 JUMPI PUSH1 0x40 MLOAD PUSH3 0x461BCD PUSH1 0xE5 SHL DUP2 MSTORE PUSH1 0x20 PUSH1 0x4 DUP3 ADD MSTORE PUSH1 0x3 PUSH1 0x24 DUP3 ADD MSTORE PUSH32 0x5354460000000000000000000000000000000000000000000000000000000000 PUSH1 0x44 DUP3 ADD MSTORE PUSH1 0x64 ADD PUSH2 0x290 JUMP JUMPDEST PUSH32 0x4E487B7100000000000000000000000000000000000000000000000000000000 PUSH0 MSTORE PUSH1 0x41 PUSH1 0x4 MSTORE PUSH1 0x24 PUSH0 REVERT JUMPDEST PUSH1 0x40 MLOAD PUSH1 0xE0 DUP2 ADD PUSH8 0xFFFFFFFFFFFFFFFF DUP2 GT DUP3 DUP3 LT OR ISZERO PUSH2 0x898 JUMPI PUSH2 0x898 PUSH2 0x848 JUMP JUMPDEST PUSH1 0x40 MSTORE SWAP1 JUMP JUMPDEST PUSH1 0x40 MLOAD PUSH1 0xA0 DUP2 ADD PUSH8 0xFFFFFFFFFFFFFFFF DUP2 GT DUP3 DUP3 LT OR ISZERO PUSH2 0x898 JUMPI PUSH2 0x898 PUSH2 0x848 JUMP JUMPDEST PUSH1 0x40 MLOAD PUSH1 0xC0 DUP2 ADD PUSH8 0xFFFFFFFFFFFFFFFF DUP2 GT DUP3 DUP3 LT OR ISZERO PUSH2 0x898 JUMPI PUSH2 0x898 PUSH2 0x848 JUMP JUMPDEST PUSH1 0x40 MLOAD PUSH1 0x1F DUP3 ADD PUSH1 0x1F NOT AND DUP2 ADD PUSH8 0xFFFFFFFFFFFFFFFF DUP2 GT DUP3 DUP3 LT OR ISZERO PUSH2 0x90D JUMPI PUSH2 0x90D PUSH2 0x848 JUMP JUMPDEST PUSH1 0x40 MSTORE SWAP2 SWAP1 POP JUMP JUMPDEST DUP1 CALLDATALOAD PUSH1 0x1 PUSH1 0x1 PUSH1 0xA0 SHL SUB DUP2 AND DUP2 EQ PUSH2 0x92B JUMPI PUSH0 DUP1 REVERT JUMPDEST SWAP2 SWAP1 POP JUMP JUMPDEST PUSH0 DUP3 PUSH1 0x1F DUP4 ADD SLT PUSH2 0x93F JUMPI PUSH0 DUP1 REVERT JUMPDEST DUP2 CALLDATALOAD PUSH1 0x20 PUSH8 0xFFFFFFFFFFFFFFFF DUP3 GT ISZERO PUSH2 0x95B JUMPI PUSH2 0x95B PUSH2 0x848 JUMP JUMPDEST DUP2 PUSH1 0x5 SHL PUSH2 0x96A DUP3 DUP3 ADD PUSH2 0x8E4 JUMP JUMPDEST SWAP3 DUP4 MSTORE DUP5 DUP2 ADD DUP3 ADD SWAP3 DUP3 DUP2 ADD SWAP1 DUP8 DUP6 GT ISZERO PUSH2 0x983 JUMPI PUSH0 DUP1 REVERT JUMPDEST DUP4 DUP8 ADD SWAP3 POP JUMPDEST DUP5 DUP4 LT ISZERO PUSH2 0x9B3 JUMPI DUP3 CALLDATALOAD PUSH3 0xFFFFFF DUP2 AND DUP2 EQ PUSH2 0x9A4 JUMPI PUSH0 DUP1 DUP2 REVERT JUMPDEST DUP3 MSTORE SWAP2 DUP4 ADD SWAP2 SWAP1 DUP4 ADD SWAP1 PUSH2 0x989 JUMP JUMPDEST SWAP8 SWAP7 POP POP POP POP POP POP POP JUMP JUMPDEST PUSH0 PUSH1 0x20 DUP3 DUP5 SUB SLT ISZERO PUSH2 0x9CE JUMPI PUSH0 DUP1 REVERT JUMPDEST DUP2 CALLDATALOAD PUSH8 0xFFFFFFFFFFFFFFFF DUP1 DUP3 GT ISZERO PUSH2 0x9E5 JUMPI PUSH0 DUP1 REVERT JUMPDEST SWAP1 DUP4 ADD SWAP1 PUSH1 0xE0 DUP3 DUP7 SUB SLT ISZERO PUSH2 0x9F8 JUMPI PUSH0 DUP1 REVERT JUMPDEST PUSH2 0xA00 PUSH2 0x875 JUMP JUMPDEST PUSH2 0xA09 DUP4 PUSH2 0x915 JUMP JUMPDEST DUP2 MSTORE PUSH2 0xA17 PUSH1 0x20 DUP5 ADD PUSH2 0x915 JUMP JUMPDEST PUSH1 0x20 DUP3 ADD MSTORE PUSH2 0xA28 PUSH1 0x40 DUP5 ADD PUSH2 0x915 JUMP JUMPDEST PUSH1 0x40 DUP3 ADD MSTORE PUSH1 0x60 DUP4 ADD CALLDATALOAD PUSH1 0x60 DUP3 ADD MSTORE PUSH1 0x80 DUP4 ADD CALLDATALOAD PUSH1 0x80 DUP3 ADD MSTORE PUSH2 0xA4D PUSH1 0xA0 DUP5 ADD PUSH2 0x915 JUMP JUMPDEST PUSH1 0xA0 DUP3 ADD MSTORE PUSH1 0xC0 DUP4 ADD CALLDATALOAD DUP3 DUP2 GT ISZERO PUSH2 0xA63 JUMPI PUSH0 DUP1 REVERT JUMPDEST PUSH2 0xA6F DUP8 DUP3 DUP7 ADD PUSH2 0x930 JUMP JUMPDEST PUSH1 0xC0 DUP4 ADD MSTORE POP SWAP6 SWAP5 POP POP POP POP POP JUMP JUMPDEST PUSH0 PUSH1 0x20 DUP3 DUP5 SUB SLT ISZERO PUSH2 0xA8E JUMPI PUSH0 DUP1 REVERT JUMPDEST DUP2 CALLDATALOAD PUSH8 0xFFFFFFFFFFFFFFFF DUP1 DUP3 GT ISZERO PUSH2 0xAA5 JUMPI PUSH0 DUP1 REVERT JUMPDEST SWAP1 DUP4 ADD SWAP1 PUSH1 0xA0 DUP3 DUP7 SUB SLT ISZERO PUSH2 0xAB8 JUMPI PUSH0 DUP1 REVERT JUMPDEST PUSH2 0xAC0 PUSH2 0x89E JUMP JUMPDEST PUSH2 0xAC9 DUP4 PUSH2 0x915 JUMP JUMPDEST DUP2 MSTORE PUSH2 0xAD7 PUSH1 0x20 DUP5 ADD PUSH2 0x915 JUMP JUMPDEST PUSH1 0x20 DUP3 ADD MSTORE PUSH1 0x40 DUP4 ADD CALLDATALOAD PUSH1 0x40 DUP3 ADD MSTORE PUSH2 0xAF2 PUSH1 0x60 DUP5 ADD PUSH2 0x915 JUMP JUMPDEST PUSH1 0x60 DUP3 ADD MSTORE PUSH1 0x80 DUP4 ADD CALLDATALOAD DUP3 DUP2 GT ISZERO PUSH2 0xB08 JUMPI PUSH0 DUP1 REVERT JUMPDEST PUSH2 0xB14 DUP8 DUP3 DUP7 ADD PUSH2 0x930 JUMP JUMPDEST PUSH1 0x80 DUP4 ADD MSTORE POP SWAP6 SWAP5 POP POP POP POP POP JUMP JUMPDEST PUSH0 PUSH1 0x20 DUP3 DUP5 SUB SLT ISZERO PUSH2 0xB33 JUMPI PUSH0 DUP1 REVERT JUMPDEST DUP2 CALLDATALOAD PUSH8 0xFFFFFFFFFFFFFFFF DUP1 DUP3 GT ISZERO PUSH2 0xB4A JUMPI PUSH0 DUP1 REVERT JUMPDEST SWAP1 DUP4 ADD SWAP1 PUSH1 0x80 DUP3 DUP7 SUB SLT ISZERO PUSH2 0xB5D JUMPI PUSH0 DUP1 REVERT JUMPDEST PUSH1 0x40 MLOAD PUSH1 0x80 DUP2 ADD DUP2 DUP2 LT DUP4 DUP3 GT OR ISZERO PUSH2 0xB78 JUMPI PUSH2 0xB78 PUSH2 0x848 JUMP JUMPDEST PUSH1 0x40 MSTORE PUSH2 0xB84 DUP4 PUSH2 0x915 JUMP JUMPDEST DUP2 MSTORE PUSH2 0xB92 PUSH1 0x20 DUP5 ADD PUSH2 0x915 JUMP JUMPDEST PUSH1 0x20 DUP3 ADD MSTORE PUSH1 0x40 DUP4 ADD CALLDATALOAD PUSH1 0x40 DUP3 ADD MSTORE PUSH1 0x60 DUP4 ADD CALLDATALOAD DUP3 DUP2 GT ISZERO PUSH2 0xBB2 JUMPI PUSH0 DUP1 REVERT JUMPDEST PUSH2 0xBBE DUP8 DUP3 DUP7 ADD PUSH2 0x930 JUMP JUMPDEST PUSH1 0x60 DUP4 ADD MSTORE POP SWAP6 SWAP5 POP POP POP POP POP JUMP JUMPDEST PUSH0 PUSH1 0x20 DUP3 DUP5 SUB SLT ISZERO PUSH2 0xBDD JUMPI PUSH0 DUP1 REVERT JUMPDEST DUP2 CALLDATALOAD PUSH8 0xFFFFFFFFFFFFFFFF DUP1 DUP3 GT ISZERO PUSH2 0xBF4 JUMPI PUSH0 DUP1 REVERT JUMPDEST SWAP1 DUP4 ADD SWAP1 PUSH1 0xC0 DUP3 DUP7 SUB SLT ISZERO PUSH2 0xC07 JUMPI PUSH0 DUP1 REVERT JUMPDEST PUSH2 0xC0F PUSH2 0x8C1 JUMP JUMPDEST PUSH2 0xC18 DUP4 PUSH2 0x915 JUMP JUMPDEST DUP2 MSTORE PUSH2 0xC26 PUSH1 0x20 DUP5 ADD PUSH2 0x915 JUMP JUMPDEST PUSH1 0x20 DUP3 ADD MSTORE PUSH2 0xC37 PUSH1 0x40 DUP5 ADD PUSH2 0x915 JUMP JUMPDEST PUSH1 0x40 DUP3 ADD MSTORE PUSH2 0xC48 PUSH1 0x60 DUP5 ADD PUSH2 0x915 JUMP JUMPDEST PUSH1 0x60 DUP3 ADD MSTORE PUSH1 0x80 DUP4 ADD CALLDATALOAD PUSH1 0x80 DUP3 ADD MSTORE PUSH1 0xA0 DUP4 ADD CALLDATALOAD DUP3 DUP2 GT ISZERO PUSH2 0xC68 JUMPI PUSH0 DUP1 REVERT JUMPDEST PUSH2 0xC74 DUP8 DUP3 DUP7 ADD PUSH2 0x930 JUMP JUMPDEST PUSH1 0xA0 DUP4 ADD MSTORE POP SWAP6 SWAP5 POP POP POP POP POP JUMP JUMPDEST PUSH0 PUSH1 0x20 DUP3 DUP5 SUB SLT ISZERO PUSH2 0xC93 JUMPI PUSH0 DUP1 REVERT JUMPDEST PUSH2 0xC9C DUP3 PUSH2 0x915 JUMP JUMPDEST SWAP4 SWAP3 POP POP POP JUMP JUMPDEST PUSH0 DUP2 MLOAD DUP1 DUP5 MSTORE PUSH1 0x20 DUP1 DUP6 ADD SWAP5 POP DUP1 DUP5 ADD PUSH0 JUMPDEST DUP4 DUP2 LT ISZERO PUSH2 0xCD6 JUMPI DUP2 MLOAD PUSH3 0xFFFFFF AND DUP8 MSTORE SWAP6 DUP3 ADD SWAP6 SWAP1 DUP3 ADD SWAP1 PUSH1 0x1 ADD PUSH2 0xCB5 JUMP JUMPDEST POP SWAP5 SWAP6 SWAP5 POP POP POP POP POP JUMP JUMPDEST PUSH0 PUSH1 0x1 PUSH1 0x1 PUSH1 0xA0 SHL SUB DUP1 DUP11 AND DUP4 MSTORE DUP1 DUP10 AND PUSH1 0x20 DUP5 ADD MSTORE DUP1 DUP9 AND PUSH1 0x40 DUP5 ADD MSTORE DUP7 PUSH1 0x60 DUP5 ADD MSTORE DUP6 PUSH1 0x80 DUP5 ADD MSTORE DUP1 DUP6 AND PUSH1 0xA0 DUP5 ADD MSTORE POP PUSH1 0xE0 PUSH1 0xC0 DUP4 ADD MSTORE PUSH2 0xD28 PUSH1 0xE0 DUP4 ADD DUP5 PUSH2 0xCA3 JUMP JUMPDEST SWAP10 SWAP9 POP POP POP POP POP POP POP POP POP JUMP JUMPDEST PUSH0 PUSH1 0x1 PUSH1 0x1 PUSH1 0xA0 SHL SUB DUP1 DUP9 AND DUP4 MSTORE DUP1 DUP8 AND PUSH1 0x20 DUP5 ADD MSTORE DUP6 PUSH1 0x40 DUP5 ADD MSTORE DUP1 DUP6 AND PUSH1 0x60 DUP5 ADD MSTORE POP PUSH1 0xA0 PUSH1 0x80 DUP4 ADD MSTORE PUSH2 0x9B3 PUSH1 0xA0 DUP4 ADD DUP5 PUSH2 0xCA3 JUMP JUMPDEST PUSH0 PUSH1 0x1 PUSH1 0x1 PUSH1 0xA0 SHL SUB DUP1 DUP8 AND DUP4 MSTORE DUP1 DUP7 AND PUSH1 0x20 DUP5 ADD MSTORE POP DUP4 PUSH1 0x40 DUP4 ADD MSTORE PUSH1 0x80 PUSH1 0x60 DUP4 ADD MSTORE PUSH2 0xD9F PUSH1 0x80 DUP4 ADD DUP5 PUSH2 0xCA3 JUMP JUMPDEST SWAP7 SWAP6 POP POP POP POP POP POP JUMP JUMPDEST PUSH0 PUSH1 0x1 PUSH1 0x1 PUSH1 0xA0 SHL SUB DUP1 DUP10 AND DUP4 MSTORE DUP1 DUP9 AND PUSH1 0x20 DUP5 ADD MSTORE DUP1 DUP8 AND PUSH1 0x40 DUP5 ADD MSTORE DUP1 DUP7 AND PUSH1 0x60 DUP5 ADD MSTORE POP DUP4 PUSH1 0x80 DUP4 ADD MSTORE PUSH1 0xC0 PUSH1 0xA0 DUP4 ADD MSTORE PUSH2 0xDEA PUSH1 0xC0 DUP4 ADD DUP5 PUSH2 0xCA3 JUMP JUMPDEST SWAP9 SWAP8 POP POP POP POP POP POP POP POP JUMP JUMPDEST PUSH0 DUP3 MLOAD PUSH0 JUMPDEST DUP2 DUP2 LT ISZERO PUSH2 0xE15 JUMPI PUSH1 0x20 DUP2 DUP7 ADD DUP2 ADD MLOAD DUP6 DUP4 ADD MSTORE ADD PUSH2 0xDFB JUMP JUMPDEST POP PUSH0 SWAP3 ADD SWAP2 DUP3 MSTORE POP SWAP2 SWAP1 POP JUMP JUMPDEST PUSH0 PUSH1 0x20 DUP3 DUP5 SUB SLT ISZERO PUSH2 0xE32 JUMPI PUSH0 DUP1 REVERT JUMPDEST DUP2 MLOAD DUP1 ISZERO ISZERO DUP2 EQ PUSH2 0xC9C JUMPI PUSH0 DUP1 REVERT INVALID LOG2 PUSH5 0x6970667358 0x22 SLT KECCAK256 PUSH10 0x7AB20989BC9E6C1F76E3 DUP2 RETURNDATASIZE SGT 0xBD 0x2F SLT 0xDC 0xB4 0xB2 POP 0xE6 PREVRANDAO 0xCD 0x2D PUSH7 0x5C2A71188B1664 PUSH20 0x6F6C634300081400330000000000000000000000 "
		},
		"gasEstimates": {
			"creation": {
				"codeDepositCost": "740600",
				"executionCost": "infinite",
				"totalCost": "infinite"
			},
			"external": {
				"compRedeem((address,address,uint256,address,uint24[]))": "infinite",
				"compRepay((address,address,uint256,uint24[]))": "infinite",
				"compoundBorrow((address,address,address,uint256,uint256,address,uint24[]))": "infinite",
				"logicAddress()": "2367",
				"proxyAddress(address)": "2609",
				"uniBorrow((address,address,address,uint256,int256,address,uint24[]))": "infinite",
				"uniRedeem((address,address,int256,address,uint24[]))": "infinite",
				"uniRepay((address,address,address,address,uint256,uint24[]))": "infinite"
			},
			"internal": {
				"createAccount()": "infinite"
			}
		},
		"methodIdentifiers": {
			"compRedeem((address,address,uint256,address,uint24[]))": "35e164d0",
			"compRepay((address,address,uint256,uint24[]))": "4d37c3b7",
			"compoundBorrow((address,address,address,uint256,uint256,address,uint24[]))": "491aaed1",
			"logicAddress()": "9c1fcc4c",
			"proxyAddress(address)": "faa9efe3",
			"uniBorrow((address,address,address,uint256,int256,address,uint24[]))": "18b95b8b",
			"uniRedeem((address,address,int256,address,uint24[]))": "2b3ba5d9",
			"uniRepay((address,address,address,address,uint256,uint24[]))": "7eda2ab1"
		}
	},
	"abi": [
		{
			"inputs": [
				{
					"internalType": "address",
					"name": "_logicAddress",
					"type": "address"
				}
			],
			"stateMutability": "nonpayable",
			"type": "constructor"
		},
		{
			"anonymous": false,
			"inputs": [
				{
					"indexed": true,
					"internalType": "address",
					"name": "user",
					"type": "address"
				},
				{
					"indexed": true,
					"internalType": "address",
					"name": "proxyAddress",
					"type": "address"
				}
			],
			"name": "AccountCreated",
			"type": "event"
		},
		{
			"inputs": [
				{
					"components": [
						{
							"internalType": "address",
							"name": "_user",
							"type": "address"
						},
						{
							"internalType": "address",
							"name": "_collateralToken",
							"type": "address"
						},
						{
							"internalType": "uint256",
							"name": "_collateralAmount",
							"type": "uint256"
						},
						{
							"internalType": "address",
							"name": "_tokenOut",
							"type": "address"
						},
						{
							"internalType": "uint24[]",
							"name": "_route",
							"type": "uint24[]"
						}
					],
					"internalType": "struct CompRedeem",
					"name": "params",
					"type": "tuple"
				}
			],
			"name": "compRedeem",
			"outputs": [],
			"stateMutability": "nonpayable",
			"type": "function"
		},
		{
			"inputs": [
				{
					"components": [
						{
							"internalType": "address",
							"name": "_borrowedToken",
							"type": "address"
						},
						{
							"internalType": "address",
							"name": "_tokenIn",
							"type": "address"
						},
						{
							"internalType": "uint256",
							"name": "_repayAmount",
							"type": "uint256"
						},
						{
							"internalType": "uint24[]",
							"name": "_route",
							"type": "uint24[]"
						}
					],
					"internalType": "struct CompRepay",
					"name": "params",
					"type": "tuple"
				}
			],
			"name": "compRepay",
			"outputs": [],
			"stateMutability": "nonpayable",
			"type": "function"
		},
		{
			"inputs": [
				{
					"components": [
						{
							"internalType": "address",
							"name": "_supplyAsset",
							"type": "address"
						},
						{
							"internalType": "address",
							"name": "_borrowAsset",
							"type": "address"
						},
						{
							"internalType": "address",
							"name": "_tokenOut",
							"type": "address"
						},
						{
							"internalType": "uint256",
							"name": "_supplyAmount",
							"type": "uint256"
						},
						{
							"internalType": "uint256",
							"name": "_borrowAmount",
							"type": "uint256"
						},
						{
							"internalType": "address",
							"name": "_user",
							"type": "address"
						},
						{
							"internalType": "uint24[]",
							"name": "_route",
							"type": "uint24[]"
						}
					],
					"internalType": "struct CompBorrow",
					"name": "params",
					"type": "tuple"
				}
			],
			"name": "compoundBorrow",
			"outputs": [],
			"stateMutability": "nonpayable",
			"type": "function"
		},
		{
			"inputs": [],
			"name": "logicAddress",
			"outputs": [
				{
					"internalType": "address",
					"name": "",
					"type": "address"
				}
			],
			"stateMutability": "view",
			"type": "function"
		},
		{
			"inputs": [
				{
					"internalType": "address",
					"name": "",
					"type": "address"
				}
			],
			"name": "proxyAddress",
			"outputs": [
				{
					"internalType": "address",
					"name": "",
					"type": "address"
				}
			],
			"stateMutability": "view",
			"type": "function"
		},
		{
			"inputs": [
				{
					"components": [
						{
							"internalType": "address",
							"name": "_pool",
							"type": "address"
						},
						{
							"internalType": "address",
							"name": "_supplyAsset",
							"type": "address"
						},
						{
							"internalType": "address",
							"name": "_tokenOUt",
							"type": "address"
						},
						{
							"internalType": "uint256",
							"name": "_collateral_amount",
							"type": "uint256"
						},
						{
							"internalType": "int256",
							"name": "_amount",
							"type": "int256"
						},
						{
							"internalType": "address",
							"name": "_user",
							"type": "address"
						},
						{
							"internalType": "uint24[]",
							"name": "_route",
							"type": "uint24[]"
						}
					],
					"internalType": "struct UniBorrow",
					"name": "params",
					"type": "tuple"
				}
			],
			"name": "uniBorrow",
			"outputs": [],
			"stateMutability": "nonpayable",
			"type": "function"
		},
		{
			"inputs": [
				{
					"components": [
						{
							"internalType": "address",
							"name": "_pool",
							"type": "address"
						},
						{
							"internalType": "address",
							"name": "_user",
							"type": "address"
						},
						{
							"internalType": "int256",
							"name": "_amount",
							"type": "int256"
						},
						{
							"internalType": "address",
							"name": "_tokenOut",
							"type": "address"
						},
						{
							"internalType": "uint24[]",
							"name": "_route",
							"type": "uint24[]"
						}
					],
					"internalType": "struct UniRedeem",
					"name": "params",
					"type": "tuple"
				}
			],
			"name": "uniRedeem",
			"outputs": [],
			"stateMutability": "nonpayable",
			"type": "function"
		},
		{
			"inputs": [
				{
					"components": [
						{
							"internalType": "address",
							"name": "_pool",
							"type": "address"
						},
						{
							"internalType": "address",
							"name": "_tokenIn",
							"type": "address"
						},
						{
							"internalType": "address",
							"name": "_user",
							"type": "address"
						},
						{
							"internalType": "address",
							"name": "_borrowAddress",
							"type": "address"
						},
						{
							"internalType": "uint256",
							"name": "_repayAmount",
							"type": "uint256"
						},
						{
							"internalType": "uint24[]",
							"name": "_route",
							"type": "uint24[]"
						}
					],
					"internalType": "struct UniRepay",
					"name": "params",
					"type": "tuple"
				}
			],
			"name": "uniRepay",
			"outputs": [],
			"stateMutability": "nonpayable",
			"type": "function"
		}
	]
}