{
	"data": {
		"bytecode": {
			"linkReferences": {},
			"object": "608060405234801561000f575f80fd5b50604051610e95380380610e9583398101604081905261002e9161009b565b6001600160a01b0381166100775760405162461bcd60e51b815260206004820152600c60248201526b7a65726f206164647265737360a01b604482015260640160405180910390fd5b5f80546001600160a01b0319166001600160a01b03929092169190911790556100c8565b5f602082840312156100ab575f80fd5b81516001600160a01b03811681146100c1575f80fd5b9392505050565b610dc0806100d55f395ff3fe608060405234801561000f575f80fd5b506004361061007a575f3560e01c8063491aaed111610058578063491aaed1146100b95780637eda2ab1146100cc5780639c1fcc4c146100df578063faa9efe31461010d575f80fd5b806318b95b8b1461007e5780632b3ba5d91461009357806341176506146100a6575b5f80fd5b61009161008c366004610900565b610135565b005b6100916100a13660046109c0565b610211565b6100916100b4366004610a65565b6102c2565b6100916100c7366004610900565b61038e565b6100916100da366004610b0a565b610434565b5f546100f1906001600160a01b031681565b6040516001600160a01b03909116815260200160405180910390f35b6100f161011b366004610bc0565b60016020525f90815260409020546001600160a01b031681565b335f908152600160205260409020546001600160a01b031661015b576101596104fa565b505b335f818152600160209081526040909120549083015160608401516001600160a01b039092169261018d928490610645565b806001600160a01b031663315a1451835f015184602001518560400151866060015187608001518860a001518960c001516040518863ffffffff1660e01b81526004016101e09796959493929190610c1e565b5f604051808303815f87803b1580156101f7575f80fd5b505af1158015610209573d5f803e3d5ffd5b505050505050565b335f908152600160205260409020546001600160a01b03168061027b5760405162461bcd60e51b815260206004820152601660248201527f4e6f20706f736974696f6e20617661696c61626c65210000000000000000000060448201526064015b60405180910390fd5b806001600160a01b031663687a1204835f015184602001518560400151866060015187608001516040518663ffffffff1660e01b81526004016101e0959493929190610c72565b335f908152600160205260409020546001600160a01b0316806103275760405162461bcd60e51b815260206004820152601d60248201527f4e6f20626f72726f7720706f736974696f6e20617661696c61626c65210000006044820152606401610272565b61033b826020015133838560a00151610645565b806001600160a01b031663e2bdb2c6835f015184602001518560400151866060015187608001518860a001518960c001516040518863ffffffff1660e01b81526004016101e09796959493929190610cab565b335f908152600160205260409020546001600160a01b03166103b4576103b26104fa565b505b335f81815260016020526040902054825160608401516001600160a01b03909216926103e1928490610645565b806001600160a01b031663a36cc4cd835f015184602001518560400151866060015187608001518860a001518960c001516040518863ffffffff1660e01b81526004016101e09796959493929190610c1e565b335f908152600160205260409020546001600160a01b0316806104995760405162461bcd60e51b815260206004820152601d60248201527f4e6f20626f72726f7720706f736974696f6e20617661696c61626c65210000006044820152606401610272565b6104ad826020015133838560800151610645565b806001600160a01b031663b5c8b759835f015184602001518560400151866060015187608001518860a001516040518763ffffffff1660e01b81526004016101e096959493929190610cf2565b335f908152600160205260408120546001600160a01b0316156105855760405162461bcd60e51b815260206004820152602260248201527f70726f787941646472657373206372656174656420666f72207468697320757360448201527f65720000000000000000000000000000000000000000000000000000000000006064820152608401610272565b5f805f9054906101000a90046001600160a01b031660601b90506040517f3d602d80600a3d3981f3363d3d373d3d3d363d7300000000000000000000000081528160148201527f5af43d82803e903d91602b57fd5bf3000000000000000000000000000000000060288201526037815ff092505081610602575f80fd5b50335f90815260016020526040902080547fffffffffffffffffffffffff0000000000000000000000000000000000000000166001600160a01b03831617905590565b604080516001600160a01b0385811660248301528481166044830152606480830185905283518084039091018152608490920183526020820180517bffffffffffffffffffffffffffffffffffffffffffffffffffffffff167f23b872dd0000000000000000000000000000000000000000000000000000000017905291515f928392908816916106d69190610d3f565b5f604051808303815f865af19150503d805f811461070f576040519150601f19603f3d011682016040523d82523d5f602084013e610714565b606091505b509150915081801561073e57508051158061073e57508080602001905181019061073e9190610d6b565b6102095760405162461bcd60e51b815260206004820152600360248201527f53544600000000000000000000000000000000000000000000000000000000006044820152606401610272565b7f4e487b71000000000000000000000000000000000000000000000000000000005f52604160045260245ffd5b60405160e0810167ffffffffffffffff811182821017156107da576107da61078a565b60405290565b60405160a0810167ffffffffffffffff811182821017156107da576107da61078a565b60405160c0810167ffffffffffffffff811182821017156107da576107da61078a565b604051601f8201601f1916810167ffffffffffffffff8111828210171561084f5761084f61078a565b604052919050565b80356001600160a01b038116811461086d575f80fd5b919050565b5f82601f830112610881575f80fd5b8135602067ffffffffffffffff82111561089d5761089d61078a565b8160051b6108ac828201610826565b92835284810182019282810190878511156108c5575f80fd5b83870192505b848310156108f557823562ffffff811681146108e6575f8081fd5b825291830191908301906108cb565b979650505050505050565b5f60208284031215610910575f80fd5b813567ffffffffffffffff80821115610927575f80fd5b9083019060e0828603121561093a575f80fd5b6109426107b7565b61094b83610857565b815261095960208401610857565b602082015261096a60408401610857565b6040820152606083013560608201526080830135608082015261098f60a08401610857565b60a082015260c0830135828111156109a5575f80fd5b6109b187828601610872565b60c08301525095945050505050565b5f602082840312156109d0575f80fd5b813567ffffffffffffffff808211156109e7575f80fd5b9083019060a082860312156109fa575f80fd5b610a026107e0565b610a0b83610857565b8152610a1960208401610857565b602082015260408301356040820152610a3460608401610857565b6060820152608083013582811115610a4a575f80fd5b610a5687828601610872565b60808301525095945050505050565b5f60208284031215610a75575f80fd5b813567ffffffffffffffff80821115610a8c575f80fd5b9083019060e08286031215610a9f575f80fd5b610aa76107b7565b610ab083610857565b8152610abe60208401610857565b6020820152610acf60408401610857565b6040820152610ae060608401610857565b60608201526080830135608082015260a083013560a082015260c0830135828111156109a5575f80fd5b5f60208284031215610b1a575f80fd5b813567ffffffffffffffff80821115610b31575f80fd5b9083019060c08286031215610b44575f80fd5b610b4c610803565b610b5583610857565b8152610b6360208401610857565b6020820152610b7460408401610857565b6040820152610b8560608401610857565b60608201526080830135608082015260a083013582811115610ba5575f80fd5b610bb187828601610872565b60a08301525095945050505050565b5f60208284031215610bd0575f80fd5b610bd982610857565b9392505050565b5f8151808452602080850194508084015f5b83811015610c1357815162ffffff1687529582019590820190600101610bf2565b509495945050505050565b5f6001600160a01b03808a1683528089166020840152808816604084015286606084015285608084015280851660a08401525060e060c0830152610c6560e0830184610be0565b9998505050505050505050565b5f6001600160a01b038088168352808716602084015285604084015280851660608401525060a060808301526108f560a0830184610be0565b5f6001600160a01b03808a168352808916602084015280881660408401528087166060840152508460808301528360a083015260e060c0830152610c6560e0830184610be0565b5f6001600160a01b0380891683528088166020840152808716604084015280861660608401525083608083015260c060a0830152610d3360c0830184610be0565b98975050505050505050565b5f82515f5b81811015610d5e5760208186018101518583015201610d44565b505f920191825250919050565b5f60208284031215610d7b575f80fd5b81518015158114610bd9575f80fdfea26469706673582212204d6460f1b519f057a8a96185a9f415614a0e2edd1bd8a228f30d1ec6715e18fe64736f6c63430008140033",
			"opcodes": "PUSH1 0x80 PUSH1 0x40 MSTORE CALLVALUE DUP1 ISZERO PUSH2 0xF JUMPI PUSH0 DUP1 REVERT JUMPDEST POP PUSH1 0x40 MLOAD PUSH2 0xE95 CODESIZE SUB DUP1 PUSH2 0xE95 DUP4 CODECOPY DUP2 ADD PUSH1 0x40 DUP2 SWAP1 MSTORE PUSH2 0x2E SWAP2 PUSH2 0x9B JUMP JUMPDEST PUSH1 0x1 PUSH1 0x1 PUSH1 0xA0 SHL SUB DUP2 AND PUSH2 0x77 JUMPI PUSH1 0x40 MLOAD PUSH3 0x461BCD PUSH1 0xE5 SHL DUP2 MSTORE PUSH1 0x20 PUSH1 0x4 DUP3 ADD MSTORE PUSH1 0xC PUSH1 0x24 DUP3 ADD MSTORE PUSH12 0x7A65726F2061646472657373 PUSH1 0xA0 SHL PUSH1 0x44 DUP3 ADD MSTORE PUSH1 0x64 ADD PUSH1 0x40 MLOAD DUP1 SWAP2 SUB SWAP1 REVERT JUMPDEST PUSH0 DUP1 SLOAD PUSH1 0x1 PUSH1 0x1 PUSH1 0xA0 SHL SUB NOT AND PUSH1 0x1 PUSH1 0x1 PUSH1 0xA0 SHL SUB SWAP3 SWAP1 SWAP3 AND SWAP2 SWAP1 SWAP2 OR SWAP1 SSTORE PUSH2 0xC8 JUMP JUMPDEST PUSH0 PUSH1 0x20 DUP3 DUP5 SUB SLT ISZERO PUSH2 0xAB JUMPI PUSH0 DUP1 REVERT JUMPDEST DUP2 MLOAD PUSH1 0x1 PUSH1 0x1 PUSH1 0xA0 SHL SUB DUP2 AND DUP2 EQ PUSH2 0xC1 JUMPI PUSH0 DUP1 REVERT JUMPDEST SWAP4 SWAP3 POP POP POP JUMP JUMPDEST PUSH2 0xDC0 DUP1 PUSH2 0xD5 PUSH0 CODECOPY PUSH0 RETURN INVALID PUSH1 0x80 PUSH1 0x40 MSTORE CALLVALUE DUP1 ISZERO PUSH2 0xF JUMPI PUSH0 DUP1 REVERT JUMPDEST POP PUSH1 0x4 CALLDATASIZE LT PUSH2 0x7A JUMPI PUSH0 CALLDATALOAD PUSH1 0xE0 SHR DUP1 PUSH4 0x491AAED1 GT PUSH2 0x58 JUMPI DUP1 PUSH4 0x491AAED1 EQ PUSH2 0xB9 JUMPI DUP1 PUSH4 0x7EDA2AB1 EQ PUSH2 0xCC JUMPI DUP1 PUSH4 0x9C1FCC4C EQ PUSH2 0xDF JUMPI DUP1 PUSH4 0xFAA9EFE3 EQ PUSH2 0x10D JUMPI PUSH0 DUP1 REVERT JUMPDEST DUP1 PUSH4 0x18B95B8B EQ PUSH2 0x7E JUMPI DUP1 PUSH4 0x2B3BA5D9 EQ PUSH2 0x93 JUMPI DUP1 PUSH4 0x41176506 EQ PUSH2 0xA6 JUMPI JUMPDEST PUSH0 DUP1 REVERT JUMPDEST PUSH2 0x91 PUSH2 0x8C CALLDATASIZE PUSH1 0x4 PUSH2 0x900 JUMP JUMPDEST PUSH2 0x135 JUMP JUMPDEST STOP JUMPDEST PUSH2 0x91 PUSH2 0xA1 CALLDATASIZE PUSH1 0x4 PUSH2 0x9C0 JUMP JUMPDEST PUSH2 0x211 JUMP JUMPDEST PUSH2 0x91 PUSH2 0xB4 CALLDATASIZE PUSH1 0x4 PUSH2 0xA65 JUMP JUMPDEST PUSH2 0x2C2 JUMP JUMPDEST PUSH2 0x91 PUSH2 0xC7 CALLDATASIZE PUSH1 0x4 PUSH2 0x900 JUMP JUMPDEST PUSH2 0x38E JUMP JUMPDEST PUSH2 0x91 PUSH2 0xDA CALLDATASIZE PUSH1 0x4 PUSH2 0xB0A JUMP JUMPDEST PUSH2 0x434 JUMP JUMPDEST PUSH0 SLOAD PUSH2 0xF1 SWAP1 PUSH1 0x1 PUSH1 0x1 PUSH1 0xA0 SHL SUB AND DUP2 JUMP JUMPDEST PUSH1 0x40 MLOAD PUSH1 0x1 PUSH1 0x1 PUSH1 0xA0 SHL SUB SWAP1 SWAP2 AND DUP2 MSTORE PUSH1 0x20 ADD PUSH1 0x40 MLOAD DUP1 SWAP2 SUB SWAP1 RETURN JUMPDEST PUSH2 0xF1 PUSH2 0x11B CALLDATASIZE PUSH1 0x4 PUSH2 0xBC0 JUMP JUMPDEST PUSH1 0x1 PUSH1 0x20 MSTORE PUSH0 SWAP1 DUP2 MSTORE PUSH1 0x40 SWAP1 KECCAK256 SLOAD PUSH1 0x1 PUSH1 0x1 PUSH1 0xA0 SHL SUB AND DUP2 JUMP JUMPDEST CALLER PUSH0 SWAP1 DUP2 MSTORE PUSH1 0x1 PUSH1 0x20 MSTORE PUSH1 0x40 SWAP1 KECCAK256 SLOAD PUSH1 0x1 PUSH1 0x1 PUSH1 0xA0 SHL SUB AND PUSH2 0x15B JUMPI PUSH2 0x159 PUSH2 0x4FA JUMP JUMPDEST POP JUMPDEST CALLER PUSH0 DUP2 DUP2 MSTORE PUSH1 0x1 PUSH1 0x20 SWAP1 DUP2 MSTORE PUSH1 0x40 SWAP1 SWAP2 KECCAK256 SLOAD SWAP1 DUP4 ADD MLOAD PUSH1 0x60 DUP5 ADD MLOAD PUSH1 0x1 PUSH1 0x1 PUSH1 0xA0 SHL SUB SWAP1 SWAP3 AND SWAP3 PUSH2 0x18D SWAP3 DUP5 SWAP1 PUSH2 0x645 JUMP JUMPDEST DUP1 PUSH1 0x1 PUSH1 0x1 PUSH1 0xA0 SHL SUB AND PUSH4 0x315A1451 DUP4 PUSH0 ADD MLOAD DUP5 PUSH1 0x20 ADD MLOAD DUP6 PUSH1 0x40 ADD MLOAD DUP7 PUSH1 0x60 ADD MLOAD DUP8 PUSH1 0x80 ADD MLOAD DUP9 PUSH1 0xA0 ADD MLOAD DUP10 PUSH1 0xC0 ADD MLOAD PUSH1 0x40 MLOAD DUP9 PUSH4 0xFFFFFFFF AND PUSH1 0xE0 SHL DUP2 MSTORE PUSH1 0x4 ADD PUSH2 0x1E0 SWAP8 SWAP7 SWAP6 SWAP5 SWAP4 SWAP3 SWAP2 SWAP1 PUSH2 0xC1E JUMP JUMPDEST PUSH0 PUSH1 0x40 MLOAD DUP1 DUP4 SUB DUP2 PUSH0 DUP8 DUP1 EXTCODESIZE ISZERO DUP1 ISZERO PUSH2 0x1F7 JUMPI PUSH0 DUP1 REVERT JUMPDEST POP GAS CALL ISZERO DUP1 ISZERO PUSH2 0x209 JUMPI RETURNDATASIZE PUSH0 DUP1 RETURNDATACOPY RETURNDATASIZE PUSH0 REVERT JUMPDEST POP POP POP POP POP POP JUMP JUMPDEST CALLER PUSH0 SWAP1 DUP2 MSTORE PUSH1 0x1 PUSH1 0x20 MSTORE PUSH1 0x40 SWAP1 KECCAK256 SLOAD PUSH1 0x1 PUSH1 0x1 PUSH1 0xA0 SHL SUB AND DUP1 PUSH2 0x27B JUMPI PUSH1 0x40 MLOAD PUSH3 0x461BCD PUSH1 0xE5 SHL DUP2 MSTORE PUSH1 0x20 PUSH1 0x4 DUP3 ADD MSTORE PUSH1 0x16 PUSH1 0x24 DUP3 ADD MSTORE PUSH32 0x4E6F20706F736974696F6E20617661696C61626C652100000000000000000000 PUSH1 0x44 DUP3 ADD MSTORE PUSH1 0x64 ADD JUMPDEST PUSH1 0x40 MLOAD DUP1 SWAP2 SUB SWAP1 REVERT JUMPDEST DUP1 PUSH1 0x1 PUSH1 0x1 PUSH1 0xA0 SHL SUB AND PUSH4 0x687A1204 DUP4 PUSH0 ADD MLOAD DUP5 PUSH1 0x20 ADD MLOAD DUP6 PUSH1 0x40 ADD MLOAD DUP7 PUSH1 0x60 ADD MLOAD DUP8 PUSH1 0x80 ADD MLOAD PUSH1 0x40 MLOAD DUP7 PUSH4 0xFFFFFFFF AND PUSH1 0xE0 SHL DUP2 MSTORE PUSH1 0x4 ADD PUSH2 0x1E0 SWAP6 SWAP5 SWAP4 SWAP3 SWAP2 SWAP1 PUSH2 0xC72 JUMP JUMPDEST CALLER PUSH0 SWAP1 DUP2 MSTORE PUSH1 0x1 PUSH1 0x20 MSTORE PUSH1 0x40 SWAP1 KECCAK256 SLOAD PUSH1 0x1 PUSH1 0x1 PUSH1 0xA0 SHL SUB AND DUP1 PUSH2 0x327 JUMPI PUSH1 0x40 MLOAD PUSH3 0x461BCD PUSH1 0xE5 SHL DUP2 MSTORE PUSH1 0x20 PUSH1 0x4 DUP3 ADD MSTORE PUSH1 0x1D PUSH1 0x24 DUP3 ADD MSTORE PUSH32 0x4E6F20626F72726F7720706F736974696F6E20617661696C61626C6521000000 PUSH1 0x44 DUP3 ADD MSTORE PUSH1 0x64 ADD PUSH2 0x272 JUMP JUMPDEST PUSH2 0x33B DUP3 PUSH1 0x20 ADD MLOAD CALLER DUP4 DUP6 PUSH1 0xA0 ADD MLOAD PUSH2 0x645 JUMP JUMPDEST DUP1 PUSH1 0x1 PUSH1 0x1 PUSH1 0xA0 SHL SUB AND PUSH4 0xE2BDB2C6 DUP4 PUSH0 ADD MLOAD DUP5 PUSH1 0x20 ADD MLOAD DUP6 PUSH1 0x40 ADD MLOAD DUP7 PUSH1 0x60 ADD MLOAD DUP8 PUSH1 0x80 ADD MLOAD DUP9 PUSH1 0xA0 ADD MLOAD DUP10 PUSH1 0xC0 ADD MLOAD PUSH1 0x40 MLOAD DUP9 PUSH4 0xFFFFFFFF AND PUSH1 0xE0 SHL DUP2 MSTORE PUSH1 0x4 ADD PUSH2 0x1E0 SWAP8 SWAP7 SWAP6 SWAP5 SWAP4 SWAP3 SWAP2 SWAP1 PUSH2 0xCAB JUMP JUMPDEST CALLER PUSH0 SWAP1 DUP2 MSTORE PUSH1 0x1 PUSH1 0x20 MSTORE PUSH1 0x40 SWAP1 KECCAK256 SLOAD PUSH1 0x1 PUSH1 0x1 PUSH1 0xA0 SHL SUB AND PUSH2 0x3B4 JUMPI PUSH2 0x3B2 PUSH2 0x4FA JUMP JUMPDEST POP JUMPDEST CALLER PUSH0 DUP2 DUP2 MSTORE PUSH1 0x1 PUSH1 0x20 MSTORE PUSH1 0x40 SWAP1 KECCAK256 SLOAD DUP3 MLOAD PUSH1 0x60 DUP5 ADD MLOAD PUSH1 0x1 PUSH1 0x1 PUSH1 0xA0 SHL SUB SWAP1 SWAP3 AND SWAP3 PUSH2 0x3E1 SWAP3 DUP5 SWAP1 PUSH2 0x645 JUMP JUMPDEST DUP1 PUSH1 0x1 PUSH1 0x1 PUSH1 0xA0 SHL SUB AND PUSH4 0xA36CC4CD DUP4 PUSH0 ADD MLOAD DUP5 PUSH1 0x20 ADD MLOAD DUP6 PUSH1 0x40 ADD MLOAD DUP7 PUSH1 0x60 ADD MLOAD DUP8 PUSH1 0x80 ADD MLOAD DUP9 PUSH1 0xA0 ADD MLOAD DUP10 PUSH1 0xC0 ADD MLOAD PUSH1 0x40 MLOAD DUP9 PUSH4 0xFFFFFFFF AND PUSH1 0xE0 SHL DUP2 MSTORE PUSH1 0x4 ADD PUSH2 0x1E0 SWAP8 SWAP7 SWAP6 SWAP5 SWAP4 SWAP3 SWAP2 SWAP1 PUSH2 0xC1E JUMP JUMPDEST CALLER PUSH0 SWAP1 DUP2 MSTORE PUSH1 0x1 PUSH1 0x20 MSTORE PUSH1 0x40 SWAP1 KECCAK256 SLOAD PUSH1 0x1 PUSH1 0x1 PUSH1 0xA0 SHL SUB AND DUP1 PUSH2 0x499 JUMPI PUSH1 0x40 MLOAD PUSH3 0x461BCD PUSH1 0xE5 SHL DUP2 MSTORE PUSH1 0x20 PUSH1 0x4 DUP3 ADD MSTORE PUSH1 0x1D PUSH1 0x24 DUP3 ADD MSTORE PUSH32 0x4E6F20626F72726F7720706F736974696F6E20617661696C61626C6521000000 PUSH1 0x44 DUP3 ADD MSTORE PUSH1 0x64 ADD PUSH2 0x272 JUMP JUMPDEST PUSH2 0x4AD DUP3 PUSH1 0x20 ADD MLOAD CALLER DUP4 DUP6 PUSH1 0x80 ADD MLOAD PUSH2 0x645 JUMP JUMPDEST DUP1 PUSH1 0x1 PUSH1 0x1 PUSH1 0xA0 SHL SUB AND PUSH4 0xB5C8B759 DUP4 PUSH0 ADD MLOAD DUP5 PUSH1 0x20 ADD MLOAD DUP6 PUSH1 0x40 ADD MLOAD DUP7 PUSH1 0x60 ADD MLOAD DUP8 PUSH1 0x80 ADD MLOAD DUP9 PUSH1 0xA0 ADD MLOAD PUSH1 0x40 MLOAD DUP8 PUSH4 0xFFFFFFFF AND PUSH1 0xE0 SHL DUP2 MSTORE PUSH1 0x4 ADD PUSH2 0x1E0 SWAP7 SWAP6 SWAP5 SWAP4 SWAP3 SWAP2 SWAP1 PUSH2 0xCF2 JUMP JUMPDEST CALLER PUSH0 SWAP1 DUP2 MSTORE PUSH1 0x1 PUSH1 0x20 MSTORE PUSH1 0x40 DUP2 KECCAK256 SLOAD PUSH1 0x1 PUSH1 0x1 PUSH1 0xA0 SHL SUB AND ISZERO PUSH2 0x585 JUMPI PUSH1 0x40 MLOAD PUSH3 0x461BCD PUSH1 0xE5 SHL DUP2 MSTORE PUSH1 0x20 PUSH1 0x4 DUP3 ADD MSTORE PUSH1 0x22 PUSH1 0x24 DUP3 ADD MSTORE PUSH32 0x70726F787941646472657373206372656174656420666F722074686973207573 PUSH1 0x44 DUP3 ADD MSTORE PUSH32 0x6572000000000000000000000000000000000000000000000000000000000000 PUSH1 0x64 DUP3 ADD MSTORE PUSH1 0x84 ADD PUSH2 0x272 JUMP JUMPDEST PUSH0 DUP1 PUSH0 SWAP1 SLOAD SWAP1 PUSH2 0x100 EXP SWAP1 DIV PUSH1 0x1 PUSH1 0x1 PUSH1 0xA0 SHL SUB AND PUSH1 0x60 SHL SWAP1 POP PUSH1 0x40 MLOAD PUSH32 0x3D602D80600A3D3981F3363D3D373D3D3D363D73000000000000000000000000 DUP2 MSTORE DUP2 PUSH1 0x14 DUP3 ADD MSTORE PUSH32 0x5AF43D82803E903D91602B57FD5BF30000000000000000000000000000000000 PUSH1 0x28 DUP3 ADD MSTORE PUSH1 0x37 DUP2 PUSH0 CREATE SWAP3 POP POP DUP2 PUSH2 0x602 JUMPI PUSH0 DUP1 REVERT JUMPDEST POP CALLER PUSH0 SWAP1 DUP2 MSTORE PUSH1 0x1 PUSH1 0x20 MSTORE PUSH1 0x40 SWAP1 KECCAK256 DUP1 SLOAD PUSH32 0xFFFFFFFFFFFFFFFFFFFFFFFF0000000000000000000000000000000000000000 AND PUSH1 0x1 PUSH1 0x1 PUSH1 0xA0 SHL SUB DUP4 AND OR SWAP1 SSTORE SWAP1 JUMP JUMPDEST PUSH1 0x40 DUP1 MLOAD PUSH1 0x1 PUSH1 0x1 PUSH1 0xA0 SHL SUB DUP6 DUP2 AND PUSH1 0x24 DUP4 ADD MSTORE DUP5 DUP2 AND PUSH1 0x44 DUP4 ADD MSTORE PUSH1 0x64 DUP1 DUP4 ADD DUP6 SWAP1 MSTORE DUP4 MLOAD DUP1 DUP5 SUB SWAP1 SWAP2 ADD DUP2 MSTORE PUSH1 0x84 SWAP1 SWAP3 ADD DUP4 MSTORE PUSH1 0x20 DUP3 ADD DUP1 MLOAD PUSH28 0xFFFFFFFFFFFFFFFFFFFFFFFFFFFFFFFFFFFFFFFFFFFFFFFFFFFFFFFF AND PUSH32 0x23B872DD00000000000000000000000000000000000000000000000000000000 OR SWAP1 MSTORE SWAP2 MLOAD PUSH0 SWAP3 DUP4 SWAP3 SWAP1 DUP9 AND SWAP2 PUSH2 0x6D6 SWAP2 SWAP1 PUSH2 0xD3F JUMP JUMPDEST PUSH0 PUSH1 0x40 MLOAD DUP1 DUP4 SUB DUP2 PUSH0 DUP7 GAS CALL SWAP2 POP POP RETURNDATASIZE DUP1 PUSH0 DUP2 EQ PUSH2 0x70F JUMPI PUSH1 0x40 MLOAD SWAP2 POP PUSH1 0x1F NOT PUSH1 0x3F RETURNDATASIZE ADD AND DUP3 ADD PUSH1 0x40 MSTORE RETURNDATASIZE DUP3 MSTORE RETURNDATASIZE PUSH0 PUSH1 0x20 DUP5 ADD RETURNDATACOPY PUSH2 0x714 JUMP JUMPDEST PUSH1 0x60 SWAP2 POP JUMPDEST POP SWAP2 POP SWAP2 POP DUP2 DUP1 ISZERO PUSH2 0x73E JUMPI POP DUP1 MLOAD ISZERO DUP1 PUSH2 0x73E JUMPI POP DUP1 DUP1 PUSH1 0x20 ADD SWAP1 MLOAD DUP2 ADD SWAP1 PUSH2 0x73E SWAP2 SWAP1 PUSH2 0xD6B JUMP JUMPDEST PUSH2 0x209 JUMPI PUSH1 0x40 MLOAD PUSH3 0x461BCD PUSH1 0xE5 SHL DUP2 MSTORE PUSH1 0x20 PUSH1 0x4 DUP3 ADD MSTORE PUSH1 0x3 PUSH1 0x24 DUP3 ADD MSTORE PUSH32 0x5354460000000000000000000000000000000000000000000000000000000000 PUSH1 0x44 DUP3 ADD MSTORE PUSH1 0x64 ADD PUSH2 0x272 JUMP JUMPDEST PUSH32 0x4E487B7100000000000000000000000000000000000000000000000000000000 PUSH0 MSTORE PUSH1 0x41 PUSH1 0x4 MSTORE PUSH1 0x24 PUSH0 REVERT JUMPDEST PUSH1 0x40 MLOAD PUSH1 0xE0 DUP2 ADD PUSH8 0xFFFFFFFFFFFFFFFF DUP2 GT DUP3 DUP3 LT OR ISZERO PUSH2 0x7DA JUMPI PUSH2 0x7DA PUSH2 0x78A JUMP JUMPDEST PUSH1 0x40 MSTORE SWAP1 JUMP JUMPDEST PUSH1 0x40 MLOAD PUSH1 0xA0 DUP2 ADD PUSH8 0xFFFFFFFFFFFFFFFF DUP2 GT DUP3 DUP3 LT OR ISZERO PUSH2 0x7DA JUMPI PUSH2 0x7DA PUSH2 0x78A JUMP JUMPDEST PUSH1 0x40 MLOAD PUSH1 0xC0 DUP2 ADD PUSH8 0xFFFFFFFFFFFFFFFF DUP2 GT DUP3 DUP3 LT OR ISZERO PUSH2 0x7DA JUMPI PUSH2 0x7DA PUSH2 0x78A JUMP JUMPDEST PUSH1 0x40 MLOAD PUSH1 0x1F DUP3 ADD PUSH1 0x1F NOT AND DUP2 ADD PUSH8 0xFFFFFFFFFFFFFFFF DUP2 GT DUP3 DUP3 LT OR ISZERO PUSH2 0x84F JUMPI PUSH2 0x84F PUSH2 0x78A JUMP JUMPDEST PUSH1 0x40 MSTORE SWAP2 SWAP1 POP JUMP JUMPDEST DUP1 CALLDATALOAD PUSH1 0x1 PUSH1 0x1 PUSH1 0xA0 SHL SUB DUP2 AND DUP2 EQ PUSH2 0x86D JUMPI PUSH0 DUP1 REVERT JUMPDEST SWAP2 SWAP1 POP JUMP JUMPDEST PUSH0 DUP3 PUSH1 0x1F DUP4 ADD SLT PUSH2 0x881 JUMPI PUSH0 DUP1 REVERT JUMPDEST DUP2 CALLDATALOAD PUSH1 0x20 PUSH8 0xFFFFFFFFFFFFFFFF DUP3 GT ISZERO PUSH2 0x89D JUMPI PUSH2 0x89D PUSH2 0x78A JUMP JUMPDEST DUP2 PUSH1 0x5 SHL PUSH2 0x8AC DUP3 DUP3 ADD PUSH2 0x826 JUMP JUMPDEST SWAP3 DUP4 MSTORE DUP5 DUP2 ADD DUP3 ADD SWAP3 DUP3 DUP2 ADD SWAP1 DUP8 DUP6 GT ISZERO PUSH2 0x8C5 JUMPI PUSH0 DUP1 REVERT JUMPDEST DUP4 DUP8 ADD SWAP3 POP JUMPDEST DUP5 DUP4 LT ISZERO PUSH2 0x8F5 JUMPI DUP3 CALLDATALOAD PUSH3 0xFFFFFF DUP2 AND DUP2 EQ PUSH2 0x8E6 JUMPI PUSH0 DUP1 DUP2 REVERT JUMPDEST DUP3 MSTORE SWAP2 DUP4 ADD SWAP2 SWAP1 DUP4 ADD SWAP1 PUSH2 0x8CB JUMP JUMPDEST SWAP8 SWAP7 POP POP POP POP POP POP POP JUMP JUMPDEST PUSH0 PUSH1 0x20 DUP3 DUP5 SUB SLT ISZERO PUSH2 0x910 JUMPI PUSH0 DUP1 REVERT JUMPDEST DUP2 CALLDATALOAD PUSH8 0xFFFFFFFFFFFFFFFF DUP1 DUP3 GT ISZERO PUSH2 0x927 JUMPI PUSH0 DUP1 REVERT JUMPDEST SWAP1 DUP4 ADD SWAP1 PUSH1 0xE0 DUP3 DUP7 SUB SLT ISZERO PUSH2 0x93A JUMPI PUSH0 DUP1 REVERT JUMPDEST PUSH2 0x942 PUSH2 0x7B7 JUMP JUMPDEST PUSH2 0x94B DUP4 PUSH2 0x857 JUMP JUMPDEST DUP2 MSTORE PUSH2 0x959 PUSH1 0x20 DUP5 ADD PUSH2 0x857 JUMP JUMPDEST PUSH1 0x20 DUP3 ADD MSTORE PUSH2 0x96A PUSH1 0x40 DUP5 ADD PUSH2 0x857 JUMP JUMPDEST PUSH1 0x40 DUP3 ADD MSTORE PUSH1 0x60 DUP4 ADD CALLDATALOAD PUSH1 0x60 DUP3 ADD MSTORE PUSH1 0x80 DUP4 ADD CALLDATALOAD PUSH1 0x80 DUP3 ADD MSTORE PUSH2 0x98F PUSH1 0xA0 DUP5 ADD PUSH2 0x857 JUMP JUMPDEST PUSH1 0xA0 DUP3 ADD MSTORE PUSH1 0xC0 DUP4 ADD CALLDATALOAD DUP3 DUP2 GT ISZERO PUSH2 0x9A5 JUMPI PUSH0 DUP1 REVERT JUMPDEST PUSH2 0x9B1 DUP8 DUP3 DUP7 ADD PUSH2 0x872 JUMP JUMPDEST PUSH1 0xC0 DUP4 ADD MSTORE POP SWAP6 SWAP5 POP POP POP POP POP JUMP JUMPDEST PUSH0 PUSH1 0x20 DUP3 DUP5 SUB SLT ISZERO PUSH2 0x9D0 JUMPI PUSH0 DUP1 REVERT JUMPDEST DUP2 CALLDATALOAD PUSH8 0xFFFFFFFFFFFFFFFF DUP1 DUP3 GT ISZERO PUSH2 0x9E7 JUMPI PUSH0 DUP1 REVERT JUMPDEST SWAP1 DUP4 ADD SWAP1 PUSH1 0xA0 DUP3 DUP7 SUB SLT ISZERO PUSH2 0x9FA JUMPI PUSH0 DUP1 REVERT JUMPDEST PUSH2 0xA02 PUSH2 0x7E0 JUMP JUMPDEST PUSH2 0xA0B DUP4 PUSH2 0x857 JUMP JUMPDEST DUP2 MSTORE PUSH2 0xA19 PUSH1 0x20 DUP5 ADD PUSH2 0x857 JUMP JUMPDEST PUSH1 0x20 DUP3 ADD MSTORE PUSH1 0x40 DUP4 ADD CALLDATALOAD PUSH1 0x40 DUP3 ADD MSTORE PUSH2 0xA34 PUSH1 0x60 DUP5 ADD PUSH2 0x857 JUMP JUMPDEST PUSH1 0x60 DUP3 ADD MSTORE PUSH1 0x80 DUP4 ADD CALLDATALOAD DUP3 DUP2 GT ISZERO PUSH2 0xA4A JUMPI PUSH0 DUP1 REVERT JUMPDEST PUSH2 0xA56 DUP8 DUP3 DUP7 ADD PUSH2 0x872 JUMP JUMPDEST PUSH1 0x80 DUP4 ADD MSTORE POP SWAP6 SWAP5 POP POP POP POP POP JUMP JUMPDEST PUSH0 PUSH1 0x20 DUP3 DUP5 SUB SLT ISZERO PUSH2 0xA75 JUMPI PUSH0 DUP1 REVERT JUMPDEST DUP2 CALLDATALOAD PUSH8 0xFFFFFFFFFFFFFFFF DUP1 DUP3 GT ISZERO PUSH2 0xA8C JUMPI PUSH0 DUP1 REVERT JUMPDEST SWAP1 DUP4 ADD SWAP1 PUSH1 0xE0 DUP3 DUP7 SUB SLT ISZERO PUSH2 0xA9F JUMPI PUSH0 DUP1 REVERT JUMPDEST PUSH2 0xAA7 PUSH2 0x7B7 JUMP JUMPDEST PUSH2 0xAB0 DUP4 PUSH2 0x857 JUMP JUMPDEST DUP2 MSTORE PUSH2 0xABE PUSH1 0x20 DUP5 ADD PUSH2 0x857 JUMP JUMPDEST PUSH1 0x20 DUP3 ADD MSTORE PUSH2 0xACF PUSH1 0x40 DUP5 ADD PUSH2 0x857 JUMP JUMPDEST PUSH1 0x40 DUP3 ADD MSTORE PUSH2 0xAE0 PUSH1 0x60 DUP5 ADD PUSH2 0x857 JUMP JUMPDEST PUSH1 0x60 DUP3 ADD MSTORE PUSH1 0x80 DUP4 ADD CALLDATALOAD PUSH1 0x80 DUP3 ADD MSTORE PUSH1 0xA0 DUP4 ADD CALLDATALOAD PUSH1 0xA0 DUP3 ADD MSTORE PUSH1 0xC0 DUP4 ADD CALLDATALOAD DUP3 DUP2 GT ISZERO PUSH2 0x9A5 JUMPI PUSH0 DUP1 REVERT JUMPDEST PUSH0 PUSH1 0x20 DUP3 DUP5 SUB SLT ISZERO PUSH2 0xB1A JUMPI PUSH0 DUP1 REVERT JUMPDEST DUP2 CALLDATALOAD PUSH8 0xFFFFFFFFFFFFFFFF DUP1 DUP3 GT ISZERO PUSH2 0xB31 JUMPI PUSH0 DUP1 REVERT JUMPDEST SWAP1 DUP4 ADD SWAP1 PUSH1 0xC0 DUP3 DUP7 SUB SLT ISZERO PUSH2 0xB44 JUMPI PUSH0 DUP1 REVERT JUMPDEST PUSH2 0xB4C PUSH2 0x803 JUMP JUMPDEST PUSH2 0xB55 DUP4 PUSH2 0x857 JUMP JUMPDEST DUP2 MSTORE PUSH2 0xB63 PUSH1 0x20 DUP5 ADD PUSH2 0x857 JUMP JUMPDEST PUSH1 0x20 DUP3 ADD MSTORE PUSH2 0xB74 PUSH1 0x40 DUP5 ADD PUSH2 0x857 JUMP JUMPDEST PUSH1 0x40 DUP3 ADD MSTORE PUSH2 0xB85 PUSH1 0x60 DUP5 ADD PUSH2 0x857 JUMP JUMPDEST PUSH1 0x60 DUP3 ADD MSTORE PUSH1 0x80 DUP4 ADD CALLDATALOAD PUSH1 0x80 DUP3 ADD MSTORE PUSH1 0xA0 DUP4 ADD CALLDATALOAD DUP3 DUP2 GT ISZERO PUSH2 0xBA5 JUMPI PUSH0 DUP1 REVERT JUMPDEST PUSH2 0xBB1 DUP8 DUP3 DUP7 ADD PUSH2 0x872 JUMP JUMPDEST PUSH1 0xA0 DUP4 ADD MSTORE POP SWAP6 SWAP5 POP POP POP POP POP JUMP JUMPDEST PUSH0 PUSH1 0x20 DUP3 DUP5 SUB SLT ISZERO PUSH2 0xBD0 JUMPI PUSH0 DUP1 REVERT JUMPDEST PUSH2 0xBD9 DUP3 PUSH2 0x857 JUMP JUMPDEST SWAP4 SWAP3 POP POP POP JUMP JUMPDEST PUSH0 DUP2 MLOAD DUP1 DUP5 MSTORE PUSH1 0x20 DUP1 DUP6 ADD SWAP5 POP DUP1 DUP5 ADD PUSH0 JUMPDEST DUP4 DUP2 LT ISZERO PUSH2 0xC13 JUMPI DUP2 MLOAD PUSH3 0xFFFFFF AND DUP8 MSTORE SWAP6 DUP3 ADD SWAP6 SWAP1 DUP3 ADD SWAP1 PUSH1 0x1 ADD PUSH2 0xBF2 JUMP JUMPDEST POP SWAP5 SWAP6 SWAP5 POP POP POP POP POP JUMP JUMPDEST PUSH0 PUSH1 0x1 PUSH1 0x1 PUSH1 0xA0 SHL SUB DUP1 DUP11 AND DUP4 MSTORE DUP1 DUP10 AND PUSH1 0x20 DUP5 ADD MSTORE DUP1 DUP9 AND PUSH1 0x40 DUP5 ADD MSTORE DUP7 PUSH1 0x60 DUP5 ADD MSTORE DUP6 PUSH1 0x80 DUP5 ADD MSTORE DUP1 DUP6 AND PUSH1 0xA0 DUP5 ADD MSTORE POP PUSH1 0xE0 PUSH1 0xC0 DUP4 ADD MSTORE PUSH2 0xC65 PUSH1 0xE0 DUP4 ADD DUP5 PUSH2 0xBE0 JUMP JUMPDEST SWAP10 SWAP9 POP POP POP POP POP POP POP POP POP JUMP JUMPDEST PUSH0 PUSH1 0x1 PUSH1 0x1 PUSH1 0xA0 SHL SUB DUP1 DUP9 AND DUP4 MSTORE DUP1 DUP8 AND PUSH1 0x20 DUP5 ADD MSTORE DUP6 PUSH1 0x40 DUP5 ADD MSTORE DUP1 DUP6 AND PUSH1 0x60 DUP5 ADD MSTORE POP PUSH1 0xA0 PUSH1 0x80 DUP4 ADD MSTORE PUSH2 0x8F5 PUSH1 0xA0 DUP4 ADD DUP5 PUSH2 0xBE0 JUMP JUMPDEST PUSH0 PUSH1 0x1 PUSH1 0x1 PUSH1 0xA0 SHL SUB DUP1 DUP11 AND DUP4 MSTORE DUP1 DUP10 AND PUSH1 0x20 DUP5 ADD MSTORE DUP1 DUP9 AND PUSH1 0x40 DUP5 ADD MSTORE DUP1 DUP8 AND PUSH1 0x60 DUP5 ADD MSTORE POP DUP5 PUSH1 0x80 DUP4 ADD MSTORE DUP4 PUSH1 0xA0 DUP4 ADD MSTORE PUSH1 0xE0 PUSH1 0xC0 DUP4 ADD MSTORE PUSH2 0xC65 PUSH1 0xE0 DUP4 ADD DUP5 PUSH2 0xBE0 JUMP JUMPDEST PUSH0 PUSH1 0x1 PUSH1 0x1 PUSH1 0xA0 SHL SUB DUP1 DUP10 AND DUP4 MSTORE DUP1 DUP9 AND PUSH1 0x20 DUP5 ADD MSTORE DUP1 DUP8 AND PUSH1 0x40 DUP5 ADD MSTORE DUP1 DUP7 AND PUSH1 0x60 DUP5 ADD MSTORE POP DUP4 PUSH1 0x80 DUP4 ADD MSTORE PUSH1 0xC0 PUSH1 0xA0 DUP4 ADD MSTORE PUSH2 0xD33 PUSH1 0xC0 DUP4 ADD DUP5 PUSH2 0xBE0 JUMP JUMPDEST SWAP9 SWAP8 POP POP POP POP POP POP POP POP JUMP JUMPDEST PUSH0 DUP3 MLOAD PUSH0 JUMPDEST DUP2 DUP2 LT ISZERO PUSH2 0xD5E JUMPI PUSH1 0x20 DUP2 DUP7 ADD DUP2 ADD MLOAD DUP6 DUP4 ADD MSTORE ADD PUSH2 0xD44 JUMP JUMPDEST POP PUSH0 SWAP3 ADD SWAP2 DUP3 MSTORE POP SWAP2 SWAP1 POP JUMP JUMPDEST PUSH0 PUSH1 0x20 DUP3 DUP5 SUB SLT ISZERO PUSH2 0xD7B JUMPI PUSH0 DUP1 REVERT JUMPDEST DUP2 MLOAD DUP1 ISZERO ISZERO DUP2 EQ PUSH2 0xBD9 JUMPI PUSH0 DUP1 REVERT INVALID LOG2 PUSH5 0x6970667358 0x22 SLT KECCAK256 0x4D PUSH5 0x60F1B519F0 JUMPI 0xA8 0xA9 PUSH2 0x85A9 DELEGATECALL ISZERO PUSH2 0x4A0E 0x2E 0xDD SHL 0xD8 LOG2 0x28 RETURN 0xD 0x1E 0xC6 PUSH18 0x5E18FE64736F6C6343000814003300000000 "
		},
		"gasEstimates": {
			"creation": {
				"codeDepositCost": "704000",
				"executionCost": "infinite",
				"totalCost": "infinite"
			},
			"external": {
				"compRepay((address,address,address,address,uint256,uint256,uint24[]))": "infinite",
				"compoundBorrow((address,address,address,uint256,uint256,address,uint24[]))": "infinite",
				"logicAddress()": "2367",
				"proxyAddress(address)": "2609",
				"uniBorrow((address,address,address,uint256,int256,address,uint24[]))": "infinite",
				"uniRedeem((address,address,int256,address,uint24[]))": "infinite",
				"uniRepay((address,address,address,address,uint256,uint24[]))": "infinite"
			},
			"internal": {
				"createAccount()": "infinite"
			}
		},
		"methodIdentifiers": {
			"compRepay((address,address,address,address,uint256,uint256,uint24[]))": "41176506",
			"compoundBorrow((address,address,address,uint256,uint256,address,uint24[]))": "491aaed1",
			"logicAddress()": "9c1fcc4c",
			"proxyAddress(address)": "faa9efe3",
			"uniBorrow((address,address,address,uint256,int256,address,uint24[]))": "18b95b8b",
			"uniRedeem((address,address,int256,address,uint24[]))": "2b3ba5d9",
			"uniRepay((address,address,address,address,uint256,uint24[]))": "7eda2ab1"
		}
	},
	"abi": [
		{
			"inputs": [
				{
					"internalType": "address",
					"name": "_logicAddress",
					"type": "address"
				}
			],
			"stateMutability": "nonpayable",
			"type": "constructor"
		},
		{
			"inputs": [
				{
					"components": [
						{
							"internalType": "address",
							"name": "_borrowedToken",
							"type": "address"
						},
						{
							"internalType": "address",
							"name": "_tokenIn",
							"type": "address"
						},
						{
							"internalType": "address",
							"name": "_user",
							"type": "address"
						},
						{
							"internalType": "address",
							"name": "_collateralToken",
							"type": "address"
						},
						{
							"internalType": "uint256",
							"name": "_collateralAmount",
							"type": "uint256"
						},
						{
							"internalType": "uint256",
							"name": "_repayAmount",
							"type": "uint256"
						},
						{
							"internalType": "uint24[]",
							"name": "_route",
							"type": "uint24[]"
						}
					],
					"internalType": "struct CompRepay",
					"name": "params",
					"type": "tuple"
				}
			],
			"name": "compRepay",
			"outputs": [],
			"stateMutability": "nonpayable",
			"type": "function"
		},
		{
			"inputs": [
				{
					"components": [
						{
							"internalType": "address",
							"name": "_supplyAsset",
							"type": "address"
						},
						{
							"internalType": "address",
							"name": "_borrowAsset",
							"type": "address"
						},
						{
							"internalType": "address",
							"name": "_tokenOut",
							"type": "address"
						},
						{
							"internalType": "uint256",
							"name": "_supplyAmount",
							"type": "uint256"
						},
						{
							"internalType": "uint256",
							"name": "_borrowAmount",
							"type": "uint256"
						},
						{
							"internalType": "address",
							"name": "_user",
							"type": "address"
						},
						{
							"internalType": "uint24[]",
							"name": "_route",
							"type": "uint24[]"
						}
					],
					"internalType": "struct CompBorrow",
					"name": "params",
					"type": "tuple"
				}
			],
			"name": "compoundBorrow",
			"outputs": [],
			"stateMutability": "nonpayable",
			"type": "function"
		},
		{
			"inputs": [],
			"name": "logicAddress",
			"outputs": [
				{
					"internalType": "address",
					"name": "",
					"type": "address"
				}
			],
			"stateMutability": "view",
			"type": "function"
		},
		{
			"inputs": [
				{
					"internalType": "address",
					"name": "",
					"type": "address"
				}
			],
			"name": "proxyAddress",
			"outputs": [
				{
					"internalType": "address",
					"name": "",
					"type": "address"
				}
			],
			"stateMutability": "view",
			"type": "function"
		},
		{
			"inputs": [
				{
					"components": [
						{
							"internalType": "address",
							"name": "_pool",
							"type": "address"
						},
						{
							"internalType": "address",
							"name": "_supplyAsset",
							"type": "address"
						},
						{
							"internalType": "address",
							"name": "_tokenOUt",
							"type": "address"
						},
						{
							"internalType": "uint256",
							"name": "_collateral_amount",
							"type": "uint256"
						},
						{
							"internalType": "int256",
							"name": "_amount",
							"type": "int256"
						},
						{
							"internalType": "address",
							"name": "_user",
							"type": "address"
						},
						{
							"internalType": "uint24[]",
							"name": "_route",
							"type": "uint24[]"
						}
					],
					"internalType": "struct UniBorrow",
					"name": "params",
					"type": "tuple"
				}
			],
			"name": "uniBorrow",
			"outputs": [],
			"stateMutability": "nonpayable",
			"type": "function"
		},
		{
			"inputs": [
				{
					"components": [
						{
							"internalType": "address",
							"name": "_pool",
							"type": "address"
						},
						{
							"internalType": "address",
							"name": "_user",
							"type": "address"
						},
						{
							"internalType": "int256",
							"name": "_amount",
							"type": "int256"
						},
						{
							"internalType": "address",
							"name": "_tokenOut",
							"type": "address"
						},
						{
							"internalType": "uint24[]",
							"name": "_route",
							"type": "uint24[]"
						}
					],
					"internalType": "struct UniRedeem",
					"name": "params",
					"type": "tuple"
				}
			],
			"name": "uniRedeem",
			"outputs": [],
			"stateMutability": "nonpayable",
			"type": "function"
		},
		{
			"inputs": [
				{
					"components": [
						{
							"internalType": "address",
							"name": "_pool",
							"type": "address"
						},
						{
							"internalType": "address",
							"name": "_tokenIn",
							"type": "address"
						},
						{
							"internalType": "address",
							"name": "_user",
							"type": "address"
						},
						{
							"internalType": "address",
							"name": "_borrowAddress",
							"type": "address"
						},
						{
							"internalType": "uint256",
							"name": "_repayAmount",
							"type": "uint256"
						},
						{
							"internalType": "uint24[]",
							"name": "_route",
							"type": "uint24[]"
						}
					],
					"internalType": "struct UniRepay",
					"name": "params",
					"type": "tuple"
				}
			],
			"name": "uniRepay",
			"outputs": [],
			"stateMutability": "nonpayable",
			"type": "function"
		}
	]
}