{
	"data": {
		"bytecode": {
			"linkReferences": {},
			"object": "608060405234801562000010575f80fd5b506040516200161338038062001613833981810160405281019062000036919062000152565b5f73ffffffffffffffffffffffffffffffffffffffff168173ffffffffffffffffffffffffffffffffffffffff1603620000a7576040517f08c379a00000000000000000000000000000000000000000000000000000000081526004016200009e90620001e0565b60405180910390fd5b805f806101000a81548173ffffffffffffffffffffffffffffffffffffffff021916908373ffffffffffffffffffffffffffffffffffffffff1602179055505062000200565b5f80fd5b5f73ffffffffffffffffffffffffffffffffffffffff82169050919050565b5f6200011c82620000f1565b9050919050565b6200012e8162000110565b811462000139575f80fd5b50565b5f815190506200014c8162000123565b92915050565b5f602082840312156200016a5762000169620000ed565b5b5f62000179848285016200013c565b91505092915050565b5f82825260208201905092915050565b7f7a65726f206164647265737300000000000000000000000000000000000000005f82015250565b5f620001c8600c8362000182565b9150620001d58262000192565b602082019050919050565b5f6020820190508181035f830152620001f981620001ba565b9050919050565b611405806200020e5f395ff3fe608060405234801561000f575f80fd5b5060043610610060575f3560e01c8063092579af1461006457806312aeb6f81461008057806321d05a751461009c5780635866b5cc146100b85780639c1fcc4c146100d4578063faa9efe3146100f2575b5f80fd5b61007e60048036038101906100799190610c43565b610122565b005b61009a60048036038101906100959190610ce0565b61021e565b005b6100b660048036038101906100b19190610d69565b610303565b005b6100d260048036038101906100cd9190610df2565b6104ff565b005b6100dc610680565b6040516100e99190610e9e565b60405180910390f35b61010c60048036038101906101079190610eb7565b6106a3565b6040516101199190610e9e565b60405180910390f35b5f60015f3373ffffffffffffffffffffffffffffffffffffffff1673ffffffffffffffffffffffffffffffffffffffff1681526020019081526020015f205f9054906101000a900473ffffffffffffffffffffffffffffffffffffffff16905061018e873383856106d3565b8073ffffffffffffffffffffffffffffffffffffffff1663de63a935898989898989896040518863ffffffff1660e01b81526004016101d39796959493929190610f00565b6020604051808303815f875af11580156101ef573d5f803e3d5ffd5b505050506040513d601f19601f820116820180604052508101906102139190610f81565b505050505050505050565b5f60015f3373ffffffffffffffffffffffffffffffffffffffff1673ffffffffffffffffffffffffffffffffffffffff1681526020019081526020015f205f9054906101000a900473ffffffffffffffffffffffffffffffffffffffff16905061028a863383856106d3565b8073ffffffffffffffffffffffffffffffffffffffff1663501f5dbe8888888888886040518763ffffffff1660e01b81526004016102cd96959493929190610fac565b5f604051808303815f87803b1580156102e4575f80fd5b505af11580156102f6573d5f803e3d5ffd5b5050505050505050505050565b5f73ffffffffffffffffffffffffffffffffffffffff1660015f3373ffffffffffffffffffffffffffffffffffffffff1673ffffffffffffffffffffffffffffffffffffffff1681526020019081526020015f205f9054906101000a900473ffffffffffffffffffffffffffffffffffffffff1673ffffffffffffffffffffffffffffffffffffffff160361039c5761039a610825565b505b5f60015f3373ffffffffffffffffffffffffffffffffffffffff1673ffffffffffffffffffffffffffffffffffffffff1681526020019081526020015f205f9054906101000a900473ffffffffffffffffffffffffffffffffffffffff16905061043c816040518060400160405280601581526020017f636f6e7472616374207573657220616464726573730000000000000000000000815250336109f9565b610448873383876106d3565b6104866040518060400160405280602081526020017f736166655472616e73666572656420746f204c6f67696320436f6e7472616374815250610a98565b8073ffffffffffffffffffffffffffffffffffffffff1663a6d7f5308888888888886040518763ffffffff1660e01b81526004016104c99695949392919061100b565b5f604051808303815f87803b1580156104e0575f80fd5b505af11580156104f2573d5f803e3d5ffd5b5050505050505050505050565b5f73ffffffffffffffffffffffffffffffffffffffff1660015f3373ffffffffffffffffffffffffffffffffffffffff1673ffffffffffffffffffffffffffffffffffffffff1681526020019081526020015f205f9054906101000a900473ffffffffffffffffffffffffffffffffffffffff1673ffffffffffffffffffffffffffffffffffffffff160361059857610596610825565b505b5f60015f3373ffffffffffffffffffffffffffffffffffffffff1673ffffffffffffffffffffffffffffffffffffffff1681526020019081526020015f205f9054906101000a900473ffffffffffffffffffffffffffffffffffffffff169050610604873383876106d3565b8073ffffffffffffffffffffffffffffffffffffffff16638f558189898989898989896040518863ffffffff1660e01b8152600401610649979695949392919061106a565b5f604051808303815f87803b158015610660575f80fd5b505af1158015610672573d5f803e3d5ffd5b505050505050505050505050565b5f8054906101000a900473ffffffffffffffffffffffffffffffffffffffff1681565b6001602052805f5260405f205f915054906101000a900473ffffffffffffffffffffffffffffffffffffffff1681565b5f808573ffffffffffffffffffffffffffffffffffffffff166323b872dd60e01b868686604051602401610709939291906110d7565b604051602081830303815290604052907bffffffffffffffffffffffffffffffffffffffffffffffffffffffff19166020820180517bffffffffffffffffffffffffffffffffffffffffffffffffffffffff83818316178352505050506040516107739190611178565b5f604051808303815f865af19150503d805f81146107ac576040519150601f19603f3d011682016040523d82523d5f602084013e6107b1565b606091505b50915091508180156107de57505f815114806107dd5750808060200190518101906107dc91906111c3565b5b5b61081d576040517f08c379a000000000000000000000000000000000000000000000000000000000815260040161081490611248565b60405180910390fd5b505050505050565b5f8073ffffffffffffffffffffffffffffffffffffffff1660015f3373ffffffffffffffffffffffffffffffffffffffff1673ffffffffffffffffffffffffffffffffffffffff1681526020019081526020015f205f9054906101000a900473ffffffffffffffffffffffffffffffffffffffff1673ffffffffffffffffffffffffffffffffffffffff16146108f0576040517f08c379a00000000000000000000000000000000000000000000000000000000081526004016108e7906112d6565b60405180910390fd5b5f805f9054906101000a900473ffffffffffffffffffffffffffffffffffffffff1660601b90506040517f3d602d80600a3d3981f3363d3d373d3d3d363d7300000000000000000000000081528160148201527f5af43d82803e903d91602b57fd5bf3000000000000000000000000000000000060288201526037815ff0925082610979575f80fd5b508160015f3373ffffffffffffffffffffffffffffffffffffffff1673ffffffffffffffffffffffffffffffffffffffff1681526020019081526020015f205f6101000a81548173ffffffffffffffffffffffffffffffffffffffff021916908373ffffffffffffffffffffffffffffffffffffffff1602179055505090565b610a93838383604051602401610a1193929190611346565b6040516020818303038152906040527ff08744e8000000000000000000000000000000000000000000000000000000007bffffffffffffffffffffffffffffffffffffffffffffffffffffffff19166020820180517bffffffffffffffffffffffffffffffffffffffffffffffffffffffff8381831617835250505050610b31565b505050565b610b2e81604051602401610aac9190611382565b6040516020818303038152906040527f41304fac000000000000000000000000000000000000000000000000000000007bffffffffffffffffffffffffffffffffffffffffffffffffffffffff19166020820180517bffffffffffffffffffffffffffffffffffffffffffffffffffffffff8381831617835250505050610b31565b50565b610b4881610b40610b4b610b6a565b63ffffffff16565b50565b5f6a636f6e736f6c652e6c6f6790505f80835160208501845afa505050565b610b75819050919050565b610b7d6113a2565b565b5f80fd5b5f73ffffffffffffffffffffffffffffffffffffffff82169050919050565b5f610bac82610b83565b9050919050565b610bbc81610ba2565b8114610bc6575f80fd5b50565b5f81359050610bd781610bb3565b92915050565b5f819050919050565b610bef81610bdd565b8114610bf9575f80fd5b50565b5f81359050610c0a81610be6565b92915050565b5f819050919050565b610c2281610c10565b8114610c2c575f80fd5b50565b5f81359050610c3d81610c19565b92915050565b5f805f805f805f60e0888a031215610c5e57610c5d610b7f565b5b5f610c6b8a828b01610bc9565b9750506020610c7c8a828b01610bc9565b9650506040610c8d8a828b01610bc9565b9550506060610c9e8a828b01610bc9565b9450506080610caf8a828b01610bfc565b93505060a0610cc08a828b01610c2f565b92505060c0610cd18a828b01610c2f565b91505092959891949750929550565b5f805f805f8060c08789031215610cfa57610cf9610b7f565b5b5f610d0789828a01610bc9565b9650506020610d1889828a01610bc9565b9550506040610d2989828a01610bc9565b9450506060610d3a89828a01610bc9565b9350506080610d4b89828a01610bfc565b92505060a0610d5c89828a01610bfc565b9150509295509295509295565b5f805f805f8060c08789031215610d8357610d82610b7f565b5b5f610d9089828a01610bc9565b9650506020610da189828a01610bc9565b9550506040610db289828a01610bc9565b9450506060610dc389828a01610bfc565b9350506080610dd489828a01610bfc565b92505060a0610de589828a01610bc9565b9150509295509295509295565b5f805f805f805f60e0888a031215610e0d57610e0c610b7f565b5b5f610e1a8a828b01610bc9565b9750506020610e2b8a828b01610bc9565b9650506040610e3c8a828b01610bc9565b9550506060610e4d8a828b01610bc9565b9450506080610e5e8a828b01610bfc565b93505060a0610e6f8a828b01610c2f565b92505060c0610e808a828b01610bc9565b91505092959891949750929550565b610e9881610ba2565b82525050565b5f602082019050610eb15f830184610e8f565b92915050565b5f60208284031215610ecc57610ecb610b7f565b5b5f610ed984828501610bc9565b91505092915050565b610eeb81610bdd565b82525050565b610efa81610c10565b82525050565b5f60e082019050610f135f83018a610e8f565b610f206020830189610e8f565b610f2d6040830188610e8f565b610f3a6060830187610e8f565b610f476080830186610ee2565b610f5460a0830185610ef1565b610f6160c0830184610ef1565b98975050505050505050565b5f81519050610f7b81610c19565b92915050565b5f60208284031215610f9657610f95610b7f565b5b5f610fa384828501610f6d565b91505092915050565b5f60c082019050610fbf5f830189610e8f565b610fcc6020830188610e8f565b610fd96040830187610e8f565b610fe66060830186610e8f565b610ff36080830185610ee2565b61100060a0830184610ee2565b979650505050505050565b5f60c08201905061101e5f830189610e8f565b61102b6020830188610e8f565b6110386040830187610e8f565b6110456060830186610ee2565b6110526080830185610ee2565b61105f60a0830184610e8f565b979650505050505050565b5f60e08201905061107d5f83018a610e8f565b61108a6020830189610e8f565b6110976040830188610e8f565b6110a46060830187610e8f565b6110b16080830186610ee2565b6110be60a0830185610ef1565b6110cb60c0830184610e8f565b98975050505050505050565b5f6060820190506110ea5f830186610e8f565b6110f76020830185610e8f565b6111046040830184610ee2565b949350505050565b5f81519050919050565b5f81905092915050565b5f5b8381101561113d578082015181840152602081019050611122565b5f8484015250505050565b5f6111528261110c565b61115c8185611116565b935061116c818560208601611120565b80840191505092915050565b5f6111838284611148565b915081905092915050565b5f8115159050919050565b6111a28161118e565b81146111ac575f80fd5b50565b5f815190506111bd81611199565b92915050565b5f602082840312156111d8576111d7610b7f565b5b5f6111e5848285016111af565b91505092915050565b5f82825260208201905092915050565b7f53544600000000000000000000000000000000000000000000000000000000005f82015250565b5f6112326003836111ee565b915061123d826111fe565b602082019050919050565b5f6020820190508181035f83015261125f81611226565b9050919050565b7f70726f787941646472657373206372656174656420666f7220746869732075735f8201527f6572000000000000000000000000000000000000000000000000000000000000602082015250565b5f6112c06022836111ee565b91506112cb82611266565b604082019050919050565b5f6020820190508181035f8301526112ed816112b4565b9050919050565b5f81519050919050565b5f601f19601f8301169050919050565b5f611318826112f4565b61132281856111ee565b9350611332818560208601611120565b61133b816112fe565b840191505092915050565b5f6060820190506113595f830186610e8f565b818103602083015261136b818561130e565b905061137a6040830184610e8f565b949350505050565b5f6020820190508181035f83015261139a818461130e565b905092915050565b7f4e487b71000000000000000000000000000000000000000000000000000000005f52605160045260245ffdfea26469706673582212206c878e9d0c75055a0b249e0f77e1f97c2dc75e1c36894a6ccfe647281c61ffd664736f6c63430008140033",
			"opcodes": "PUSH1 0x80 PUSH1 0x40 MSTORE CALLVALUE DUP1 ISZERO PUSH3 0x10 JUMPI PUSH0 DUP1 REVERT JUMPDEST POP PUSH1 0x40 MLOAD PUSH3 0x1613 CODESIZE SUB DUP1 PUSH3 0x1613 DUP4 CODECOPY DUP2 DUP2 ADD PUSH1 0x40 MSTORE DUP2 ADD SWAP1 PUSH3 0x36 SWAP2 SWAP1 PUSH3 0x152 JUMP JUMPDEST PUSH0 PUSH20 0xFFFFFFFFFFFFFFFFFFFFFFFFFFFFFFFFFFFFFFFF AND DUP2 PUSH20 0xFFFFFFFFFFFFFFFFFFFFFFFFFFFFFFFFFFFFFFFF AND SUB PUSH3 0xA7 JUMPI PUSH1 0x40 MLOAD PUSH32 0x8C379A000000000000000000000000000000000000000000000000000000000 DUP2 MSTORE PUSH1 0x4 ADD PUSH3 0x9E SWAP1 PUSH3 0x1E0 JUMP JUMPDEST PUSH1 0x40 MLOAD DUP1 SWAP2 SUB SWAP1 REVERT JUMPDEST DUP1 PUSH0 DUP1 PUSH2 0x100 EXP DUP2 SLOAD DUP2 PUSH20 0xFFFFFFFFFFFFFFFFFFFFFFFFFFFFFFFFFFFFFFFF MUL NOT AND SWAP1 DUP4 PUSH20 0xFFFFFFFFFFFFFFFFFFFFFFFFFFFFFFFFFFFFFFFF AND MUL OR SWAP1 SSTORE POP POP PUSH3 0x200 JUMP JUMPDEST PUSH0 DUP1 REVERT JUMPDEST PUSH0 PUSH20 0xFFFFFFFFFFFFFFFFFFFFFFFFFFFFFFFFFFFFFFFF DUP3 AND SWAP1 POP SWAP2 SWAP1 POP JUMP JUMPDEST PUSH0 PUSH3 0x11C DUP3 PUSH3 0xF1 JUMP JUMPDEST SWAP1 POP SWAP2 SWAP1 POP JUMP JUMPDEST PUSH3 0x12E DUP2 PUSH3 0x110 JUMP JUMPDEST DUP2 EQ PUSH3 0x139 JUMPI PUSH0 DUP1 REVERT JUMPDEST POP JUMP JUMPDEST PUSH0 DUP2 MLOAD SWAP1 POP PUSH3 0x14C DUP2 PUSH3 0x123 JUMP JUMPDEST SWAP3 SWAP2 POP POP JUMP JUMPDEST PUSH0 PUSH1 0x20 DUP3 DUP5 SUB SLT ISZERO PUSH3 0x16A JUMPI PUSH3 0x169 PUSH3 0xED JUMP JUMPDEST JUMPDEST PUSH0 PUSH3 0x179 DUP5 DUP3 DUP6 ADD PUSH3 0x13C JUMP JUMPDEST SWAP2 POP POP SWAP3 SWAP2 POP POP JUMP JUMPDEST PUSH0 DUP3 DUP3 MSTORE PUSH1 0x20 DUP3 ADD SWAP1 POP SWAP3 SWAP2 POP POP JUMP JUMPDEST PUSH32 0x7A65726F20616464726573730000000000000000000000000000000000000000 PUSH0 DUP3 ADD MSTORE POP JUMP JUMPDEST PUSH0 PUSH3 0x1C8 PUSH1 0xC DUP4 PUSH3 0x182 JUMP JUMPDEST SWAP2 POP PUSH3 0x1D5 DUP3 PUSH3 0x192 JUMP JUMPDEST PUSH1 0x20 DUP3 ADD SWAP1 POP SWAP2 SWAP1 POP JUMP JUMPDEST PUSH0 PUSH1 0x20 DUP3 ADD SWAP1 POP DUP2 DUP2 SUB PUSH0 DUP4 ADD MSTORE PUSH3 0x1F9 DUP2 PUSH3 0x1BA JUMP JUMPDEST SWAP1 POP SWAP2 SWAP1 POP JUMP JUMPDEST PUSH2 0x1405 DUP1 PUSH3 0x20E PUSH0 CODECOPY PUSH0 RETURN INVALID PUSH1 0x80 PUSH1 0x40 MSTORE CALLVALUE DUP1 ISZERO PUSH2 0xF JUMPI PUSH0 DUP1 REVERT JUMPDEST POP PUSH1 0x4 CALLDATASIZE LT PUSH2 0x60 JUMPI PUSH0 CALLDATALOAD PUSH1 0xE0 SHR DUP1 PUSH4 0x92579AF EQ PUSH2 0x64 JUMPI DUP1 PUSH4 0x12AEB6F8 EQ PUSH2 0x80 JUMPI DUP1 PUSH4 0x21D05A75 EQ PUSH2 0x9C JUMPI DUP1 PUSH4 0x5866B5CC EQ PUSH2 0xB8 JUMPI DUP1 PUSH4 0x9C1FCC4C EQ PUSH2 0xD4 JUMPI DUP1 PUSH4 0xFAA9EFE3 EQ PUSH2 0xF2 JUMPI JUMPDEST PUSH0 DUP1 REVERT JUMPDEST PUSH2 0x7E PUSH1 0x4 DUP1 CALLDATASIZE SUB DUP2 ADD SWAP1 PUSH2 0x79 SWAP2 SWAP1 PUSH2 0xC43 JUMP JUMPDEST PUSH2 0x122 JUMP JUMPDEST STOP JUMPDEST PUSH2 0x9A PUSH1 0x4 DUP1 CALLDATASIZE SUB DUP2 ADD SWAP1 PUSH2 0x95 SWAP2 SWAP1 PUSH2 0xCE0 JUMP JUMPDEST PUSH2 0x21E JUMP JUMPDEST STOP JUMPDEST PUSH2 0xB6 PUSH1 0x4 DUP1 CALLDATASIZE SUB DUP2 ADD SWAP1 PUSH2 0xB1 SWAP2 SWAP1 PUSH2 0xD69 JUMP JUMPDEST PUSH2 0x303 JUMP JUMPDEST STOP JUMPDEST PUSH2 0xD2 PUSH1 0x4 DUP1 CALLDATASIZE SUB DUP2 ADD SWAP1 PUSH2 0xCD SWAP2 SWAP1 PUSH2 0xDF2 JUMP JUMPDEST PUSH2 0x4FF JUMP JUMPDEST STOP JUMPDEST PUSH2 0xDC PUSH2 0x680 JUMP JUMPDEST PUSH1 0x40 MLOAD PUSH2 0xE9 SWAP2 SWAP1 PUSH2 0xE9E JUMP JUMPDEST PUSH1 0x40 MLOAD DUP1 SWAP2 SUB SWAP1 RETURN JUMPDEST PUSH2 0x10C PUSH1 0x4 DUP1 CALLDATASIZE SUB DUP2 ADD SWAP1 PUSH2 0x107 SWAP2 SWAP1 PUSH2 0xEB7 JUMP JUMPDEST PUSH2 0x6A3 JUMP JUMPDEST PUSH1 0x40 MLOAD PUSH2 0x119 SWAP2 SWAP1 PUSH2 0xE9E JUMP JUMPDEST PUSH1 0x40 MLOAD DUP1 SWAP2 SUB SWAP1 RETURN JUMPDEST PUSH0 PUSH1 0x1 PUSH0 CALLER PUSH20 0xFFFFFFFFFFFFFFFFFFFFFFFFFFFFFFFFFFFFFFFF AND PUSH20 0xFFFFFFFFFFFFFFFFFFFFFFFFFFFFFFFFFFFFFFFF AND DUP2 MSTORE PUSH1 0x20 ADD SWAP1 DUP2 MSTORE PUSH1 0x20 ADD PUSH0 KECCAK256 PUSH0 SWAP1 SLOAD SWAP1 PUSH2 0x100 EXP SWAP1 DIV PUSH20 0xFFFFFFFFFFFFFFFFFFFFFFFFFFFFFFFFFFFFFFFF AND SWAP1 POP PUSH2 0x18E DUP8 CALLER DUP4 DUP6 PUSH2 0x6D3 JUMP JUMPDEST DUP1 PUSH20 0xFFFFFFFFFFFFFFFFFFFFFFFFFFFFFFFFFFFFFFFF AND PUSH4 0xDE63A935 DUP10 DUP10 DUP10 DUP10 DUP10 DUP10 DUP10 PUSH1 0x40 MLOAD DUP9 PUSH4 0xFFFFFFFF AND PUSH1 0xE0 SHL DUP2 MSTORE PUSH1 0x4 ADD PUSH2 0x1D3 SWAP8 SWAP7 SWAP6 SWAP5 SWAP4 SWAP3 SWAP2 SWAP1 PUSH2 0xF00 JUMP JUMPDEST PUSH1 0x20 PUSH1 0x40 MLOAD DUP1 DUP4 SUB DUP2 PUSH0 DUP8 GAS CALL ISZERO DUP1 ISZERO PUSH2 0x1EF JUMPI RETURNDATASIZE PUSH0 DUP1 RETURNDATACOPY RETURNDATASIZE PUSH0 REVERT JUMPDEST POP POP POP POP PUSH1 0x40 MLOAD RETURNDATASIZE PUSH1 0x1F NOT PUSH1 0x1F DUP3 ADD AND DUP3 ADD DUP1 PUSH1 0x40 MSTORE POP DUP2 ADD SWAP1 PUSH2 0x213 SWAP2 SWAP1 PUSH2 0xF81 JUMP JUMPDEST POP POP POP POP POP POP POP POP POP JUMP JUMPDEST PUSH0 PUSH1 0x1 PUSH0 CALLER PUSH20 0xFFFFFFFFFFFFFFFFFFFFFFFFFFFFFFFFFFFFFFFF AND PUSH20 0xFFFFFFFFFFFFFFFFFFFFFFFFFFFFFFFFFFFFFFFF AND DUP2 MSTORE PUSH1 0x20 ADD SWAP1 DUP2 MSTORE PUSH1 0x20 ADD PUSH0 KECCAK256 PUSH0 SWAP1 SLOAD SWAP1 PUSH2 0x100 EXP SWAP1 DIV PUSH20 0xFFFFFFFFFFFFFFFFFFFFFFFFFFFFFFFFFFFFFFFF AND SWAP1 POP PUSH2 0x28A DUP7 CALLER DUP4 DUP6 PUSH2 0x6D3 JUMP JUMPDEST DUP1 PUSH20 0xFFFFFFFFFFFFFFFFFFFFFFFFFFFFFFFFFFFFFFFF AND PUSH4 0x501F5DBE DUP9 DUP9 DUP9 DUP9 DUP9 DUP9 PUSH1 0x40 MLOAD DUP8 PUSH4 0xFFFFFFFF AND PUSH1 0xE0 SHL DUP2 MSTORE PUSH1 0x4 ADD PUSH2 0x2CD SWAP7 SWAP6 SWAP5 SWAP4 SWAP3 SWAP2 SWAP1 PUSH2 0xFAC JUMP JUMPDEST PUSH0 PUSH1 0x40 MLOAD DUP1 DUP4 SUB DUP2 PUSH0 DUP8 DUP1 EXTCODESIZE ISZERO DUP1 ISZERO PUSH2 0x2E4 JUMPI PUSH0 DUP1 REVERT JUMPDEST POP GAS CALL ISZERO DUP1 ISZERO PUSH2 0x2F6 JUMPI RETURNDATASIZE PUSH0 DUP1 RETURNDATACOPY RETURNDATASIZE PUSH0 REVERT JUMPDEST POP POP POP POP POP POP POP POP POP POP POP JUMP JUMPDEST PUSH0 PUSH20 0xFFFFFFFFFFFFFFFFFFFFFFFFFFFFFFFFFFFFFFFF AND PUSH1 0x1 PUSH0 CALLER PUSH20 0xFFFFFFFFFFFFFFFFFFFFFFFFFFFFFFFFFFFFFFFF AND PUSH20 0xFFFFFFFFFFFFFFFFFFFFFFFFFFFFFFFFFFFFFFFF AND DUP2 MSTORE PUSH1 0x20 ADD SWAP1 DUP2 MSTORE PUSH1 0x20 ADD PUSH0 KECCAK256 PUSH0 SWAP1 SLOAD SWAP1 PUSH2 0x100 EXP SWAP1 DIV PUSH20 0xFFFFFFFFFFFFFFFFFFFFFFFFFFFFFFFFFFFFFFFF AND PUSH20 0xFFFFFFFFFFFFFFFFFFFFFFFFFFFFFFFFFFFFFFFF AND SUB PUSH2 0x39C JUMPI PUSH2 0x39A PUSH2 0x825 JUMP JUMPDEST POP JUMPDEST PUSH0 PUSH1 0x1 PUSH0 CALLER PUSH20 0xFFFFFFFFFFFFFFFFFFFFFFFFFFFFFFFFFFFFFFFF AND PUSH20 0xFFFFFFFFFFFFFFFFFFFFFFFFFFFFFFFFFFFFFFFF AND DUP2 MSTORE PUSH1 0x20 ADD SWAP1 DUP2 MSTORE PUSH1 0x20 ADD PUSH0 KECCAK256 PUSH0 SWAP1 SLOAD SWAP1 PUSH2 0x100 EXP SWAP1 DIV PUSH20 0xFFFFFFFFFFFFFFFFFFFFFFFFFFFFFFFFFFFFFFFF AND SWAP1 POP PUSH2 0x43C DUP2 PUSH1 0x40 MLOAD DUP1 PUSH1 0x40 ADD PUSH1 0x40 MSTORE DUP1 PUSH1 0x15 DUP2 MSTORE PUSH1 0x20 ADD PUSH32 0x636F6E7472616374207573657220616464726573730000000000000000000000 DUP2 MSTORE POP CALLER PUSH2 0x9F9 JUMP JUMPDEST PUSH2 0x448 DUP8 CALLER DUP4 DUP8 PUSH2 0x6D3 JUMP JUMPDEST PUSH2 0x486 PUSH1 0x40 MLOAD DUP1 PUSH1 0x40 ADD PUSH1 0x40 MSTORE DUP1 PUSH1 0x20 DUP2 MSTORE PUSH1 0x20 ADD PUSH32 0x736166655472616E73666572656420746F204C6F67696320436F6E7472616374 DUP2 MSTORE POP PUSH2 0xA98 JUMP JUMPDEST DUP1 PUSH20 0xFFFFFFFFFFFFFFFFFFFFFFFFFFFFFFFFFFFFFFFF AND PUSH4 0xA6D7F530 DUP9 DUP9 DUP9 DUP9 DUP9 DUP9 PUSH1 0x40 MLOAD DUP8 PUSH4 0xFFFFFFFF AND PUSH1 0xE0 SHL DUP2 MSTORE PUSH1 0x4 ADD PUSH2 0x4C9 SWAP7 SWAP6 SWAP5 SWAP4 SWAP3 SWAP2 SWAP1 PUSH2 0x100B JUMP JUMPDEST PUSH0 PUSH1 0x40 MLOAD DUP1 DUP4 SUB DUP2 PUSH0 DUP8 DUP1 EXTCODESIZE ISZERO DUP1 ISZERO PUSH2 0x4E0 JUMPI PUSH0 DUP1 REVERT JUMPDEST POP GAS CALL ISZERO DUP1 ISZERO PUSH2 0x4F2 JUMPI RETURNDATASIZE PUSH0 DUP1 RETURNDATACOPY RETURNDATASIZE PUSH0 REVERT JUMPDEST POP POP POP POP POP POP POP POP POP POP POP JUMP JUMPDEST PUSH0 PUSH20 0xFFFFFFFFFFFFFFFFFFFFFFFFFFFFFFFFFFFFFFFF AND PUSH1 0x1 PUSH0 CALLER PUSH20 0xFFFFFFFFFFFFFFFFFFFFFFFFFFFFFFFFFFFFFFFF AND PUSH20 0xFFFFFFFFFFFFFFFFFFFFFFFFFFFFFFFFFFFFFFFF AND DUP2 MSTORE PUSH1 0x20 ADD SWAP1 DUP2 MSTORE PUSH1 0x20 ADD PUSH0 KECCAK256 PUSH0 SWAP1 SLOAD SWAP1 PUSH2 0x100 EXP SWAP1 DIV PUSH20 0xFFFFFFFFFFFFFFFFFFFFFFFFFFFFFFFFFFFFFFFF AND PUSH20 0xFFFFFFFFFFFFFFFFFFFFFFFFFFFFFFFFFFFFFFFF AND SUB PUSH2 0x598 JUMPI PUSH2 0x596 PUSH2 0x825 JUMP JUMPDEST POP JUMPDEST PUSH0 PUSH1 0x1 PUSH0 CALLER PUSH20 0xFFFFFFFFFFFFFFFFFFFFFFFFFFFFFFFFFFFFFFFF AND PUSH20 0xFFFFFFFFFFFFFFFFFFFFFFFFFFFFFFFFFFFFFFFF AND DUP2 MSTORE PUSH1 0x20 ADD SWAP1 DUP2 MSTORE PUSH1 0x20 ADD PUSH0 KECCAK256 PUSH0 SWAP1 SLOAD SWAP1 PUSH2 0x100 EXP SWAP1 DIV PUSH20 0xFFFFFFFFFFFFFFFFFFFFFFFFFFFFFFFFFFFFFFFF AND SWAP1 POP PUSH2 0x604 DUP8 CALLER DUP4 DUP8 PUSH2 0x6D3 JUMP JUMPDEST DUP1 PUSH20 0xFFFFFFFFFFFFFFFFFFFFFFFFFFFFFFFFFFFFFFFF AND PUSH4 0x8F558189 DUP10 DUP10 DUP10 DUP10 DUP10 DUP10 DUP10 PUSH1 0x40 MLOAD DUP9 PUSH4 0xFFFFFFFF AND PUSH1 0xE0 SHL DUP2 MSTORE PUSH1 0x4 ADD PUSH2 0x649 SWAP8 SWAP7 SWAP6 SWAP5 SWAP4 SWAP3 SWAP2 SWAP1 PUSH2 0x106A JUMP JUMPDEST PUSH0 PUSH1 0x40 MLOAD DUP1 DUP4 SUB DUP2 PUSH0 DUP8 DUP1 EXTCODESIZE ISZERO DUP1 ISZERO PUSH2 0x660 JUMPI PUSH0 DUP1 REVERT JUMPDEST POP GAS CALL ISZERO DUP1 ISZERO PUSH2 0x672 JUMPI RETURNDATASIZE PUSH0 DUP1 RETURNDATACOPY RETURNDATASIZE PUSH0 REVERT JUMPDEST POP POP POP POP POP POP POP POP POP POP POP POP JUMP JUMPDEST PUSH0 DUP1 SLOAD SWAP1 PUSH2 0x100 EXP SWAP1 DIV PUSH20 0xFFFFFFFFFFFFFFFFFFFFFFFFFFFFFFFFFFFFFFFF AND DUP2 JUMP JUMPDEST PUSH1 0x1 PUSH1 0x20 MSTORE DUP1 PUSH0 MSTORE PUSH1 0x40 PUSH0 KECCAK256 PUSH0 SWAP2 POP SLOAD SWAP1 PUSH2 0x100 EXP SWAP1 DIV PUSH20 0xFFFFFFFFFFFFFFFFFFFFFFFFFFFFFFFFFFFFFFFF AND DUP2 JUMP JUMPDEST PUSH0 DUP1 DUP6 PUSH20 0xFFFFFFFFFFFFFFFFFFFFFFFFFFFFFFFFFFFFFFFF AND PUSH4 0x23B872DD PUSH1 0xE0 SHL DUP7 DUP7 DUP7 PUSH1 0x40 MLOAD PUSH1 0x24 ADD PUSH2 0x709 SWAP4 SWAP3 SWAP2 SWAP1 PUSH2 0x10D7 JUMP JUMPDEST PUSH1 0x40 MLOAD PUSH1 0x20 DUP2 DUP4 SUB SUB DUP2 MSTORE SWAP1 PUSH1 0x40 MSTORE SWAP1 PUSH28 0xFFFFFFFFFFFFFFFFFFFFFFFFFFFFFFFFFFFFFFFFFFFFFFFFFFFFFFFF NOT AND PUSH1 0x20 DUP3 ADD DUP1 MLOAD PUSH28 0xFFFFFFFFFFFFFFFFFFFFFFFFFFFFFFFFFFFFFFFFFFFFFFFFFFFFFFFF DUP4 DUP2 DUP4 AND OR DUP4 MSTORE POP POP POP POP PUSH1 0x40 MLOAD PUSH2 0x773 SWAP2 SWAP1 PUSH2 0x1178 JUMP JUMPDEST PUSH0 PUSH1 0x40 MLOAD DUP1 DUP4 SUB DUP2 PUSH0 DUP7 GAS CALL SWAP2 POP POP RETURNDATASIZE DUP1 PUSH0 DUP2 EQ PUSH2 0x7AC JUMPI PUSH1 0x40 MLOAD SWAP2 POP PUSH1 0x1F NOT PUSH1 0x3F RETURNDATASIZE ADD AND DUP3 ADD PUSH1 0x40 MSTORE RETURNDATASIZE DUP3 MSTORE RETURNDATASIZE PUSH0 PUSH1 0x20 DUP5 ADD RETURNDATACOPY PUSH2 0x7B1 JUMP JUMPDEST PUSH1 0x60 SWAP2 POP JUMPDEST POP SWAP2 POP SWAP2 POP DUP2 DUP1 ISZERO PUSH2 0x7DE JUMPI POP PUSH0 DUP2 MLOAD EQ DUP1 PUSH2 0x7DD JUMPI POP DUP1 DUP1 PUSH1 0x20 ADD SWAP1 MLOAD DUP2 ADD SWAP1 PUSH2 0x7DC SWAP2 SWAP1 PUSH2 0x11C3 JUMP JUMPDEST JUMPDEST JUMPDEST PUSH2 0x81D JUMPI PUSH1 0x40 MLOAD PUSH32 0x8C379A000000000000000000000000000000000000000000000000000000000 DUP2 MSTORE PUSH1 0x4 ADD PUSH2 0x814 SWAP1 PUSH2 0x1248 JUMP JUMPDEST PUSH1 0x40 MLOAD DUP1 SWAP2 SUB SWAP1 REVERT JUMPDEST POP POP POP POP POP POP JUMP JUMPDEST PUSH0 DUP1 PUSH20 0xFFFFFFFFFFFFFFFFFFFFFFFFFFFFFFFFFFFFFFFF AND PUSH1 0x1 PUSH0 CALLER PUSH20 0xFFFFFFFFFFFFFFFFFFFFFFFFFFFFFFFFFFFFFFFF AND PUSH20 0xFFFFFFFFFFFFFFFFFFFFFFFFFFFFFFFFFFFFFFFF AND DUP2 MSTORE PUSH1 0x20 ADD SWAP1 DUP2 MSTORE PUSH1 0x20 ADD PUSH0 KECCAK256 PUSH0 SWAP1 SLOAD SWAP1 PUSH2 0x100 EXP SWAP1 DIV PUSH20 0xFFFFFFFFFFFFFFFFFFFFFFFFFFFFFFFFFFFFFFFF AND PUSH20 0xFFFFFFFFFFFFFFFFFFFFFFFFFFFFFFFFFFFFFFFF AND EQ PUSH2 0x8F0 JUMPI PUSH1 0x40 MLOAD PUSH32 0x8C379A000000000000000000000000000000000000000000000000000000000 DUP2 MSTORE PUSH1 0x4 ADD PUSH2 0x8E7 SWAP1 PUSH2 0x12D6 JUMP JUMPDEST PUSH1 0x40 MLOAD DUP1 SWAP2 SUB SWAP1 REVERT JUMPDEST PUSH0 DUP1 PUSH0 SWAP1 SLOAD SWAP1 PUSH2 0x100 EXP SWAP1 DIV PUSH20 0xFFFFFFFFFFFFFFFFFFFFFFFFFFFFFFFFFFFFFFFF AND PUSH1 0x60 SHL SWAP1 POP PUSH1 0x40 MLOAD PUSH32 0x3D602D80600A3D3981F3363D3D373D3D3D363D73000000000000000000000000 DUP2 MSTORE DUP2 PUSH1 0x14 DUP3 ADD MSTORE PUSH32 0x5AF43D82803E903D91602B57FD5BF30000000000000000000000000000000000 PUSH1 0x28 DUP3 ADD MSTORE PUSH1 0x37 DUP2 PUSH0 CREATE SWAP3 POP DUP3 PUSH2 0x979 JUMPI PUSH0 DUP1 REVERT JUMPDEST POP DUP2 PUSH1 0x1 PUSH0 CALLER PUSH20 0xFFFFFFFFFFFFFFFFFFFFFFFFFFFFFFFFFFFFFFFF AND PUSH20 0xFFFFFFFFFFFFFFFFFFFFFFFFFFFFFFFFFFFFFFFF AND DUP2 MSTORE PUSH1 0x20 ADD SWAP1 DUP2 MSTORE PUSH1 0x20 ADD PUSH0 KECCAK256 PUSH0 PUSH2 0x100 EXP DUP2 SLOAD DUP2 PUSH20 0xFFFFFFFFFFFFFFFFFFFFFFFFFFFFFFFFFFFFFFFF MUL NOT AND SWAP1 DUP4 PUSH20 0xFFFFFFFFFFFFFFFFFFFFFFFFFFFFFFFFFFFFFFFF AND MUL OR SWAP1 SSTORE POP POP SWAP1 JUMP JUMPDEST PUSH2 0xA93 DUP4 DUP4 DUP4 PUSH1 0x40 MLOAD PUSH1 0x24 ADD PUSH2 0xA11 SWAP4 SWAP3 SWAP2 SWAP1 PUSH2 0x1346 JUMP JUMPDEST PUSH1 0x40 MLOAD PUSH1 0x20 DUP2 DUP4 SUB SUB DUP2 MSTORE SWAP1 PUSH1 0x40 MSTORE PUSH32 0xF08744E800000000000000000000000000000000000000000000000000000000 PUSH28 0xFFFFFFFFFFFFFFFFFFFFFFFFFFFFFFFFFFFFFFFFFFFFFFFFFFFFFFFF NOT AND PUSH1 0x20 DUP3 ADD DUP1 MLOAD PUSH28 0xFFFFFFFFFFFFFFFFFFFFFFFFFFFFFFFFFFFFFFFFFFFFFFFFFFFFFFFF DUP4 DUP2 DUP4 AND OR DUP4 MSTORE POP POP POP POP PUSH2 0xB31 JUMP JUMPDEST POP POP POP JUMP JUMPDEST PUSH2 0xB2E DUP2 PUSH1 0x40 MLOAD PUSH1 0x24 ADD PUSH2 0xAAC SWAP2 SWAP1 PUSH2 0x1382 JUMP JUMPDEST PUSH1 0x40 MLOAD PUSH1 0x20 DUP2 DUP4 SUB SUB DUP2 MSTORE SWAP1 PUSH1 0x40 MSTORE PUSH32 0x41304FAC00000000000000000000000000000000000000000000000000000000 PUSH28 0xFFFFFFFFFFFFFFFFFFFFFFFFFFFFFFFFFFFFFFFFFFFFFFFFFFFFFFFF NOT AND PUSH1 0x20 DUP3 ADD DUP1 MLOAD PUSH28 0xFFFFFFFFFFFFFFFFFFFFFFFFFFFFFFFFFFFFFFFFFFFFFFFFFFFFFFFF DUP4 DUP2 DUP4 AND OR DUP4 MSTORE POP POP POP POP PUSH2 0xB31 JUMP JUMPDEST POP JUMP JUMPDEST PUSH2 0xB48 DUP2 PUSH2 0xB40 PUSH2 0xB4B PUSH2 0xB6A JUMP JUMPDEST PUSH4 0xFFFFFFFF AND JUMP JUMPDEST POP JUMP JUMPDEST PUSH0 PUSH11 0x636F6E736F6C652E6C6F67 SWAP1 POP PUSH0 DUP1 DUP4 MLOAD PUSH1 0x20 DUP6 ADD DUP5 GAS STATICCALL POP POP POP JUMP JUMPDEST PUSH2 0xB75 DUP2 SWAP1 POP SWAP2 SWAP1 POP JUMP JUMPDEST PUSH2 0xB7D PUSH2 0x13A2 JUMP JUMPDEST JUMP JUMPDEST PUSH0 DUP1 REVERT JUMPDEST PUSH0 PUSH20 0xFFFFFFFFFFFFFFFFFFFFFFFFFFFFFFFFFFFFFFFF DUP3 AND SWAP1 POP SWAP2 SWAP1 POP JUMP JUMPDEST PUSH0 PUSH2 0xBAC DUP3 PUSH2 0xB83 JUMP JUMPDEST SWAP1 POP SWAP2 SWAP1 POP JUMP JUMPDEST PUSH2 0xBBC DUP2 PUSH2 0xBA2 JUMP JUMPDEST DUP2 EQ PUSH2 0xBC6 JUMPI PUSH0 DUP1 REVERT JUMPDEST POP JUMP JUMPDEST PUSH0 DUP2 CALLDATALOAD SWAP1 POP PUSH2 0xBD7 DUP2 PUSH2 0xBB3 JUMP JUMPDEST SWAP3 SWAP2 POP POP JUMP JUMPDEST PUSH0 DUP2 SWAP1 POP SWAP2 SWAP1 POP JUMP JUMPDEST PUSH2 0xBEF DUP2 PUSH2 0xBDD JUMP JUMPDEST DUP2 EQ PUSH2 0xBF9 JUMPI PUSH0 DUP1 REVERT JUMPDEST POP JUMP JUMPDEST PUSH0 DUP2 CALLDATALOAD SWAP1 POP PUSH2 0xC0A DUP2 PUSH2 0xBE6 JUMP JUMPDEST SWAP3 SWAP2 POP POP JUMP JUMPDEST PUSH0 DUP2 SWAP1 POP SWAP2 SWAP1 POP JUMP JUMPDEST PUSH2 0xC22 DUP2 PUSH2 0xC10 JUMP JUMPDEST DUP2 EQ PUSH2 0xC2C JUMPI PUSH0 DUP1 REVERT JUMPDEST POP JUMP JUMPDEST PUSH0 DUP2 CALLDATALOAD SWAP1 POP PUSH2 0xC3D DUP2 PUSH2 0xC19 JUMP JUMPDEST SWAP3 SWAP2 POP POP JUMP JUMPDEST PUSH0 DUP1 PUSH0 DUP1 PUSH0 DUP1 PUSH0 PUSH1 0xE0 DUP9 DUP11 SUB SLT ISZERO PUSH2 0xC5E JUMPI PUSH2 0xC5D PUSH2 0xB7F JUMP JUMPDEST JUMPDEST PUSH0 PUSH2 0xC6B DUP11 DUP3 DUP12 ADD PUSH2 0xBC9 JUMP JUMPDEST SWAP8 POP POP PUSH1 0x20 PUSH2 0xC7C DUP11 DUP3 DUP12 ADD PUSH2 0xBC9 JUMP JUMPDEST SWAP7 POP POP PUSH1 0x40 PUSH2 0xC8D DUP11 DUP3 DUP12 ADD PUSH2 0xBC9 JUMP JUMPDEST SWAP6 POP POP PUSH1 0x60 PUSH2 0xC9E DUP11 DUP3 DUP12 ADD PUSH2 0xBC9 JUMP JUMPDEST SWAP5 POP POP PUSH1 0x80 PUSH2 0xCAF DUP11 DUP3 DUP12 ADD PUSH2 0xBFC JUMP JUMPDEST SWAP4 POP POP PUSH1 0xA0 PUSH2 0xCC0 DUP11 DUP3 DUP12 ADD PUSH2 0xC2F JUMP JUMPDEST SWAP3 POP POP PUSH1 0xC0 PUSH2 0xCD1 DUP11 DUP3 DUP12 ADD PUSH2 0xC2F JUMP JUMPDEST SWAP2 POP POP SWAP3 SWAP6 SWAP9 SWAP2 SWAP5 SWAP8 POP SWAP3 SWAP6 POP JUMP JUMPDEST PUSH0 DUP1 PUSH0 DUP1 PUSH0 DUP1 PUSH1 0xC0 DUP8 DUP10 SUB SLT ISZERO PUSH2 0xCFA JUMPI PUSH2 0xCF9 PUSH2 0xB7F JUMP JUMPDEST JUMPDEST PUSH0 PUSH2 0xD07 DUP10 DUP3 DUP11 ADD PUSH2 0xBC9 JUMP JUMPDEST SWAP7 POP POP PUSH1 0x20 PUSH2 0xD18 DUP10 DUP3 DUP11 ADD PUSH2 0xBC9 JUMP JUMPDEST SWAP6 POP POP PUSH1 0x40 PUSH2 0xD29 DUP10 DUP3 DUP11 ADD PUSH2 0xBC9 JUMP JUMPDEST SWAP5 POP POP PUSH1 0x60 PUSH2 0xD3A DUP10 DUP3 DUP11 ADD PUSH2 0xBC9 JUMP JUMPDEST SWAP4 POP POP PUSH1 0x80 PUSH2 0xD4B DUP10 DUP3 DUP11 ADD PUSH2 0xBFC JUMP JUMPDEST SWAP3 POP POP PUSH1 0xA0 PUSH2 0xD5C DUP10 DUP3 DUP11 ADD PUSH2 0xBFC JUMP JUMPDEST SWAP2 POP POP SWAP3 SWAP6 POP SWAP3 SWAP6 POP SWAP3 SWAP6 JUMP JUMPDEST PUSH0 DUP1 PUSH0 DUP1 PUSH0 DUP1 PUSH1 0xC0 DUP8 DUP10 SUB SLT ISZERO PUSH2 0xD83 JUMPI PUSH2 0xD82 PUSH2 0xB7F JUMP JUMPDEST JUMPDEST PUSH0 PUSH2 0xD90 DUP10 DUP3 DUP11 ADD PUSH2 0xBC9 JUMP JUMPDEST SWAP7 POP POP PUSH1 0x20 PUSH2 0xDA1 DUP10 DUP3 DUP11 ADD PUSH2 0xBC9 JUMP JUMPDEST SWAP6 POP POP PUSH1 0x40 PUSH2 0xDB2 DUP10 DUP3 DUP11 ADD PUSH2 0xBC9 JUMP JUMPDEST SWAP5 POP POP PUSH1 0x60 PUSH2 0xDC3 DUP10 DUP3 DUP11 ADD PUSH2 0xBFC JUMP JUMPDEST SWAP4 POP POP PUSH1 0x80 PUSH2 0xDD4 DUP10 DUP3 DUP11 ADD PUSH2 0xBFC JUMP JUMPDEST SWAP3 POP POP PUSH1 0xA0 PUSH2 0xDE5 DUP10 DUP3 DUP11 ADD PUSH2 0xBC9 JUMP JUMPDEST SWAP2 POP POP SWAP3 SWAP6 POP SWAP3 SWAP6 POP SWAP3 SWAP6 JUMP JUMPDEST PUSH0 DUP1 PUSH0 DUP1 PUSH0 DUP1 PUSH0 PUSH1 0xE0 DUP9 DUP11 SUB SLT ISZERO PUSH2 0xE0D JUMPI PUSH2 0xE0C PUSH2 0xB7F JUMP JUMPDEST JUMPDEST PUSH0 PUSH2 0xE1A DUP11 DUP3 DUP12 ADD PUSH2 0xBC9 JUMP JUMPDEST SWAP8 POP POP PUSH1 0x20 PUSH2 0xE2B DUP11 DUP3 DUP12 ADD PUSH2 0xBC9 JUMP JUMPDEST SWAP7 POP POP PUSH1 0x40 PUSH2 0xE3C DUP11 DUP3 DUP12 ADD PUSH2 0xBC9 JUMP JUMPDEST SWAP6 POP POP PUSH1 0x60 PUSH2 0xE4D DUP11 DUP3 DUP12 ADD PUSH2 0xBC9 JUMP JUMPDEST SWAP5 POP POP PUSH1 0x80 PUSH2 0xE5E DUP11 DUP3 DUP12 ADD PUSH2 0xBFC JUMP JUMPDEST SWAP4 POP POP PUSH1 0xA0 PUSH2 0xE6F DUP11 DUP3 DUP12 ADD PUSH2 0xC2F JUMP JUMPDEST SWAP3 POP POP PUSH1 0xC0 PUSH2 0xE80 DUP11 DUP3 DUP12 ADD PUSH2 0xBC9 JUMP JUMPDEST SWAP2 POP POP SWAP3 SWAP6 SWAP9 SWAP2 SWAP5 SWAP8 POP SWAP3 SWAP6 POP JUMP JUMPDEST PUSH2 0xE98 DUP2 PUSH2 0xBA2 JUMP JUMPDEST DUP3 MSTORE POP POP JUMP JUMPDEST PUSH0 PUSH1 0x20 DUP3 ADD SWAP1 POP PUSH2 0xEB1 PUSH0 DUP4 ADD DUP5 PUSH2 0xE8F JUMP JUMPDEST SWAP3 SWAP2 POP POP JUMP JUMPDEST PUSH0 PUSH1 0x20 DUP3 DUP5 SUB SLT ISZERO PUSH2 0xECC JUMPI PUSH2 0xECB PUSH2 0xB7F JUMP JUMPDEST JUMPDEST PUSH0 PUSH2 0xED9 DUP5 DUP3 DUP6 ADD PUSH2 0xBC9 JUMP JUMPDEST SWAP2 POP POP SWAP3 SWAP2 POP POP JUMP JUMPDEST PUSH2 0xEEB DUP2 PUSH2 0xBDD JUMP JUMPDEST DUP3 MSTORE POP POP JUMP JUMPDEST PUSH2 0xEFA DUP2 PUSH2 0xC10 JUMP JUMPDEST DUP3 MSTORE POP POP JUMP JUMPDEST PUSH0 PUSH1 0xE0 DUP3 ADD SWAP1 POP PUSH2 0xF13 PUSH0 DUP4 ADD DUP11 PUSH2 0xE8F JUMP JUMPDEST PUSH2 0xF20 PUSH1 0x20 DUP4 ADD DUP10 PUSH2 0xE8F JUMP JUMPDEST PUSH2 0xF2D PUSH1 0x40 DUP4 ADD DUP9 PUSH2 0xE8F JUMP JUMPDEST PUSH2 0xF3A PUSH1 0x60 DUP4 ADD DUP8 PUSH2 0xE8F JUMP JUMPDEST PUSH2 0xF47 PUSH1 0x80 DUP4 ADD DUP7 PUSH2 0xEE2 JUMP JUMPDEST PUSH2 0xF54 PUSH1 0xA0 DUP4 ADD DUP6 PUSH2 0xEF1 JUMP JUMPDEST PUSH2 0xF61 PUSH1 0xC0 DUP4 ADD DUP5 PUSH2 0xEF1 JUMP JUMPDEST SWAP9 SWAP8 POP POP POP POP POP POP POP POP JUMP JUMPDEST PUSH0 DUP2 MLOAD SWAP1 POP PUSH2 0xF7B DUP2 PUSH2 0xC19 JUMP JUMPDEST SWAP3 SWAP2 POP POP JUMP JUMPDEST PUSH0 PUSH1 0x20 DUP3 DUP5 SUB SLT ISZERO PUSH2 0xF96 JUMPI PUSH2 0xF95 PUSH2 0xB7F JUMP JUMPDEST JUMPDEST PUSH0 PUSH2 0xFA3 DUP5 DUP3 DUP6 ADD PUSH2 0xF6D JUMP JUMPDEST SWAP2 POP POP SWAP3 SWAP2 POP POP JUMP JUMPDEST PUSH0 PUSH1 0xC0 DUP3 ADD SWAP1 POP PUSH2 0xFBF PUSH0 DUP4 ADD DUP10 PUSH2 0xE8F JUMP JUMPDEST PUSH2 0xFCC PUSH1 0x20 DUP4 ADD DUP9 PUSH2 0xE8F JUMP JUMPDEST PUSH2 0xFD9 PUSH1 0x40 DUP4 ADD DUP8 PUSH2 0xE8F JUMP JUMPDEST PUSH2 0xFE6 PUSH1 0x60 DUP4 ADD DUP7 PUSH2 0xE8F JUMP JUMPDEST PUSH2 0xFF3 PUSH1 0x80 DUP4 ADD DUP6 PUSH2 0xEE2 JUMP JUMPDEST PUSH2 0x1000 PUSH1 0xA0 DUP4 ADD DUP5 PUSH2 0xEE2 JUMP JUMPDEST SWAP8 SWAP7 POP POP POP POP POP POP POP JUMP JUMPDEST PUSH0 PUSH1 0xC0 DUP3 ADD SWAP1 POP PUSH2 0x101E PUSH0 DUP4 ADD DUP10 PUSH2 0xE8F JUMP JUMPDEST PUSH2 0x102B PUSH1 0x20 DUP4 ADD DUP9 PUSH2 0xE8F JUMP JUMPDEST PUSH2 0x1038 PUSH1 0x40 DUP4 ADD DUP8 PUSH2 0xE8F JUMP JUMPDEST PUSH2 0x1045 PUSH1 0x60 DUP4 ADD DUP7 PUSH2 0xEE2 JUMP JUMPDEST PUSH2 0x1052 PUSH1 0x80 DUP4 ADD DUP6 PUSH2 0xEE2 JUMP JUMPDEST PUSH2 0x105F PUSH1 0xA0 DUP4 ADD DUP5 PUSH2 0xE8F JUMP JUMPDEST SWAP8 SWAP7 POP POP POP POP POP POP POP JUMP JUMPDEST PUSH0 PUSH1 0xE0 DUP3 ADD SWAP1 POP PUSH2 0x107D PUSH0 DUP4 ADD DUP11 PUSH2 0xE8F JUMP JUMPDEST PUSH2 0x108A PUSH1 0x20 DUP4 ADD DUP10 PUSH2 0xE8F JUMP JUMPDEST PUSH2 0x1097 PUSH1 0x40 DUP4 ADD DUP9 PUSH2 0xE8F JUMP JUMPDEST PUSH2 0x10A4 PUSH1 0x60 DUP4 ADD DUP8 PUSH2 0xE8F JUMP JUMPDEST PUSH2 0x10B1 PUSH1 0x80 DUP4 ADD DUP7 PUSH2 0xEE2 JUMP JUMPDEST PUSH2 0x10BE PUSH1 0xA0 DUP4 ADD DUP6 PUSH2 0xEF1 JUMP JUMPDEST PUSH2 0x10CB PUSH1 0xC0 DUP4 ADD DUP5 PUSH2 0xE8F JUMP JUMPDEST SWAP9 SWAP8 POP POP POP POP POP POP POP POP JUMP JUMPDEST PUSH0 PUSH1 0x60 DUP3 ADD SWAP1 POP PUSH2 0x10EA PUSH0 DUP4 ADD DUP7 PUSH2 0xE8F JUMP JUMPDEST PUSH2 0x10F7 PUSH1 0x20 DUP4 ADD DUP6 PUSH2 0xE8F JUMP JUMPDEST PUSH2 0x1104 PUSH1 0x40 DUP4 ADD DUP5 PUSH2 0xEE2 JUMP JUMPDEST SWAP5 SWAP4 POP POP POP POP JUMP JUMPDEST PUSH0 DUP2 MLOAD SWAP1 POP SWAP2 SWAP1 POP JUMP JUMPDEST PUSH0 DUP2 SWAP1 POP SWAP3 SWAP2 POP POP JUMP JUMPDEST PUSH0 JUMPDEST DUP4 DUP2 LT ISZERO PUSH2 0x113D JUMPI DUP1 DUP3 ADD MLOAD DUP2 DUP5 ADD MSTORE PUSH1 0x20 DUP2 ADD SWAP1 POP PUSH2 0x1122 JUMP JUMPDEST PUSH0 DUP5 DUP5 ADD MSTORE POP POP POP POP JUMP JUMPDEST PUSH0 PUSH2 0x1152 DUP3 PUSH2 0x110C JUMP JUMPDEST PUSH2 0x115C DUP2 DUP6 PUSH2 0x1116 JUMP JUMPDEST SWAP4 POP PUSH2 0x116C DUP2 DUP6 PUSH1 0x20 DUP7 ADD PUSH2 0x1120 JUMP JUMPDEST DUP1 DUP5 ADD SWAP2 POP POP SWAP3 SWAP2 POP POP JUMP JUMPDEST PUSH0 PUSH2 0x1183 DUP3 DUP5 PUSH2 0x1148 JUMP JUMPDEST SWAP2 POP DUP2 SWAP1 POP SWAP3 SWAP2 POP POP JUMP JUMPDEST PUSH0 DUP2 ISZERO ISZERO SWAP1 POP SWAP2 SWAP1 POP JUMP JUMPDEST PUSH2 0x11A2 DUP2 PUSH2 0x118E JUMP JUMPDEST DUP2 EQ PUSH2 0x11AC JUMPI PUSH0 DUP1 REVERT JUMPDEST POP JUMP JUMPDEST PUSH0 DUP2 MLOAD SWAP1 POP PUSH2 0x11BD DUP2 PUSH2 0x1199 JUMP JUMPDEST SWAP3 SWAP2 POP POP JUMP JUMPDEST PUSH0 PUSH1 0x20 DUP3 DUP5 SUB SLT ISZERO PUSH2 0x11D8 JUMPI PUSH2 0x11D7 PUSH2 0xB7F JUMP JUMPDEST JUMPDEST PUSH0 PUSH2 0x11E5 DUP5 DUP3 DUP6 ADD PUSH2 0x11AF JUMP JUMPDEST SWAP2 POP POP SWAP3 SWAP2 POP POP JUMP JUMPDEST PUSH0 DUP3 DUP3 MSTORE PUSH1 0x20 DUP3 ADD SWAP1 POP SWAP3 SWAP2 POP POP JUMP JUMPDEST PUSH32 0x5354460000000000000000000000000000000000000000000000000000000000 PUSH0 DUP3 ADD MSTORE POP JUMP JUMPDEST PUSH0 PUSH2 0x1232 PUSH1 0x3 DUP4 PUSH2 0x11EE JUMP JUMPDEST SWAP2 POP PUSH2 0x123D DUP3 PUSH2 0x11FE JUMP JUMPDEST PUSH1 0x20 DUP3 ADD SWAP1 POP SWAP2 SWAP1 POP JUMP JUMPDEST PUSH0 PUSH1 0x20 DUP3 ADD SWAP1 POP DUP2 DUP2 SUB PUSH0 DUP4 ADD MSTORE PUSH2 0x125F DUP2 PUSH2 0x1226 JUMP JUMPDEST SWAP1 POP SWAP2 SWAP1 POP JUMP JUMPDEST PUSH32 0x70726F787941646472657373206372656174656420666F722074686973207573 PUSH0 DUP3 ADD MSTORE PUSH32 0x6572000000000000000000000000000000000000000000000000000000000000 PUSH1 0x20 DUP3 ADD MSTORE POP JUMP JUMPDEST PUSH0 PUSH2 0x12C0 PUSH1 0x22 DUP4 PUSH2 0x11EE JUMP JUMPDEST SWAP2 POP PUSH2 0x12CB DUP3 PUSH2 0x1266 JUMP JUMPDEST PUSH1 0x40 DUP3 ADD SWAP1 POP SWAP2 SWAP1 POP JUMP JUMPDEST PUSH0 PUSH1 0x20 DUP3 ADD SWAP1 POP DUP2 DUP2 SUB PUSH0 DUP4 ADD MSTORE PUSH2 0x12ED DUP2 PUSH2 0x12B4 JUMP JUMPDEST SWAP1 POP SWAP2 SWAP1 POP JUMP JUMPDEST PUSH0 DUP2 MLOAD SWAP1 POP SWAP2 SWAP1 POP JUMP JUMPDEST PUSH0 PUSH1 0x1F NOT PUSH1 0x1F DUP4 ADD AND SWAP1 POP SWAP2 SWAP1 POP JUMP JUMPDEST PUSH0 PUSH2 0x1318 DUP3 PUSH2 0x12F4 JUMP JUMPDEST PUSH2 0x1322 DUP2 DUP6 PUSH2 0x11EE JUMP JUMPDEST SWAP4 POP PUSH2 0x1332 DUP2 DUP6 PUSH1 0x20 DUP7 ADD PUSH2 0x1120 JUMP JUMPDEST PUSH2 0x133B DUP2 PUSH2 0x12FE JUMP JUMPDEST DUP5 ADD SWAP2 POP POP SWAP3 SWAP2 POP POP JUMP JUMPDEST PUSH0 PUSH1 0x60 DUP3 ADD SWAP1 POP PUSH2 0x1359 PUSH0 DUP4 ADD DUP7 PUSH2 0xE8F JUMP JUMPDEST DUP2 DUP2 SUB PUSH1 0x20 DUP4 ADD MSTORE PUSH2 0x136B DUP2 DUP6 PUSH2 0x130E JUMP JUMPDEST SWAP1 POP PUSH2 0x137A PUSH1 0x40 DUP4 ADD DUP5 PUSH2 0xE8F JUMP JUMPDEST SWAP5 SWAP4 POP POP POP POP JUMP JUMPDEST PUSH0 PUSH1 0x20 DUP3 ADD SWAP1 POP DUP2 DUP2 SUB PUSH0 DUP4 ADD MSTORE PUSH2 0x139A DUP2 DUP5 PUSH2 0x130E JUMP JUMPDEST SWAP1 POP SWAP3 SWAP2 POP POP JUMP JUMPDEST PUSH32 0x4E487B7100000000000000000000000000000000000000000000000000000000 PUSH0 MSTORE PUSH1 0x51 PUSH1 0x4 MSTORE PUSH1 0x24 PUSH0 REVERT INVALID LOG2 PUSH5 0x6970667358 0x22 SLT KECCAK256 PUSH13 0x878E9D0C75055A0B249E0F77E1 0xF9 PUSH29 0x2DC75E1C36894A6CCFE647281C61FFD664736F6C634300081400330000 "
		},
		"gasEstimates": {
			"creation": {
				"codeDepositCost": "1025000",
				"executionCost": "infinite",
				"totalCost": "infinite"
			},
			"external": {
				"compoundBorrow(address,address,address,uint256,uint256,address)": "infinite",
				"logicAddress()": "2571",
				"proxyAddress(address)": "infinite",
				"reapay(address,address,address,address,uint256,uint256)": "infinite",
				"uniBorrow(address,address,address,address,uint256,int256,address)": "infinite",
				"uniRepay(address,address,address,address,uint256,int256,int256)": "infinite"
			},
			"internal": {
				"createAccount()": "infinite"
			}
		},
		"methodIdentifiers": {
			"compoundBorrow(address,address,address,uint256,uint256,address)": "21d05a75",
			"logicAddress()": "9c1fcc4c",
			"proxyAddress(address)": "faa9efe3",
			"reapay(address,address,address,address,uint256,uint256)": "12aeb6f8",
			"uniBorrow(address,address,address,address,uint256,int256,address)": "5866b5cc",
			"uniRepay(address,address,address,address,uint256,int256,int256)": "092579af"
		}
	},
	"abi": [
		{
			"inputs": [
				{
					"internalType": "address",
					"name": "_logicAddress",
					"type": "address"
				}
			],
			"stateMutability": "nonpayable",
			"type": "constructor"
		},
		{
			"inputs": [
				{
					"internalType": "address",
					"name": "_supplyAsset",
					"type": "address"
				},
				{
					"internalType": "address",
					"name": "_borrowAsset",
					"type": "address"
				},
				{
					"internalType": "address",
					"name": "_tokenOut",
					"type": "address"
				},
				{
					"internalType": "uint256",
					"name": "_supplyAmount",
					"type": "uint256"
				},
				{
					"internalType": "uint256",
					"name": "_borrowAmount",
					"type": "uint256"
				},
				{
					"internalType": "address",
					"name": "_user",
					"type": "address"
				}
			],
			"name": "compoundBorrow",
			"outputs": [],
			"stateMutability": "nonpayable",
			"type": "function"
		},
		{
			"inputs": [],
			"name": "logicAddress",
			"outputs": [
				{
					"internalType": "address",
					"name": "",
					"type": "address"
				}
			],
			"stateMutability": "view",
			"type": "function"
		},
		{
			"inputs": [
				{
					"internalType": "address",
					"name": "",
					"type": "address"
				}
			],
			"name": "proxyAddress",
			"outputs": [
				{
					"internalType": "address",
					"name": "",
					"type": "address"
				}
			],
			"stateMutability": "view",
			"type": "function"
		},
		{
			"inputs": [
				{
					"internalType": "address",
					"name": "_borrowedToken",
					"type": "address"
				},
				{
					"internalType": "address",
					"name": "_tokenIn",
					"type": "address"
				},
				{
					"internalType": "address",
					"name": "_user",
					"type": "address"
				},
				{
					"internalType": "address",
					"name": "_collateralToken",
					"type": "address"
				},
				{
					"internalType": "uint256",
					"name": "_collateralAmount",
					"type": "uint256"
				},
				{
					"internalType": "uint256",
					"name": "_repayAmount",
					"type": "uint256"
				}
			],
			"name": "reapay",
			"outputs": [],
			"stateMutability": "nonpayable",
			"type": "function"
		},
		{
			"inputs": [
				{
					"internalType": "address",
					"name": "_pool",
					"type": "address"
				},
				{
					"internalType": "address",
					"name": "_supplyAsset",
					"type": "address"
				},
				{
					"internalType": "address",
					"name": "_tokenOUt",
					"type": "address"
				},
				{
					"internalType": "address",
					"name": "_borrowToken",
					"type": "address"
				},
				{
					"internalType": "uint256",
					"name": "_collateral_amount",
					"type": "uint256"
				},
				{
					"internalType": "int256",
					"name": "_amount",
					"type": "int256"
				},
				{
					"internalType": "address",
					"name": "_user",
					"type": "address"
				}
			],
			"name": "uniBorrow",
			"outputs": [],
			"stateMutability": "nonpayable",
			"type": "function"
		},
		{
			"inputs": [
				{
					"internalType": "address",
					"name": "_pool",
					"type": "address"
				},
				{
					"internalType": "address",
					"name": "_tokenIn",
					"type": "address"
				},
				{
					"internalType": "address",
					"name": "_borrowedToken",
					"type": "address"
				},
				{
					"internalType": "address",
					"name": "_user",
					"type": "address"
				},
				{
					"internalType": "uint256",
					"name": "_nftID",
					"type": "uint256"
				},
				{
					"internalType": "int256",
					"name": "_amountOut",
					"type": "int256"
				},
				{
					"internalType": "int256",
					"name": "_repayAmount",
					"type": "int256"
				}
			],
			"name": "uniRepay",
			"outputs": [],
			"stateMutability": "nonpayable",
			"type": "function"
		}
	]
}