{
	"data": {
		"bytecode": {
			"linkReferences": {},
			"object": "60a060405234801562000010575f80fd5b5060405162001eb338038062001eb3833981810160405281019062000036919062000147565b5f73ffffffffffffffffffffffffffffffffffffffff168173ffffffffffffffffffffffffffffffffffffffff1603620000a7576040517f08c379a00000000000000000000000000000000000000000000000000000000081526004016200009e90620001d5565b60405180910390fd5b8073ffffffffffffffffffffffffffffffffffffffff1660808173ffffffffffffffffffffffffffffffffffffffff168152505050620001f5565b5f80fd5b5f73ffffffffffffffffffffffffffffffffffffffff82169050919050565b5f6200011182620000e6565b9050919050565b620001238162000105565b81146200012e575f80fd5b50565b5f81519050620001418162000118565b92915050565b5f602082840312156200015f576200015e620000e2565b5b5f6200016e8482850162000131565b91505092915050565b5f82825260208201905092915050565b7f7a65726f20616464726573732070726f766964656400000000000000000000005f82015250565b5f620001bd60158362000177565b9150620001ca8262000187565b602082019050919050565b5f6020820190508181035f830152620001ee81620001af565b9050919050565b608051611c9e620002155f395f8181610a290152610b470152611c9e5ff3fe608060405234801561000f575f80fd5b5060043610610086575f3560e01c80634d37c3b7116100595780634d37c3b7146100fa5780637eda2ab1146101165780639c1fcc4c14610132578063faa9efe31461015057610086565b806318b95b8b1461008a5780632b3ba5d9146100a657806335e164d0146100c2578063491aaed1146100de575b5f80fd5b6100a4600480360381019061009f9190611126565b610180565b005b6100c060048036038101906100bb9190611212565b61031c565b005b6100dc60048036038101906100d791906112fe565b61046e565b005b6100f860048036038101906100f39190611412565b6105c0565b005b610114600480360381019061010f91906114ea565b61075b565b005b610130600480360381019061012b91906115ea565b6108bb565b005b61013a610a27565b6040516101479190611640565b60405180910390f35b61016a60048036038101906101659190611659565b610a4b565b6040516101779190611640565b60405180910390f35b5f73ffffffffffffffffffffffffffffffffffffffff165f803373ffffffffffffffffffffffffffffffffffffffff1673ffffffffffffffffffffffffffffffffffffffff1681526020019081526020015f205f9054906101000a900473ffffffffffffffffffffffffffffffffffffffff1673ffffffffffffffffffffffffffffffffffffffff160361021857610216610a7a565b505b5f805f3373ffffffffffffffffffffffffffffffffffffffff1673ffffffffffffffffffffffffffffffffffffffff1681526020019081526020015f205f9054906101000a900473ffffffffffffffffffffffffffffffffffffffff16905061028b826020015133838560600151610ca6565b8073ffffffffffffffffffffffffffffffffffffffff1663315a1451835f015184602001518560400151866060015187608001518860a001518960c001516040518863ffffffff1660e01b81526004016102eb9796959493929190611759565b5f604051808303815f87803b158015610302575f80fd5b505af1158015610314573d5f803e3d5ffd5b505050505050565b5f805f3373ffffffffffffffffffffffffffffffffffffffff1673ffffffffffffffffffffffffffffffffffffffff1681526020019081526020015f205f9054906101000a900473ffffffffffffffffffffffffffffffffffffffff1690505f73ffffffffffffffffffffffffffffffffffffffff168173ffffffffffffffffffffffffffffffffffffffff16036103e9576040517f08c379a00000000000000000000000000000000000000000000000000000000081526004016103e090611827565b60405180910390fd5b8073ffffffffffffffffffffffffffffffffffffffff166373e8f1fa835f015184602001518560400151866060015187608001516040518663ffffffff1660e01b815260040161043d959493929190611845565b5f604051808303815f87803b158015610454575f80fd5b505af1158015610466573d5f803e3d5ffd5b505050505050565b5f805f3373ffffffffffffffffffffffffffffffffffffffff1673ffffffffffffffffffffffffffffffffffffffff1681526020019081526020015f205f9054906101000a900473ffffffffffffffffffffffffffffffffffffffff1690505f73ffffffffffffffffffffffffffffffffffffffff168173ffffffffffffffffffffffffffffffffffffffff160361053b576040517f08c379a0000000000000000000000000000000000000000000000000000000008152600401610532906118e7565b60405180910390fd5b8073ffffffffffffffffffffffffffffffffffffffff1663baecbfcd835f015184602001518560400151866060015187608001516040518663ffffffff1660e01b815260040161058f959493929190611905565b5f604051808303815f87803b1580156105a6575f80fd5b505af11580156105b8573d5f803e3d5ffd5b505050505050565b5f73ffffffffffffffffffffffffffffffffffffffff165f803373ffffffffffffffffffffffffffffffffffffffff1673ffffffffffffffffffffffffffffffffffffffff1681526020019081526020015f205f9054906101000a900473ffffffffffffffffffffffffffffffffffffffff1673ffffffffffffffffffffffffffffffffffffffff160361065857610656610a7a565b505b5f805f3373ffffffffffffffffffffffffffffffffffffffff1673ffffffffffffffffffffffffffffffffffffffff1681526020019081526020015f205f9054906101000a900473ffffffffffffffffffffffffffffffffffffffff1690506106ca825f015133838560600151610ca6565b8073ffffffffffffffffffffffffffffffffffffffff1663a36cc4cd835f015184602001518560400151866060015187608001518860a001518960c001516040518863ffffffff1660e01b815260040161072a979695949392919061195d565b5f604051808303815f87803b158015610741575f80fd5b505af1158015610753573d5f803e3d5ffd5b505050505050565b5f805f3373ffffffffffffffffffffffffffffffffffffffff1673ffffffffffffffffffffffffffffffffffffffff1681526020019081526020015f205f9054906101000a900473ffffffffffffffffffffffffffffffffffffffff1690505f73ffffffffffffffffffffffffffffffffffffffff168173ffffffffffffffffffffffffffffffffffffffff1603610828576040517f08c379a000000000000000000000000000000000000000000000000000000000815260040161081f906118e7565b60405180910390fd5b61083c826020015133838560400151610ca6565b8073ffffffffffffffffffffffffffffffffffffffff16636b5e7305835f01518460200151856040015186606001516040518563ffffffff1660e01b815260040161088a94939291906119d1565b5f604051808303815f87803b1580156108a1575f80fd5b505af11580156108b3573d5f803e3d5ffd5b505050505050565b5f805f3373ffffffffffffffffffffffffffffffffffffffff1673ffffffffffffffffffffffffffffffffffffffff1681526020019081526020015f205f9054906101000a900473ffffffffffffffffffffffffffffffffffffffff1690505f73ffffffffffffffffffffffffffffffffffffffff168173ffffffffffffffffffffffffffffffffffffffff1603610988576040517f08c379a000000000000000000000000000000000000000000000000000000000815260040161097f906118e7565b60405180910390fd5b61099c826020015133838560800151610ca6565b8073ffffffffffffffffffffffffffffffffffffffff1663b5c8b759835f015184602001518560400151866060015187608001518860a001516040518763ffffffff1660e01b81526004016109f696959493929190611a1b565b5f604051808303815f87803b158015610a0d575f80fd5b505af1158015610a1f573d5f803e3d5ffd5b505050505050565b7f000000000000000000000000000000000000000000000000000000000000000081565b5f602052805f5260405f205f915054906101000a900473ffffffffffffffffffffffffffffffffffffffff1681565b5f8073ffffffffffffffffffffffffffffffffffffffff165f803373ffffffffffffffffffffffffffffffffffffffff1673ffffffffffffffffffffffffffffffffffffffff1681526020019081526020015f205f9054906101000a900473ffffffffffffffffffffffffffffffffffffffff1673ffffffffffffffffffffffffffffffffffffffff1614610b44576040517f08c379a0000000000000000000000000000000000000000000000000000000008152600401610b3b90611acb565b60405180910390fd5b5f7f000000000000000000000000000000000000000000000000000000000000000060601b90506040517f3d602d80600a3d3981f3363d3d373d3d3d363d7300000000000000000000000081528160148201527f5af43d82803e903d91602b57fd5bf3000000000000000000000000000000000060288201526037815ff0925082610bcd575f80fd5b50815f803373ffffffffffffffffffffffffffffffffffffffff1673ffffffffffffffffffffffffffffffffffffffff1681526020019081526020015f205f6101000a81548173ffffffffffffffffffffffffffffffffffffffff021916908373ffffffffffffffffffffffffffffffffffffffff1602179055508173ffffffffffffffffffffffffffffffffffffffff163373ffffffffffffffffffffffffffffffffffffffff167fac631f3001b55ea1509cf3d7e74898f85392a61a76e8149181ae1259622dabc860405160405180910390a35090565b5f808573ffffffffffffffffffffffffffffffffffffffff166323b872dd60e01b868686604051602401610cdc93929190611ae9565b604051602081830303815290604052907bffffffffffffffffffffffffffffffffffffffffffffffffffffffff19166020820180517bffffffffffffffffffffffffffffffffffffffffffffffffffffffff8381831617835250505050604051610d469190611b8a565b5f604051808303815f865af19150503d805f8114610d7f576040519150601f19603f3d011682016040523d82523d5f602084013e610d84565b606091505b5091509150818015610db157505f81511480610db0575080806020019051810190610daf9190611bd5565b5b5b610df0576040517f08c379a0000000000000000000000000000000000000000000000000000000008152600401610de790611c4a565b60405180910390fd5b505050505050565b5f604051905090565b5f80fd5b5f80fd5b5f80fd5b5f601f19601f8301169050919050565b7f4e487b71000000000000000000000000000000000000000000000000000000005f52604160045260245ffd5b610e5382610e0d565b810181811067ffffffffffffffff82111715610e7257610e71610e1d565b5b80604052505050565b5f610e84610df8565b9050610e908282610e4a565b919050565b5f80fd5b5f73ffffffffffffffffffffffffffffffffffffffff82169050919050565b5f610ec282610e99565b9050919050565b610ed281610eb8565b8114610edc575f80fd5b50565b5f81359050610eed81610ec9565b92915050565b5f819050919050565b610f0581610ef3565b8114610f0f575f80fd5b50565b5f81359050610f2081610efc565b92915050565b5f819050919050565b610f3881610f26565b8114610f42575f80fd5b50565b5f81359050610f5381610f2f565b92915050565b5f80fd5b5f67ffffffffffffffff821115610f7757610f76610e1d565b5b602082029050602081019050919050565b5f80fd5b5f62ffffff82169050919050565b610fa381610f8c565b8114610fad575f80fd5b50565b5f81359050610fbe81610f9a565b92915050565b5f610fd6610fd184610f5d565b610e7b565b90508083825260208201905060208402830185811115610ff957610ff8610f88565b5b835b81811015611022578061100e8882610fb0565b845260208401935050602081019050610ffb565b5050509392505050565b5f82601f8301126110405761103f610f59565b5b8135611050848260208601610fc4565b91505092915050565b5f60e0828403121561106e5761106d610e09565b5b61107860e0610e7b565b90505f61108784828501610edf565b5f83015250602061109a84828501610edf565b60208301525060406110ae84828501610edf565b60408301525060606110c284828501610f12565b60608301525060806110d684828501610f45565b60808301525060a06110ea84828501610edf565b60a08301525060c082013567ffffffffffffffff81111561110e5761110d610e95565b5b61111a8482850161102c565b60c08301525092915050565b5f6020828403121561113b5761113a610e01565b5b5f82013567ffffffffffffffff81111561115857611157610e05565b5b61116484828501611059565b91505092915050565b5f60a0828403121561118257611181610e09565b5b61118c60a0610e7b565b90505f61119b84828501610edf565b5f8301525060206111ae84828501610edf565b60208301525060406111c284828501610f45565b60408301525060606111d684828501610edf565b606083015250608082013567ffffffffffffffff8111156111fa576111f9610e95565b5b6112068482850161102c565b60808301525092915050565b5f6020828403121561122757611226610e01565b5b5f82013567ffffffffffffffff81111561124457611243610e05565b5b6112508482850161116d565b91505092915050565b5f60a0828403121561126e5761126d610e09565b5b61127860a0610e7b565b90505f61128784828501610edf565b5f83015250602061129a84828501610edf565b60208301525060406112ae84828501610f12565b60408301525060606112c284828501610edf565b606083015250608082013567ffffffffffffffff8111156112e6576112e5610e95565b5b6112f28482850161102c565b60808301525092915050565b5f6020828403121561131357611312610e01565b5b5f82013567ffffffffffffffff8111156113305761132f610e05565b5b61133c84828501611259565b91505092915050565b5f60e0828403121561135a57611359610e09565b5b61136460e0610e7b565b90505f61137384828501610edf565b5f83015250602061138684828501610edf565b602083015250604061139a84828501610edf565b60408301525060606113ae84828501610f12565b60608301525060806113c284828501610f12565b60808301525060a06113d684828501610edf565b60a08301525060c082013567ffffffffffffffff8111156113fa576113f9610e95565b5b6114068482850161102c565b60c08301525092915050565b5f6020828403121561142757611426610e01565b5b5f82013567ffffffffffffffff81111561144457611443610e05565b5b61145084828501611345565b91505092915050565b5f6080828403121561146e5761146d610e09565b5b6114786080610e7b565b90505f61148784828501610edf565b5f83015250602061149a84828501610edf565b60208301525060406114ae84828501610f12565b604083015250606082013567ffffffffffffffff8111156114d2576114d1610e95565b5b6114de8482850161102c565b60608301525092915050565b5f602082840312156114ff576114fe610e01565b5b5f82013567ffffffffffffffff81111561151c5761151b610e05565b5b61152884828501611459565b91505092915050565b5f60c0828403121561154657611545610e09565b5b61155060c0610e7b565b90505f61155f84828501610edf565b5f83015250602061157284828501610edf565b602083015250604061158684828501610edf565b604083015250606061159a84828501610edf565b60608301525060806115ae84828501610f12565b60808301525060a082013567ffffffffffffffff8111156115d2576115d1610e95565b5b6115de8482850161102c565b60a08301525092915050565b5f602082840312156115ff576115fe610e01565b5b5f82013567ffffffffffffffff81111561161c5761161b610e05565b5b61162884828501611531565b91505092915050565b61163a81610eb8565b82525050565b5f6020820190506116535f830184611631565b92915050565b5f6020828403121561166e5761166d610e01565b5b5f61167b84828501610edf565b91505092915050565b61168d81610ef3565b82525050565b61169c81610f26565b82525050565b5f81519050919050565b5f82825260208201905092915050565b5f819050602082019050919050565b6116d481610f8c565b82525050565b5f6116e583836116cb565b60208301905092915050565b5f602082019050919050565b5f611707826116a2565b61171181856116ac565b935061171c836116bc565b805f5b8381101561174c57815161173388826116da565b975061173e836116f1565b92505060018101905061171f565b5085935050505092915050565b5f60e08201905061176c5f83018a611631565b6117796020830189611631565b6117866040830188611631565b6117936060830187611684565b6117a06080830186611693565b6117ad60a0830185611631565b81810360c08301526117bf81846116fd565b905098975050505050505050565b5f82825260208201905092915050565b7f4e6f20706f736974696f6e20617661696c61626c6521000000000000000000005f82015250565b5f6118116016836117cd565b915061181c826117dd565b602082019050919050565b5f6020820190508181035f83015261183e81611805565b9050919050565b5f60a0820190506118585f830188611631565b6118656020830187611631565b6118726040830186611693565b61187f6060830185611631565b818103608083015261189181846116fd565b90509695505050505050565b7f4e6f20626f72726f7720706f736974696f6e20617661696c61626c65210000005f82015250565b5f6118d1601d836117cd565b91506118dc8261189d565b602082019050919050565b5f6020820190508181035f8301526118fe816118c5565b9050919050565b5f60a0820190506119185f830188611631565b6119256020830187611631565b6119326040830186611684565b61193f6060830185611631565b818103608083015261195181846116fd565b90509695505050505050565b5f60e0820190506119705f83018a611631565b61197d6020830189611631565b61198a6040830188611631565b6119976060830187611684565b6119a46080830186611684565b6119b160a0830185611631565b81810360c08301526119c381846116fd565b905098975050505050505050565b5f6080820190506119e45f830187611631565b6119f16020830186611631565b6119fe6040830185611684565b8181036060830152611a1081846116fd565b905095945050505050565b5f60c082019050611a2e5f830189611631565b611a3b6020830188611631565b611a486040830187611631565b611a556060830186611631565b611a626080830185611684565b81810360a0830152611a7481846116fd565b9050979650505050505050565b7f4163636f756e7420616c726561647920657869737473000000000000000000005f82015250565b5f611ab56016836117cd565b9150611ac082611a81565b602082019050919050565b5f6020820190508181035f830152611ae281611aa9565b9050919050565b5f606082019050611afc5f830186611631565b611b096020830185611631565b611b166040830184611684565b949350505050565b5f81519050919050565b5f81905092915050565b5f5b83811015611b4f578082015181840152602081019050611b34565b5f8484015250505050565b5f611b6482611b1e565b611b6e8185611b28565b9350611b7e818560208601611b32565b80840191505092915050565b5f611b958284611b5a565b915081905092915050565b5f8115159050919050565b611bb481611ba0565b8114611bbe575f80fd5b50565b5f81519050611bcf81611bab565b92915050565b5f60208284031215611bea57611be9610e01565b5b5f611bf784828501611bc1565b91505092915050565b7f53544600000000000000000000000000000000000000000000000000000000005f82015250565b5f611c346003836117cd565b9150611c3f82611c00565b602082019050919050565b5f6020820190508181035f830152611c6181611c28565b905091905056fea26469706673582212208d1a31290fa6ed825a06a3fbedce0344d816b0b8fe308f5c60037df4c5fd914664736f6c63430008140033",
			"opcodes": "PUSH1 0xA0 PUSH1 0x40 MSTORE CALLVALUE DUP1 ISZERO PUSH3 0x10 JUMPI PUSH0 DUP1 REVERT JUMPDEST POP PUSH1 0x40 MLOAD PUSH3 0x1EB3 CODESIZE SUB DUP1 PUSH3 0x1EB3 DUP4 CODECOPY DUP2 DUP2 ADD PUSH1 0x40 MSTORE DUP2 ADD SWAP1 PUSH3 0x36 SWAP2 SWAP1 PUSH3 0x147 JUMP JUMPDEST PUSH0 PUSH20 0xFFFFFFFFFFFFFFFFFFFFFFFFFFFFFFFFFFFFFFFF AND DUP2 PUSH20 0xFFFFFFFFFFFFFFFFFFFFFFFFFFFFFFFFFFFFFFFF AND SUB PUSH3 0xA7 JUMPI PUSH1 0x40 MLOAD PUSH32 0x8C379A000000000000000000000000000000000000000000000000000000000 DUP2 MSTORE PUSH1 0x4 ADD PUSH3 0x9E SWAP1 PUSH3 0x1D5 JUMP JUMPDEST PUSH1 0x40 MLOAD DUP1 SWAP2 SUB SWAP1 REVERT JUMPDEST DUP1 PUSH20 0xFFFFFFFFFFFFFFFFFFFFFFFFFFFFFFFFFFFFFFFF AND PUSH1 0x80 DUP2 PUSH20 0xFFFFFFFFFFFFFFFFFFFFFFFFFFFFFFFFFFFFFFFF AND DUP2 MSTORE POP POP POP PUSH3 0x1F5 JUMP JUMPDEST PUSH0 DUP1 REVERT JUMPDEST PUSH0 PUSH20 0xFFFFFFFFFFFFFFFFFFFFFFFFFFFFFFFFFFFFFFFF DUP3 AND SWAP1 POP SWAP2 SWAP1 POP JUMP JUMPDEST PUSH0 PUSH3 0x111 DUP3 PUSH3 0xE6 JUMP JUMPDEST SWAP1 POP SWAP2 SWAP1 POP JUMP JUMPDEST PUSH3 0x123 DUP2 PUSH3 0x105 JUMP JUMPDEST DUP2 EQ PUSH3 0x12E JUMPI PUSH0 DUP1 REVERT JUMPDEST POP JUMP JUMPDEST PUSH0 DUP2 MLOAD SWAP1 POP PUSH3 0x141 DUP2 PUSH3 0x118 JUMP JUMPDEST SWAP3 SWAP2 POP POP JUMP JUMPDEST PUSH0 PUSH1 0x20 DUP3 DUP5 SUB SLT ISZERO PUSH3 0x15F JUMPI PUSH3 0x15E PUSH3 0xE2 JUMP JUMPDEST JUMPDEST PUSH0 PUSH3 0x16E DUP5 DUP3 DUP6 ADD PUSH3 0x131 JUMP JUMPDEST SWAP2 POP POP SWAP3 SWAP2 POP POP JUMP JUMPDEST PUSH0 DUP3 DUP3 MSTORE PUSH1 0x20 DUP3 ADD SWAP1 POP SWAP3 SWAP2 POP POP JUMP JUMPDEST PUSH32 0x7A65726F20616464726573732070726F76696465640000000000000000000000 PUSH0 DUP3 ADD MSTORE POP JUMP JUMPDEST PUSH0 PUSH3 0x1BD PUSH1 0x15 DUP4 PUSH3 0x177 JUMP JUMPDEST SWAP2 POP PUSH3 0x1CA DUP3 PUSH3 0x187 JUMP JUMPDEST PUSH1 0x20 DUP3 ADD SWAP1 POP SWAP2 SWAP1 POP JUMP JUMPDEST PUSH0 PUSH1 0x20 DUP3 ADD SWAP1 POP DUP2 DUP2 SUB PUSH0 DUP4 ADD MSTORE PUSH3 0x1EE DUP2 PUSH3 0x1AF JUMP JUMPDEST SWAP1 POP SWAP2 SWAP1 POP JUMP JUMPDEST PUSH1 0x80 MLOAD PUSH2 0x1C9E PUSH3 0x215 PUSH0 CODECOPY PUSH0 DUP2 DUP2 PUSH2 0xA29 ADD MSTORE PUSH2 0xB47 ADD MSTORE PUSH2 0x1C9E PUSH0 RETURN INVALID PUSH1 0x80 PUSH1 0x40 MSTORE CALLVALUE DUP1 ISZERO PUSH2 0xF JUMPI PUSH0 DUP1 REVERT JUMPDEST POP PUSH1 0x4 CALLDATASIZE LT PUSH2 0x86 JUMPI PUSH0 CALLDATALOAD PUSH1 0xE0 SHR DUP1 PUSH4 0x4D37C3B7 GT PUSH2 0x59 JUMPI DUP1 PUSH4 0x4D37C3B7 EQ PUSH2 0xFA JUMPI DUP1 PUSH4 0x7EDA2AB1 EQ PUSH2 0x116 JUMPI DUP1 PUSH4 0x9C1FCC4C EQ PUSH2 0x132 JUMPI DUP1 PUSH4 0xFAA9EFE3 EQ PUSH2 0x150 JUMPI PUSH2 0x86 JUMP JUMPDEST DUP1 PUSH4 0x18B95B8B EQ PUSH2 0x8A JUMPI DUP1 PUSH4 0x2B3BA5D9 EQ PUSH2 0xA6 JUMPI DUP1 PUSH4 0x35E164D0 EQ PUSH2 0xC2 JUMPI DUP1 PUSH4 0x491AAED1 EQ PUSH2 0xDE JUMPI JUMPDEST PUSH0 DUP1 REVERT JUMPDEST PUSH2 0xA4 PUSH1 0x4 DUP1 CALLDATASIZE SUB DUP2 ADD SWAP1 PUSH2 0x9F SWAP2 SWAP1 PUSH2 0x1126 JUMP JUMPDEST PUSH2 0x180 JUMP JUMPDEST STOP JUMPDEST PUSH2 0xC0 PUSH1 0x4 DUP1 CALLDATASIZE SUB DUP2 ADD SWAP1 PUSH2 0xBB SWAP2 SWAP1 PUSH2 0x1212 JUMP JUMPDEST PUSH2 0x31C JUMP JUMPDEST STOP JUMPDEST PUSH2 0xDC PUSH1 0x4 DUP1 CALLDATASIZE SUB DUP2 ADD SWAP1 PUSH2 0xD7 SWAP2 SWAP1 PUSH2 0x12FE JUMP JUMPDEST PUSH2 0x46E JUMP JUMPDEST STOP JUMPDEST PUSH2 0xF8 PUSH1 0x4 DUP1 CALLDATASIZE SUB DUP2 ADD SWAP1 PUSH2 0xF3 SWAP2 SWAP1 PUSH2 0x1412 JUMP JUMPDEST PUSH2 0x5C0 JUMP JUMPDEST STOP JUMPDEST PUSH2 0x114 PUSH1 0x4 DUP1 CALLDATASIZE SUB DUP2 ADD SWAP1 PUSH2 0x10F SWAP2 SWAP1 PUSH2 0x14EA JUMP JUMPDEST PUSH2 0x75B JUMP JUMPDEST STOP JUMPDEST PUSH2 0x130 PUSH1 0x4 DUP1 CALLDATASIZE SUB DUP2 ADD SWAP1 PUSH2 0x12B SWAP2 SWAP1 PUSH2 0x15EA JUMP JUMPDEST PUSH2 0x8BB JUMP JUMPDEST STOP JUMPDEST PUSH2 0x13A PUSH2 0xA27 JUMP JUMPDEST PUSH1 0x40 MLOAD PUSH2 0x147 SWAP2 SWAP1 PUSH2 0x1640 JUMP JUMPDEST PUSH1 0x40 MLOAD DUP1 SWAP2 SUB SWAP1 RETURN JUMPDEST PUSH2 0x16A PUSH1 0x4 DUP1 CALLDATASIZE SUB DUP2 ADD SWAP1 PUSH2 0x165 SWAP2 SWAP1 PUSH2 0x1659 JUMP JUMPDEST PUSH2 0xA4B JUMP JUMPDEST PUSH1 0x40 MLOAD PUSH2 0x177 SWAP2 SWAP1 PUSH2 0x1640 JUMP JUMPDEST PUSH1 0x40 MLOAD DUP1 SWAP2 SUB SWAP1 RETURN JUMPDEST PUSH0 PUSH20 0xFFFFFFFFFFFFFFFFFFFFFFFFFFFFFFFFFFFFFFFF AND PUSH0 DUP1 CALLER PUSH20 0xFFFFFFFFFFFFFFFFFFFFFFFFFFFFFFFFFFFFFFFF AND PUSH20 0xFFFFFFFFFFFFFFFFFFFFFFFFFFFFFFFFFFFFFFFF AND DUP2 MSTORE PUSH1 0x20 ADD SWAP1 DUP2 MSTORE PUSH1 0x20 ADD PUSH0 KECCAK256 PUSH0 SWAP1 SLOAD SWAP1 PUSH2 0x100 EXP SWAP1 DIV PUSH20 0xFFFFFFFFFFFFFFFFFFFFFFFFFFFFFFFFFFFFFFFF AND PUSH20 0xFFFFFFFFFFFFFFFFFFFFFFFFFFFFFFFFFFFFFFFF AND SUB PUSH2 0x218 JUMPI PUSH2 0x216 PUSH2 0xA7A JUMP JUMPDEST POP JUMPDEST PUSH0 DUP1 PUSH0 CALLER PUSH20 0xFFFFFFFFFFFFFFFFFFFFFFFFFFFFFFFFFFFFFFFF AND PUSH20 0xFFFFFFFFFFFFFFFFFFFFFFFFFFFFFFFFFFFFFFFF AND DUP2 MSTORE PUSH1 0x20 ADD SWAP1 DUP2 MSTORE PUSH1 0x20 ADD PUSH0 KECCAK256 PUSH0 SWAP1 SLOAD SWAP1 PUSH2 0x100 EXP SWAP1 DIV PUSH20 0xFFFFFFFFFFFFFFFFFFFFFFFFFFFFFFFFFFFFFFFF AND SWAP1 POP PUSH2 0x28B DUP3 PUSH1 0x20 ADD MLOAD CALLER DUP4 DUP6 PUSH1 0x60 ADD MLOAD PUSH2 0xCA6 JUMP JUMPDEST DUP1 PUSH20 0xFFFFFFFFFFFFFFFFFFFFFFFFFFFFFFFFFFFFFFFF AND PUSH4 0x315A1451 DUP4 PUSH0 ADD MLOAD DUP5 PUSH1 0x20 ADD MLOAD DUP6 PUSH1 0x40 ADD MLOAD DUP7 PUSH1 0x60 ADD MLOAD DUP8 PUSH1 0x80 ADD MLOAD DUP9 PUSH1 0xA0 ADD MLOAD DUP10 PUSH1 0xC0 ADD MLOAD PUSH1 0x40 MLOAD DUP9 PUSH4 0xFFFFFFFF AND PUSH1 0xE0 SHL DUP2 MSTORE PUSH1 0x4 ADD PUSH2 0x2EB SWAP8 SWAP7 SWAP6 SWAP5 SWAP4 SWAP3 SWAP2 SWAP1 PUSH2 0x1759 JUMP JUMPDEST PUSH0 PUSH1 0x40 MLOAD DUP1 DUP4 SUB DUP2 PUSH0 DUP8 DUP1 EXTCODESIZE ISZERO DUP1 ISZERO PUSH2 0x302 JUMPI PUSH0 DUP1 REVERT JUMPDEST POP GAS CALL ISZERO DUP1 ISZERO PUSH2 0x314 JUMPI RETURNDATASIZE PUSH0 DUP1 RETURNDATACOPY RETURNDATASIZE PUSH0 REVERT JUMPDEST POP POP POP POP POP POP JUMP JUMPDEST PUSH0 DUP1 PUSH0 CALLER PUSH20 0xFFFFFFFFFFFFFFFFFFFFFFFFFFFFFFFFFFFFFFFF AND PUSH20 0xFFFFFFFFFFFFFFFFFFFFFFFFFFFFFFFFFFFFFFFF AND DUP2 MSTORE PUSH1 0x20 ADD SWAP1 DUP2 MSTORE PUSH1 0x20 ADD PUSH0 KECCAK256 PUSH0 SWAP1 SLOAD SWAP1 PUSH2 0x100 EXP SWAP1 DIV PUSH20 0xFFFFFFFFFFFFFFFFFFFFFFFFFFFFFFFFFFFFFFFF AND SWAP1 POP PUSH0 PUSH20 0xFFFFFFFFFFFFFFFFFFFFFFFFFFFFFFFFFFFFFFFF AND DUP2 PUSH20 0xFFFFFFFFFFFFFFFFFFFFFFFFFFFFFFFFFFFFFFFF AND SUB PUSH2 0x3E9 JUMPI PUSH1 0x40 MLOAD PUSH32 0x8C379A000000000000000000000000000000000000000000000000000000000 DUP2 MSTORE PUSH1 0x4 ADD PUSH2 0x3E0 SWAP1 PUSH2 0x1827 JUMP JUMPDEST PUSH1 0x40 MLOAD DUP1 SWAP2 SUB SWAP1 REVERT JUMPDEST DUP1 PUSH20 0xFFFFFFFFFFFFFFFFFFFFFFFFFFFFFFFFFFFFFFFF AND PUSH4 0x73E8F1FA DUP4 PUSH0 ADD MLOAD DUP5 PUSH1 0x20 ADD MLOAD DUP6 PUSH1 0x40 ADD MLOAD DUP7 PUSH1 0x60 ADD MLOAD DUP8 PUSH1 0x80 ADD MLOAD PUSH1 0x40 MLOAD DUP7 PUSH4 0xFFFFFFFF AND PUSH1 0xE0 SHL DUP2 MSTORE PUSH1 0x4 ADD PUSH2 0x43D SWAP6 SWAP5 SWAP4 SWAP3 SWAP2 SWAP1 PUSH2 0x1845 JUMP JUMPDEST PUSH0 PUSH1 0x40 MLOAD DUP1 DUP4 SUB DUP2 PUSH0 DUP8 DUP1 EXTCODESIZE ISZERO DUP1 ISZERO PUSH2 0x454 JUMPI PUSH0 DUP1 REVERT JUMPDEST POP GAS CALL ISZERO DUP1 ISZERO PUSH2 0x466 JUMPI RETURNDATASIZE PUSH0 DUP1 RETURNDATACOPY RETURNDATASIZE PUSH0 REVERT JUMPDEST POP POP POP POP POP POP JUMP JUMPDEST PUSH0 DUP1 PUSH0 CALLER PUSH20 0xFFFFFFFFFFFFFFFFFFFFFFFFFFFFFFFFFFFFFFFF AND PUSH20 0xFFFFFFFFFFFFFFFFFFFFFFFFFFFFFFFFFFFFFFFF AND DUP2 MSTORE PUSH1 0x20 ADD SWAP1 DUP2 MSTORE PUSH1 0x20 ADD PUSH0 KECCAK256 PUSH0 SWAP1 SLOAD SWAP1 PUSH2 0x100 EXP SWAP1 DIV PUSH20 0xFFFFFFFFFFFFFFFFFFFFFFFFFFFFFFFFFFFFFFFF AND SWAP1 POP PUSH0 PUSH20 0xFFFFFFFFFFFFFFFFFFFFFFFFFFFFFFFFFFFFFFFF AND DUP2 PUSH20 0xFFFFFFFFFFFFFFFFFFFFFFFFFFFFFFFFFFFFFFFF AND SUB PUSH2 0x53B JUMPI PUSH1 0x40 MLOAD PUSH32 0x8C379A000000000000000000000000000000000000000000000000000000000 DUP2 MSTORE PUSH1 0x4 ADD PUSH2 0x532 SWAP1 PUSH2 0x18E7 JUMP JUMPDEST PUSH1 0x40 MLOAD DUP1 SWAP2 SUB SWAP1 REVERT JUMPDEST DUP1 PUSH20 0xFFFFFFFFFFFFFFFFFFFFFFFFFFFFFFFFFFFFFFFF AND PUSH4 0xBAECBFCD DUP4 PUSH0 ADD MLOAD DUP5 PUSH1 0x20 ADD MLOAD DUP6 PUSH1 0x40 ADD MLOAD DUP7 PUSH1 0x60 ADD MLOAD DUP8 PUSH1 0x80 ADD MLOAD PUSH1 0x40 MLOAD DUP7 PUSH4 0xFFFFFFFF AND PUSH1 0xE0 SHL DUP2 MSTORE PUSH1 0x4 ADD PUSH2 0x58F SWAP6 SWAP5 SWAP4 SWAP3 SWAP2 SWAP1 PUSH2 0x1905 JUMP JUMPDEST PUSH0 PUSH1 0x40 MLOAD DUP1 DUP4 SUB DUP2 PUSH0 DUP8 DUP1 EXTCODESIZE ISZERO DUP1 ISZERO PUSH2 0x5A6 JUMPI PUSH0 DUP1 REVERT JUMPDEST POP GAS CALL ISZERO DUP1 ISZERO PUSH2 0x5B8 JUMPI RETURNDATASIZE PUSH0 DUP1 RETURNDATACOPY RETURNDATASIZE PUSH0 REVERT JUMPDEST POP POP POP POP POP POP JUMP JUMPDEST PUSH0 PUSH20 0xFFFFFFFFFFFFFFFFFFFFFFFFFFFFFFFFFFFFFFFF AND PUSH0 DUP1 CALLER PUSH20 0xFFFFFFFFFFFFFFFFFFFFFFFFFFFFFFFFFFFFFFFF AND PUSH20 0xFFFFFFFFFFFFFFFFFFFFFFFFFFFFFFFFFFFFFFFF AND DUP2 MSTORE PUSH1 0x20 ADD SWAP1 DUP2 MSTORE PUSH1 0x20 ADD PUSH0 KECCAK256 PUSH0 SWAP1 SLOAD SWAP1 PUSH2 0x100 EXP SWAP1 DIV PUSH20 0xFFFFFFFFFFFFFFFFFFFFFFFFFFFFFFFFFFFFFFFF AND PUSH20 0xFFFFFFFFFFFFFFFFFFFFFFFFFFFFFFFFFFFFFFFF AND SUB PUSH2 0x658 JUMPI PUSH2 0x656 PUSH2 0xA7A JUMP JUMPDEST POP JUMPDEST PUSH0 DUP1 PUSH0 CALLER PUSH20 0xFFFFFFFFFFFFFFFFFFFFFFFFFFFFFFFFFFFFFFFF AND PUSH20 0xFFFFFFFFFFFFFFFFFFFFFFFFFFFFFFFFFFFFFFFF AND DUP2 MSTORE PUSH1 0x20 ADD SWAP1 DUP2 MSTORE PUSH1 0x20 ADD PUSH0 KECCAK256 PUSH0 SWAP1 SLOAD SWAP1 PUSH2 0x100 EXP SWAP1 DIV PUSH20 0xFFFFFFFFFFFFFFFFFFFFFFFFFFFFFFFFFFFFFFFF AND SWAP1 POP PUSH2 0x6CA DUP3 PUSH0 ADD MLOAD CALLER DUP4 DUP6 PUSH1 0x60 ADD MLOAD PUSH2 0xCA6 JUMP JUMPDEST DUP1 PUSH20 0xFFFFFFFFFFFFFFFFFFFFFFFFFFFFFFFFFFFFFFFF AND PUSH4 0xA36CC4CD DUP4 PUSH0 ADD MLOAD DUP5 PUSH1 0x20 ADD MLOAD DUP6 PUSH1 0x40 ADD MLOAD DUP7 PUSH1 0x60 ADD MLOAD DUP8 PUSH1 0x80 ADD MLOAD DUP9 PUSH1 0xA0 ADD MLOAD DUP10 PUSH1 0xC0 ADD MLOAD PUSH1 0x40 MLOAD DUP9 PUSH4 0xFFFFFFFF AND PUSH1 0xE0 SHL DUP2 MSTORE PUSH1 0x4 ADD PUSH2 0x72A SWAP8 SWAP7 SWAP6 SWAP5 SWAP4 SWAP3 SWAP2 SWAP1 PUSH2 0x195D JUMP JUMPDEST PUSH0 PUSH1 0x40 MLOAD DUP1 DUP4 SUB DUP2 PUSH0 DUP8 DUP1 EXTCODESIZE ISZERO DUP1 ISZERO PUSH2 0x741 JUMPI PUSH0 DUP1 REVERT JUMPDEST POP GAS CALL ISZERO DUP1 ISZERO PUSH2 0x753 JUMPI RETURNDATASIZE PUSH0 DUP1 RETURNDATACOPY RETURNDATASIZE PUSH0 REVERT JUMPDEST POP POP POP POP POP POP JUMP JUMPDEST PUSH0 DUP1 PUSH0 CALLER PUSH20 0xFFFFFFFFFFFFFFFFFFFFFFFFFFFFFFFFFFFFFFFF AND PUSH20 0xFFFFFFFFFFFFFFFFFFFFFFFFFFFFFFFFFFFFFFFF AND DUP2 MSTORE PUSH1 0x20 ADD SWAP1 DUP2 MSTORE PUSH1 0x20 ADD PUSH0 KECCAK256 PUSH0 SWAP1 SLOAD SWAP1 PUSH2 0x100 EXP SWAP1 DIV PUSH20 0xFFFFFFFFFFFFFFFFFFFFFFFFFFFFFFFFFFFFFFFF AND SWAP1 POP PUSH0 PUSH20 0xFFFFFFFFFFFFFFFFFFFFFFFFFFFFFFFFFFFFFFFF AND DUP2 PUSH20 0xFFFFFFFFFFFFFFFFFFFFFFFFFFFFFFFFFFFFFFFF AND SUB PUSH2 0x828 JUMPI PUSH1 0x40 MLOAD PUSH32 0x8C379A000000000000000000000000000000000000000000000000000000000 DUP2 MSTORE PUSH1 0x4 ADD PUSH2 0x81F SWAP1 PUSH2 0x18E7 JUMP JUMPDEST PUSH1 0x40 MLOAD DUP1 SWAP2 SUB SWAP1 REVERT JUMPDEST PUSH2 0x83C DUP3 PUSH1 0x20 ADD MLOAD CALLER DUP4 DUP6 PUSH1 0x40 ADD MLOAD PUSH2 0xCA6 JUMP JUMPDEST DUP1 PUSH20 0xFFFFFFFFFFFFFFFFFFFFFFFFFFFFFFFFFFFFFFFF AND PUSH4 0x6B5E7305 DUP4 PUSH0 ADD MLOAD DUP5 PUSH1 0x20 ADD MLOAD DUP6 PUSH1 0x40 ADD MLOAD DUP7 PUSH1 0x60 ADD MLOAD PUSH1 0x40 MLOAD DUP6 PUSH4 0xFFFFFFFF AND PUSH1 0xE0 SHL DUP2 MSTORE PUSH1 0x4 ADD PUSH2 0x88A SWAP5 SWAP4 SWAP3 SWAP2 SWAP1 PUSH2 0x19D1 JUMP JUMPDEST PUSH0 PUSH1 0x40 MLOAD DUP1 DUP4 SUB DUP2 PUSH0 DUP8 DUP1 EXTCODESIZE ISZERO DUP1 ISZERO PUSH2 0x8A1 JUMPI PUSH0 DUP1 REVERT JUMPDEST POP GAS CALL ISZERO DUP1 ISZERO PUSH2 0x8B3 JUMPI RETURNDATASIZE PUSH0 DUP1 RETURNDATACOPY RETURNDATASIZE PUSH0 REVERT JUMPDEST POP POP POP POP POP POP JUMP JUMPDEST PUSH0 DUP1 PUSH0 CALLER PUSH20 0xFFFFFFFFFFFFFFFFFFFFFFFFFFFFFFFFFFFFFFFF AND PUSH20 0xFFFFFFFFFFFFFFFFFFFFFFFFFFFFFFFFFFFFFFFF AND DUP2 MSTORE PUSH1 0x20 ADD SWAP1 DUP2 MSTORE PUSH1 0x20 ADD PUSH0 KECCAK256 PUSH0 SWAP1 SLOAD SWAP1 PUSH2 0x100 EXP SWAP1 DIV PUSH20 0xFFFFFFFFFFFFFFFFFFFFFFFFFFFFFFFFFFFFFFFF AND SWAP1 POP PUSH0 PUSH20 0xFFFFFFFFFFFFFFFFFFFFFFFFFFFFFFFFFFFFFFFF AND DUP2 PUSH20 0xFFFFFFFFFFFFFFFFFFFFFFFFFFFFFFFFFFFFFFFF AND SUB PUSH2 0x988 JUMPI PUSH1 0x40 MLOAD PUSH32 0x8C379A000000000000000000000000000000000000000000000000000000000 DUP2 MSTORE PUSH1 0x4 ADD PUSH2 0x97F SWAP1 PUSH2 0x18E7 JUMP JUMPDEST PUSH1 0x40 MLOAD DUP1 SWAP2 SUB SWAP1 REVERT JUMPDEST PUSH2 0x99C DUP3 PUSH1 0x20 ADD MLOAD CALLER DUP4 DUP6 PUSH1 0x80 ADD MLOAD PUSH2 0xCA6 JUMP JUMPDEST DUP1 PUSH20 0xFFFFFFFFFFFFFFFFFFFFFFFFFFFFFFFFFFFFFFFF AND PUSH4 0xB5C8B759 DUP4 PUSH0 ADD MLOAD DUP5 PUSH1 0x20 ADD MLOAD DUP6 PUSH1 0x40 ADD MLOAD DUP7 PUSH1 0x60 ADD MLOAD DUP8 PUSH1 0x80 ADD MLOAD DUP9 PUSH1 0xA0 ADD MLOAD PUSH1 0x40 MLOAD DUP8 PUSH4 0xFFFFFFFF AND PUSH1 0xE0 SHL DUP2 MSTORE PUSH1 0x4 ADD PUSH2 0x9F6 SWAP7 SWAP6 SWAP5 SWAP4 SWAP3 SWAP2 SWAP1 PUSH2 0x1A1B JUMP JUMPDEST PUSH0 PUSH1 0x40 MLOAD DUP1 DUP4 SUB DUP2 PUSH0 DUP8 DUP1 EXTCODESIZE ISZERO DUP1 ISZERO PUSH2 0xA0D JUMPI PUSH0 DUP1 REVERT JUMPDEST POP GAS CALL ISZERO DUP1 ISZERO PUSH2 0xA1F JUMPI RETURNDATASIZE PUSH0 DUP1 RETURNDATACOPY RETURNDATASIZE PUSH0 REVERT JUMPDEST POP POP POP POP POP POP JUMP JUMPDEST PUSH32 0x0 DUP2 JUMP JUMPDEST PUSH0 PUSH1 0x20 MSTORE DUP1 PUSH0 MSTORE PUSH1 0x40 PUSH0 KECCAK256 PUSH0 SWAP2 POP SLOAD SWAP1 PUSH2 0x100 EXP SWAP1 DIV PUSH20 0xFFFFFFFFFFFFFFFFFFFFFFFFFFFFFFFFFFFFFFFF AND DUP2 JUMP JUMPDEST PUSH0 DUP1 PUSH20 0xFFFFFFFFFFFFFFFFFFFFFFFFFFFFFFFFFFFFFFFF AND PUSH0 DUP1 CALLER PUSH20 0xFFFFFFFFFFFFFFFFFFFFFFFFFFFFFFFFFFFFFFFF AND PUSH20 0xFFFFFFFFFFFFFFFFFFFFFFFFFFFFFFFFFFFFFFFF AND DUP2 MSTORE PUSH1 0x20 ADD SWAP1 DUP2 MSTORE PUSH1 0x20 ADD PUSH0 KECCAK256 PUSH0 SWAP1 SLOAD SWAP1 PUSH2 0x100 EXP SWAP1 DIV PUSH20 0xFFFFFFFFFFFFFFFFFFFFFFFFFFFFFFFFFFFFFFFF AND PUSH20 0xFFFFFFFFFFFFFFFFFFFFFFFFFFFFFFFFFFFFFFFF AND EQ PUSH2 0xB44 JUMPI PUSH1 0x40 MLOAD PUSH32 0x8C379A000000000000000000000000000000000000000000000000000000000 DUP2 MSTORE PUSH1 0x4 ADD PUSH2 0xB3B SWAP1 PUSH2 0x1ACB JUMP JUMPDEST PUSH1 0x40 MLOAD DUP1 SWAP2 SUB SWAP1 REVERT JUMPDEST PUSH0 PUSH32 0x0 PUSH1 0x60 SHL SWAP1 POP PUSH1 0x40 MLOAD PUSH32 0x3D602D80600A3D3981F3363D3D373D3D3D363D73000000000000000000000000 DUP2 MSTORE DUP2 PUSH1 0x14 DUP3 ADD MSTORE PUSH32 0x5AF43D82803E903D91602B57FD5BF30000000000000000000000000000000000 PUSH1 0x28 DUP3 ADD MSTORE PUSH1 0x37 DUP2 PUSH0 CREATE SWAP3 POP DUP3 PUSH2 0xBCD JUMPI PUSH0 DUP1 REVERT JUMPDEST POP DUP2 PUSH0 DUP1 CALLER PUSH20 0xFFFFFFFFFFFFFFFFFFFFFFFFFFFFFFFFFFFFFFFF AND PUSH20 0xFFFFFFFFFFFFFFFFFFFFFFFFFFFFFFFFFFFFFFFF AND DUP2 MSTORE PUSH1 0x20 ADD SWAP1 DUP2 MSTORE PUSH1 0x20 ADD PUSH0 KECCAK256 PUSH0 PUSH2 0x100 EXP DUP2 SLOAD DUP2 PUSH20 0xFFFFFFFFFFFFFFFFFFFFFFFFFFFFFFFFFFFFFFFF MUL NOT AND SWAP1 DUP4 PUSH20 0xFFFFFFFFFFFFFFFFFFFFFFFFFFFFFFFFFFFFFFFF AND MUL OR SWAP1 SSTORE POP DUP2 PUSH20 0xFFFFFFFFFFFFFFFFFFFFFFFFFFFFFFFFFFFFFFFF AND CALLER PUSH20 0xFFFFFFFFFFFFFFFFFFFFFFFFFFFFFFFFFFFFFFFF AND PUSH32 0xAC631F3001B55EA1509CF3D7E74898F85392A61A76E8149181AE1259622DABC8 PUSH1 0x40 MLOAD PUSH1 0x40 MLOAD DUP1 SWAP2 SUB SWAP1 LOG3 POP SWAP1 JUMP JUMPDEST PUSH0 DUP1 DUP6 PUSH20 0xFFFFFFFFFFFFFFFFFFFFFFFFFFFFFFFFFFFFFFFF AND PUSH4 0x23B872DD PUSH1 0xE0 SHL DUP7 DUP7 DUP7 PUSH1 0x40 MLOAD PUSH1 0x24 ADD PUSH2 0xCDC SWAP4 SWAP3 SWAP2 SWAP1 PUSH2 0x1AE9 JUMP JUMPDEST PUSH1 0x40 MLOAD PUSH1 0x20 DUP2 DUP4 SUB SUB DUP2 MSTORE SWAP1 PUSH1 0x40 MSTORE SWAP1 PUSH28 0xFFFFFFFFFFFFFFFFFFFFFFFFFFFFFFFFFFFFFFFFFFFFFFFFFFFFFFFF NOT AND PUSH1 0x20 DUP3 ADD DUP1 MLOAD PUSH28 0xFFFFFFFFFFFFFFFFFFFFFFFFFFFFFFFFFFFFFFFFFFFFFFFFFFFFFFFF DUP4 DUP2 DUP4 AND OR DUP4 MSTORE POP POP POP POP PUSH1 0x40 MLOAD PUSH2 0xD46 SWAP2 SWAP1 PUSH2 0x1B8A JUMP JUMPDEST PUSH0 PUSH1 0x40 MLOAD DUP1 DUP4 SUB DUP2 PUSH0 DUP7 GAS CALL SWAP2 POP POP RETURNDATASIZE DUP1 PUSH0 DUP2 EQ PUSH2 0xD7F JUMPI PUSH1 0x40 MLOAD SWAP2 POP PUSH1 0x1F NOT PUSH1 0x3F RETURNDATASIZE ADD AND DUP3 ADD PUSH1 0x40 MSTORE RETURNDATASIZE DUP3 MSTORE RETURNDATASIZE PUSH0 PUSH1 0x20 DUP5 ADD RETURNDATACOPY PUSH2 0xD84 JUMP JUMPDEST PUSH1 0x60 SWAP2 POP JUMPDEST POP SWAP2 POP SWAP2 POP DUP2 DUP1 ISZERO PUSH2 0xDB1 JUMPI POP PUSH0 DUP2 MLOAD EQ DUP1 PUSH2 0xDB0 JUMPI POP DUP1 DUP1 PUSH1 0x20 ADD SWAP1 MLOAD DUP2 ADD SWAP1 PUSH2 0xDAF SWAP2 SWAP1 PUSH2 0x1BD5 JUMP JUMPDEST JUMPDEST JUMPDEST PUSH2 0xDF0 JUMPI PUSH1 0x40 MLOAD PUSH32 0x8C379A000000000000000000000000000000000000000000000000000000000 DUP2 MSTORE PUSH1 0x4 ADD PUSH2 0xDE7 SWAP1 PUSH2 0x1C4A JUMP JUMPDEST PUSH1 0x40 MLOAD DUP1 SWAP2 SUB SWAP1 REVERT JUMPDEST POP POP POP POP POP POP JUMP JUMPDEST PUSH0 PUSH1 0x40 MLOAD SWAP1 POP SWAP1 JUMP JUMPDEST PUSH0 DUP1 REVERT JUMPDEST PUSH0 DUP1 REVERT JUMPDEST PUSH0 DUP1 REVERT JUMPDEST PUSH0 PUSH1 0x1F NOT PUSH1 0x1F DUP4 ADD AND SWAP1 POP SWAP2 SWAP1 POP JUMP JUMPDEST PUSH32 0x4E487B7100000000000000000000000000000000000000000000000000000000 PUSH0 MSTORE PUSH1 0x41 PUSH1 0x4 MSTORE PUSH1 0x24 PUSH0 REVERT JUMPDEST PUSH2 0xE53 DUP3 PUSH2 0xE0D JUMP JUMPDEST DUP2 ADD DUP2 DUP2 LT PUSH8 0xFFFFFFFFFFFFFFFF DUP3 GT OR ISZERO PUSH2 0xE72 JUMPI PUSH2 0xE71 PUSH2 0xE1D JUMP JUMPDEST JUMPDEST DUP1 PUSH1 0x40 MSTORE POP POP POP JUMP JUMPDEST PUSH0 PUSH2 0xE84 PUSH2 0xDF8 JUMP JUMPDEST SWAP1 POP PUSH2 0xE90 DUP3 DUP3 PUSH2 0xE4A JUMP JUMPDEST SWAP2 SWAP1 POP JUMP JUMPDEST PUSH0 DUP1 REVERT JUMPDEST PUSH0 PUSH20 0xFFFFFFFFFFFFFFFFFFFFFFFFFFFFFFFFFFFFFFFF DUP3 AND SWAP1 POP SWAP2 SWAP1 POP JUMP JUMPDEST PUSH0 PUSH2 0xEC2 DUP3 PUSH2 0xE99 JUMP JUMPDEST SWAP1 POP SWAP2 SWAP1 POP JUMP JUMPDEST PUSH2 0xED2 DUP2 PUSH2 0xEB8 JUMP JUMPDEST DUP2 EQ PUSH2 0xEDC JUMPI PUSH0 DUP1 REVERT JUMPDEST POP JUMP JUMPDEST PUSH0 DUP2 CALLDATALOAD SWAP1 POP PUSH2 0xEED DUP2 PUSH2 0xEC9 JUMP JUMPDEST SWAP3 SWAP2 POP POP JUMP JUMPDEST PUSH0 DUP2 SWAP1 POP SWAP2 SWAP1 POP JUMP JUMPDEST PUSH2 0xF05 DUP2 PUSH2 0xEF3 JUMP JUMPDEST DUP2 EQ PUSH2 0xF0F JUMPI PUSH0 DUP1 REVERT JUMPDEST POP JUMP JUMPDEST PUSH0 DUP2 CALLDATALOAD SWAP1 POP PUSH2 0xF20 DUP2 PUSH2 0xEFC JUMP JUMPDEST SWAP3 SWAP2 POP POP JUMP JUMPDEST PUSH0 DUP2 SWAP1 POP SWAP2 SWAP1 POP JUMP JUMPDEST PUSH2 0xF38 DUP2 PUSH2 0xF26 JUMP JUMPDEST DUP2 EQ PUSH2 0xF42 JUMPI PUSH0 DUP1 REVERT JUMPDEST POP JUMP JUMPDEST PUSH0 DUP2 CALLDATALOAD SWAP1 POP PUSH2 0xF53 DUP2 PUSH2 0xF2F JUMP JUMPDEST SWAP3 SWAP2 POP POP JUMP JUMPDEST PUSH0 DUP1 REVERT JUMPDEST PUSH0 PUSH8 0xFFFFFFFFFFFFFFFF DUP3 GT ISZERO PUSH2 0xF77 JUMPI PUSH2 0xF76 PUSH2 0xE1D JUMP JUMPDEST JUMPDEST PUSH1 0x20 DUP3 MUL SWAP1 POP PUSH1 0x20 DUP2 ADD SWAP1 POP SWAP2 SWAP1 POP JUMP JUMPDEST PUSH0 DUP1 REVERT JUMPDEST PUSH0 PUSH3 0xFFFFFF DUP3 AND SWAP1 POP SWAP2 SWAP1 POP JUMP JUMPDEST PUSH2 0xFA3 DUP2 PUSH2 0xF8C JUMP JUMPDEST DUP2 EQ PUSH2 0xFAD JUMPI PUSH0 DUP1 REVERT JUMPDEST POP JUMP JUMPDEST PUSH0 DUP2 CALLDATALOAD SWAP1 POP PUSH2 0xFBE DUP2 PUSH2 0xF9A JUMP JUMPDEST SWAP3 SWAP2 POP POP JUMP JUMPDEST PUSH0 PUSH2 0xFD6 PUSH2 0xFD1 DUP5 PUSH2 0xF5D JUMP JUMPDEST PUSH2 0xE7B JUMP JUMPDEST SWAP1 POP DUP1 DUP4 DUP3 MSTORE PUSH1 0x20 DUP3 ADD SWAP1 POP PUSH1 0x20 DUP5 MUL DUP4 ADD DUP6 DUP2 GT ISZERO PUSH2 0xFF9 JUMPI PUSH2 0xFF8 PUSH2 0xF88 JUMP JUMPDEST JUMPDEST DUP4 JUMPDEST DUP2 DUP2 LT ISZERO PUSH2 0x1022 JUMPI DUP1 PUSH2 0x100E DUP9 DUP3 PUSH2 0xFB0 JUMP JUMPDEST DUP5 MSTORE PUSH1 0x20 DUP5 ADD SWAP4 POP POP PUSH1 0x20 DUP2 ADD SWAP1 POP PUSH2 0xFFB JUMP JUMPDEST POP POP POP SWAP4 SWAP3 POP POP POP JUMP JUMPDEST PUSH0 DUP3 PUSH1 0x1F DUP4 ADD SLT PUSH2 0x1040 JUMPI PUSH2 0x103F PUSH2 0xF59 JUMP JUMPDEST JUMPDEST DUP2 CALLDATALOAD PUSH2 0x1050 DUP5 DUP3 PUSH1 0x20 DUP7 ADD PUSH2 0xFC4 JUMP JUMPDEST SWAP2 POP POP SWAP3 SWAP2 POP POP JUMP JUMPDEST PUSH0 PUSH1 0xE0 DUP3 DUP5 SUB SLT ISZERO PUSH2 0x106E JUMPI PUSH2 0x106D PUSH2 0xE09 JUMP JUMPDEST JUMPDEST PUSH2 0x1078 PUSH1 0xE0 PUSH2 0xE7B JUMP JUMPDEST SWAP1 POP PUSH0 PUSH2 0x1087 DUP5 DUP3 DUP6 ADD PUSH2 0xEDF JUMP JUMPDEST PUSH0 DUP4 ADD MSTORE POP PUSH1 0x20 PUSH2 0x109A DUP5 DUP3 DUP6 ADD PUSH2 0xEDF JUMP JUMPDEST PUSH1 0x20 DUP4 ADD MSTORE POP PUSH1 0x40 PUSH2 0x10AE DUP5 DUP3 DUP6 ADD PUSH2 0xEDF JUMP JUMPDEST PUSH1 0x40 DUP4 ADD MSTORE POP PUSH1 0x60 PUSH2 0x10C2 DUP5 DUP3 DUP6 ADD PUSH2 0xF12 JUMP JUMPDEST PUSH1 0x60 DUP4 ADD MSTORE POP PUSH1 0x80 PUSH2 0x10D6 DUP5 DUP3 DUP6 ADD PUSH2 0xF45 JUMP JUMPDEST PUSH1 0x80 DUP4 ADD MSTORE POP PUSH1 0xA0 PUSH2 0x10EA DUP5 DUP3 DUP6 ADD PUSH2 0xEDF JUMP JUMPDEST PUSH1 0xA0 DUP4 ADD MSTORE POP PUSH1 0xC0 DUP3 ADD CALLDATALOAD PUSH8 0xFFFFFFFFFFFFFFFF DUP2 GT ISZERO PUSH2 0x110E JUMPI PUSH2 0x110D PUSH2 0xE95 JUMP JUMPDEST JUMPDEST PUSH2 0x111A DUP5 DUP3 DUP6 ADD PUSH2 0x102C JUMP JUMPDEST PUSH1 0xC0 DUP4 ADD MSTORE POP SWAP3 SWAP2 POP POP JUMP JUMPDEST PUSH0 PUSH1 0x20 DUP3 DUP5 SUB SLT ISZERO PUSH2 0x113B JUMPI PUSH2 0x113A PUSH2 0xE01 JUMP JUMPDEST JUMPDEST PUSH0 DUP3 ADD CALLDATALOAD PUSH8 0xFFFFFFFFFFFFFFFF DUP2 GT ISZERO PUSH2 0x1158 JUMPI PUSH2 0x1157 PUSH2 0xE05 JUMP JUMPDEST JUMPDEST PUSH2 0x1164 DUP5 DUP3 DUP6 ADD PUSH2 0x1059 JUMP JUMPDEST SWAP2 POP POP SWAP3 SWAP2 POP POP JUMP JUMPDEST PUSH0 PUSH1 0xA0 DUP3 DUP5 SUB SLT ISZERO PUSH2 0x1182 JUMPI PUSH2 0x1181 PUSH2 0xE09 JUMP JUMPDEST JUMPDEST PUSH2 0x118C PUSH1 0xA0 PUSH2 0xE7B JUMP JUMPDEST SWAP1 POP PUSH0 PUSH2 0x119B DUP5 DUP3 DUP6 ADD PUSH2 0xEDF JUMP JUMPDEST PUSH0 DUP4 ADD MSTORE POP PUSH1 0x20 PUSH2 0x11AE DUP5 DUP3 DUP6 ADD PUSH2 0xEDF JUMP JUMPDEST PUSH1 0x20 DUP4 ADD MSTORE POP PUSH1 0x40 PUSH2 0x11C2 DUP5 DUP3 DUP6 ADD PUSH2 0xF45 JUMP JUMPDEST PUSH1 0x40 DUP4 ADD MSTORE POP PUSH1 0x60 PUSH2 0x11D6 DUP5 DUP3 DUP6 ADD PUSH2 0xEDF JUMP JUMPDEST PUSH1 0x60 DUP4 ADD MSTORE POP PUSH1 0x80 DUP3 ADD CALLDATALOAD PUSH8 0xFFFFFFFFFFFFFFFF DUP2 GT ISZERO PUSH2 0x11FA JUMPI PUSH2 0x11F9 PUSH2 0xE95 JUMP JUMPDEST JUMPDEST PUSH2 0x1206 DUP5 DUP3 DUP6 ADD PUSH2 0x102C JUMP JUMPDEST PUSH1 0x80 DUP4 ADD MSTORE POP SWAP3 SWAP2 POP POP JUMP JUMPDEST PUSH0 PUSH1 0x20 DUP3 DUP5 SUB SLT ISZERO PUSH2 0x1227 JUMPI PUSH2 0x1226 PUSH2 0xE01 JUMP JUMPDEST JUMPDEST PUSH0 DUP3 ADD CALLDATALOAD PUSH8 0xFFFFFFFFFFFFFFFF DUP2 GT ISZERO PUSH2 0x1244 JUMPI PUSH2 0x1243 PUSH2 0xE05 JUMP JUMPDEST JUMPDEST PUSH2 0x1250 DUP5 DUP3 DUP6 ADD PUSH2 0x116D JUMP JUMPDEST SWAP2 POP POP SWAP3 SWAP2 POP POP JUMP JUMPDEST PUSH0 PUSH1 0xA0 DUP3 DUP5 SUB SLT ISZERO PUSH2 0x126E JUMPI PUSH2 0x126D PUSH2 0xE09 JUMP JUMPDEST JUMPDEST PUSH2 0x1278 PUSH1 0xA0 PUSH2 0xE7B JUMP JUMPDEST SWAP1 POP PUSH0 PUSH2 0x1287 DUP5 DUP3 DUP6 ADD PUSH2 0xEDF JUMP JUMPDEST PUSH0 DUP4 ADD MSTORE POP PUSH1 0x20 PUSH2 0x129A DUP5 DUP3 DUP6 ADD PUSH2 0xEDF JUMP JUMPDEST PUSH1 0x20 DUP4 ADD MSTORE POP PUSH1 0x40 PUSH2 0x12AE DUP5 DUP3 DUP6 ADD PUSH2 0xF12 JUMP JUMPDEST PUSH1 0x40 DUP4 ADD MSTORE POP PUSH1 0x60 PUSH2 0x12C2 DUP5 DUP3 DUP6 ADD PUSH2 0xEDF JUMP JUMPDEST PUSH1 0x60 DUP4 ADD MSTORE POP PUSH1 0x80 DUP3 ADD CALLDATALOAD PUSH8 0xFFFFFFFFFFFFFFFF DUP2 GT ISZERO PUSH2 0x12E6 JUMPI PUSH2 0x12E5 PUSH2 0xE95 JUMP JUMPDEST JUMPDEST PUSH2 0x12F2 DUP5 DUP3 DUP6 ADD PUSH2 0x102C JUMP JUMPDEST PUSH1 0x80 DUP4 ADD MSTORE POP SWAP3 SWAP2 POP POP JUMP JUMPDEST PUSH0 PUSH1 0x20 DUP3 DUP5 SUB SLT ISZERO PUSH2 0x1313 JUMPI PUSH2 0x1312 PUSH2 0xE01 JUMP JUMPDEST JUMPDEST PUSH0 DUP3 ADD CALLDATALOAD PUSH8 0xFFFFFFFFFFFFFFFF DUP2 GT ISZERO PUSH2 0x1330 JUMPI PUSH2 0x132F PUSH2 0xE05 JUMP JUMPDEST JUMPDEST PUSH2 0x133C DUP5 DUP3 DUP6 ADD PUSH2 0x1259 JUMP JUMPDEST SWAP2 POP POP SWAP3 SWAP2 POP POP JUMP JUMPDEST PUSH0 PUSH1 0xE0 DUP3 DUP5 SUB SLT ISZERO PUSH2 0x135A JUMPI PUSH2 0x1359 PUSH2 0xE09 JUMP JUMPDEST JUMPDEST PUSH2 0x1364 PUSH1 0xE0 PUSH2 0xE7B JUMP JUMPDEST SWAP1 POP PUSH0 PUSH2 0x1373 DUP5 DUP3 DUP6 ADD PUSH2 0xEDF JUMP JUMPDEST PUSH0 DUP4 ADD MSTORE POP PUSH1 0x20 PUSH2 0x1386 DUP5 DUP3 DUP6 ADD PUSH2 0xEDF JUMP JUMPDEST PUSH1 0x20 DUP4 ADD MSTORE POP PUSH1 0x40 PUSH2 0x139A DUP5 DUP3 DUP6 ADD PUSH2 0xEDF JUMP JUMPDEST PUSH1 0x40 DUP4 ADD MSTORE POP PUSH1 0x60 PUSH2 0x13AE DUP5 DUP3 DUP6 ADD PUSH2 0xF12 JUMP JUMPDEST PUSH1 0x60 DUP4 ADD MSTORE POP PUSH1 0x80 PUSH2 0x13C2 DUP5 DUP3 DUP6 ADD PUSH2 0xF12 JUMP JUMPDEST PUSH1 0x80 DUP4 ADD MSTORE POP PUSH1 0xA0 PUSH2 0x13D6 DUP5 DUP3 DUP6 ADD PUSH2 0xEDF JUMP JUMPDEST PUSH1 0xA0 DUP4 ADD MSTORE POP PUSH1 0xC0 DUP3 ADD CALLDATALOAD PUSH8 0xFFFFFFFFFFFFFFFF DUP2 GT ISZERO PUSH2 0x13FA JUMPI PUSH2 0x13F9 PUSH2 0xE95 JUMP JUMPDEST JUMPDEST PUSH2 0x1406 DUP5 DUP3 DUP6 ADD PUSH2 0x102C JUMP JUMPDEST PUSH1 0xC0 DUP4 ADD MSTORE POP SWAP3 SWAP2 POP POP JUMP JUMPDEST PUSH0 PUSH1 0x20 DUP3 DUP5 SUB SLT ISZERO PUSH2 0x1427 JUMPI PUSH2 0x1426 PUSH2 0xE01 JUMP JUMPDEST JUMPDEST PUSH0 DUP3 ADD CALLDATALOAD PUSH8 0xFFFFFFFFFFFFFFFF DUP2 GT ISZERO PUSH2 0x1444 JUMPI PUSH2 0x1443 PUSH2 0xE05 JUMP JUMPDEST JUMPDEST PUSH2 0x1450 DUP5 DUP3 DUP6 ADD PUSH2 0x1345 JUMP JUMPDEST SWAP2 POP POP SWAP3 SWAP2 POP POP JUMP JUMPDEST PUSH0 PUSH1 0x80 DUP3 DUP5 SUB SLT ISZERO PUSH2 0x146E JUMPI PUSH2 0x146D PUSH2 0xE09 JUMP JUMPDEST JUMPDEST PUSH2 0x1478 PUSH1 0x80 PUSH2 0xE7B JUMP JUMPDEST SWAP1 POP PUSH0 PUSH2 0x1487 DUP5 DUP3 DUP6 ADD PUSH2 0xEDF JUMP JUMPDEST PUSH0 DUP4 ADD MSTORE POP PUSH1 0x20 PUSH2 0x149A DUP5 DUP3 DUP6 ADD PUSH2 0xEDF JUMP JUMPDEST PUSH1 0x20 DUP4 ADD MSTORE POP PUSH1 0x40 PUSH2 0x14AE DUP5 DUP3 DUP6 ADD PUSH2 0xF12 JUMP JUMPDEST PUSH1 0x40 DUP4 ADD MSTORE POP PUSH1 0x60 DUP3 ADD CALLDATALOAD PUSH8 0xFFFFFFFFFFFFFFFF DUP2 GT ISZERO PUSH2 0x14D2 JUMPI PUSH2 0x14D1 PUSH2 0xE95 JUMP JUMPDEST JUMPDEST PUSH2 0x14DE DUP5 DUP3 DUP6 ADD PUSH2 0x102C JUMP JUMPDEST PUSH1 0x60 DUP4 ADD MSTORE POP SWAP3 SWAP2 POP POP JUMP JUMPDEST PUSH0 PUSH1 0x20 DUP3 DUP5 SUB SLT ISZERO PUSH2 0x14FF JUMPI PUSH2 0x14FE PUSH2 0xE01 JUMP JUMPDEST JUMPDEST PUSH0 DUP3 ADD CALLDATALOAD PUSH8 0xFFFFFFFFFFFFFFFF DUP2 GT ISZERO PUSH2 0x151C JUMPI PUSH2 0x151B PUSH2 0xE05 JUMP JUMPDEST JUMPDEST PUSH2 0x1528 DUP5 DUP3 DUP6 ADD PUSH2 0x1459 JUMP JUMPDEST SWAP2 POP POP SWAP3 SWAP2 POP POP JUMP JUMPDEST PUSH0 PUSH1 0xC0 DUP3 DUP5 SUB SLT ISZERO PUSH2 0x1546 JUMPI PUSH2 0x1545 PUSH2 0xE09 JUMP JUMPDEST JUMPDEST PUSH2 0x1550 PUSH1 0xC0 PUSH2 0xE7B JUMP JUMPDEST SWAP1 POP PUSH0 PUSH2 0x155F DUP5 DUP3 DUP6 ADD PUSH2 0xEDF JUMP JUMPDEST PUSH0 DUP4 ADD MSTORE POP PUSH1 0x20 PUSH2 0x1572 DUP5 DUP3 DUP6 ADD PUSH2 0xEDF JUMP JUMPDEST PUSH1 0x20 DUP4 ADD MSTORE POP PUSH1 0x40 PUSH2 0x1586 DUP5 DUP3 DUP6 ADD PUSH2 0xEDF JUMP JUMPDEST PUSH1 0x40 DUP4 ADD MSTORE POP PUSH1 0x60 PUSH2 0x159A DUP5 DUP3 DUP6 ADD PUSH2 0xEDF JUMP JUMPDEST PUSH1 0x60 DUP4 ADD MSTORE POP PUSH1 0x80 PUSH2 0x15AE DUP5 DUP3 DUP6 ADD PUSH2 0xF12 JUMP JUMPDEST PUSH1 0x80 DUP4 ADD MSTORE POP PUSH1 0xA0 DUP3 ADD CALLDATALOAD PUSH8 0xFFFFFFFFFFFFFFFF DUP2 GT ISZERO PUSH2 0x15D2 JUMPI PUSH2 0x15D1 PUSH2 0xE95 JUMP JUMPDEST JUMPDEST PUSH2 0x15DE DUP5 DUP3 DUP6 ADD PUSH2 0x102C JUMP JUMPDEST PUSH1 0xA0 DUP4 ADD MSTORE POP SWAP3 SWAP2 POP POP JUMP JUMPDEST PUSH0 PUSH1 0x20 DUP3 DUP5 SUB SLT ISZERO PUSH2 0x15FF JUMPI PUSH2 0x15FE PUSH2 0xE01 JUMP JUMPDEST JUMPDEST PUSH0 DUP3 ADD CALLDATALOAD PUSH8 0xFFFFFFFFFFFFFFFF DUP2 GT ISZERO PUSH2 0x161C JUMPI PUSH2 0x161B PUSH2 0xE05 JUMP JUMPDEST JUMPDEST PUSH2 0x1628 DUP5 DUP3 DUP6 ADD PUSH2 0x1531 JUMP JUMPDEST SWAP2 POP POP SWAP3 SWAP2 POP POP JUMP JUMPDEST PUSH2 0x163A DUP2 PUSH2 0xEB8 JUMP JUMPDEST DUP3 MSTORE POP POP JUMP JUMPDEST PUSH0 PUSH1 0x20 DUP3 ADD SWAP1 POP PUSH2 0x1653 PUSH0 DUP4 ADD DUP5 PUSH2 0x1631 JUMP JUMPDEST SWAP3 SWAP2 POP POP JUMP JUMPDEST PUSH0 PUSH1 0x20 DUP3 DUP5 SUB SLT ISZERO PUSH2 0x166E JUMPI PUSH2 0x166D PUSH2 0xE01 JUMP JUMPDEST JUMPDEST PUSH0 PUSH2 0x167B DUP5 DUP3 DUP6 ADD PUSH2 0xEDF JUMP JUMPDEST SWAP2 POP POP SWAP3 SWAP2 POP POP JUMP JUMPDEST PUSH2 0x168D DUP2 PUSH2 0xEF3 JUMP JUMPDEST DUP3 MSTORE POP POP JUMP JUMPDEST PUSH2 0x169C DUP2 PUSH2 0xF26 JUMP JUMPDEST DUP3 MSTORE POP POP JUMP JUMPDEST PUSH0 DUP2 MLOAD SWAP1 POP SWAP2 SWAP1 POP JUMP JUMPDEST PUSH0 DUP3 DUP3 MSTORE PUSH1 0x20 DUP3 ADD SWAP1 POP SWAP3 SWAP2 POP POP JUMP JUMPDEST PUSH0 DUP2 SWAP1 POP PUSH1 0x20 DUP3 ADD SWAP1 POP SWAP2 SWAP1 POP JUMP JUMPDEST PUSH2 0x16D4 DUP2 PUSH2 0xF8C JUMP JUMPDEST DUP3 MSTORE POP POP JUMP JUMPDEST PUSH0 PUSH2 0x16E5 DUP4 DUP4 PUSH2 0x16CB JUMP JUMPDEST PUSH1 0x20 DUP4 ADD SWAP1 POP SWAP3 SWAP2 POP POP JUMP JUMPDEST PUSH0 PUSH1 0x20 DUP3 ADD SWAP1 POP SWAP2 SWAP1 POP JUMP JUMPDEST PUSH0 PUSH2 0x1707 DUP3 PUSH2 0x16A2 JUMP JUMPDEST PUSH2 0x1711 DUP2 DUP6 PUSH2 0x16AC JUMP JUMPDEST SWAP4 POP PUSH2 0x171C DUP4 PUSH2 0x16BC JUMP JUMPDEST DUP1 PUSH0 JUMPDEST DUP4 DUP2 LT ISZERO PUSH2 0x174C JUMPI DUP2 MLOAD PUSH2 0x1733 DUP9 DUP3 PUSH2 0x16DA JUMP JUMPDEST SWAP8 POP PUSH2 0x173E DUP4 PUSH2 0x16F1 JUMP JUMPDEST SWAP3 POP POP PUSH1 0x1 DUP2 ADD SWAP1 POP PUSH2 0x171F JUMP JUMPDEST POP DUP6 SWAP4 POP POP POP POP SWAP3 SWAP2 POP POP JUMP JUMPDEST PUSH0 PUSH1 0xE0 DUP3 ADD SWAP1 POP PUSH2 0x176C PUSH0 DUP4 ADD DUP11 PUSH2 0x1631 JUMP JUMPDEST PUSH2 0x1779 PUSH1 0x20 DUP4 ADD DUP10 PUSH2 0x1631 JUMP JUMPDEST PUSH2 0x1786 PUSH1 0x40 DUP4 ADD DUP9 PUSH2 0x1631 JUMP JUMPDEST PUSH2 0x1793 PUSH1 0x60 DUP4 ADD DUP8 PUSH2 0x1684 JUMP JUMPDEST PUSH2 0x17A0 PUSH1 0x80 DUP4 ADD DUP7 PUSH2 0x1693 JUMP JUMPDEST PUSH2 0x17AD PUSH1 0xA0 DUP4 ADD DUP6 PUSH2 0x1631 JUMP JUMPDEST DUP2 DUP2 SUB PUSH1 0xC0 DUP4 ADD MSTORE PUSH2 0x17BF DUP2 DUP5 PUSH2 0x16FD JUMP JUMPDEST SWAP1 POP SWAP9 SWAP8 POP POP POP POP POP POP POP POP JUMP JUMPDEST PUSH0 DUP3 DUP3 MSTORE PUSH1 0x20 DUP3 ADD SWAP1 POP SWAP3 SWAP2 POP POP JUMP JUMPDEST PUSH32 0x4E6F20706F736974696F6E20617661696C61626C652100000000000000000000 PUSH0 DUP3 ADD MSTORE POP JUMP JUMPDEST PUSH0 PUSH2 0x1811 PUSH1 0x16 DUP4 PUSH2 0x17CD JUMP JUMPDEST SWAP2 POP PUSH2 0x181C DUP3 PUSH2 0x17DD JUMP JUMPDEST PUSH1 0x20 DUP3 ADD SWAP1 POP SWAP2 SWAP1 POP JUMP JUMPDEST PUSH0 PUSH1 0x20 DUP3 ADD SWAP1 POP DUP2 DUP2 SUB PUSH0 DUP4 ADD MSTORE PUSH2 0x183E DUP2 PUSH2 0x1805 JUMP JUMPDEST SWAP1 POP SWAP2 SWAP1 POP JUMP JUMPDEST PUSH0 PUSH1 0xA0 DUP3 ADD SWAP1 POP PUSH2 0x1858 PUSH0 DUP4 ADD DUP9 PUSH2 0x1631 JUMP JUMPDEST PUSH2 0x1865 PUSH1 0x20 DUP4 ADD DUP8 PUSH2 0x1631 JUMP JUMPDEST PUSH2 0x1872 PUSH1 0x40 DUP4 ADD DUP7 PUSH2 0x1693 JUMP JUMPDEST PUSH2 0x187F PUSH1 0x60 DUP4 ADD DUP6 PUSH2 0x1631 JUMP JUMPDEST DUP2 DUP2 SUB PUSH1 0x80 DUP4 ADD MSTORE PUSH2 0x1891 DUP2 DUP5 PUSH2 0x16FD JUMP JUMPDEST SWAP1 POP SWAP7 SWAP6 POP POP POP POP POP POP JUMP JUMPDEST PUSH32 0x4E6F20626F72726F7720706F736974696F6E20617661696C61626C6521000000 PUSH0 DUP3 ADD MSTORE POP JUMP JUMPDEST PUSH0 PUSH2 0x18D1 PUSH1 0x1D DUP4 PUSH2 0x17CD JUMP JUMPDEST SWAP2 POP PUSH2 0x18DC DUP3 PUSH2 0x189D JUMP JUMPDEST PUSH1 0x20 DUP3 ADD SWAP1 POP SWAP2 SWAP1 POP JUMP JUMPDEST PUSH0 PUSH1 0x20 DUP3 ADD SWAP1 POP DUP2 DUP2 SUB PUSH0 DUP4 ADD MSTORE PUSH2 0x18FE DUP2 PUSH2 0x18C5 JUMP JUMPDEST SWAP1 POP SWAP2 SWAP1 POP JUMP JUMPDEST PUSH0 PUSH1 0xA0 DUP3 ADD SWAP1 POP PUSH2 0x1918 PUSH0 DUP4 ADD DUP9 PUSH2 0x1631 JUMP JUMPDEST PUSH2 0x1925 PUSH1 0x20 DUP4 ADD DUP8 PUSH2 0x1631 JUMP JUMPDEST PUSH2 0x1932 PUSH1 0x40 DUP4 ADD DUP7 PUSH2 0x1684 JUMP JUMPDEST PUSH2 0x193F PUSH1 0x60 DUP4 ADD DUP6 PUSH2 0x1631 JUMP JUMPDEST DUP2 DUP2 SUB PUSH1 0x80 DUP4 ADD MSTORE PUSH2 0x1951 DUP2 DUP5 PUSH2 0x16FD JUMP JUMPDEST SWAP1 POP SWAP7 SWAP6 POP POP POP POP POP POP JUMP JUMPDEST PUSH0 PUSH1 0xE0 DUP3 ADD SWAP1 POP PUSH2 0x1970 PUSH0 DUP4 ADD DUP11 PUSH2 0x1631 JUMP JUMPDEST PUSH2 0x197D PUSH1 0x20 DUP4 ADD DUP10 PUSH2 0x1631 JUMP JUMPDEST PUSH2 0x198A PUSH1 0x40 DUP4 ADD DUP9 PUSH2 0x1631 JUMP JUMPDEST PUSH2 0x1997 PUSH1 0x60 DUP4 ADD DUP8 PUSH2 0x1684 JUMP JUMPDEST PUSH2 0x19A4 PUSH1 0x80 DUP4 ADD DUP7 PUSH2 0x1684 JUMP JUMPDEST PUSH2 0x19B1 PUSH1 0xA0 DUP4 ADD DUP6 PUSH2 0x1631 JUMP JUMPDEST DUP2 DUP2 SUB PUSH1 0xC0 DUP4 ADD MSTORE PUSH2 0x19C3 DUP2 DUP5 PUSH2 0x16FD JUMP JUMPDEST SWAP1 POP SWAP9 SWAP8 POP POP POP POP POP POP POP POP JUMP JUMPDEST PUSH0 PUSH1 0x80 DUP3 ADD SWAP1 POP PUSH2 0x19E4 PUSH0 DUP4 ADD DUP8 PUSH2 0x1631 JUMP JUMPDEST PUSH2 0x19F1 PUSH1 0x20 DUP4 ADD DUP7 PUSH2 0x1631 JUMP JUMPDEST PUSH2 0x19FE PUSH1 0x40 DUP4 ADD DUP6 PUSH2 0x1684 JUMP JUMPDEST DUP2 DUP2 SUB PUSH1 0x60 DUP4 ADD MSTORE PUSH2 0x1A10 DUP2 DUP5 PUSH2 0x16FD JUMP JUMPDEST SWAP1 POP SWAP6 SWAP5 POP POP POP POP POP JUMP JUMPDEST PUSH0 PUSH1 0xC0 DUP3 ADD SWAP1 POP PUSH2 0x1A2E PUSH0 DUP4 ADD DUP10 PUSH2 0x1631 JUMP JUMPDEST PUSH2 0x1A3B PUSH1 0x20 DUP4 ADD DUP9 PUSH2 0x1631 JUMP JUMPDEST PUSH2 0x1A48 PUSH1 0x40 DUP4 ADD DUP8 PUSH2 0x1631 JUMP JUMPDEST PUSH2 0x1A55 PUSH1 0x60 DUP4 ADD DUP7 PUSH2 0x1631 JUMP JUMPDEST PUSH2 0x1A62 PUSH1 0x80 DUP4 ADD DUP6 PUSH2 0x1684 JUMP JUMPDEST DUP2 DUP2 SUB PUSH1 0xA0 DUP4 ADD MSTORE PUSH2 0x1A74 DUP2 DUP5 PUSH2 0x16FD JUMP JUMPDEST SWAP1 POP SWAP8 SWAP7 POP POP POP POP POP POP POP JUMP JUMPDEST PUSH32 0x4163636F756E7420616C72656164792065786973747300000000000000000000 PUSH0 DUP3 ADD MSTORE POP JUMP JUMPDEST PUSH0 PUSH2 0x1AB5 PUSH1 0x16 DUP4 PUSH2 0x17CD JUMP JUMPDEST SWAP2 POP PUSH2 0x1AC0 DUP3 PUSH2 0x1A81 JUMP JUMPDEST PUSH1 0x20 DUP3 ADD SWAP1 POP SWAP2 SWAP1 POP JUMP JUMPDEST PUSH0 PUSH1 0x20 DUP3 ADD SWAP1 POP DUP2 DUP2 SUB PUSH0 DUP4 ADD MSTORE PUSH2 0x1AE2 DUP2 PUSH2 0x1AA9 JUMP JUMPDEST SWAP1 POP SWAP2 SWAP1 POP JUMP JUMPDEST PUSH0 PUSH1 0x60 DUP3 ADD SWAP1 POP PUSH2 0x1AFC PUSH0 DUP4 ADD DUP7 PUSH2 0x1631 JUMP JUMPDEST PUSH2 0x1B09 PUSH1 0x20 DUP4 ADD DUP6 PUSH2 0x1631 JUMP JUMPDEST PUSH2 0x1B16 PUSH1 0x40 DUP4 ADD DUP5 PUSH2 0x1684 JUMP JUMPDEST SWAP5 SWAP4 POP POP POP POP JUMP JUMPDEST PUSH0 DUP2 MLOAD SWAP1 POP SWAP2 SWAP1 POP JUMP JUMPDEST PUSH0 DUP2 SWAP1 POP SWAP3 SWAP2 POP POP JUMP JUMPDEST PUSH0 JUMPDEST DUP4 DUP2 LT ISZERO PUSH2 0x1B4F JUMPI DUP1 DUP3 ADD MLOAD DUP2 DUP5 ADD MSTORE PUSH1 0x20 DUP2 ADD SWAP1 POP PUSH2 0x1B34 JUMP JUMPDEST PUSH0 DUP5 DUP5 ADD MSTORE POP POP POP POP JUMP JUMPDEST PUSH0 PUSH2 0x1B64 DUP3 PUSH2 0x1B1E JUMP JUMPDEST PUSH2 0x1B6E DUP2 DUP6 PUSH2 0x1B28 JUMP JUMPDEST SWAP4 POP PUSH2 0x1B7E DUP2 DUP6 PUSH1 0x20 DUP7 ADD PUSH2 0x1B32 JUMP JUMPDEST DUP1 DUP5 ADD SWAP2 POP POP SWAP3 SWAP2 POP POP JUMP JUMPDEST PUSH0 PUSH2 0x1B95 DUP3 DUP5 PUSH2 0x1B5A JUMP JUMPDEST SWAP2 POP DUP2 SWAP1 POP SWAP3 SWAP2 POP POP JUMP JUMPDEST PUSH0 DUP2 ISZERO ISZERO SWAP1 POP SWAP2 SWAP1 POP JUMP JUMPDEST PUSH2 0x1BB4 DUP2 PUSH2 0x1BA0 JUMP JUMPDEST DUP2 EQ PUSH2 0x1BBE JUMPI PUSH0 DUP1 REVERT JUMPDEST POP JUMP JUMPDEST PUSH0 DUP2 MLOAD SWAP1 POP PUSH2 0x1BCF DUP2 PUSH2 0x1BAB JUMP JUMPDEST SWAP3 SWAP2 POP POP JUMP JUMPDEST PUSH0 PUSH1 0x20 DUP3 DUP5 SUB SLT ISZERO PUSH2 0x1BEA JUMPI PUSH2 0x1BE9 PUSH2 0xE01 JUMP JUMPDEST JUMPDEST PUSH0 PUSH2 0x1BF7 DUP5 DUP3 DUP6 ADD PUSH2 0x1BC1 JUMP JUMPDEST SWAP2 POP POP SWAP3 SWAP2 POP POP JUMP JUMPDEST PUSH32 0x5354460000000000000000000000000000000000000000000000000000000000 PUSH0 DUP3 ADD MSTORE POP JUMP JUMPDEST PUSH0 PUSH2 0x1C34 PUSH1 0x3 DUP4 PUSH2 0x17CD JUMP JUMPDEST SWAP2 POP PUSH2 0x1C3F DUP3 PUSH2 0x1C00 JUMP JUMPDEST PUSH1 0x20 DUP3 ADD SWAP1 POP SWAP2 SWAP1 POP JUMP JUMPDEST PUSH0 PUSH1 0x20 DUP3 ADD SWAP1 POP DUP2 DUP2 SUB PUSH0 DUP4 ADD MSTORE PUSH2 0x1C61 DUP2 PUSH2 0x1C28 JUMP JUMPDEST SWAP1 POP SWAP2 SWAP1 POP JUMP INVALID LOG2 PUSH5 0x6970667358 0x22 SLT KECCAK256 DUP14 BYTE BALANCE 0x29 0xF 0xA6 0xED DUP3 GAS MOD LOG3 0xFB 0xED 0xCE SUB PREVRANDAO 0xD8 AND 0xB0 0xB8 INVALID ADDRESS DUP16 0x5C PUSH1 0x3 PUSH30 0xF4C5FD914664736F6C634300081400330000000000000000000000000000 "
		},
		"gasEstimates": {
			"creation": {
				"codeDepositCost": "1465200",
				"executionCost": "infinite",
				"totalCost": "infinite"
			},
			"external": {
				"compRedeem((address,address,uint256,address,uint24[]))": "infinite",
				"compRepay((address,address,uint256,uint24[]))": "infinite",
				"compoundBorrow((address,address,address,uint256,uint256,address,uint24[]))": "infinite",
				"logicAddress()": "infinite",
				"proxyAddress(address)": "infinite",
				"uniBorrow((address,address,address,uint256,int256,address,uint24[]))": "infinite",
				"uniRedeem((address,address,int256,address,uint24[]))": "infinite",
				"uniRepay((address,address,address,address,uint256,uint24[]))": "infinite"
			},
			"internal": {
				"createAccount()": "infinite"
			}
		},
		"methodIdentifiers": {
			"compRedeem((address,address,uint256,address,uint24[]))": "35e164d0",
			"compRepay((address,address,uint256,uint24[]))": "4d37c3b7",
			"compoundBorrow((address,address,address,uint256,uint256,address,uint24[]))": "491aaed1",
			"logicAddress()": "9c1fcc4c",
			"proxyAddress(address)": "faa9efe3",
			"uniBorrow((address,address,address,uint256,int256,address,uint24[]))": "18b95b8b",
			"uniRedeem((address,address,int256,address,uint24[]))": "2b3ba5d9",
			"uniRepay((address,address,address,address,uint256,uint24[]))": "7eda2ab1"
		}
	},
	"abi": [
		{
			"inputs": [
				{
					"internalType": "address",
					"name": "_logicAddress",
					"type": "address"
				}
			],
			"stateMutability": "nonpayable",
			"type": "constructor"
		},
		{
			"anonymous": false,
			"inputs": [
				{
					"indexed": true,
					"internalType": "address",
					"name": "user",
					"type": "address"
				},
				{
					"indexed": true,
					"internalType": "address",
					"name": "proxyAddress",
					"type": "address"
				}
			],
			"name": "AccountCreated",
			"type": "event"
		},
		{
			"inputs": [
				{
					"components": [
						{
							"internalType": "address",
							"name": "_user",
							"type": "address"
						},
						{
							"internalType": "address",
							"name": "_collateralToken",
							"type": "address"
						},
						{
							"internalType": "uint256",
							"name": "_collateralAmount",
							"type": "uint256"
						},
						{
							"internalType": "address",
							"name": "_tokenOut",
							"type": "address"
						},
						{
							"internalType": "uint24[]",
							"name": "_route",
							"type": "uint24[]"
						}
					],
					"internalType": "struct CompRedeem",
					"name": "params",
					"type": "tuple"
				}
			],
			"name": "compRedeem",
			"outputs": [],
			"stateMutability": "nonpayable",
			"type": "function"
		},
		{
			"inputs": [
				{
					"components": [
						{
							"internalType": "address",
							"name": "_borrowedToken",
							"type": "address"
						},
						{
							"internalType": "address",
							"name": "_tokenIn",
							"type": "address"
						},
						{
							"internalType": "uint256",
							"name": "_repayAmount",
							"type": "uint256"
						},
						{
							"internalType": "uint24[]",
							"name": "_route",
							"type": "uint24[]"
						}
					],
					"internalType": "struct CompRepay",
					"name": "params",
					"type": "tuple"
				}
			],
			"name": "compRepay",
			"outputs": [],
			"stateMutability": "nonpayable",
			"type": "function"
		},
		{
			"inputs": [
				{
					"components": [
						{
							"internalType": "address",
							"name": "_supplyAsset",
							"type": "address"
						},
						{
							"internalType": "address",
							"name": "_borrowAsset",
							"type": "address"
						},
						{
							"internalType": "address",
							"name": "_tokenOut",
							"type": "address"
						},
						{
							"internalType": "uint256",
							"name": "_supplyAmount",
							"type": "uint256"
						},
						{
							"internalType": "uint256",
							"name": "_borrowAmount",
							"type": "uint256"
						},
						{
							"internalType": "address",
							"name": "_user",
							"type": "address"
						},
						{
							"internalType": "uint24[]",
							"name": "_route",
							"type": "uint24[]"
						}
					],
					"internalType": "struct CompBorrow",
					"name": "params",
					"type": "tuple"
				}
			],
			"name": "compoundBorrow",
			"outputs": [],
			"stateMutability": "nonpayable",
			"type": "function"
		},
		{
			"inputs": [],
			"name": "logicAddress",
			"outputs": [
				{
					"internalType": "address",
					"name": "",
					"type": "address"
				}
			],
			"stateMutability": "view",
			"type": "function"
		},
		{
			"inputs": [
				{
					"internalType": "address",
					"name": "",
					"type": "address"
				}
			],
			"name": "proxyAddress",
			"outputs": [
				{
					"internalType": "address",
					"name": "",
					"type": "address"
				}
			],
			"stateMutability": "view",
			"type": "function"
		},
		{
			"inputs": [
				{
					"components": [
						{
							"internalType": "address",
							"name": "_pool",
							"type": "address"
						},
						{
							"internalType": "address",
							"name": "_supplyAsset",
							"type": "address"
						},
						{
							"internalType": "address",
							"name": "_tokenOUt",
							"type": "address"
						},
						{
							"internalType": "uint256",
							"name": "_collateral_amount",
							"type": "uint256"
						},
						{
							"internalType": "int256",
							"name": "_amount",
							"type": "int256"
						},
						{
							"internalType": "address",
							"name": "_user",
							"type": "address"
						},
						{
							"internalType": "uint24[]",
							"name": "_route",
							"type": "uint24[]"
						}
					],
					"internalType": "struct UniBorrow",
					"name": "params",
					"type": "tuple"
				}
			],
			"name": "uniBorrow",
			"outputs": [],
			"stateMutability": "nonpayable",
			"type": "function"
		},
		{
			"inputs": [
				{
					"components": [
						{
							"internalType": "address",
							"name": "_pool",
							"type": "address"
						},
						{
							"internalType": "address",
							"name": "_user",
							"type": "address"
						},
						{
							"internalType": "int256",
							"name": "_amount",
							"type": "int256"
						},
						{
							"internalType": "address",
							"name": "_tokenOut",
							"type": "address"
						},
						{
							"internalType": "uint24[]",
							"name": "_route",
							"type": "uint24[]"
						}
					],
					"internalType": "struct UniRedeem",
					"name": "params",
					"type": "tuple"
				}
			],
			"name": "uniRedeem",
			"outputs": [],
			"stateMutability": "nonpayable",
			"type": "function"
		},
		{
			"inputs": [
				{
					"components": [
						{
							"internalType": "address",
							"name": "_pool",
							"type": "address"
						},
						{
							"internalType": "address",
							"name": "_tokenIn",
							"type": "address"
						},
						{
							"internalType": "address",
							"name": "_user",
							"type": "address"
						},
						{
							"internalType": "address",
							"name": "_borrowAddress",
							"type": "address"
						},
						{
							"internalType": "uint256",
							"name": "_repayAmount",
							"type": "uint256"
						},
						{
							"internalType": "uint24[]",
							"name": "_route",
							"type": "uint24[]"
						}
					],
					"internalType": "struct UniRepay",
					"name": "params",
					"type": "tuple"
				}
			],
			"name": "uniRepay",
			"outputs": [],
			"stateMutability": "nonpayable",
			"type": "function"
		}
	]
}