{
	"data": {
		"bytecode": {
			"linkReferences": {},
			"object": "608060405234801561000f575f80fd5b50604051610eeb380380610eeb83398101604081905261002e9161009b565b6001600160a01b0381166100775760405162461bcd60e51b815260206004820152600c60248201526b7a65726f206164647265737360a01b604482015260640160405180910390fd5b5f80546001600160a01b0319166001600160a01b03929092169190911790556100c8565b5f602082840312156100ab575f80fd5b81516001600160a01b03811681146100c1575f80fd5b9392505050565b610e16806100d55f395ff3fe608060405234801561000f575f80fd5b506004361061007a575f3560e01c80639c1fcc4c116100585780639c1fcc4c146100b9578063b5c8b759146100e7578063cfcf1484146100fa578063faa9efe31461010d575f80fd5b806312aeb6f81461007e57806321d05a7514610093578063315a1451146100a6575b5f80fd5b61009161008c366004610917565b610135565b005b6100916100a1366004610979565b6101fa565b6100916100b4366004610ab9565b610333565b5f546100cb906001600160a01b031681565b6040516001600160a01b03909116815260200160405180910390f35b6100916100f5366004610b46565b610407565b610091610108366004610bc9565b6104cc565b6100cb61011b366004610c13565b60016020525f90815260409020546001600160a01b031681565b335f818152600160205260409020546001600160a01b03169061015b9087908385610592565b6040517f501f5dbe0000000000000000000000000000000000000000000000000000000081526001600160a01b0388811660048301528781166024830152868116604483015285811660648301526084820185905260a4820184905282169063501f5dbe9060c4015b5f604051808303815f87803b1580156101db575f80fd5b505af11580156101ed573d5f803e3d5ffd5b5050505050505050505050565b335f908152600160205260409020546001600160a01b03166102205761021e6106ca565b505b335f81815260016020908152604091829020548251808401909352601583527f636f6e7472616374207573657220616464726573730000000000000000000000918301919091526001600160a01b03169161027c918391610815565b61028887338387610592565b6102c66040518060400160405280602081526020017f736166655472616e73666572656420746f204c6f67696320436f6e747261637481525061087a565b6040517fa6d7f5300000000000000000000000000000000000000000000000000000000081526001600160a01b03888116600483015287811660248301528681166044830152606482018690526084820185905283811660a483015282169063a6d7f5309060c4016101c4565b335f908152600160205260409020546001600160a01b0316610359576103576106ca565b505b335f818152600160205260409020546001600160a01b03169061037f9088908388610592565b6040517fd2ef04d40000000000000000000000000000000000000000000000000000000081526001600160a01b0382169063d2ef04d4906103d0908b908b908b908b908b908b908b90600401610c71565b5f604051808303815f87803b1580156103e7575f80fd5b505af11580156103f9573d5f803e3d5ffd5b505050505050505050505050565b335f908152600160205260409020546001600160a01b0316806104715760405162461bcd60e51b815260206004820152601d60248201527f4e6f20626f72726f7720706f736974696f6e20617661696c61626c652100000060448201526064015b60405180910390fd5b61047d86338386610592565b6040517fb5c8b7590000000000000000000000000000000000000000000000000000000081526001600160a01b0382169063b5c8b759906101c4908a908a908a908a908a908a90600401610cc5565b335f908152600160205260409020546001600160a01b03166104f2576104f06106ca565b505b335f90815260016020526040908190205490517fac7cccb00000000000000000000000000000000000000000000000000000000081526001600160a01b038681166004830152858116602483015260448201859052838116606483015290911690819063ac7cccb0906084015f604051808303815f87803b158015610575575f80fd5b505af1158015610587573d5f803e3d5ffd5b505050505050505050565b604080516001600160a01b0385811660248301528481166044830152606480830185905283518084039091018152608490920183526020820180516001600160e01b03167f23b872dd0000000000000000000000000000000000000000000000000000000017905291515f9283929088169161060e9190610d34565b5f604051808303815f865af19150503d805f8114610647576040519150601f19603f3d011682016040523d82523d5f602084013e61064c565b606091505b50915091508180156106765750805115806106765750808060200190518101906106769190610d4f565b6106c25760405162461bcd60e51b815260206004820152600360248201527f53544600000000000000000000000000000000000000000000000000000000006044820152606401610468565b505050505050565b335f908152600160205260408120546001600160a01b0316156107555760405162461bcd60e51b815260206004820152602260248201527f70726f787941646472657373206372656174656420666f72207468697320757360448201527f65720000000000000000000000000000000000000000000000000000000000006064820152608401610468565b5f805f9054906101000a90046001600160a01b031660601b90506040517f3d602d80600a3d3981f3363d3d373d3d3d363d7300000000000000000000000081528160148201527f5af43d82803e903d91602b57fd5bf3000000000000000000000000000000000060288201526037815ff0925050816107d2575f80fd5b50335f90815260016020526040902080547fffffffffffffffffffffffff0000000000000000000000000000000000000000166001600160a01b03831617905590565b61087583838360405160240161082d93929190610d99565b60408051601f198184030181529190526020810180516001600160e01b03167ff08744e8000000000000000000000000000000000000000000000000000000001790526108d9565b505050565b6108d68160405160240161088e9190610dce565b60408051601f198184030181529190526020810180516001600160e01b03167f41304fac000000000000000000000000000000000000000000000000000000001790526108d9565b50565b6108d6815f6a636f6e736f6c652e6c6f6790505f80835160208501845afa505050565b80356001600160a01b0381168114610912575f80fd5b919050565b5f805f805f8060c0878903121561092c575f80fd5b610935876108fc565b9550610943602088016108fc565b9450610951604088016108fc565b935061095f606088016108fc565b92506080870135915060a087013590509295509295509295565b5f805f805f8060c0878903121561098e575f80fd5b610997876108fc565b95506109a5602088016108fc565b94506109b3604088016108fc565b935060608701359250608087013591506109cf60a088016108fc565b90509295509295509295565b7f4e487b71000000000000000000000000000000000000000000000000000000005f52604160045260245ffd5b803562ffffff81168114610912575f80fd5b5f82601f830112610a29575f80fd5b8135602067ffffffffffffffff80831115610a4657610a466109db565b8260051b604051601f19603f83011681018181108482111715610a6b57610a6b6109db565b604052938452858101830193838101925087851115610a88575f80fd5b83870191505b84821015610aae57610a9f82610a08565b83529183019190830190610a8e565b979650505050505050565b5f805f805f805f60e0888a031215610acf575f80fd5b610ad8886108fc565b9650610ae6602089016108fc565b9550610af4604089016108fc565b94506060880135935060808801359250610b1060a089016108fc565b915060c088013567ffffffffffffffff811115610b2b575f80fd5b610b378a828b01610a1a565b91505092959891949750929550565b5f805f805f8060c08789031215610b5b575f80fd5b610b64876108fc565b9550610b72602088016108fc565b9450610b80604088016108fc565b9350610b8e606088016108fc565b92506080870135915060a087013567ffffffffffffffff811115610bb0575f80fd5b610bbc89828a01610a1a565b9150509295509295509295565b5f805f8060808587031215610bdc575f80fd5b610be5856108fc565b9350610bf3602086016108fc565b925060408501359150610c08606086016108fc565b905092959194509250565b5f60208284031215610c23575f80fd5b610c2c826108fc565b9392505050565b5f8151808452602080850194508084015f5b83811015610c6657815162ffffff1687529582019590820190600101610c45565b509495945050505050565b5f6001600160a01b03808a1683528089166020840152808816604084015286606084015285608084015280851660a08401525060e060c0830152610cb860e0830184610c33565b9998505050505050505050565b5f6001600160a01b0380891683528088166020840152808716604084015280861660608401525083608083015260c060a0830152610d0660c0830184610c33565b98975050505050505050565b5f5b83811015610d2c578181015183820152602001610d14565b50505f910152565b5f8251610d45818460208701610d12565b9190910192915050565b5f60208284031215610d5f575f80fd5b81518015158114610c2c575f80fd5b5f8151808452610d85816020860160208601610d12565b601f01601f19169290920160200192915050565b5f6001600160a01b03808616835260606020840152610dbb6060840186610d6e565b9150808416604084015250949350505050565b602081525f610c2c6020830184610d6e56fea2646970667358221220700b683d2f7afa9b7099bb41cb3e4f968df0b07fcf100cdeb80ce3a56c4ef56d64736f6c63430008140033",
			"opcodes": "PUSH1 0x80 PUSH1 0x40 MSTORE CALLVALUE DUP1 ISZERO PUSH2 0xF JUMPI PUSH0 DUP1 REVERT JUMPDEST POP PUSH1 0x40 MLOAD PUSH2 0xEEB CODESIZE SUB DUP1 PUSH2 0xEEB DUP4 CODECOPY DUP2 ADD PUSH1 0x40 DUP2 SWAP1 MSTORE PUSH2 0x2E SWAP2 PUSH2 0x9B JUMP JUMPDEST PUSH1 0x1 PUSH1 0x1 PUSH1 0xA0 SHL SUB DUP2 AND PUSH2 0x77 JUMPI PUSH1 0x40 MLOAD PUSH3 0x461BCD PUSH1 0xE5 SHL DUP2 MSTORE PUSH1 0x20 PUSH1 0x4 DUP3 ADD MSTORE PUSH1 0xC PUSH1 0x24 DUP3 ADD MSTORE PUSH12 0x7A65726F2061646472657373 PUSH1 0xA0 SHL PUSH1 0x44 DUP3 ADD MSTORE PUSH1 0x64 ADD PUSH1 0x40 MLOAD DUP1 SWAP2 SUB SWAP1 REVERT JUMPDEST PUSH0 DUP1 SLOAD PUSH1 0x1 PUSH1 0x1 PUSH1 0xA0 SHL SUB NOT AND PUSH1 0x1 PUSH1 0x1 PUSH1 0xA0 SHL SUB SWAP3 SWAP1 SWAP3 AND SWAP2 SWAP1 SWAP2 OR SWAP1 SSTORE PUSH2 0xC8 JUMP JUMPDEST PUSH0 PUSH1 0x20 DUP3 DUP5 SUB SLT ISZERO PUSH2 0xAB JUMPI PUSH0 DUP1 REVERT JUMPDEST DUP2 MLOAD PUSH1 0x1 PUSH1 0x1 PUSH1 0xA0 SHL SUB DUP2 AND DUP2 EQ PUSH2 0xC1 JUMPI PUSH0 DUP1 REVERT JUMPDEST SWAP4 SWAP3 POP POP POP JUMP JUMPDEST PUSH2 0xE16 DUP1 PUSH2 0xD5 PUSH0 CODECOPY PUSH0 RETURN INVALID PUSH1 0x80 PUSH1 0x40 MSTORE CALLVALUE DUP1 ISZERO PUSH2 0xF JUMPI PUSH0 DUP1 REVERT JUMPDEST POP PUSH1 0x4 CALLDATASIZE LT PUSH2 0x7A JUMPI PUSH0 CALLDATALOAD PUSH1 0xE0 SHR DUP1 PUSH4 0x9C1FCC4C GT PUSH2 0x58 JUMPI DUP1 PUSH4 0x9C1FCC4C EQ PUSH2 0xB9 JUMPI DUP1 PUSH4 0xB5C8B759 EQ PUSH2 0xE7 JUMPI DUP1 PUSH4 0xCFCF1484 EQ PUSH2 0xFA JUMPI DUP1 PUSH4 0xFAA9EFE3 EQ PUSH2 0x10D JUMPI PUSH0 DUP1 REVERT JUMPDEST DUP1 PUSH4 0x12AEB6F8 EQ PUSH2 0x7E JUMPI DUP1 PUSH4 0x21D05A75 EQ PUSH2 0x93 JUMPI DUP1 PUSH4 0x315A1451 EQ PUSH2 0xA6 JUMPI JUMPDEST PUSH0 DUP1 REVERT JUMPDEST PUSH2 0x91 PUSH2 0x8C CALLDATASIZE PUSH1 0x4 PUSH2 0x917 JUMP JUMPDEST PUSH2 0x135 JUMP JUMPDEST STOP JUMPDEST PUSH2 0x91 PUSH2 0xA1 CALLDATASIZE PUSH1 0x4 PUSH2 0x979 JUMP JUMPDEST PUSH2 0x1FA JUMP JUMPDEST PUSH2 0x91 PUSH2 0xB4 CALLDATASIZE PUSH1 0x4 PUSH2 0xAB9 JUMP JUMPDEST PUSH2 0x333 JUMP JUMPDEST PUSH0 SLOAD PUSH2 0xCB SWAP1 PUSH1 0x1 PUSH1 0x1 PUSH1 0xA0 SHL SUB AND DUP2 JUMP JUMPDEST PUSH1 0x40 MLOAD PUSH1 0x1 PUSH1 0x1 PUSH1 0xA0 SHL SUB SWAP1 SWAP2 AND DUP2 MSTORE PUSH1 0x20 ADD PUSH1 0x40 MLOAD DUP1 SWAP2 SUB SWAP1 RETURN JUMPDEST PUSH2 0x91 PUSH2 0xF5 CALLDATASIZE PUSH1 0x4 PUSH2 0xB46 JUMP JUMPDEST PUSH2 0x407 JUMP JUMPDEST PUSH2 0x91 PUSH2 0x108 CALLDATASIZE PUSH1 0x4 PUSH2 0xBC9 JUMP JUMPDEST PUSH2 0x4CC JUMP JUMPDEST PUSH2 0xCB PUSH2 0x11B CALLDATASIZE PUSH1 0x4 PUSH2 0xC13 JUMP JUMPDEST PUSH1 0x1 PUSH1 0x20 MSTORE PUSH0 SWAP1 DUP2 MSTORE PUSH1 0x40 SWAP1 KECCAK256 SLOAD PUSH1 0x1 PUSH1 0x1 PUSH1 0xA0 SHL SUB AND DUP2 JUMP JUMPDEST CALLER PUSH0 DUP2 DUP2 MSTORE PUSH1 0x1 PUSH1 0x20 MSTORE PUSH1 0x40 SWAP1 KECCAK256 SLOAD PUSH1 0x1 PUSH1 0x1 PUSH1 0xA0 SHL SUB AND SWAP1 PUSH2 0x15B SWAP1 DUP8 SWAP1 DUP4 DUP6 PUSH2 0x592 JUMP JUMPDEST PUSH1 0x40 MLOAD PUSH32 0x501F5DBE00000000000000000000000000000000000000000000000000000000 DUP2 MSTORE PUSH1 0x1 PUSH1 0x1 PUSH1 0xA0 SHL SUB DUP9 DUP2 AND PUSH1 0x4 DUP4 ADD MSTORE DUP8 DUP2 AND PUSH1 0x24 DUP4 ADD MSTORE DUP7 DUP2 AND PUSH1 0x44 DUP4 ADD MSTORE DUP6 DUP2 AND PUSH1 0x64 DUP4 ADD MSTORE PUSH1 0x84 DUP3 ADD DUP6 SWAP1 MSTORE PUSH1 0xA4 DUP3 ADD DUP5 SWAP1 MSTORE DUP3 AND SWAP1 PUSH4 0x501F5DBE SWAP1 PUSH1 0xC4 ADD JUMPDEST PUSH0 PUSH1 0x40 MLOAD DUP1 DUP4 SUB DUP2 PUSH0 DUP8 DUP1 EXTCODESIZE ISZERO DUP1 ISZERO PUSH2 0x1DB JUMPI PUSH0 DUP1 REVERT JUMPDEST POP GAS CALL ISZERO DUP1 ISZERO PUSH2 0x1ED JUMPI RETURNDATASIZE PUSH0 DUP1 RETURNDATACOPY RETURNDATASIZE PUSH0 REVERT JUMPDEST POP POP POP POP POP POP POP POP POP POP POP JUMP JUMPDEST CALLER PUSH0 SWAP1 DUP2 MSTORE PUSH1 0x1 PUSH1 0x20 MSTORE PUSH1 0x40 SWAP1 KECCAK256 SLOAD PUSH1 0x1 PUSH1 0x1 PUSH1 0xA0 SHL SUB AND PUSH2 0x220 JUMPI PUSH2 0x21E PUSH2 0x6CA JUMP JUMPDEST POP JUMPDEST CALLER PUSH0 DUP2 DUP2 MSTORE PUSH1 0x1 PUSH1 0x20 SWAP1 DUP2 MSTORE PUSH1 0x40 SWAP2 DUP3 SWAP1 KECCAK256 SLOAD DUP3 MLOAD DUP1 DUP5 ADD SWAP1 SWAP4 MSTORE PUSH1 0x15 DUP4 MSTORE PUSH32 0x636F6E7472616374207573657220616464726573730000000000000000000000 SWAP2 DUP4 ADD SWAP2 SWAP1 SWAP2 MSTORE PUSH1 0x1 PUSH1 0x1 PUSH1 0xA0 SHL SUB AND SWAP2 PUSH2 0x27C SWAP2 DUP4 SWAP2 PUSH2 0x815 JUMP JUMPDEST PUSH2 0x288 DUP8 CALLER DUP4 DUP8 PUSH2 0x592 JUMP JUMPDEST PUSH2 0x2C6 PUSH1 0x40 MLOAD DUP1 PUSH1 0x40 ADD PUSH1 0x40 MSTORE DUP1 PUSH1 0x20 DUP2 MSTORE PUSH1 0x20 ADD PUSH32 0x736166655472616E73666572656420746F204C6F67696320436F6E7472616374 DUP2 MSTORE POP PUSH2 0x87A JUMP JUMPDEST PUSH1 0x40 MLOAD PUSH32 0xA6D7F53000000000000000000000000000000000000000000000000000000000 DUP2 MSTORE PUSH1 0x1 PUSH1 0x1 PUSH1 0xA0 SHL SUB DUP9 DUP2 AND PUSH1 0x4 DUP4 ADD MSTORE DUP8 DUP2 AND PUSH1 0x24 DUP4 ADD MSTORE DUP7 DUP2 AND PUSH1 0x44 DUP4 ADD MSTORE PUSH1 0x64 DUP3 ADD DUP7 SWAP1 MSTORE PUSH1 0x84 DUP3 ADD DUP6 SWAP1 MSTORE DUP4 DUP2 AND PUSH1 0xA4 DUP4 ADD MSTORE DUP3 AND SWAP1 PUSH4 0xA6D7F530 SWAP1 PUSH1 0xC4 ADD PUSH2 0x1C4 JUMP JUMPDEST CALLER PUSH0 SWAP1 DUP2 MSTORE PUSH1 0x1 PUSH1 0x20 MSTORE PUSH1 0x40 SWAP1 KECCAK256 SLOAD PUSH1 0x1 PUSH1 0x1 PUSH1 0xA0 SHL SUB AND PUSH2 0x359 JUMPI PUSH2 0x357 PUSH2 0x6CA JUMP JUMPDEST POP JUMPDEST CALLER PUSH0 DUP2 DUP2 MSTORE PUSH1 0x1 PUSH1 0x20 MSTORE PUSH1 0x40 SWAP1 KECCAK256 SLOAD PUSH1 0x1 PUSH1 0x1 PUSH1 0xA0 SHL SUB AND SWAP1 PUSH2 0x37F SWAP1 DUP9 SWAP1 DUP4 DUP9 PUSH2 0x592 JUMP JUMPDEST PUSH1 0x40 MLOAD PUSH32 0xD2EF04D400000000000000000000000000000000000000000000000000000000 DUP2 MSTORE PUSH1 0x1 PUSH1 0x1 PUSH1 0xA0 SHL SUB DUP3 AND SWAP1 PUSH4 0xD2EF04D4 SWAP1 PUSH2 0x3D0 SWAP1 DUP12 SWAP1 DUP12 SWAP1 DUP12 SWAP1 DUP12 SWAP1 DUP12 SWAP1 DUP12 SWAP1 DUP12 SWAP1 PUSH1 0x4 ADD PUSH2 0xC71 JUMP JUMPDEST PUSH0 PUSH1 0x40 MLOAD DUP1 DUP4 SUB DUP2 PUSH0 DUP8 DUP1 EXTCODESIZE ISZERO DUP1 ISZERO PUSH2 0x3E7 JUMPI PUSH0 DUP1 REVERT JUMPDEST POP GAS CALL ISZERO DUP1 ISZERO PUSH2 0x3F9 JUMPI RETURNDATASIZE PUSH0 DUP1 RETURNDATACOPY RETURNDATASIZE PUSH0 REVERT JUMPDEST POP POP POP POP POP POP POP POP POP POP POP POP JUMP JUMPDEST CALLER PUSH0 SWAP1 DUP2 MSTORE PUSH1 0x1 PUSH1 0x20 MSTORE PUSH1 0x40 SWAP1 KECCAK256 SLOAD PUSH1 0x1 PUSH1 0x1 PUSH1 0xA0 SHL SUB AND DUP1 PUSH2 0x471 JUMPI PUSH1 0x40 MLOAD PUSH3 0x461BCD PUSH1 0xE5 SHL DUP2 MSTORE PUSH1 0x20 PUSH1 0x4 DUP3 ADD MSTORE PUSH1 0x1D PUSH1 0x24 DUP3 ADD MSTORE PUSH32 0x4E6F20626F72726F7720706F736974696F6E20617661696C61626C6521000000 PUSH1 0x44 DUP3 ADD MSTORE PUSH1 0x64 ADD JUMPDEST PUSH1 0x40 MLOAD DUP1 SWAP2 SUB SWAP1 REVERT JUMPDEST PUSH2 0x47D DUP7 CALLER DUP4 DUP7 PUSH2 0x592 JUMP JUMPDEST PUSH1 0x40 MLOAD PUSH32 0xB5C8B75900000000000000000000000000000000000000000000000000000000 DUP2 MSTORE PUSH1 0x1 PUSH1 0x1 PUSH1 0xA0 SHL SUB DUP3 AND SWAP1 PUSH4 0xB5C8B759 SWAP1 PUSH2 0x1C4 SWAP1 DUP11 SWAP1 DUP11 SWAP1 DUP11 SWAP1 DUP11 SWAP1 DUP11 SWAP1 DUP11 SWAP1 PUSH1 0x4 ADD PUSH2 0xCC5 JUMP JUMPDEST CALLER PUSH0 SWAP1 DUP2 MSTORE PUSH1 0x1 PUSH1 0x20 MSTORE PUSH1 0x40 SWAP1 KECCAK256 SLOAD PUSH1 0x1 PUSH1 0x1 PUSH1 0xA0 SHL SUB AND PUSH2 0x4F2 JUMPI PUSH2 0x4F0 PUSH2 0x6CA JUMP JUMPDEST POP JUMPDEST CALLER PUSH0 SWAP1 DUP2 MSTORE PUSH1 0x1 PUSH1 0x20 MSTORE PUSH1 0x40 SWAP1 DUP2 SWAP1 KECCAK256 SLOAD SWAP1 MLOAD PUSH32 0xAC7CCCB000000000000000000000000000000000000000000000000000000000 DUP2 MSTORE PUSH1 0x1 PUSH1 0x1 PUSH1 0xA0 SHL SUB DUP7 DUP2 AND PUSH1 0x4 DUP4 ADD MSTORE DUP6 DUP2 AND PUSH1 0x24 DUP4 ADD MSTORE PUSH1 0x44 DUP3 ADD DUP6 SWAP1 MSTORE DUP4 DUP2 AND PUSH1 0x64 DUP4 ADD MSTORE SWAP1 SWAP2 AND SWAP1 DUP2 SWAP1 PUSH4 0xAC7CCCB0 SWAP1 PUSH1 0x84 ADD PUSH0 PUSH1 0x40 MLOAD DUP1 DUP4 SUB DUP2 PUSH0 DUP8 DUP1 EXTCODESIZE ISZERO DUP1 ISZERO PUSH2 0x575 JUMPI PUSH0 DUP1 REVERT JUMPDEST POP GAS CALL ISZERO DUP1 ISZERO PUSH2 0x587 JUMPI RETURNDATASIZE PUSH0 DUP1 RETURNDATACOPY RETURNDATASIZE PUSH0 REVERT JUMPDEST POP POP POP POP POP POP POP POP POP JUMP JUMPDEST PUSH1 0x40 DUP1 MLOAD PUSH1 0x1 PUSH1 0x1 PUSH1 0xA0 SHL SUB DUP6 DUP2 AND PUSH1 0x24 DUP4 ADD MSTORE DUP5 DUP2 AND PUSH1 0x44 DUP4 ADD MSTORE PUSH1 0x64 DUP1 DUP4 ADD DUP6 SWAP1 MSTORE DUP4 MLOAD DUP1 DUP5 SUB SWAP1 SWAP2 ADD DUP2 MSTORE PUSH1 0x84 SWAP1 SWAP3 ADD DUP4 MSTORE PUSH1 0x20 DUP3 ADD DUP1 MLOAD PUSH1 0x1 PUSH1 0x1 PUSH1 0xE0 SHL SUB AND PUSH32 0x23B872DD00000000000000000000000000000000000000000000000000000000 OR SWAP1 MSTORE SWAP2 MLOAD PUSH0 SWAP3 DUP4 SWAP3 SWAP1 DUP9 AND SWAP2 PUSH2 0x60E SWAP2 SWAP1 PUSH2 0xD34 JUMP JUMPDEST PUSH0 PUSH1 0x40 MLOAD DUP1 DUP4 SUB DUP2 PUSH0 DUP7 GAS CALL SWAP2 POP POP RETURNDATASIZE DUP1 PUSH0 DUP2 EQ PUSH2 0x647 JUMPI PUSH1 0x40 MLOAD SWAP2 POP PUSH1 0x1F NOT PUSH1 0x3F RETURNDATASIZE ADD AND DUP3 ADD PUSH1 0x40 MSTORE RETURNDATASIZE DUP3 MSTORE RETURNDATASIZE PUSH0 PUSH1 0x20 DUP5 ADD RETURNDATACOPY PUSH2 0x64C JUMP JUMPDEST PUSH1 0x60 SWAP2 POP JUMPDEST POP SWAP2 POP SWAP2 POP DUP2 DUP1 ISZERO PUSH2 0x676 JUMPI POP DUP1 MLOAD ISZERO DUP1 PUSH2 0x676 JUMPI POP DUP1 DUP1 PUSH1 0x20 ADD SWAP1 MLOAD DUP2 ADD SWAP1 PUSH2 0x676 SWAP2 SWAP1 PUSH2 0xD4F JUMP JUMPDEST PUSH2 0x6C2 JUMPI PUSH1 0x40 MLOAD PUSH3 0x461BCD PUSH1 0xE5 SHL DUP2 MSTORE PUSH1 0x20 PUSH1 0x4 DUP3 ADD MSTORE PUSH1 0x3 PUSH1 0x24 DUP3 ADD MSTORE PUSH32 0x5354460000000000000000000000000000000000000000000000000000000000 PUSH1 0x44 DUP3 ADD MSTORE PUSH1 0x64 ADD PUSH2 0x468 JUMP JUMPDEST POP POP POP POP POP POP JUMP JUMPDEST CALLER PUSH0 SWAP1 DUP2 MSTORE PUSH1 0x1 PUSH1 0x20 MSTORE PUSH1 0x40 DUP2 KECCAK256 SLOAD PUSH1 0x1 PUSH1 0x1 PUSH1 0xA0 SHL SUB AND ISZERO PUSH2 0x755 JUMPI PUSH1 0x40 MLOAD PUSH3 0x461BCD PUSH1 0xE5 SHL DUP2 MSTORE PUSH1 0x20 PUSH1 0x4 DUP3 ADD MSTORE PUSH1 0x22 PUSH1 0x24 DUP3 ADD MSTORE PUSH32 0x70726F787941646472657373206372656174656420666F722074686973207573 PUSH1 0x44 DUP3 ADD MSTORE PUSH32 0x6572000000000000000000000000000000000000000000000000000000000000 PUSH1 0x64 DUP3 ADD MSTORE PUSH1 0x84 ADD PUSH2 0x468 JUMP JUMPDEST PUSH0 DUP1 PUSH0 SWAP1 SLOAD SWAP1 PUSH2 0x100 EXP SWAP1 DIV PUSH1 0x1 PUSH1 0x1 PUSH1 0xA0 SHL SUB AND PUSH1 0x60 SHL SWAP1 POP PUSH1 0x40 MLOAD PUSH32 0x3D602D80600A3D3981F3363D3D373D3D3D363D73000000000000000000000000 DUP2 MSTORE DUP2 PUSH1 0x14 DUP3 ADD MSTORE PUSH32 0x5AF43D82803E903D91602B57FD5BF30000000000000000000000000000000000 PUSH1 0x28 DUP3 ADD MSTORE PUSH1 0x37 DUP2 PUSH0 CREATE SWAP3 POP POP DUP2 PUSH2 0x7D2 JUMPI PUSH0 DUP1 REVERT JUMPDEST POP CALLER PUSH0 SWAP1 DUP2 MSTORE PUSH1 0x1 PUSH1 0x20 MSTORE PUSH1 0x40 SWAP1 KECCAK256 DUP1 SLOAD PUSH32 0xFFFFFFFFFFFFFFFFFFFFFFFF0000000000000000000000000000000000000000 AND PUSH1 0x1 PUSH1 0x1 PUSH1 0xA0 SHL SUB DUP4 AND OR SWAP1 SSTORE SWAP1 JUMP JUMPDEST PUSH2 0x875 DUP4 DUP4 DUP4 PUSH1 0x40 MLOAD PUSH1 0x24 ADD PUSH2 0x82D SWAP4 SWAP3 SWAP2 SWAP1 PUSH2 0xD99 JUMP JUMPDEST PUSH1 0x40 DUP1 MLOAD PUSH1 0x1F NOT DUP2 DUP5 SUB ADD DUP2 MSTORE SWAP2 SWAP1 MSTORE PUSH1 0x20 DUP2 ADD DUP1 MLOAD PUSH1 0x1 PUSH1 0x1 PUSH1 0xE0 SHL SUB AND PUSH32 0xF08744E800000000000000000000000000000000000000000000000000000000 OR SWAP1 MSTORE PUSH2 0x8D9 JUMP JUMPDEST POP POP POP JUMP JUMPDEST PUSH2 0x8D6 DUP2 PUSH1 0x40 MLOAD PUSH1 0x24 ADD PUSH2 0x88E SWAP2 SWAP1 PUSH2 0xDCE JUMP JUMPDEST PUSH1 0x40 DUP1 MLOAD PUSH1 0x1F NOT DUP2 DUP5 SUB ADD DUP2 MSTORE SWAP2 SWAP1 MSTORE PUSH1 0x20 DUP2 ADD DUP1 MLOAD PUSH1 0x1 PUSH1 0x1 PUSH1 0xE0 SHL SUB AND PUSH32 0x41304FAC00000000000000000000000000000000000000000000000000000000 OR SWAP1 MSTORE PUSH2 0x8D9 JUMP JUMPDEST POP JUMP JUMPDEST PUSH2 0x8D6 DUP2 PUSH0 PUSH11 0x636F6E736F6C652E6C6F67 SWAP1 POP PUSH0 DUP1 DUP4 MLOAD PUSH1 0x20 DUP6 ADD DUP5 GAS STATICCALL POP POP POP JUMP JUMPDEST DUP1 CALLDATALOAD PUSH1 0x1 PUSH1 0x1 PUSH1 0xA0 SHL SUB DUP2 AND DUP2 EQ PUSH2 0x912 JUMPI PUSH0 DUP1 REVERT JUMPDEST SWAP2 SWAP1 POP JUMP JUMPDEST PUSH0 DUP1 PUSH0 DUP1 PUSH0 DUP1 PUSH1 0xC0 DUP8 DUP10 SUB SLT ISZERO PUSH2 0x92C JUMPI PUSH0 DUP1 REVERT JUMPDEST PUSH2 0x935 DUP8 PUSH2 0x8FC JUMP JUMPDEST SWAP6 POP PUSH2 0x943 PUSH1 0x20 DUP9 ADD PUSH2 0x8FC JUMP JUMPDEST SWAP5 POP PUSH2 0x951 PUSH1 0x40 DUP9 ADD PUSH2 0x8FC JUMP JUMPDEST SWAP4 POP PUSH2 0x95F PUSH1 0x60 DUP9 ADD PUSH2 0x8FC JUMP JUMPDEST SWAP3 POP PUSH1 0x80 DUP8 ADD CALLDATALOAD SWAP2 POP PUSH1 0xA0 DUP8 ADD CALLDATALOAD SWAP1 POP SWAP3 SWAP6 POP SWAP3 SWAP6 POP SWAP3 SWAP6 JUMP JUMPDEST PUSH0 DUP1 PUSH0 DUP1 PUSH0 DUP1 PUSH1 0xC0 DUP8 DUP10 SUB SLT ISZERO PUSH2 0x98E JUMPI PUSH0 DUP1 REVERT JUMPDEST PUSH2 0x997 DUP8 PUSH2 0x8FC JUMP JUMPDEST SWAP6 POP PUSH2 0x9A5 PUSH1 0x20 DUP9 ADD PUSH2 0x8FC JUMP JUMPDEST SWAP5 POP PUSH2 0x9B3 PUSH1 0x40 DUP9 ADD PUSH2 0x8FC JUMP JUMPDEST SWAP4 POP PUSH1 0x60 DUP8 ADD CALLDATALOAD SWAP3 POP PUSH1 0x80 DUP8 ADD CALLDATALOAD SWAP2 POP PUSH2 0x9CF PUSH1 0xA0 DUP9 ADD PUSH2 0x8FC JUMP JUMPDEST SWAP1 POP SWAP3 SWAP6 POP SWAP3 SWAP6 POP SWAP3 SWAP6 JUMP JUMPDEST PUSH32 0x4E487B7100000000000000000000000000000000000000000000000000000000 PUSH0 MSTORE PUSH1 0x41 PUSH1 0x4 MSTORE PUSH1 0x24 PUSH0 REVERT JUMPDEST DUP1 CALLDATALOAD PUSH3 0xFFFFFF DUP2 AND DUP2 EQ PUSH2 0x912 JUMPI PUSH0 DUP1 REVERT JUMPDEST PUSH0 DUP3 PUSH1 0x1F DUP4 ADD SLT PUSH2 0xA29 JUMPI PUSH0 DUP1 REVERT JUMPDEST DUP2 CALLDATALOAD PUSH1 0x20 PUSH8 0xFFFFFFFFFFFFFFFF DUP1 DUP4 GT ISZERO PUSH2 0xA46 JUMPI PUSH2 0xA46 PUSH2 0x9DB JUMP JUMPDEST DUP3 PUSH1 0x5 SHL PUSH1 0x40 MLOAD PUSH1 0x1F NOT PUSH1 0x3F DUP4 ADD AND DUP2 ADD DUP2 DUP2 LT DUP5 DUP3 GT OR ISZERO PUSH2 0xA6B JUMPI PUSH2 0xA6B PUSH2 0x9DB JUMP JUMPDEST PUSH1 0x40 MSTORE SWAP4 DUP5 MSTORE DUP6 DUP2 ADD DUP4 ADD SWAP4 DUP4 DUP2 ADD SWAP3 POP DUP8 DUP6 GT ISZERO PUSH2 0xA88 JUMPI PUSH0 DUP1 REVERT JUMPDEST DUP4 DUP8 ADD SWAP2 POP JUMPDEST DUP5 DUP3 LT ISZERO PUSH2 0xAAE JUMPI PUSH2 0xA9F DUP3 PUSH2 0xA08 JUMP JUMPDEST DUP4 MSTORE SWAP2 DUP4 ADD SWAP2 SWAP1 DUP4 ADD SWAP1 PUSH2 0xA8E JUMP JUMPDEST SWAP8 SWAP7 POP POP POP POP POP POP POP JUMP JUMPDEST PUSH0 DUP1 PUSH0 DUP1 PUSH0 DUP1 PUSH0 PUSH1 0xE0 DUP9 DUP11 SUB SLT ISZERO PUSH2 0xACF JUMPI PUSH0 DUP1 REVERT JUMPDEST PUSH2 0xAD8 DUP9 PUSH2 0x8FC JUMP JUMPDEST SWAP7 POP PUSH2 0xAE6 PUSH1 0x20 DUP10 ADD PUSH2 0x8FC JUMP JUMPDEST SWAP6 POP PUSH2 0xAF4 PUSH1 0x40 DUP10 ADD PUSH2 0x8FC JUMP JUMPDEST SWAP5 POP PUSH1 0x60 DUP9 ADD CALLDATALOAD SWAP4 POP PUSH1 0x80 DUP9 ADD CALLDATALOAD SWAP3 POP PUSH2 0xB10 PUSH1 0xA0 DUP10 ADD PUSH2 0x8FC JUMP JUMPDEST SWAP2 POP PUSH1 0xC0 DUP9 ADD CALLDATALOAD PUSH8 0xFFFFFFFFFFFFFFFF DUP2 GT ISZERO PUSH2 0xB2B JUMPI PUSH0 DUP1 REVERT JUMPDEST PUSH2 0xB37 DUP11 DUP3 DUP12 ADD PUSH2 0xA1A JUMP JUMPDEST SWAP2 POP POP SWAP3 SWAP6 SWAP9 SWAP2 SWAP5 SWAP8 POP SWAP3 SWAP6 POP JUMP JUMPDEST PUSH0 DUP1 PUSH0 DUP1 PUSH0 DUP1 PUSH1 0xC0 DUP8 DUP10 SUB SLT ISZERO PUSH2 0xB5B JUMPI PUSH0 DUP1 REVERT JUMPDEST PUSH2 0xB64 DUP8 PUSH2 0x8FC JUMP JUMPDEST SWAP6 POP PUSH2 0xB72 PUSH1 0x20 DUP9 ADD PUSH2 0x8FC JUMP JUMPDEST SWAP5 POP PUSH2 0xB80 PUSH1 0x40 DUP9 ADD PUSH2 0x8FC JUMP JUMPDEST SWAP4 POP PUSH2 0xB8E PUSH1 0x60 DUP9 ADD PUSH2 0x8FC JUMP JUMPDEST SWAP3 POP PUSH1 0x80 DUP8 ADD CALLDATALOAD SWAP2 POP PUSH1 0xA0 DUP8 ADD CALLDATALOAD PUSH8 0xFFFFFFFFFFFFFFFF DUP2 GT ISZERO PUSH2 0xBB0 JUMPI PUSH0 DUP1 REVERT JUMPDEST PUSH2 0xBBC DUP10 DUP3 DUP11 ADD PUSH2 0xA1A JUMP JUMPDEST SWAP2 POP POP SWAP3 SWAP6 POP SWAP3 SWAP6 POP SWAP3 SWAP6 JUMP JUMPDEST PUSH0 DUP1 PUSH0 DUP1 PUSH1 0x80 DUP6 DUP8 SUB SLT ISZERO PUSH2 0xBDC JUMPI PUSH0 DUP1 REVERT JUMPDEST PUSH2 0xBE5 DUP6 PUSH2 0x8FC JUMP JUMPDEST SWAP4 POP PUSH2 0xBF3 PUSH1 0x20 DUP7 ADD PUSH2 0x8FC JUMP JUMPDEST SWAP3 POP PUSH1 0x40 DUP6 ADD CALLDATALOAD SWAP2 POP PUSH2 0xC08 PUSH1 0x60 DUP7 ADD PUSH2 0x8FC JUMP JUMPDEST SWAP1 POP SWAP3 SWAP6 SWAP2 SWAP5 POP SWAP3 POP JUMP JUMPDEST PUSH0 PUSH1 0x20 DUP3 DUP5 SUB SLT ISZERO PUSH2 0xC23 JUMPI PUSH0 DUP1 REVERT JUMPDEST PUSH2 0xC2C DUP3 PUSH2 0x8FC JUMP JUMPDEST SWAP4 SWAP3 POP POP POP JUMP JUMPDEST PUSH0 DUP2 MLOAD DUP1 DUP5 MSTORE PUSH1 0x20 DUP1 DUP6 ADD SWAP5 POP DUP1 DUP5 ADD PUSH0 JUMPDEST DUP4 DUP2 LT ISZERO PUSH2 0xC66 JUMPI DUP2 MLOAD PUSH3 0xFFFFFF AND DUP8 MSTORE SWAP6 DUP3 ADD SWAP6 SWAP1 DUP3 ADD SWAP1 PUSH1 0x1 ADD PUSH2 0xC45 JUMP JUMPDEST POP SWAP5 SWAP6 SWAP5 POP POP POP POP POP JUMP JUMPDEST PUSH0 PUSH1 0x1 PUSH1 0x1 PUSH1 0xA0 SHL SUB DUP1 DUP11 AND DUP4 MSTORE DUP1 DUP10 AND PUSH1 0x20 DUP5 ADD MSTORE DUP1 DUP9 AND PUSH1 0x40 DUP5 ADD MSTORE DUP7 PUSH1 0x60 DUP5 ADD MSTORE DUP6 PUSH1 0x80 DUP5 ADD MSTORE DUP1 DUP6 AND PUSH1 0xA0 DUP5 ADD MSTORE POP PUSH1 0xE0 PUSH1 0xC0 DUP4 ADD MSTORE PUSH2 0xCB8 PUSH1 0xE0 DUP4 ADD DUP5 PUSH2 0xC33 JUMP JUMPDEST SWAP10 SWAP9 POP POP POP POP POP POP POP POP POP JUMP JUMPDEST PUSH0 PUSH1 0x1 PUSH1 0x1 PUSH1 0xA0 SHL SUB DUP1 DUP10 AND DUP4 MSTORE DUP1 DUP9 AND PUSH1 0x20 DUP5 ADD MSTORE DUP1 DUP8 AND PUSH1 0x40 DUP5 ADD MSTORE DUP1 DUP7 AND PUSH1 0x60 DUP5 ADD MSTORE POP DUP4 PUSH1 0x80 DUP4 ADD MSTORE PUSH1 0xC0 PUSH1 0xA0 DUP4 ADD MSTORE PUSH2 0xD06 PUSH1 0xC0 DUP4 ADD DUP5 PUSH2 0xC33 JUMP JUMPDEST SWAP9 SWAP8 POP POP POP POP POP POP POP POP JUMP JUMPDEST PUSH0 JUMPDEST DUP4 DUP2 LT ISZERO PUSH2 0xD2C JUMPI DUP2 DUP2 ADD MLOAD DUP4 DUP3 ADD MSTORE PUSH1 0x20 ADD PUSH2 0xD14 JUMP JUMPDEST POP POP PUSH0 SWAP2 ADD MSTORE JUMP JUMPDEST PUSH0 DUP3 MLOAD PUSH2 0xD45 DUP2 DUP5 PUSH1 0x20 DUP8 ADD PUSH2 0xD12 JUMP JUMPDEST SWAP2 SWAP1 SWAP2 ADD SWAP3 SWAP2 POP POP JUMP JUMPDEST PUSH0 PUSH1 0x20 DUP3 DUP5 SUB SLT ISZERO PUSH2 0xD5F JUMPI PUSH0 DUP1 REVERT JUMPDEST DUP2 MLOAD DUP1 ISZERO ISZERO DUP2 EQ PUSH2 0xC2C JUMPI PUSH0 DUP1 REVERT JUMPDEST PUSH0 DUP2 MLOAD DUP1 DUP5 MSTORE PUSH2 0xD85 DUP2 PUSH1 0x20 DUP7 ADD PUSH1 0x20 DUP7 ADD PUSH2 0xD12 JUMP JUMPDEST PUSH1 0x1F ADD PUSH1 0x1F NOT AND SWAP3 SWAP1 SWAP3 ADD PUSH1 0x20 ADD SWAP3 SWAP2 POP POP JUMP JUMPDEST PUSH0 PUSH1 0x1 PUSH1 0x1 PUSH1 0xA0 SHL SUB DUP1 DUP7 AND DUP4 MSTORE PUSH1 0x60 PUSH1 0x20 DUP5 ADD MSTORE PUSH2 0xDBB PUSH1 0x60 DUP5 ADD DUP7 PUSH2 0xD6E JUMP JUMPDEST SWAP2 POP DUP1 DUP5 AND PUSH1 0x40 DUP5 ADD MSTORE POP SWAP5 SWAP4 POP POP POP POP JUMP JUMPDEST PUSH1 0x20 DUP2 MSTORE PUSH0 PUSH2 0xC2C PUSH1 0x20 DUP4 ADD DUP5 PUSH2 0xD6E JUMP INVALID LOG2 PUSH5 0x6970667358 0x22 SLT KECCAK256 PUSH17 0xB683D2F7AFA9B7099BB41CB3E4F968DF0 0xB0 PUSH32 0xCF100CDEB80CE3A56C4EF56D64736F6C63430008140033000000000000000000 "
		},
		"gasEstimates": {
			"creation": {
				"codeDepositCost": "721200",
				"executionCost": "infinite",
				"totalCost": "infinite"
			},
			"external": {
				"compoundBorrow(address,address,address,uint256,uint256,address)": "infinite",
				"logicAddress()": "2323",
				"proxyAddress(address)": "2609",
				"reapay(address,address,address,address,uint256,uint256)": "infinite",
				"uniBorrow(address,address,address,uint256,int256,address,uint24[])": "infinite",
				"uniRedeem(address,address,int256,address)": "infinite",
				"uniRepay(address,address,address,address,uint256,uint24[])": "infinite"
			},
			"internal": {
				"createAccount()": "infinite"
			}
		},
		"methodIdentifiers": {
			"compoundBorrow(address,address,address,uint256,uint256,address)": "21d05a75",
			"logicAddress()": "9c1fcc4c",
			"proxyAddress(address)": "faa9efe3",
			"reapay(address,address,address,address,uint256,uint256)": "12aeb6f8",
			"uniBorrow(address,address,address,uint256,int256,address,uint24[])": "315a1451",
			"uniRedeem(address,address,int256,address)": "cfcf1484",
			"uniRepay(address,address,address,address,uint256,uint24[])": "b5c8b759"
		}
	},
	"abi": [
		{
			"inputs": [
				{
					"internalType": "address",
					"name": "_logicAddress",
					"type": "address"
				}
			],
			"stateMutability": "nonpayable",
			"type": "constructor"
		},
		{
			"inputs": [
				{
					"internalType": "address",
					"name": "_supplyAsset",
					"type": "address"
				},
				{
					"internalType": "address",
					"name": "_borrowAsset",
					"type": "address"
				},
				{
					"internalType": "address",
					"name": "_tokenOut",
					"type": "address"
				},
				{
					"internalType": "uint256",
					"name": "_supplyAmount",
					"type": "uint256"
				},
				{
					"internalType": "uint256",
					"name": "_borrowAmount",
					"type": "uint256"
				},
				{
					"internalType": "address",
					"name": "_user",
					"type": "address"
				}
			],
			"name": "compoundBorrow",
			"outputs": [],
			"stateMutability": "nonpayable",
			"type": "function"
		},
		{
			"inputs": [],
			"name": "logicAddress",
			"outputs": [
				{
					"internalType": "address",
					"name": "",
					"type": "address"
				}
			],
			"stateMutability": "view",
			"type": "function"
		},
		{
			"inputs": [
				{
					"internalType": "address",
					"name": "",
					"type": "address"
				}
			],
			"name": "proxyAddress",
			"outputs": [
				{
					"internalType": "address",
					"name": "",
					"type": "address"
				}
			],
			"stateMutability": "view",
			"type": "function"
		},
		{
			"inputs": [
				{
					"internalType": "address",
					"name": "_borrowedToken",
					"type": "address"
				},
				{
					"internalType": "address",
					"name": "_tokenIn",
					"type": "address"
				},
				{
					"internalType": "address",
					"name": "_user",
					"type": "address"
				},
				{
					"internalType": "address",
					"name": "_collateralToken",
					"type": "address"
				},
				{
					"internalType": "uint256",
					"name": "_collateralAmount",
					"type": "uint256"
				},
				{
					"internalType": "uint256",
					"name": "_repayAmount",
					"type": "uint256"
				}
			],
			"name": "reapay",
			"outputs": [],
			"stateMutability": "nonpayable",
			"type": "function"
		},
		{
			"inputs": [
				{
					"internalType": "address",
					"name": "_pool",
					"type": "address"
				},
				{
					"internalType": "address",
					"name": "_supplyAsset",
					"type": "address"
				},
				{
					"internalType": "address",
					"name": "_tokenOUt",
					"type": "address"
				},
				{
					"internalType": "uint256",
					"name": "_collateral_amount",
					"type": "uint256"
				},
				{
					"internalType": "int256",
					"name": "_amount",
					"type": "int256"
				},
				{
					"internalType": "address",
					"name": "_user",
					"type": "address"
				},
				{
					"internalType": "uint24[]",
					"name": "_route",
					"type": "uint24[]"
				}
			],
			"name": "uniBorrow",
			"outputs": [],
			"stateMutability": "nonpayable",
			"type": "function"
		},
		{
			"inputs": [
				{
					"internalType": "address",
					"name": "_pool",
					"type": "address"
				},
				{
					"internalType": "address",
					"name": "_user",
					"type": "address"
				},
				{
					"internalType": "int256",
					"name": "_amount",
					"type": "int256"
				},
				{
					"internalType": "address",
					"name": "_tokenOut",
					"type": "address"
				}
			],
			"name": "uniRedeem",
			"outputs": [],
			"stateMutability": "nonpayable",
			"type": "function"
		},
		{
			"inputs": [
				{
					"internalType": "address",
					"name": "_pool",
					"type": "address"
				},
				{
					"internalType": "address",
					"name": "_tokenIn",
					"type": "address"
				},
				{
					"internalType": "address",
					"name": "_user",
					"type": "address"
				},
				{
					"internalType": "address",
					"name": "_borrowAddress",
					"type": "address"
				},
				{
					"internalType": "uint256",
					"name": "_repayAmount",
					"type": "uint256"
				},
				{
					"internalType": "uint24[]",
					"name": "_route",
					"type": "uint24[]"
				}
			],
			"name": "uniRepay",
			"outputs": [],
			"stateMutability": "nonpayable",
			"type": "function"
		}
	]
}